{
  "_format": "hh-sol-artifact-1",
  "contractName": "Posta",
  "sourceName": "contracts/v1/Posta.sol",
  "abi": [
    {
      "anonymous": false,
      "inputs": [
        {
          "indexed": true,
          "internalType": "address",
          "name": "owner",
          "type": "address"
        },
        {
          "indexed": true,
          "internalType": "address",
          "name": "approved",
          "type": "address"
        },
        {
          "indexed": true,
          "internalType": "uint256",
          "name": "tokenId",
          "type": "uint256"
        }
      ],
      "name": "Approval",
      "type": "event"
    },
    {
      "anonymous": false,
      "inputs": [
        {
          "indexed": true,
          "internalType": "address",
          "name": "owner",
          "type": "address"
        },
        {
          "indexed": true,
          "internalType": "address",
          "name": "operator",
          "type": "address"
        },
        {
          "indexed": false,
          "internalType": "bool",
          "name": "approved",
          "type": "bool"
        }
      ],
      "name": "ApprovalForAll",
      "type": "event"
    },
    {
      "anonymous": false,
      "inputs": [
        {
          "indexed": true,
          "internalType": "address",
          "name": "author",
          "type": "address"
        },
        {
          "indexed": true,
          "internalType": "uint256",
          "name": "tokenId",
          "type": "uint256"
        },
        {
          "indexed": false,
          "internalType": "string",
          "name": "value",
          "type": "string"
        }
      ],
      "name": "NewPost",
      "type": "event"
    },
    {
      "anonymous": false,
      "inputs": [
        {
          "indexed": true,
          "internalType": "address",
          "name": "previousOwner",
          "type": "address"
        },
        {
          "indexed": true,
          "internalType": "address",
          "name": "newOwner",
          "type": "address"
        }
      ],
      "name": "OwnershipTransferred",
      "type": "event"
    },
    {
      "anonymous": false,
      "inputs": [
        {
          "indexed": true,
          "internalType": "address",
          "name": "from",
          "type": "address"
        },
        {
          "indexed": true,
          "internalType": "address",
          "name": "to",
          "type": "address"
        },
        {
          "indexed": true,
          "internalType": "uint256",
          "name": "tokenId",
          "type": "uint256"
        }
      ],
      "name": "Transfer",
      "type": "event"
    },
    {
      "inputs": [
        {
          "internalType": "address",
          "name": "to",
          "type": "address"
        },
        {
          "internalType": "uint256",
          "name": "tokenId",
          "type": "uint256"
        }
      ],
      "name": "approve",
      "outputs": [],
      "stateMutability": "nonpayable",
      "type": "function"
    },
    {
      "inputs": [
        {
          "internalType": "address",
          "name": "owner",
          "type": "address"
        }
      ],
      "name": "balanceOf",
      "outputs": [
        {
          "internalType": "uint256",
          "name": "",
          "type": "uint256"
        }
      ],
      "stateMutability": "view",
      "type": "function"
    },
    {
      "inputs": [
        {
          "internalType": "uint256",
          "name": "tokenId",
          "type": "uint256"
        }
      ],
      "name": "getApproved",
      "outputs": [
        {
          "internalType": "address",
          "name": "",
          "type": "address"
        }
      ],
      "stateMutability": "view",
      "type": "function"
    },
    {
      "inputs": [],
      "name": "getMaxChars",
      "outputs": [
        {
          "internalType": "uint256",
          "name": "",
          "type": "uint256"
        }
      ],
      "stateMutability": "view",
      "type": "function"
    },
    {
      "inputs": [
        {
          "internalType": "uint256",
          "name": "tokenId",
          "type": "uint256"
        }
      ],
      "name": "getPost",
      "outputs": [
        {
          "components": [
            {
              "internalType": "uint256",
              "name": "supportGiven",
              "type": "uint256"
            },
            {
              "internalType": "uint256",
              "name": "supportersCount",
              "type": "uint256"
            }
          ],
          "internalType": "struct PostaStorage.PostaData",
          "name": "",
          "type": "tuple"
        }
      ],
      "stateMutability": "view",
      "type": "function"
    },
    {
      "inputs": [],
      "name": "getTokenCounter",
      "outputs": [
        {
          "internalType": "uint256",
          "name": "",
          "type": "uint256"
        }
      ],
      "stateMutability": "view",
      "type": "function"
    },
    {
      "inputs": [
        {
          "internalType": "address",
          "name": "poh",
          "type": "address"
        },
        {
          "internalType": "address",
          "name": "ubi",
          "type": "address"
        },
        {
          "internalType": "uint256",
          "name": "maxChars",
          "type": "uint256"
        }
      ],
      "name": "initialize",
      "outputs": [],
      "stateMutability": "nonpayable",
      "type": "function"
    },
    {
      "inputs": [
        {
          "internalType": "address",
          "name": "owner",
          "type": "address"
        },
        {
          "internalType": "address",
          "name": "operator",
          "type": "address"
        }
      ],
      "name": "isApprovedForAll",
      "outputs": [
        {
          "internalType": "bool",
          "name": "",
          "type": "bool"
        }
      ],
      "stateMutability": "view",
      "type": "function"
    },
    {
      "inputs": [],
      "name": "name",
      "outputs": [
        {
          "internalType": "string",
          "name": "",
          "type": "string"
        }
      ],
      "stateMutability": "view",
      "type": "function"
    },
    {
      "inputs": [],
      "name": "owner",
      "outputs": [
        {
          "internalType": "address",
          "name": "",
          "type": "address"
        }
      ],
      "stateMutability": "view",
      "type": "function"
    },
    {
      "inputs": [
        {
          "internalType": "uint256",
          "name": "tokenId",
          "type": "uint256"
        }
      ],
      "name": "ownerOf",
      "outputs": [
        {
          "internalType": "address",
          "name": "",
          "type": "address"
        }
      ],
      "stateMutability": "view",
      "type": "function"
    },
    {
      "inputs": [
        {
          "internalType": "string",
          "name": "text",
          "type": "string"
        }
      ],
      "name": "publishPost",
      "outputs": [
        {
          "internalType": "uint256",
          "name": "",
          "type": "uint256"
        }
      ],
      "stateMutability": "nonpayable",
      "type": "function"
    },
    {
      "inputs": [],
      "name": "renounceOwnership",
      "outputs": [],
      "stateMutability": "nonpayable",
      "type": "function"
    },
    {
      "inputs": [
        {
          "internalType": "address",
          "name": "from",
          "type": "address"
        },
        {
          "internalType": "address",
          "name": "to",
          "type": "address"
        },
        {
          "internalType": "uint256",
          "name": "tokenId",
          "type": "uint256"
        }
      ],
      "name": "safeTransferFrom",
      "outputs": [],
      "stateMutability": "nonpayable",
      "type": "function"
    },
    {
      "inputs": [
        {
          "internalType": "address",
          "name": "from",
          "type": "address"
        },
        {
          "internalType": "address",
          "name": "to",
          "type": "address"
        },
        {
          "internalType": "uint256",
          "name": "tokenId",
          "type": "uint256"
        },
        {
          "internalType": "bytes",
          "name": "_data",
          "type": "bytes"
        }
      ],
      "name": "safeTransferFrom",
      "outputs": [],
      "stateMutability": "nonpayable",
      "type": "function"
    },
    {
      "inputs": [
        {
          "internalType": "address",
          "name": "operator",
          "type": "address"
        },
        {
          "internalType": "bool",
          "name": "approved",
          "type": "bool"
        }
      ],
      "name": "setApprovalForAll",
      "outputs": [],
      "stateMutability": "nonpayable",
      "type": "function"
    },
    {
      "inputs": [
        {
          "internalType": "string",
          "name": "baseURI_",
          "type": "string"
        }
      ],
      "name": "setBaseURI",
      "outputs": [],
      "stateMutability": "nonpayable",
      "type": "function"
    },
    {
      "inputs": [
        {
          "internalType": "uint256",
          "name": "maxChars",
          "type": "uint256"
        }
      ],
      "name": "setMaxChars",
      "outputs": [],
      "stateMutability": "nonpayable",
      "type": "function"
    },
    {
      "inputs": [
        {
          "internalType": "uint256",
          "name": "tokenId",
          "type": "uint256"
        },
        {
          "internalType": "uint256",
          "name": "ubiAmount",
          "type": "uint256"
        }
      ],
      "name": "support",
      "outputs": [],
      "stateMutability": "nonpayable",
      "type": "function"
    },
    {
      "inputs": [
        {
          "internalType": "bytes4",
          "name": "interfaceId",
          "type": "bytes4"
        }
      ],
      "name": "supportsInterface",
      "outputs": [
        {
          "internalType": "bool",
          "name": "",
          "type": "bool"
        }
      ],
      "stateMutability": "view",
      "type": "function"
    },
    {
      "inputs": [],
      "name": "symbol",
      "outputs": [
        {
          "internalType": "string",
          "name": "",
          "type": "string"
        }
      ],
      "stateMutability": "view",
      "type": "function"
    },
    {
      "inputs": [
        {
          "internalType": "uint256",
          "name": "tokenId",
          "type": "uint256"
        }
      ],
      "name": "tokenURI",
      "outputs": [
        {
          "internalType": "string",
          "name": "",
          "type": "string"
        }
      ],
      "stateMutability": "view",
      "type": "function"
    },
    {
      "inputs": [
        {
          "internalType": "address",
          "name": "from",
          "type": "address"
        },
        {
          "internalType": "address",
          "name": "to",
          "type": "address"
        },
        {
          "internalType": "uint256",
          "name": "tokenId",
          "type": "uint256"
        }
      ],
      "name": "transferFrom",
      "outputs": [],
      "stateMutability": "nonpayable",
      "type": "function"
    },
    {
      "inputs": [
        {
          "internalType": "address",
          "name": "newOwner",
          "type": "address"
        }
      ],
      "name": "transferOwnership",
      "outputs": [],
      "stateMutability": "nonpayable",
      "type": "function"
    }
  ],
  "bytecode": "0x608060405234801561001057600080fd5b506140f3806100206000396000f3fe608060405234801561001057600080fd5b50600436106101585760003560e01c80636e02007d116100c3578063a22cb4651161007c578063a22cb465146103b1578063b88d4fde146103cd578063c5719463146103e9578063c87b56dd14610419578063e985e9c514610449578063f2fde38b1461047957610158565b80636e02007d1461030157806370a082311461031f578063715018a61461034f5780638da5cb5b1461035957806395d89b41146103775780639be56c671461039557610158565b806323b872dd1161011557806323b872dd1461022f57806340731c241461024b57806342842e0e1461027b57806355f804b3146102975780636352211e146102b357806367b7793d146102e357610158565b806301ffc9a71461015d57806306fdde031461018d578063081812fc146101ab578063095ea7b3146101db5780631794bb3c146101f75780631a8d8d1814610213575b600080fd5b6101776004803603810190610172919061306b565b610495565b60405161018491906139f0565b60405180910390f35b610195610577565b6040516101a29190613a0b565b60405180910390f35b6101c560048036038101906101c091906130fe565b610609565b6040516101d29190613929565b60405180910390f35b6101f560048036038101906101f09190613006565b61068e565b005b610211600480360381019061020c9190612f00565b6107a6565b005b61022d600480360381019061022891906130fe565b61098f565b005b61024960048036038101906102449190612f00565b610a15565b005b610265600480360381019061026091906130fe565b610a75565b6040516102729190613c6d565b60405180910390f35b61029560048036038101906102909190612f00565b610b00565b005b6102b160048036038101906102ac91906130bd565b610b20565b005b6102cd60048036038101906102c891906130fe565b610bb6565b6040516102da9190613929565b60405180910390f35b6102eb610c68565b6040516102f89190613c88565b60405180910390f35b610309610c72565b6040516103169190613c88565b60405180910390f35b61033960048036038101906103349190612e9b565b610c7c565b6040516103469190613c88565b60405180910390f35b610357610d34565b005b610361610e71565b60405161036e9190613929565b60405180910390f35b61037f610e9b565b60405161038c9190613a0b565b60405180910390f35b6103af60048036038101906103aa9190613127565b610f2d565b005b6103cb60048036038101906103c69190612fca565b611219565b005b6103e760048036038101906103e29190612f4f565b61139a565b005b61040360048036038101906103fe91906130bd565b6113fc565b6040516104109190613c88565b60405180910390f35b610433600480360381019061042e91906130fe565b61165b565b6040516104409190613a0b565b60405180910390f35b610463600480360381019061045e9190612ec4565b611702565b60405161047091906139f0565b60405180910390f35b610493600480360381019061048e9190612e9b565b611796565b005b60007f80ac58cd000000000000000000000000000000000000000000000000000000007bffffffffffffffffffffffffffffffffffffffffffffffffffffffff1916827bffffffffffffffffffffffffffffffffffffffffffffffffffffffff1916148061056057507f5b5e139f000000000000000000000000000000000000000000000000000000007bffffffffffffffffffffffffffffffffffffffffffffffffffffffff1916827bffffffffffffffffffffffffffffffffffffffffffffffffffffffff1916145b80610570575061056f82611942565b5b9050919050565b60606097805461058690613ee8565b80601f01602080910402602001604051908101604052809291908181526020018280546105b290613ee8565b80156105ff5780601f106105d4576101008083540402835291602001916105ff565b820191906000526020600020905b8154815290600101906020018083116105e257829003601f168201915b5050505050905090565b6000610614826119ac565b610653576040517f08c379a000000000000000000000000000000000000000000000000000000000815260040161064a90613b8d565b60405180910390fd5b609b600083815260200190815260200160002060009054906101000a900473ffffffffffffffffffffffffffffffffffffffff169050919050565b600061069982610bb6565b90508073ffffffffffffffffffffffffffffffffffffffff168373ffffffffffffffffffffffffffffffffffffffff16141561070a576040517f08c379a000000000000000000000000000000000000000000000000000000000815260040161070190613c0d565b60405180910390fd5b8073ffffffffffffffffffffffffffffffffffffffff16610729611a18565b73ffffffffffffffffffffffffffffffffffffffff161480610758575061075781610752611a18565b611702565b5b610797576040517f08c379a000000000000000000000000000000000000000000000000000000000815260040161078e90613aed565b60405180910390fd5b6107a18383611a20565b505050565b600060019054906101000a900460ff16806107cc575060008054906101000a900460ff16155b61080b576040517f08c379a000000000000000000000000000000000000000000000000000000000815260040161080290613b4d565b60405180910390fd5b60008060019054906101000a900460ff16159050801561085b576001600060016101000a81548160ff02191690831515021790555060016000806101000a81548160ff0219169083151502179055505b6108cf6040518060400160405280600581526020017f506f7374610000000000000000000000000000000000000000000000000000008152506040518060400160405280600581526020017f504f535441000000000000000000000000000000000000000000000000000000815250611ad9565b6108d7611bce565b600060ce819055508360cd60006101000a81548173ffffffffffffffffffffffffffffffffffffffff021916908373ffffffffffffffffffffffffffffffffffffffff1602179055508260c960006101000a81548173ffffffffffffffffffffffffffffffffffffffff021916908373ffffffffffffffffffffffffffffffffffffffff1602179055508160ca8190555080156109895760008060016101000a81548160ff0219169083151502179055505b50505050565b610997611a18565b73ffffffffffffffffffffffffffffffffffffffff166109b5610e71565b73ffffffffffffffffffffffffffffffffffffffff1614610a0b576040517f08c379a0000000000000000000000000000000000000000000000000000000008152600401610a0290613bad565b60405180910390fd5b8060ca8190555050565b610a26610a20611a18565b82611cb7565b610a65576040517f08c379a0000000000000000000000000000000000000000000000000000000008152600401610a5c90613c2d565b60405180910390fd5b610a70838383611d95565b505050565b610a7d612c90565b81610a87816119ac565b610ac6576040517f08c379a0000000000000000000000000000000000000000000000000000000008152600401610abd90613bed565b60405180910390fd5b60cb600084815260200190815260200160002060405180604001604052908160008201548152602001600182015481525050915050919050565b610b1b8383836040518060200160405280600081525061139a565b505050565b610b28611a18565b73ffffffffffffffffffffffffffffffffffffffff16610b46610e71565b73ffffffffffffffffffffffffffffffffffffffff1614610b9c576040517f08c379a0000000000000000000000000000000000000000000000000000000008152600401610b9390613bad565b60405180910390fd5b8060cf9080519060200190610bb2929190612caa565b5050565b6000806099600084815260200190815260200160002060009054906101000a900473ffffffffffffffffffffffffffffffffffffffff169050600073ffffffffffffffffffffffffffffffffffffffff168173ffffffffffffffffffffffffffffffffffffffff161415610c5f576040517f08c379a0000000000000000000000000000000000000000000000000000000008152600401610c5690613b2d565b60405180910390fd5b80915050919050565b600060ca54905090565b600060ce54905090565b60008073ffffffffffffffffffffffffffffffffffffffff168273ffffffffffffffffffffffffffffffffffffffff161415610ced576040517f08c379a0000000000000000000000000000000000000000000000000000000008152600401610ce490613b0d565b60405180910390fd5b609a60008373ffffffffffffffffffffffffffffffffffffffff1673ffffffffffffffffffffffffffffffffffffffff168152602001908152602001600020549050919050565b610d3c611a18565b73ffffffffffffffffffffffffffffffffffffffff16610d5a610e71565b73ffffffffffffffffffffffffffffffffffffffff1614610db0576040517f08c379a0000000000000000000000000000000000000000000000000000000008152600401610da790613bad565b60405180910390fd5b600073ffffffffffffffffffffffffffffffffffffffff16603360009054906101000a900473ffffffffffffffffffffffffffffffffffffffff1673ffffffffffffffffffffffffffffffffffffffff167f8be0079c531659141344cd1fd0a4f28419497f9722a3daafe3b4186f6b6457e060405160405180910390a36000603360006101000a81548173ffffffffffffffffffffffffffffffffffffffff021916908373ffffffffffffffffffffffffffffffffffffffff160217905550565b6000603360009054906101000a900473ffffffffffffffffffffffffffffffffffffffff16905090565b606060988054610eaa90613ee8565b80601f0160208091040260200160405190810160405280929190818152602001828054610ed690613ee8565b8015610f235780601f10610ef857610100808354040283529160200191610f23565b820191906000526020600020905b815481529060010190602001808311610f0657829003601f168201915b5050505050905090565b81610f37816119ac565b610f76576040517f08c379a0000000000000000000000000000000000000000000000000000000008152600401610f6d90613bed565b60405180910390fd5b610f7f83610bb6565b73ffffffffffffffffffffffffffffffffffffffff16610f9d611a18565b73ffffffffffffffffffffffffffffffffffffffff1614156040518060400160405280601981526020017f43414e545f535550504f52545f53454c465f434f4e54454e54000000000000008152509061102c576040517f08c379a00000000000000000000000000000000000000000000000000000000081526004016110239190613a0b565b60405180910390fd5b506000611043600284611ff190919063ffffffff16565b905060008111611088576040517f08c379a000000000000000000000000000000000000000000000000000000000815260040161107f90613c4d565b60405180910390fd5b60c960009054906101000a900473ffffffffffffffffffffffffffffffffffffffff1673ffffffffffffffffffffffffffffffffffffffff166379cc67906110ce611a18565b836040518363ffffffff1660e01b81526004016110ec9291906139c7565b600060405180830381600087803b15801561110657600080fd5b505af115801561111a573d6000803e3d6000fd5b505050506000611133828561200790919063ffffffff16565b905060008111156112005760c960009054906101000a900473ffffffffffffffffffffffffffffffffffffffff1673ffffffffffffffffffffffffffffffffffffffff166323b872dd611184611a18565b61118d88610bb6565b846040518463ffffffff1660e01b81526004016111ac93929190613944565b602060405180830381600087803b1580156111c657600080fd5b505af11580156111da573d6000803e3d6000fd5b505050506040513d601f19601f820116820180604052508101906111fe9190613042565b505b611212858561120d611a18565b61201d565b5050505050565b611221611a18565b73ffffffffffffffffffffffffffffffffffffffff168273ffffffffffffffffffffffffffffffffffffffff16141561128f576040517f08c379a000000000000000000000000000000000000000000000000000000000815260040161128690613aad565b60405180910390fd5b80609c600061129c611a18565b73ffffffffffffffffffffffffffffffffffffffff1673ffffffffffffffffffffffffffffffffffffffff16815260200190815260200160002060008473ffffffffffffffffffffffffffffffffffffffff1673ffffffffffffffffffffffffffffffffffffffff16815260200190815260200160002060006101000a81548160ff0219169083151502179055508173ffffffffffffffffffffffffffffffffffffffff16611349611a18565b73ffffffffffffffffffffffffffffffffffffffff167f17307eab39ab6107e8899845ad3d59bd9653f200f220920489ca2b5937696c318360405161138e91906139f0565b60405180910390a35050565b6113ab6113a5611a18565b83611cb7565b6113ea576040517f08c379a00000000000000000000000000000000000000000000000000000000081526004016113e190613c2d565b60405180910390fd5b6113f684848484612149565b50505050565b6000611406611a18565b60cd60009054906101000a900473ffffffffffffffffffffffffffffffffffffffff1673ffffffffffffffffffffffffffffffffffffffff1663c3c5a547826040518263ffffffff1660e01b81526004016114619190613929565b60206040518083038186803b15801561147957600080fd5b505afa15801561148d573d6000803e3d6000fd5b505050506040513d601f19601f820116820180604052508101906114b19190613042565b6040518060400160405280601481526020017f48554d414e5f4e4f545f5245474953544552454400000000000000000000000081525090611528576040517f08c379a000000000000000000000000000000000000000000000000000000000815260040161151f9190613a0b565b60405180910390fd5b5060ca54835111156040518060400160405280601281526020017f504f53545f544558545f544f4f5f4c4f4e470000000000000000000000000000815250906115a7576040517f08c379a000000000000000000000000000000000000000000000000000000000815260040161159e9190613a0b565b60405180910390fd5b50600060ce5490506115c06115ba611a18565b826121a5565b6000604051806040016040528060008152602001600081525090506115e582826121c3565b600160ce546115f49190613d77565b60ce8190555081611603611a18565b73ffffffffffffffffffffffffffffffffffffffff167fd8c86c7877c3f1f8a40af6cf64a11fe867af887f2a1ad31aac849e36730425b0876040516116489190613a0b565b60405180910390a3819350505050919050565b6060611666826119ac565b6116a5576040517f08c379a000000000000000000000000000000000000000000000000000000000815260040161169c90613bed565b60405180910390fd5b60006116af61223c565b905060008151116116cf57604051806020016040528060008152506116fa565b806116d9846122ce565b6040516020016116ea929190613905565b6040516020818303038152906040525b915050919050565b6000609c60008473ffffffffffffffffffffffffffffffffffffffff1673ffffffffffffffffffffffffffffffffffffffff16815260200190815260200160002060008373ffffffffffffffffffffffffffffffffffffffff1673ffffffffffffffffffffffffffffffffffffffff16815260200190815260200160002060009054906101000a900460ff16905092915050565b61179e611a18565b73ffffffffffffffffffffffffffffffffffffffff166117bc610e71565b73ffffffffffffffffffffffffffffffffffffffff1614611812576040517f08c379a000000000000000000000000000000000000000000000000000000000815260040161180990613bad565b60405180910390fd5b600073ffffffffffffffffffffffffffffffffffffffff168173ffffffffffffffffffffffffffffffffffffffff161415611882576040517f08c379a000000000000000000000000000000000000000000000000000000000815260040161187990613a4d565b60405180910390fd5b8073ffffffffffffffffffffffffffffffffffffffff16603360009054906101000a900473ffffffffffffffffffffffffffffffffffffffff1673ffffffffffffffffffffffffffffffffffffffff167f8be0079c531659141344cd1fd0a4f28419497f9722a3daafe3b4186f6b6457e060405160405180910390a380603360006101000a81548173ffffffffffffffffffffffffffffffffffffffff021916908373ffffffffffffffffffffffffffffffffffffffff16021790555050565b60007f01ffc9a7000000000000000000000000000000000000000000000000000000007bffffffffffffffffffffffffffffffffffffffffffffffffffffffff1916827bffffffffffffffffffffffffffffffffffffffffffffffffffffffff1916149050919050565b60008073ffffffffffffffffffffffffffffffffffffffff166099600084815260200190815260200160002060009054906101000a900473ffffffffffffffffffffffffffffffffffffffff1673ffffffffffffffffffffffffffffffffffffffff1614159050919050565b600033905090565b81609b600083815260200190815260200160002060006101000a81548173ffffffffffffffffffffffffffffffffffffffff021916908373ffffffffffffffffffffffffffffffffffffffff160217905550808273ffffffffffffffffffffffffffffffffffffffff16611a9383610bb6565b73ffffffffffffffffffffffffffffffffffffffff167f8c5be1e5ebec7d5bd14f71427d1e84f3dd0314c0f7b2291e5b200ac8c7c3b92560405160405180910390a45050565b600060019054906101000a900460ff1680611aff575060008054906101000a900460ff16155b611b3e576040517f08c379a0000000000000000000000000000000000000000000000000000000008152600401611b3590613b4d565b60405180910390fd5b60008060019054906101000a900460ff161590508015611b8e576001600060016101000a81548160ff02191690831515021790555060016000806101000a81548160ff0219169083151502179055505b611b9661247b565b611b9e612554565b611ba8838361262d565b8015611bc95760008060016101000a81548160ff0219169083151502179055505b505050565b600060019054906101000a900460ff1680611bf4575060008054906101000a900460ff16155b611c33576040517f08c379a0000000000000000000000000000000000000000000000000000000008152600401611c2a90613b4d565b60405180910390fd5b60008060019054906101000a900460ff161590508015611c83576001600060016101000a81548160ff02191690831515021790555060016000806101000a81548160ff0219169083151502179055505b611c8b61247b565b611c93612736565b8015611cb45760008060016101000a81548160ff0219169083151502179055505b50565b6000611cc2826119ac565b611d01576040517f08c379a0000000000000000000000000000000000000000000000000000000008152600401611cf890613acd565b60405180910390fd5b6000611d0c83610bb6565b90508073ffffffffffffffffffffffffffffffffffffffff168473ffffffffffffffffffffffffffffffffffffffff161480611d7b57508373ffffffffffffffffffffffffffffffffffffffff16611d6384610609565b73ffffffffffffffffffffffffffffffffffffffff16145b80611d8c5750611d8b8185611702565b5b91505092915050565b8273ffffffffffffffffffffffffffffffffffffffff16611db582610bb6565b73ffffffffffffffffffffffffffffffffffffffff1614611e0b576040517f08c379a0000000000000000000000000000000000000000000000000000000008152600401611e0290613bcd565b60405180910390fd5b600073ffffffffffffffffffffffffffffffffffffffff168273ffffffffffffffffffffffffffffffffffffffff161415611e7b576040517f08c379a0000000000000000000000000000000000000000000000000000000008152600401611e7290613a8d565b60405180910390fd5b611e868383836128b8565b611e91600082611a20565b6001609a60008573ffffffffffffffffffffffffffffffffffffffff1673ffffffffffffffffffffffffffffffffffffffff1681526020019081526020016000206000828254611ee19190613dfe565b925050819055506001609a60008473ffffffffffffffffffffffffffffffffffffffff1673ffffffffffffffffffffffffffffffffffffffff1681526020019081526020016000206000828254611f389190613d77565b92505081905550816099600083815260200190815260200160002060006101000a81548173ffffffffffffffffffffffffffffffffffffffff021916908373ffffffffffffffffffffffffffffffffffffffff160217905550808273ffffffffffffffffffffffffffffffffffffffff168473ffffffffffffffffffffffffffffffffffffffff167fddf252ad1be2c89b69c2b068fc378daa952ba7f163c4a11628f55a4df523b3ef60405160405180910390a4505050565b60008183611fff9190613dcd565b905092915050565b600081836120159190613dfe565b905092915050565b8160cb600085815260200190815260200160002060000160008282546120439190613d77565b9250508190555060cc600084815260200190815260200160002060008273ffffffffffffffffffffffffffffffffffffffff1673ffffffffffffffffffffffffffffffffffffffff16815260200190815260200160002060009054906101000a900460ff1661214457600160cc600085815260200190815260200160002060008373ffffffffffffffffffffffffffffffffffffffff1673ffffffffffffffffffffffffffffffffffffffff16815260200190815260200160002060006101000a81548160ff021916908315150217905550600160cb6000858152602001908152602001600020600101600082825461213c9190613d77565b925050819055505b505050565b612154848484611d95565b612160848484846128bd565b61219f576040517f08c379a000000000000000000000000000000000000000000000000000000000815260040161219690613a2d565b60405180910390fd5b50505050565b6121bf828260405180602001604052806000815250612a54565b5050565b816121cd816119ac565b61220c576040517f08c379a000000000000000000000000000000000000000000000000000000000815260040161220390613bed565b60405180910390fd5b8160cb60008581526020019081526020016000206000820151816000015560208201518160010155905050505050565b606060cf805461224b90613ee8565b80601f016020809104026020016040519081016040528092919081815260200182805461227790613ee8565b80156122c45780601f10612299576101008083540402835291602001916122c4565b820191906000526020600020905b8154815290600101906020018083116122a757829003601f168201915b5050505050905090565b60606000821415612316576040518060400160405280600181526020017f30000000000000000000000000000000000000000000000000000000000000008152509050612476565b600082905060005b6000821461234857808061233190613f1a565b915050600a826123419190613dcd565b915061231e565b60008167ffffffffffffffff81111561238a577f4e487b7100000000000000000000000000000000000000000000000000000000600052604160045260246000fd5b6040519080825280601f01601f1916602001820160405280156123bc5781602001600182028036833780820191505090505b5090505b6000851461246f576001826123d59190613dfe565b9150600a856123e49190613f63565b60306123f09190613d77565b60f81b81838151811061242c577f4e487b7100000000000000000000000000000000000000000000000000000000600052603260045260246000fd5b60200101907effffffffffffffffffffffffffffffffffffffffffffffffffffffffffffff1916908160001a905350600a856124689190613dcd565b94506123c0565b8093505050505b919050565b600060019054906101000a900460ff16806124a1575060008054906101000a900460ff16155b6124e0576040517f08c379a00000000000000000000000000000000000000000000000000000000081526004016124d790613b4d565b60405180910390fd5b60008060019054906101000a900460ff161590508015612530576001600060016101000a81548160ff02191690831515021790555060016000806101000a81548160ff0219169083151502179055505b80156125515760008060016101000a81548160ff0219169083151502179055505b50565b600060019054906101000a900460ff168061257a575060008054906101000a900460ff16155b6125b9576040517f08c379a00000000000000000000000000000000000000000000000000000000081526004016125b090613b4d565b60405180910390fd5b60008060019054906101000a900460ff161590508015612609576001600060016101000a81548160ff02191690831515021790555060016000806101000a81548160ff0219169083151502179055505b801561262a5760008060016101000a81548160ff0219169083151502179055505b50565b600060019054906101000a900460ff1680612653575060008054906101000a900460ff16155b612692576040517f08c379a000000000000000000000000000000000000000000000000000000000815260040161268990613b4d565b60405180910390fd5b60008060019054906101000a900460ff1615905080156126e2576001600060016101000a81548160ff02191690831515021790555060016000806101000a81548160ff0219169083151502179055505b82609790805190602001906126f8929190612caa565b50816098908051906020019061270f929190612caa565b5080156127315760008060016101000a81548160ff0219169083151502179055505b505050565b600060019054906101000a900460ff168061275c575060008054906101000a900460ff16155b61279b576040517f08c379a000000000000000000000000000000000000000000000000000000000815260040161279290613b4d565b60405180910390fd5b60008060019054906101000a900460ff1615905080156127eb576001600060016101000a81548160ff02191690831515021790555060016000806101000a81548160ff0219169083151502179055505b60006127f5611a18565b905080603360006101000a81548173ffffffffffffffffffffffffffffffffffffffff021916908373ffffffffffffffffffffffffffffffffffffffff1602179055508073ffffffffffffffffffffffffffffffffffffffff16600073ffffffffffffffffffffffffffffffffffffffff167f8be0079c531659141344cd1fd0a4f28419497f9722a3daafe3b4186f6b6457e060405160405180910390a35080156128b55760008060016101000a81548160ff0219169083151502179055505b50565b505050565b60006128de8473ffffffffffffffffffffffffffffffffffffffff16612aaf565b15612a47578373ffffffffffffffffffffffffffffffffffffffff1663150b7a02612907611a18565b8786866040518563ffffffff1660e01b8152600401612929949392919061397b565b602060405180830381600087803b15801561294357600080fd5b505af192505050801561297457506040513d601f19601f820116820180604052508101906129719190613094565b60015b6129f7573d80600081146129a4576040519150601f19603f3d011682016040523d82523d6000602084013e6129a9565b606091505b506000815114156129ef576040517f08c379a00000000000000000000000000000000000000000000000000000000081526004016129e690613a2d565b60405180910390fd5b805181602001fd5b63150b7a0260e01b7bffffffffffffffffffffffffffffffffffffffffffffffffffffffff1916817bffffffffffffffffffffffffffffffffffffffffffffffffffffffff191614915050612a4c565b600190505b949350505050565b612a5e8383612ac2565b612a6b60008484846128bd565b612aaa576040517f08c379a0000000000000000000000000000000000000000000000000000000008152600401612aa190613a2d565b60405180910390fd5b505050565b600080823b905060008111915050919050565b600073ffffffffffffffffffffffffffffffffffffffff168273ffffffffffffffffffffffffffffffffffffffff161415612b32576040517f08c379a0000000000000000000000000000000000000000000000000000000008152600401612b2990613b6d565b60405180910390fd5b612b3b816119ac565b15612b7b576040517f08c379a0000000000000000000000000000000000000000000000000000000008152600401612b7290613a6d565b60405180910390fd5b612b87600083836128b8565b6001609a60008473ffffffffffffffffffffffffffffffffffffffff1673ffffffffffffffffffffffffffffffffffffffff1681526020019081526020016000206000828254612bd79190613d77565b92505081905550816099600083815260200190815260200160002060006101000a81548173ffffffffffffffffffffffffffffffffffffffff021916908373ffffffffffffffffffffffffffffffffffffffff160217905550808273ffffffffffffffffffffffffffffffffffffffff16600073ffffffffffffffffffffffffffffffffffffffff167fddf252ad1be2c89b69c2b068fc378daa952ba7f163c4a11628f55a4df523b3ef60405160405180910390a45050565b604051806040016040528060008152602001600081525090565b828054612cb690613ee8565b90600052602060002090601f016020900481019282612cd85760008555612d1f565b82601f10612cf157805160ff1916838001178555612d1f565b82800160010185558215612d1f579182015b82811115612d1e578251825591602001919060010190612d03565b5b509050612d2c9190612d30565b5090565b5b80821115612d49576000816000905550600101612d31565b5090565b6000612d60612d5b84613cd4565b613ca3565b905082815260208101848484011115612d7857600080fd5b612d83848285613ea6565b509392505050565b6000612d9e612d9984613d04565b613ca3565b905082815260208101848484011115612db657600080fd5b612dc1848285613ea6565b509392505050565b600081359050612dd881614061565b92915050565b600081359050612ded81614078565b92915050565b600081519050612e0281614078565b92915050565b600081359050612e178161408f565b92915050565b600081519050612e2c8161408f565b92915050565b600082601f830112612e4357600080fd5b8135612e53848260208601612d4d565b91505092915050565b600082601f830112612e6d57600080fd5b8135612e7d848260208601612d8b565b91505092915050565b600081359050612e95816140a6565b92915050565b600060208284031215612ead57600080fd5b6000612ebb84828501612dc9565b91505092915050565b60008060408385031215612ed757600080fd5b6000612ee585828601612dc9565b9250506020612ef685828601612dc9565b9150509250929050565b600080600060608486031215612f1557600080fd5b6000612f2386828701612dc9565b9350506020612f3486828701612dc9565b9250506040612f4586828701612e86565b9150509250925092565b60008060008060808587031215612f6557600080fd5b6000612f7387828801612dc9565b9450506020612f8487828801612dc9565b9350506040612f9587828801612e86565b925050606085013567ffffffffffffffff811115612fb257600080fd5b612fbe87828801612e32565b91505092959194509250565b60008060408385031215612fdd57600080fd5b6000612feb85828601612dc9565b9250506020612ffc85828601612dde565b9150509250929050565b6000806040838503121561301957600080fd5b600061302785828601612dc9565b925050602061303885828601612e86565b9150509250929050565b60006020828403121561305457600080fd5b600061306284828501612df3565b91505092915050565b60006020828403121561307d57600080fd5b600061308b84828501612e08565b91505092915050565b6000602082840312156130a657600080fd5b60006130b484828501612e1d565b91505092915050565b6000602082840312156130cf57600080fd5b600082013567ffffffffffffffff8111156130e957600080fd5b6130f584828501612e5c565b91505092915050565b60006020828403121561311057600080fd5b600061311e84828501612e86565b91505092915050565b6000806040838503121561313a57600080fd5b600061314885828601612e86565b925050602061315985828601612e86565b9150509250929050565b61316c81613e32565b82525050565b61317b81613e44565b82525050565b600061318c82613d34565b6131968185613d4a565b93506131a6818560208601613eb5565b6131af81614050565b840191505092915050565b60006131c582613d3f565b6131cf8185613d5b565b93506131df818560208601613eb5565b6131e881614050565b840191505092915050565b60006131fe82613d3f565b6132088185613d6c565b9350613218818560208601613eb5565b80840191505092915050565b6000613231603283613d5b565b91507f4552433732313a207472616e7366657220746f206e6f6e20455243373231526560008301527f63656976657220696d706c656d656e74657200000000000000000000000000006020830152604082019050919050565b6000613297602683613d5b565b91507f4f776e61626c653a206e6577206f776e657220697320746865207a65726f206160008301527f64647265737300000000000000000000000000000000000000000000000000006020830152604082019050919050565b60006132fd601c83613d5b565b91507f4552433732313a20746f6b656e20616c7265616479206d696e746564000000006000830152602082019050919050565b600061333d602483613d5b565b91507f4552433732313a207472616e7366657220746f20746865207a65726f2061646460008301527f72657373000000000000000000000000000000000000000000000000000000006020830152604082019050919050565b60006133a3601983613d5b565b91507f4552433732313a20617070726f766520746f2063616c6c6572000000000000006000830152602082019050919050565b60006133e3602c83613d5b565b91507f4552433732313a206f70657261746f7220717565727920666f72206e6f6e657860008301527f697374656e7420746f6b656e00000000000000000000000000000000000000006020830152604082019050919050565b6000613449603883613d5b565b91507f4552433732313a20617070726f76652063616c6c6572206973206e6f74206f7760008301527f6e6572206e6f7220617070726f76656420666f7220616c6c00000000000000006020830152604082019050919050565b60006134af602a83613d5b565b91507f4552433732313a2062616c616e636520717565727920666f7220746865207a6560008301527f726f2061646472657373000000000000000000000000000000000000000000006020830152604082019050919050565b6000613515602983613d5b565b91507f4552433732313a206f776e657220717565727920666f72206e6f6e657869737460008301527f656e7420746f6b656e00000000000000000000000000000000000000000000006020830152604082019050919050565b600061357b602e83613d5b565b91507f496e697469616c697a61626c653a20636f6e747261637420697320616c72656160008301527f647920696e697469616c697a65640000000000000000000000000000000000006020830152604082019050919050565b60006135e1602083613d5b565b91507f4552433732313a206d696e7420746f20746865207a65726f20616464726573736000830152602082019050919050565b6000613621602c83613d5b565b91507f4552433732313a20617070726f76656420717565727920666f72206e6f6e657860008301527f697374656e7420746f6b656e00000000000000000000000000000000000000006020830152604082019050919050565b6000613687602083613d5b565b91507f4f776e61626c653a2063616c6c6572206973206e6f7420746865206f776e65726000830152602082019050919050565b60006136c7602983613d5b565b91507f4552433732313a207472616e73666572206f6620746f6b656e2074686174206960008301527f73206e6f74206f776e00000000000000000000000000000000000000000000006020830152604082019050919050565b600061372d602f83613d5b565b91507f4552433732314d657461646174613a2055524920717565727920666f72206e6f60008301527f6e6578697374656e7420746f6b656e00000000000000000000000000000000006020830152604082019050919050565b6000613793602183613d5b565b91507f4552433732313a20617070726f76616c20746f2063757272656e74206f776e6560008301527f72000000000000000000000000000000000000000000000000000000000000006020830152604082019050919050565b60006137f9603183613d5b565b91507f4552433732313a207472616e736665722063616c6c6572206973206e6f74206f60008301527f776e6572206e6f7220617070726f7665640000000000000000000000000000006020830152604082019050919050565b600061385f602183613d5b565b91507f506f7374613a20696e76616c69642075626920616d6f756e7420746f2062757260008301527f6e000000000000000000000000000000000000000000000000000000000000006020830152604082019050919050565b6040820160008201516138ce60008501826138e7565b5060208201516138e160208501826138e7565b50505050565b6138f081613e9c565b82525050565b6138ff81613e9c565b82525050565b600061391182856131f3565b915061391d82846131f3565b91508190509392505050565b600060208201905061393e6000830184613163565b92915050565b60006060820190506139596000830186613163565b6139666020830185613163565b61397360408301846138f6565b949350505050565b60006080820190506139906000830187613163565b61399d6020830186613163565b6139aa60408301856138f6565b81810360608301526139bc8184613181565b905095945050505050565b60006040820190506139dc6000830185613163565b6139e960208301846138f6565b9392505050565b6000602082019050613a056000830184613172565b92915050565b60006020820190508181036000830152613a2581846131ba565b905092915050565b60006020820190508181036000830152613a4681613224565b9050919050565b60006020820190508181036000830152613a668161328a565b9050919050565b60006020820190508181036000830152613a86816132f0565b9050919050565b60006020820190508181036000830152613aa681613330565b9050919050565b60006020820190508181036000830152613ac681613396565b9050919050565b60006020820190508181036000830152613ae6816133d6565b9050919050565b60006020820190508181036000830152613b068161343c565b9050919050565b60006020820190508181036000830152613b26816134a2565b9050919050565b60006020820190508181036000830152613b4681613508565b9050919050565b60006020820190508181036000830152613b668161356e565b9050919050565b60006020820190508181036000830152613b86816135d4565b9050919050565b60006020820190508181036000830152613ba681613614565b9050919050565b60006020820190508181036000830152613bc68161367a565b9050919050565b60006020820190508181036000830152613be6816136ba565b9050919050565b60006020820190508181036000830152613c0681613720565b9050919050565b60006020820190508181036000830152613c2681613786565b9050919050565b60006020820190508181036000830152613c46816137ec565b9050919050565b60006020820190508181036000830152613c6681613852565b9050919050565b6000604082019050613c8260008301846138b8565b92915050565b6000602082019050613c9d60008301846138f6565b92915050565b6000604051905081810181811067ffffffffffffffff82111715613cca57613cc9614021565b5b8060405250919050565b600067ffffffffffffffff821115613cef57613cee614021565b5b601f19601f8301169050602081019050919050565b600067ffffffffffffffff821115613d1f57613d1e614021565b5b601f19601f8301169050602081019050919050565b600081519050919050565b600081519050919050565b600082825260208201905092915050565b600082825260208201905092915050565b600081905092915050565b6000613d8282613e9c565b9150613d8d83613e9c565b9250827fffffffffffffffffffffffffffffffffffffffffffffffffffffffffffffffff03821115613dc257613dc1613f94565b5b828201905092915050565b6000613dd882613e9c565b9150613de383613e9c565b925082613df357613df2613fc3565b5b828204905092915050565b6000613e0982613e9c565b9150613e1483613e9c565b925082821015613e2757613e26613f94565b5b828203905092915050565b6000613e3d82613e7c565b9050919050565b60008115159050919050565b60007fffffffff0000000000000000000000000000000000000000000000000000000082169050919050565b600073ffffffffffffffffffffffffffffffffffffffff82169050919050565b6000819050919050565b82818337600083830152505050565b60005b83811015613ed3578082015181840152602081019050613eb8565b83811115613ee2576000848401525b50505050565b60006002820490506001821680613f0057607f821691505b60208210811415613f1457613f13613ff2565b5b50919050565b6000613f2582613e9c565b91507fffffffffffffffffffffffffffffffffffffffffffffffffffffffffffffffff821415613f5857613f57613f94565b5b600182019050919050565b6000613f6e82613e9c565b9150613f7983613e9c565b925082613f8957613f88613fc3565b5b828206905092915050565b7f4e487b7100000000000000000000000000000000000000000000000000000000600052601160045260246000fd5b7f4e487b7100000000000000000000000000000000000000000000000000000000600052601260045260246000fd5b7f4e487b7100000000000000000000000000000000000000000000000000000000600052602260045260246000fd5b7f4e487b7100000000000000000000000000000000000000000000000000000000600052604160045260246000fd5b6000601f19601f8301169050919050565b61406a81613e32565b811461407557600080fd5b50565b61408181613e44565b811461408c57600080fd5b50565b61409881613e50565b81146140a357600080fd5b50565b6140af81613e9c565b81146140ba57600080fd5b5056fea2646970667358221220c7a0b44691ff43007bb2cb4bb12a52d5f75066e838e0872fcac202ee2398ab7664736f6c63430008000033",
  "linkReferences": {},
  "deployedLinkReferences": {}
}