{
  "_format": "hh-sol-artifact-1",
  "contractName": "PostaV0_8",
  "sourceName": "contracts/v0.8/PostaV0_8.sol",
  "abi": [
    {
      "anonymous": false,
      "inputs": [
        {
          "indexed": true,
          "internalType": "address",
          "name": "owner",
          "type": "address"
        },
        {
          "indexed": true,
          "internalType": "address",
          "name": "approved",
          "type": "address"
        },
        {
          "indexed": true,
          "internalType": "uint256",
          "name": "tokenId",
          "type": "uint256"
        }
      ],
      "name": "Approval",
      "type": "event"
    },
    {
      "anonymous": false,
      "inputs": [
        {
          "indexed": true,
          "internalType": "address",
          "name": "owner",
          "type": "address"
        },
        {
          "indexed": true,
          "internalType": "address",
          "name": "operator",
          "type": "address"
        },
        {
          "indexed": false,
          "internalType": "bool",
          "name": "approved",
          "type": "bool"
        }
      ],
      "name": "ApprovalForAll",
      "type": "event"
    },
    {
      "anonymous": false,
      "inputs": [
        {
          "indexed": true,
          "internalType": "address",
          "name": "author",
          "type": "address"
        },
        {
          "indexed": true,
          "internalType": "uint256",
          "name": "tokenId",
          "type": "uint256"
        },
        {
          "indexed": false,
          "internalType": "string",
          "name": "value",
          "type": "string"
        }
      ],
      "name": "NewPost",
      "type": "event"
    },
    {
      "anonymous": false,
      "inputs": [
        {
          "indexed": true,
          "internalType": "uint256",
          "name": "tokenId",
          "type": "uint256"
        },
        {
          "indexed": true,
          "internalType": "uint256",
          "name": "replyOfTokenId",
          "type": "uint256"
        }
      ],
      "name": "NewPostReply",
      "type": "event"
    },
    {
      "anonymous": false,
      "inputs": [
        {
          "indexed": true,
          "internalType": "address",
          "name": "previousOwner",
          "type": "address"
        },
        {
          "indexed": true,
          "internalType": "address",
          "name": "newOwner",
          "type": "address"
        }
      ],
      "name": "OwnershipTransferred",
      "type": "event"
    },
    {
      "anonymous": false,
      "inputs": [
        {
          "indexed": true,
          "internalType": "uint256",
          "name": "tokenId",
          "type": "uint256"
        },
        {
          "indexed": true,
          "internalType": "address",
          "name": "supporter",
          "type": "address"
        },
        {
          "indexed": false,
          "internalType": "uint256",
          "name": "amount",
          "type": "uint256"
        },
        {
          "indexed": false,
          "internalType": "uint256",
          "name": "burnt",
          "type": "uint256"
        },
        {
          "indexed": false,
          "internalType": "uint256",
          "name": "treasury",
          "type": "uint256"
        }
      ],
      "name": "SupportGiven",
      "type": "event"
    },
    {
      "anonymous": false,
      "inputs": [
        {
          "indexed": true,
          "internalType": "address",
          "name": "from",
          "type": "address"
        },
        {
          "indexed": true,
          "internalType": "address",
          "name": "to",
          "type": "address"
        },
        {
          "indexed": true,
          "internalType": "uint256",
          "name": "tokenId",
          "type": "uint256"
        }
      ],
      "name": "Transfer",
      "type": "event"
    },
    {
      "inputs": [
        {
          "internalType": "uint256",
          "name": "totalAmount",
          "type": "uint256"
        },
        {
          "internalType": "uint256",
          "name": "percentage",
          "type": "uint256"
        }
      ],
      "name": "_getAmountFromPct",
      "outputs": [
        {
          "internalType": "uint256",
          "name": "calculatedValue",
          "type": "uint256"
        }
      ],
      "stateMutability": "pure",
      "type": "function"
    },
    {
      "inputs": [
        {
          "internalType": "address",
          "name": "to",
          "type": "address"
        },
        {
          "internalType": "uint256",
          "name": "tokenId",
          "type": "uint256"
        }
      ],
      "name": "approve",
      "outputs": [],
      "stateMutability": "nonpayable",
      "type": "function"
    },
    {
      "inputs": [
        {
          "internalType": "address",
          "name": "owner",
          "type": "address"
        }
      ],
      "name": "balanceOf",
      "outputs": [
        {
          "internalType": "uint256",
          "name": "",
          "type": "uint256"
        }
      ],
      "stateMutability": "view",
      "type": "function"
    },
    {
      "inputs": [
        {
          "internalType": "uint256",
          "name": "tokenId",
          "type": "uint256"
        }
      ],
      "name": "getApproved",
      "outputs": [
        {
          "internalType": "address",
          "name": "",
          "type": "address"
        }
      ],
      "stateMutability": "view",
      "type": "function"
    },
    {
      "inputs": [],
      "name": "getBurnPct",
      "outputs": [
        {
          "internalType": "uint256",
          "name": "",
          "type": "uint256"
        }
      ],
      "stateMutability": "view",
      "type": "function"
    },
    {
      "inputs": [],
      "name": "getMaxChars",
      "outputs": [
        {
          "internalType": "uint256",
          "name": "",
          "type": "uint256"
        }
      ],
      "stateMutability": "view",
      "type": "function"
    },
    {
      "inputs": [],
      "name": "getPOH",
      "outputs": [
        {
          "internalType": "address",
          "name": "",
          "type": "address"
        }
      ],
      "stateMutability": "view",
      "type": "function"
    },
    {
      "inputs": [
        {
          "internalType": "uint256",
          "name": "tokenId",
          "type": "uint256"
        }
      ],
      "name": "getPost",
      "outputs": [
        {
          "components": [
            {
              "internalType": "uint256",
              "name": "supportGiven",
              "type": "uint256"
            },
            {
              "internalType": "uint256",
              "name": "supportersCount",
              "type": "uint256"
            }
          ],
          "internalType": "struct PostaData",
          "name": "",
          "type": "tuple"
        }
      ],
      "stateMutability": "view",
      "type": "function"
    },
    {
      "inputs": [],
      "name": "getTokenCounter",
      "outputs": [
        {
          "internalType": "uint256",
          "name": "",
          "type": "uint256"
        }
      ],
      "stateMutability": "view",
      "type": "function"
    },
    {
      "inputs": [],
      "name": "getTreasuryPct",
      "outputs": [
        {
          "internalType": "uint256",
          "name": "",
          "type": "uint256"
        }
      ],
      "stateMutability": "view",
      "type": "function"
    },
    {
      "inputs": [],
      "name": "getUBI",
      "outputs": [
        {
          "internalType": "address",
          "name": "",
          "type": "address"
        }
      ],
      "stateMutability": "view",
      "type": "function"
    },
    {
      "inputs": [
        {
          "internalType": "address",
          "name": "poh",
          "type": "address"
        },
        {
          "internalType": "address",
          "name": "ubi",
          "type": "address"
        },
        {
          "internalType": "uint256",
          "name": "maxChars",
          "type": "uint256"
        },
        {
          "internalType": "uint256",
          "name": "burnPct",
          "type": "uint256"
        },
        {
          "internalType": "uint256",
          "name": "treasuryPct",
          "type": "uint256"
        }
      ],
      "name": "initialize",
      "outputs": [],
      "stateMutability": "nonpayable",
      "type": "function"
    },
    {
      "inputs": [
        {
          "internalType": "address",
          "name": "owner",
          "type": "address"
        },
        {
          "internalType": "address",
          "name": "operator",
          "type": "address"
        }
      ],
      "name": "isApprovedForAll",
      "outputs": [
        {
          "internalType": "bool",
          "name": "",
          "type": "bool"
        }
      ],
      "stateMutability": "view",
      "type": "function"
    },
    {
      "inputs": [],
      "name": "name",
      "outputs": [
        {
          "internalType": "string",
          "name": "",
          "type": "string"
        }
      ],
      "stateMutability": "view",
      "type": "function"
    },
    {
      "inputs": [],
      "name": "owner",
      "outputs": [
        {
          "internalType": "address",
          "name": "",
          "type": "address"
        }
      ],
      "stateMutability": "view",
      "type": "function"
    },
    {
      "inputs": [
        {
          "internalType": "uint256",
          "name": "tokenId",
          "type": "uint256"
        }
      ],
      "name": "ownerOf",
      "outputs": [
        {
          "internalType": "address",
          "name": "",
          "type": "address"
        }
      ],
      "stateMutability": "view",
      "type": "function"
    },
    {
      "inputs": [
        {
          "internalType": "string",
          "name": "text",
          "type": "string"
        },
        {
          "internalType": "address",
          "name": "author",
          "type": "address"
        },
        {
          "internalType": "uint256",
          "name": "isReplyOfTokenId",
          "type": "uint256"
        },
        {
          "internalType": "uint256",
          "name": "nonce",
          "type": "uint256"
        },
        {
          "internalType": "bytes",
          "name": "signature",
          "type": "bytes"
        }
      ],
      "name": "publishOnBehalfOf",
      "outputs": [
        {
          "internalType": "uint256",
          "name": "",
          "type": "uint256"
        }
      ],
      "stateMutability": "nonpayable",
      "type": "function"
    },
    {
      "inputs": [
        {
          "internalType": "string",
          "name": "text",
          "type": "string"
        },
        {
          "internalType": "uint256",
          "name": "isReplyOfTokenId",
          "type": "uint256"
        }
      ],
      "name": "publishPost",
      "outputs": [
        {
          "internalType": "uint256",
          "name": "",
          "type": "uint256"
        }
      ],
      "stateMutability": "nonpayable",
      "type": "function"
    },
    {
      "inputs": [],
      "name": "renounceOwnership",
      "outputs": [],
      "stateMutability": "nonpayable",
      "type": "function"
    },
    {
      "inputs": [
        {
          "internalType": "address",
          "name": "from",
          "type": "address"
        },
        {
          "internalType": "address",
          "name": "to",
          "type": "address"
        },
        {
          "internalType": "uint256",
          "name": "tokenId",
          "type": "uint256"
        }
      ],
      "name": "safeTransferFrom",
      "outputs": [],
      "stateMutability": "nonpayable",
      "type": "function"
    },
    {
      "inputs": [
        {
          "internalType": "address",
          "name": "from",
          "type": "address"
        },
        {
          "internalType": "address",
          "name": "to",
          "type": "address"
        },
        {
          "internalType": "uint256",
          "name": "tokenId",
          "type": "uint256"
        },
        {
          "internalType": "bytes",
          "name": "_data",
          "type": "bytes"
        }
      ],
      "name": "safeTransferFrom",
      "outputs": [],
      "stateMutability": "nonpayable",
      "type": "function"
    },
    {
      "inputs": [
        {
          "internalType": "address",
          "name": "operator",
          "type": "address"
        },
        {
          "internalType": "bool",
          "name": "approved",
          "type": "bool"
        }
      ],
      "name": "setApprovalForAll",
      "outputs": [],
      "stateMutability": "nonpayable",
      "type": "function"
    },
    {
      "inputs": [
        {
          "internalType": "string",
          "name": "baseURI_",
          "type": "string"
        }
      ],
      "name": "setBaseURI",
      "outputs": [],
      "stateMutability": "nonpayable",
      "type": "function"
    },
    {
      "inputs": [
        {
          "internalType": "uint256",
          "name": "burnPct",
          "type": "uint256"
        }
      ],
      "name": "setBurnPct",
      "outputs": [],
      "stateMutability": "nonpayable",
      "type": "function"
    },
    {
      "inputs": [
        {
          "internalType": "uint256",
          "name": "maxChars",
          "type": "uint256"
        }
      ],
      "name": "setMaxChars",
      "outputs": [],
      "stateMutability": "nonpayable",
      "type": "function"
    },
    {
      "inputs": [
        {
          "internalType": "address",
          "name": "poh",
          "type": "address"
        }
      ],
      "name": "setPOH",
      "outputs": [],
      "stateMutability": "nonpayable",
      "type": "function"
    },
    {
      "inputs": [
        {
          "internalType": "uint256",
          "name": "treasuryPct",
          "type": "uint256"
        }
      ],
      "name": "setTreasuryPct",
      "outputs": [],
      "stateMutability": "nonpayable",
      "type": "function"
    },
    {
      "inputs": [
        {
          "internalType": "address",
          "name": "ubi",
          "type": "address"
        }
      ],
      "name": "setUBI",
      "outputs": [],
      "stateMutability": "nonpayable",
      "type": "function"
    },
    {
      "inputs": [
        {
          "internalType": "uint256",
          "name": "tokenId",
          "type": "uint256"
        },
        {
          "internalType": "uint256",
          "name": "ubiAmount",
          "type": "uint256"
        }
      ],
      "name": "support",
      "outputs": [],
      "stateMutability": "nonpayable",
      "type": "function"
    },
    {
      "inputs": [
        {
          "internalType": "bytes4",
          "name": "interfaceId",
          "type": "bytes4"
        }
      ],
      "name": "supportsInterface",
      "outputs": [
        {
          "internalType": "bool",
          "name": "",
          "type": "bool"
        }
      ],
      "stateMutability": "view",
      "type": "function"
    },
    {
      "inputs": [],
      "name": "symbol",
      "outputs": [
        {
          "internalType": "string",
          "name": "",
          "type": "string"
        }
      ],
      "stateMutability": "view",
      "type": "function"
    },
    {
      "inputs": [
        {
          "internalType": "uint256",
          "name": "tokenId",
          "type": "uint256"
        }
      ],
      "name": "tokenURI",
      "outputs": [
        {
          "internalType": "string",
          "name": "",
          "type": "string"
        }
      ],
      "stateMutability": "view",
      "type": "function"
    },
    {
      "inputs": [
        {
          "internalType": "address",
          "name": "from",
          "type": "address"
        },
        {
          "internalType": "address",
          "name": "to",
          "type": "address"
        },
        {
          "internalType": "uint256",
          "name": "tokenId",
          "type": "uint256"
        }
      ],
      "name": "transferFrom",
      "outputs": [],
      "stateMutability": "nonpayable",
      "type": "function"
    },
    {
      "inputs": [
        {
          "internalType": "address",
          "name": "newOwner",
          "type": "address"
        }
      ],
      "name": "transferOwnership",
      "outputs": [],
      "stateMutability": "nonpayable",
      "type": "function"
    }
  ],
  "bytecode": "0x608060405234801561001057600080fd5b50613396806100206000396000f3fe608060405234801561001057600080fd5b50600436106102265760003560e01c806370a082311161012a578063b51b3fe9116100bd578063cfe1c8a21161008c578063e18709f011610071578063e18709f014610486578063e985e9c514610499578063f2fde38b146104d557610226565b8063cfe1c8a21461046b578063d13f90b41461047357610226565b8063b51b3fe91461041f578063b88d4fde14610432578063c51a2bba14610445578063c87b56dd1461045857610226565b806395d89b41116100f957806395d89b41146103de5780639be56c67146103e6578063a22cb465146103f9578063b0917bdf1461040c57610226565b806370a082311461039f578063715018a6146103b25780638da5cb5b146103ba5780639588cdb3146103cb57610226565b80633a759157116101bd5780635cfd70bf1161018c57806367b7793d1161017157806367b7793d1461037c57806368bed9e3146103845780636e02007d1461039757610226565b80635cfd70bf146103565780636352211e1461036957610226565b80633a759157146102f157806340731c241461030257806342842e0e1461033057806355f804b31461034357610226565b8063097377ec116101f9578063097377ec146102a85780631a8d8d18146102ba57806323b872dd146102cd578063365b96e4146102e057610226565b806301ffc9a71461022b57806306fdde0314610253578063081812fc14610268578063095ea7b314610293575b600080fd5b61023e610239366004612fed565b6104e8565b60405190151581526020015b60405180910390f35b61025b610587565b60405161024a9190613214565b61027b610276366004613120565b610619565b6040516001600160a01b03909116815260200161024a565b6102a66102a1366004612fa8565b6106b3565b005b60d0545b60405190815260200161024a565b6102a66102c8366004613120565b6107e5565b6102a66102db366004612e85565b610844565b60cb546001600160a01b031661027b565b60cc546001600160a01b031661027b565b610315610310366004613120565b6108cb565b6040805182518152602092830151928101929092520161024a565b6102a661033e366004612e85565b610994565b6102a6610351366004613025565b6109af565b6102ac610364366004613138565b610a20565b61027b610377366004613120565b610a4d565b60cf546102ac565b6102a6610392366004612e39565b610ad8565b60ce546102ac565b6102ac6103ad366004612e39565b610b54565b6102a6610bee565b6033546001600160a01b031661027b565b6102a66103d9366004613120565b610c92565b61025b610d5f565b6102a66103f4366004613138565b610d6e565b6102a6610407366004612f72565b611099565b6102ac61041a366004613058565b61116b565b6102ac61042d3660046130dd565b6113bf565b6102a6610440366004612ec0565b6114a7565b6102a6610453366004613120565b611535565b61025b610466366004613120565b611602565b60d1546102ac565b6102a6610481366004612f26565b6116dd565b6102a6610494366004612e39565b61185e565b61023e6104a7366004612e53565b6001600160a01b039182166000908152609c6020908152604080832093909416825291909152205460ff1690565b6102a66104e3366004612e39565b6118da565b60006001600160e01b031982167f80ac58cd00000000000000000000000000000000000000000000000000000000148061054b57506001600160e01b031982167f5b5e139f00000000000000000000000000000000000000000000000000000000145b8061057f57507f01ffc9a7000000000000000000000000000000000000000000000000000000006001600160e01b03198316145b90505b919050565b60606097805461059690613296565b80601f01602080910402602001604051908101604052809291908181526020018280546105c290613296565b801561060f5780601f106105e45761010080835404028352916020019161060f565b820191906000526020600020905b8154815290600101906020018083116105f257829003601f168201915b5050505050905090565b6000818152609960205260408120546001600160a01b03166106975760405162461bcd60e51b815260206004820152602c60248201527f4552433732313a20617070726f76656420717565727920666f72206e6f6e657860448201526b34b9ba32b73a103a37b5b2b760a11b60648201526084015b60405180910390fd5b506000908152609b60205260409020546001600160a01b031690565b60006106be82610a4d565b9050806001600160a01b0316836001600160a01b031614156107485760405162461bcd60e51b815260206004820152602160248201527f4552433732313a20617070726f76616c20746f2063757272656e74206f776e6560448201527f7200000000000000000000000000000000000000000000000000000000000000606482015260840161068e565b336001600160a01b0382161480610764575061076481336104a7565b6107d65760405162461bcd60e51b815260206004820152603860248201527f4552433732313a20617070726f76652063616c6c6572206973206e6f74206f7760448201527f6e6572206e6f7220617070726f76656420666f7220616c6c0000000000000000606482015260840161068e565b6107e08383611a0c565b505050565b6033546001600160a01b0316331461083f5760405162461bcd60e51b815260206004820181905260248201527f4f776e61626c653a2063616c6c6572206973206e6f7420746865206f776e6572604482015260640161068e565b60cf55565b61084e3382611a7a565b6108c05760405162461bcd60e51b815260206004820152603160248201527f4552433732313a207472616e736665722063616c6c6572206973206e6f74206f60448201527f776e6572206e6f7220617070726f766564000000000000000000000000000000606482015260840161068e565b6107e0838383611b6d565b604080518082019091526000808252602082015281610901816000908152609960205260409020546001600160a01b0316151590565b6109655760405162461bcd60e51b815260206004820152602f60248201527f4552433732314d657461646174613a2055524920717565727920666f72206e6f60448201526e3732bc34b9ba32b73a103a37b5b2b760891b606482015260840161068e565b600083815260c96020908152604091829020825180840190935280548352600101549082015291505b50919050565b6107e0838383604051806020016040528060008152506114a7565b6033546001600160a01b03163314610a095760405162461bcd60e51b815260206004820181905260248201527f4f776e61626c653a2063616c6c6572206973206e6f7420746865206f776e6572604482015260640161068e565b8051610a1c9060d2906020840190612d02565b5050565b60008115610a4757610a3a82670de0b6b3a764000061323f565b610a44908461323f565b90505b92915050565b6000818152609960205260408120546001600160a01b03168061057f5760405162461bcd60e51b815260206004820152602960248201527f4552433732313a206f776e657220717565727920666f72206e6f6e657869737460448201527f656e7420746f6b656e0000000000000000000000000000000000000000000000606482015260840161068e565b6033546001600160a01b03163314610b325760405162461bcd60e51b815260206004820181905260248201527f4f776e61626c653a2063616c6c6572206973206e6f7420746865206f776e6572604482015260640161068e565b60cb80546001600160a01b0319166001600160a01b0392909216919091179055565b60006001600160a01b038216610bd25760405162461bcd60e51b815260206004820152602a60248201527f4552433732313a2062616c616e636520717565727920666f7220746865207a6560448201527f726f206164647265737300000000000000000000000000000000000000000000606482015260840161068e565b506001600160a01b03166000908152609a602052604090205490565b6033546001600160a01b03163314610c485760405162461bcd60e51b815260206004820181905260248201527f4f776e61626c653a2063616c6c6572206973206e6f7420746865206f776e6572604482015260640161068e565b6033546040516000916001600160a01b0316907f8be0079c531659141344cd1fd0a4f28419497f9722a3daafe3b4186f6b6457e0908390a3603380546001600160a01b0319169055565b6033546001600160a01b03163314610cec5760405162461bcd60e51b815260206004820181905260248201527f4f776e61626c653a2063616c6c6572206973206e6f7420746865206f776e6572604482015260640161068e565b670de0b6b3a76400008160d054610d039190613227565b11156040518060400160405280601c81526020017f4255524e5f54524541535552595f4d5553545f544f54414c5f4f4e450000000081525090610d595760405162461bcd60e51b815260040161068e9190613214565b5060d155565b60606098805461059690613296565b60008281526099602052604090205482906001600160a01b0316610dec5760405162461bcd60e51b815260206004820152602f60248201527f4552433732314d657461646174613a2055524920717565727920666f72206e6f60448201526e3732bc34b9ba32b73a103a37b5b2b760891b606482015260840161068e565b610df583610a4d565b6001600160a01b0316336001600160a01b031614156040518060400160405280601981526020017f43414e545f535550504f52545f53454c465f434f4e54454e540000000000000081525090610e5e5760405162461bcd60e51b815260040161068e9190613214565b506000806000610e6d85611d3a565b60cc5492955090935091506001600160a01b03168315610ef8576001600160a01b0381166379cc6790336040516001600160e01b031960e084901b1681526001600160a01b03909116600482015260248101879052604401600060405180830381600087803b158015610edf57600080fd5b505af1158015610ef3573d6000803e3d6000fd5b505050505b8215610f96576001600160a01b0381166323b872dd336040516001600160e01b031960e084901b1681526001600160a01b03909116600482015230602482015260448101869052606401602060405180830381600087803b158015610f5c57600080fd5b505af1158015610f70573d6000803e3d6000fd5b505050506040513d601f19601f82011682018060405250810190610f949190612fd1565b505b81156110405760cc546001600160a01b03166323b872dd33610fb78a610a4d565b6040516001600160e01b031960e085901b1681526001600160a01b0392831660048201529116602482015260448101859052606401602060405180830381600087803b15801561100657600080fd5b505af115801561101a573d6000803e3d6000fd5b505050506040513d601f19601f8201168201806040525081019061103e9190612fd1565b505b61104b878733611d78565b6040805187815260208101869052908101849052339088907f5d68364fffa9a34e52cf1cb2930a08837021eed766ce4cc6bf1ff132efcacc9d9060600160405180910390a350505050505050565b6001600160a01b0382163314156110f25760405162461bcd60e51b815260206004820152601960248201527f4552433732313a20617070726f766520746f2063616c6c657200000000000000604482015260640161068e565b336000818152609c602090815260408083206001600160a01b0387168085529252909120805460ff1916841515179055906001600160a01b03167f17307eab39ab6107e8899845ad3d59bd9653f200f220920489ca2b5937696c318360405161115f911515815260200190565b60405180910390a35050565b60003360cb5460405163c3c5a54760e01b81526001600160a01b0383811660048301529091169063c3c5a5479060240160206040518083038186803b1580156111b357600080fd5b505afa1580156111c7573d6000803e3d6000fd5b505050506040513d601f19601f820116820180604052508101906111eb9190612fd1565b6040518060400160405280601481526020017f48554d414e5f4e4f545f524547495354455245440000000000000000000000008152509061123f5760405162461bcd60e51b815260040161068e9190613214565b5060008686868a60405160200161125994939291906131e6565b60408051601f198184030181529190528051602082012090915060006112cc826040517f19457468657265756d205369676e6564204d6573736167653a0a3332000000006020820152603c8101829052600090605c01604051602081830303815290604052805190602001209050919050565b905060006112da8288611e1c565b9050896001600160a01b0316816001600160a01b0316146040518060400160405280601781526020017f504f5354415f494e56414c49445f5349474e4154555245000000000000000000815250906113455760405162461bcd60e51b815260040161068e9190613214565b506001600160a01b038116600090815260d3602090815260408083208b845290915290205460ff161561137757600080fd5b6001600160a01b038116600090815260d3602090815260408083208b84529091529020805460ff191660011790556113b08b8b8b611eeb565b9b9a5050505050505050505050565b60003360cb5460405163c3c5a54760e01b81526001600160a01b0383811660048301529091169063c3c5a5479060240160206040518083038186803b15801561140757600080fd5b505afa15801561141b573d6000803e3d6000fd5b505050506040513d601f19601f8201168201806040525081019061143f9190612fd1565b6040518060400160405280601481526020017f48554d414e5f4e4f545f52454749535445524544000000000000000000000000815250906114935760405162461bcd60e51b815260040161068e9190613214565b5061149f843385611eeb565b949350505050565b6114b13383611a7a565b6115235760405162461bcd60e51b815260206004820152603160248201527f4552433732313a207472616e736665722063616c6c6572206973206e6f74206f60448201527f776e6572206e6f7220617070726f766564000000000000000000000000000000606482015260840161068e565b61152f8484848461216f565b50505050565b6033546001600160a01b0316331461158f5760405162461bcd60e51b815260206004820181905260248201527f4f776e61626c653a2063616c6c6572206973206e6f7420746865206f776e6572604482015260640161068e565b670de0b6b3a764000060d154826115a69190613227565b11156040518060400160405280601c81526020017f4255524e5f54524541535552595f4d5553545f544f54414c5f4f4e4500000000815250906115fc5760405162461bcd60e51b815260040161068e9190613214565b5060d055565b6000818152609960205260409020546060906001600160a01b03166116815760405162461bcd60e51b815260206004820152602f60248201527f4552433732314d657461646174613a2055524920717565727920666f72206e6f60448201526e3732bc34b9ba32b73a103a37b5b2b760891b606482015260840161068e565b600061168b6121ed565b905060008151116116ab57604051806020016040528060008152506116d6565b806116b5846121fc565b6040516020016116c6929190613185565b6040516020818303038152906040525b9392505050565b600054610100900460ff16806116f6575060005460ff16155b6117595760405162461bcd60e51b815260206004820152602e60248201527f496e697469616c697a61626c653a20636f6e747261637420697320616c72656160448201526d191e481a5b9a5d1a585b1a5e995960921b606482015260840161068e565b600054610100900460ff16158015611784576000805460ff1961ff0019909116610100171660011790555b6117f86040518060400160405280600581526020017f506f7374610000000000000000000000000000000000000000000000000000008152506040518060400160405280600581526020017f504f53544100000000000000000000000000000000000000000000000000000081525061234b565b611800612422565b600060ce5560cb80546001600160a01b038089166001600160a01b03199283161790925560cc80549288169290911691909117905560cf84905560d083905560d18290558015611856576000805461ff00191690555b505050505050565b6033546001600160a01b031633146118b85760405162461bcd60e51b815260206004820181905260248201527f4f776e61626c653a2063616c6c6572206973206e6f7420746865206f776e6572604482015260640161068e565b60cc80546001600160a01b0319166001600160a01b0392909216919091179055565b6033546001600160a01b031633146119345760405162461bcd60e51b815260206004820181905260248201527f4f776e61626c653a2063616c6c6572206973206e6f7420746865206f776e6572604482015260640161068e565b6001600160a01b0381166119b05760405162461bcd60e51b815260206004820152602660248201527f4f776e61626c653a206e6577206f776e657220697320746865207a65726f206160448201527f6464726573730000000000000000000000000000000000000000000000000000606482015260840161068e565b6033546040516001600160a01b038084169216907f8be0079c531659141344cd1fd0a4f28419497f9722a3daafe3b4186f6b6457e090600090a3603380546001600160a01b0319166001600160a01b0392909216919091179055565b6000818152609b6020526040902080546001600160a01b0319166001600160a01b0384169081179091558190611a4182610a4d565b6001600160a01b03167f8c5be1e5ebec7d5bd14f71427d1e84f3dd0314c0f7b2291e5b200ac8c7c3b92560405160405180910390a45050565b6000818152609960205260408120546001600160a01b0316611af35760405162461bcd60e51b815260206004820152602c60248201527f4552433732313a206f70657261746f7220717565727920666f72206e6f6e657860448201526b34b9ba32b73a103a37b5b2b760a11b606482015260840161068e565b6000611afe83610a4d565b9050806001600160a01b0316846001600160a01b03161480611b395750836001600160a01b0316611b2e84610619565b6001600160a01b0316145b8061149f57506001600160a01b038082166000908152609c602090815260408083209388168352929052205460ff1661149f565b826001600160a01b0316611b8082610a4d565b6001600160a01b031614611bfc5760405162461bcd60e51b815260206004820152602960248201527f4552433732313a207472616e73666572206f6620746f6b656e2074686174206960448201527f73206e6f74206f776e0000000000000000000000000000000000000000000000606482015260840161068e565b6001600160a01b038216611c775760405162461bcd60e51b8152602060048201526024808201527f4552433732313a207472616e7366657220746f20746865207a65726f2061646460448201527f7265737300000000000000000000000000000000000000000000000000000000606482015260840161068e565b611c82600082611a0c565b6001600160a01b0383166000908152609a60205260408120805460019290611cab908490613253565b90915550506001600160a01b0382166000908152609a60205260408120805460019290611cd9908490613227565b909155505060008181526099602052604080822080546001600160a01b0319166001600160a01b0386811691821790925591518493918716917fddf252ad1be2c89b69c2b068fc378daa952ba7f163c4a11628f55a4df523b3ef91a4505050565b6000806000611d4b8460d054610a20565b9250611d598460d154610a20565b915081611d668486613253565b611d709190613253565b929491935050565b600083815260c9602052604081208054849290611d96908490613227565b9091555050600083815260ca602090815260408083206001600160a01b038516845290915290205460ff166107e057600083815260ca602090815260408083206001600160a01b03851684528252808320805460ff1916600190811790915586845260c990925282208101805491929091611e12908490613227565b9091555050505050565b600080600080845160411415611e465750505060208201516040830151606084015160001a611ed5565b845160401415611e8d5750505060408201516020830151907f7fffffffffffffffffffffffffffffffffffffffffffffffffffffffffffffff81169060ff1c601b01611ed5565b60405162461bcd60e51b815260206004820152601f60248201527f45434453413a20696e76616c6964207369676e6174757265206c656e67746800604482015260640161068e565b611ee1868285856124ee565b9695505050505050565b60003360cb5460405163c3c5a54760e01b81526001600160a01b0383811660048301529091169063c3c5a5479060240160206040518083038186803b158015611f3357600080fd5b505afa158015611f47573d6000803e3d6000fd5b505050506040513d601f19601f82011682018060405250810190611f6b9190612fd1565b6040518060400160405280601481526020017f48554d414e5f4e4f545f5245474953544552454400000000000000000000000081525090611fbf5760405162461bcd60e51b815260040161068e9190613214565b5060cf54855111156040518060400160405280601281526020017f504f53545f544558545f544f4f5f4c4f4e4700000000000000000000000000008152509061201b5760405162461bcd60e51b815260040161068e9190613214565b5082156120ac576000838152609960205260409020546001600160a01b03166120ac5760405162461bcd60e51b815260206004820152602c60248201527f504f5354413a2052657175657374696e67207265706c79206f66206e6f6e657860448201527f697374656e7420706f7374610000000000000000000000000000000000000000606482015260840161068e565b600160ce60008282546120bf9190613227565b909155505060ce546120d18582612697565b60408051808201909152600080825260208201526120ef82826126b1565b81866001600160a01b03167fd8c86c7877c3f1f8a40af6cf64a11fe867af887f2a1ad31aac849e36730425b0896040516121299190613214565b60405180910390a3841561216557604051859083907f2b50d9ccb8650c1d7f446f9ae1358e761b3a0601260793e28bc458d80b81a74f90600090a35b5095945050505050565b61217a848484611b6d565b61218684848484612750565b61152f5760405162461bcd60e51b815260206004820152603260248201527f4552433732313a207472616e7366657220746f206e6f6e20455243373231526560448201527131b2b4bb32b91034b6b83632b6b2b73a32b960711b606482015260840161068e565b606060d2805461059690613296565b60608161223d575060408051808201909152600181527f30000000000000000000000000000000000000000000000000000000000000006020820152610582565b8160005b81156122675780612251816132cb565b91506122609050600a8361323f565b9150612241565b60008167ffffffffffffffff81111561229057634e487b7160e01b600052604160045260246000fd5b6040519080825280601f01601f1916602001820160405280156122ba576020820181803683370190505b5090505b841561149f576122cf600183613253565b91506122dc600a866132e6565b6122e7906030613227565b60f81b81838151811061230a57634e487b7160e01b600052603260045260246000fd5b60200101907effffffffffffffffffffffffffffffffffffffffffffffffffffffffffffff1916908160001a905350612344600a8661323f565b94506122be565b600054610100900460ff1680612364575060005460ff16155b6123c75760405162461bcd60e51b815260206004820152602e60248201527f496e697469616c697a61626c653a20636f6e747261637420697320616c72656160448201526d191e481a5b9a5d1a585b1a5e995960921b606482015260840161068e565b600054610100900460ff161580156123f2576000805460ff1961ff0019909116610100171660011790555b6123fa6128a5565b6124026128a5565b61240c838361295f565b80156107e0576000805461ff0019169055505050565b600054610100900460ff168061243b575060005460ff16155b61249e5760405162461bcd60e51b815260206004820152602e60248201527f496e697469616c697a61626c653a20636f6e747261637420697320616c72656160448201526d191e481a5b9a5d1a585b1a5e995960921b606482015260840161068e565b600054610100900460ff161580156124c9576000805460ff1961ff0019909116610100171660011790555b6124d16128a5565b6124d9612a44565b80156124eb576000805461ff00191690555b50565b60007f7fffffffffffffffffffffffffffffff5d576e7357a4501ddfe92f46681b20a082111561256b5760405162461bcd60e51b815260206004820152602260248201527f45434453413a20696e76616c6964207369676e6174757265202773272076616c604482015261756560f01b606482015260840161068e565b8360ff16601b148061258057508360ff16601c145b6125d75760405162461bcd60e51b815260206004820152602260248201527f45434453413a20696e76616c6964207369676e6174757265202776272076616c604482015261756560f01b606482015260840161068e565b6040805160008082526020820180845288905260ff871692820192909252606081018590526080810184905260019060a0016020604051602081039080840390855afa15801561262b573d6000803e3d6000fd5b5050604051601f1901519150506001600160a01b03811661268e5760405162461bcd60e51b815260206004820152601860248201527f45434453413a20696e76616c6964207369676e61747572650000000000000000604482015260640161068e565b95945050505050565b610a1c828260405180602001604052806000815250612b42565b60008281526099602052604090205482906001600160a01b031661272f5760405162461bcd60e51b815260206004820152602f60248201527f4552433732314d657461646174613a2055524920717565727920666f72206e6f60448201526e3732bc34b9ba32b73a103a37b5b2b760891b606482015260840161068e565b50600091825260c96020908152604090922081518155910151600190910155565b60006001600160a01b0384163b1561289d57604051630a85bd0160e11b81526001600160a01b0385169063150b7a02906127949033908990889088906004016131b4565b602060405180830381600087803b1580156127ae57600080fd5b505af19250505080156127de575060408051601f3d908101601f191682019092526127db91810190613009565b60015b612883573d80801561280c576040519150601f19603f3d011682016040523d82523d6000602084013e612811565b606091505b50805161287b5760405162461bcd60e51b815260206004820152603260248201527f4552433732313a207472616e7366657220746f206e6f6e20455243373231526560448201527131b2b4bb32b91034b6b83632b6b2b73a32b960711b606482015260840161068e565b805181602001fd5b6001600160e01b031916630a85bd0160e11b14905061149f565b50600161149f565b600054610100900460ff16806128be575060005460ff16155b6129215760405162461bcd60e51b815260206004820152602e60248201527f496e697469616c697a61626c653a20636f6e747261637420697320616c72656160448201526d191e481a5b9a5d1a585b1a5e995960921b606482015260840161068e565b600054610100900460ff161580156124d9576000805460ff1961ff00199091166101001716600117905580156124eb576000805461ff001916905550565b600054610100900460ff1680612978575060005460ff16155b6129db5760405162461bcd60e51b815260206004820152602e60248201527f496e697469616c697a61626c653a20636f6e747261637420697320616c72656160448201526d191e481a5b9a5d1a585b1a5e995960921b606482015260840161068e565b600054610100900460ff16158015612a06576000805460ff1961ff0019909116610100171660011790555b8251612a19906097906020860190612d02565b508151612a2d906098906020850190612d02565b5080156107e0576000805461ff0019169055505050565b600054610100900460ff1680612a5d575060005460ff16155b612ac05760405162461bcd60e51b815260206004820152602e60248201527f496e697469616c697a61626c653a20636f6e747261637420697320616c72656160448201526d191e481a5b9a5d1a585b1a5e995960921b606482015260840161068e565b600054610100900460ff16158015612aeb576000805460ff1961ff0019909116610100171660011790555b603380546001600160a01b0319163390811790915560405181906000907f8be0079c531659141344cd1fd0a4f28419497f9722a3daafe3b4186f6b6457e0908290a35080156124eb576000805461ff001916905550565b612b4c8383612bc0565b612b596000848484612750565b6107e05760405162461bcd60e51b815260206004820152603260248201527f4552433732313a207472616e7366657220746f206e6f6e20455243373231526560448201527131b2b4bb32b91034b6b83632b6b2b73a32b960711b606482015260840161068e565b6001600160a01b038216612c165760405162461bcd60e51b815260206004820181905260248201527f4552433732313a206d696e7420746f20746865207a65726f2061646472657373604482015260640161068e565b6000818152609960205260409020546001600160a01b031615612c7b5760405162461bcd60e51b815260206004820152601c60248201527f4552433732313a20746f6b656e20616c7265616479206d696e74656400000000604482015260640161068e565b6001600160a01b0382166000908152609a60205260408120805460019290612ca4908490613227565b909155505060008181526099602052604080822080546001600160a01b0319166001600160a01b03861690811790915590518392907fddf252ad1be2c89b69c2b068fc378daa952ba7f163c4a11628f55a4df523b3ef908290a45050565b828054612d0e90613296565b90600052602060002090601f016020900481019282612d305760008555612d76565b82601f10612d4957805160ff1916838001178555612d76565b82800160010185558215612d76579182015b82811115612d76578251825591602001919060010190612d5b565b50612d82929150612d86565b5090565b5b80821115612d825760008155600101612d87565b80356001600160a01b038116811461058257600080fd5b600082601f830112612dc2578081fd5b813567ffffffffffffffff80821115612ddd57612ddd613326565b604051601f8301601f19908116603f01168101908282118183101715612e0557612e05613326565b81604052838152866020858801011115612e1d578485fd5b8360208701602083013792830160200193909352509392505050565b600060208284031215612e4a578081fd5b610a4482612d9b565b60008060408385031215612e65578081fd5b612e6e83612d9b565b9150612e7c60208401612d9b565b90509250929050565b600080600060608486031215612e99578081fd5b612ea284612d9b565b9250612eb060208501612d9b565b9150604084013590509250925092565b60008060008060808587031215612ed5578081fd5b612ede85612d9b565b9350612eec60208601612d9b565b925060408501359150606085013567ffffffffffffffff811115612f0e578182fd5b612f1a87828801612db2565b91505092959194509250565b600080600080600060a08688031215612f3d578081fd5b612f4686612d9b565b9450612f5460208701612d9b565b94979496505050506040830135926060810135926080909101359150565b60008060408385031215612f84578182fd5b612f8d83612d9b565b91506020830135612f9d8161333c565b809150509250929050565b60008060408385031215612fba578182fd5b612fc383612d9b565b946020939093013593505050565b600060208284031215612fe2578081fd5b81516116d68161333c565b600060208284031215612ffe578081fd5b81356116d68161334a565b60006020828403121561301a578081fd5b81516116d68161334a565b600060208284031215613036578081fd5b813567ffffffffffffffff81111561304c578182fd5b61149f84828501612db2565b600080600080600060a0868803121561306f578081fd5b853567ffffffffffffffff80821115613086578283fd5b61309289838a01612db2565b96506130a060208901612d9b565b9550604088013594506060880135935060808801359150808211156130c3578283fd5b506130d088828901612db2565b9150509295509295909350565b600080604083850312156130ef578182fd5b823567ffffffffffffffff811115613105578283fd5b61311185828601612db2565b95602094909401359450505050565b600060208284031215613131578081fd5b5035919050565b6000806040838503121561314a578182fd5b50508035926020909101359150565b6000815180845261317181602086016020860161326a565b601f01601f19169290920160200192915050565b6000835161319781846020880161326a565b8351908301906131ab81836020880161326a565b01949350505050565b60006001600160a01b03808716835280861660208401525083604083015260806060830152611ee16080830184613159565b60006001600160a01b038616825284602083015283604083015260806060830152611ee16080830184613159565b600060208252610a446020830184613159565b6000821982111561323a5761323a6132fa565b500190565b60008261324e5761324e613310565b500490565b600082821015613265576132656132fa565b500390565b60005b8381101561328557818101518382015260200161326d565b8381111561152f5750506000910152565b6002810460018216806132aa57607f821691505b6020821081141561098e57634e487b7160e01b600052602260045260246000fd5b60006000198214156132df576132df6132fa565b5060010190565b6000826132f5576132f5613310565b500690565b634e487b7160e01b600052601160045260246000fd5b634e487b7160e01b600052601260045260246000fd5b634e487b7160e01b600052604160045260246000fd5b80151581146124eb57600080fd5b6001600160e01b0319811681146124eb57600080fdfea264697066735822122086bd051fdbf404bffa0efe408f21a7609de2cdce755b474f6274a2dd1ab1793664736f6c63430008020033",
  "linkReferences": {},
  "deployedLinkReferences": {}
}