{
  "contractName": "Posta",
  "abi": [
    {
      "anonymous": false,
      "inputs": [
        {
          "indexed": true,
          "internalType": "address",
          "name": "owner",
          "type": "address"
        },
        {
          "indexed": true,
          "internalType": "address",
          "name": "approved",
          "type": "address"
        },
        {
          "indexed": true,
          "internalType": "uint256",
          "name": "tokenId",
          "type": "uint256"
        }
      ],
      "name": "Approval",
      "type": "event"
    },
    {
      "anonymous": false,
      "inputs": [
        {
          "indexed": true,
          "internalType": "address",
          "name": "owner",
          "type": "address"
        },
        {
          "indexed": true,
          "internalType": "address",
          "name": "operator",
          "type": "address"
        },
        {
          "indexed": false,
          "internalType": "bool",
          "name": "approved",
          "type": "bool"
        }
      ],
      "name": "ApprovalForAll",
      "type": "event"
    },
    {
      "anonymous": false,
      "inputs": [
        {
          "indexed": true,
          "internalType": "address",
          "name": "author",
          "type": "address"
        },
        {
          "indexed": true,
          "internalType": "uint256",
          "name": "tokenId",
          "type": "uint256"
        },
        {
          "indexed": false,
          "internalType": "string",
          "name": "value",
          "type": "string"
        }
      ],
      "name": "NewPost",
      "type": "event"
    },
    {
      "anonymous": false,
      "inputs": [
        {
          "indexed": true,
          "internalType": "address",
          "name": "previousOwner",
          "type": "address"
        },
        {
          "indexed": true,
          "internalType": "address",
          "name": "newOwner",
          "type": "address"
        }
      ],
      "name": "OwnershipTransferred",
      "type": "event"
    },
    {
      "anonymous": false,
      "inputs": [
        {
          "indexed": true,
          "internalType": "address",
          "name": "from",
          "type": "address"
        },
        {
          "indexed": true,
          "internalType": "address",
          "name": "to",
          "type": "address"
        },
        {
          "indexed": true,
          "internalType": "uint256",
          "name": "tokenId",
          "type": "uint256"
        }
      ],
      "name": "Transfer",
      "type": "event"
    },
    {
      "inputs": [
        {
          "internalType": "address",
          "name": "to",
          "type": "address"
        },
        {
          "internalType": "uint256",
          "name": "tokenId",
          "type": "uint256"
        }
      ],
      "name": "approve",
      "outputs": [],
      "stateMutability": "nonpayable",
      "type": "function"
    },
    {
      "inputs": [
        {
          "internalType": "address",
          "name": "owner",
          "type": "address"
        }
      ],
      "name": "balanceOf",
      "outputs": [
        {
          "internalType": "uint256",
          "name": "",
          "type": "uint256"
        }
      ],
      "stateMutability": "view",
      "type": "function",
      "constant": true
    },
    {
      "inputs": [
        {
          "internalType": "uint256",
          "name": "tokenId",
          "type": "uint256"
        }
      ],
      "name": "getApproved",
      "outputs": [
        {
          "internalType": "address",
          "name": "",
          "type": "address"
        }
      ],
      "stateMutability": "view",
      "type": "function",
      "constant": true
    },
    {
      "inputs": [
        {
          "internalType": "address",
          "name": "owner",
          "type": "address"
        },
        {
          "internalType": "address",
          "name": "operator",
          "type": "address"
        }
      ],
      "name": "isApprovedForAll",
      "outputs": [
        {
          "internalType": "bool",
          "name": "",
          "type": "bool"
        }
      ],
      "stateMutability": "view",
      "type": "function",
      "constant": true
    },
    {
      "inputs": [],
      "name": "name",
      "outputs": [
        {
          "internalType": "string",
          "name": "",
          "type": "string"
        }
      ],
      "stateMutability": "view",
      "type": "function",
      "constant": true
    },
    {
      "inputs": [],
      "name": "owner",
      "outputs": [
        {
          "internalType": "address",
          "name": "",
          "type": "address"
        }
      ],
      "stateMutability": "view",
      "type": "function",
      "constant": true
    },
    {
      "inputs": [
        {
          "internalType": "uint256",
          "name": "tokenId",
          "type": "uint256"
        }
      ],
      "name": "ownerOf",
      "outputs": [
        {
          "internalType": "address",
          "name": "",
          "type": "address"
        }
      ],
      "stateMutability": "view",
      "type": "function",
      "constant": true
    },
    {
      "inputs": [],
      "name": "renounceOwnership",
      "outputs": [],
      "stateMutability": "nonpayable",
      "type": "function"
    },
    {
      "inputs": [
        {
          "internalType": "address",
          "name": "from",
          "type": "address"
        },
        {
          "internalType": "address",
          "name": "to",
          "type": "address"
        },
        {
          "internalType": "uint256",
          "name": "tokenId",
          "type": "uint256"
        }
      ],
      "name": "safeTransferFrom",
      "outputs": [],
      "stateMutability": "nonpayable",
      "type": "function"
    },
    {
      "inputs": [
        {
          "internalType": "address",
          "name": "from",
          "type": "address"
        },
        {
          "internalType": "address",
          "name": "to",
          "type": "address"
        },
        {
          "internalType": "uint256",
          "name": "tokenId",
          "type": "uint256"
        },
        {
          "internalType": "bytes",
          "name": "_data",
          "type": "bytes"
        }
      ],
      "name": "safeTransferFrom",
      "outputs": [],
      "stateMutability": "nonpayable",
      "type": "function"
    },
    {
      "inputs": [
        {
          "internalType": "address",
          "name": "operator",
          "type": "address"
        },
        {
          "internalType": "bool",
          "name": "approved",
          "type": "bool"
        }
      ],
      "name": "setApprovalForAll",
      "outputs": [],
      "stateMutability": "nonpayable",
      "type": "function"
    },
    {
      "inputs": [
        {
          "internalType": "bytes4",
          "name": "interfaceId",
          "type": "bytes4"
        }
      ],
      "name": "supportsInterface",
      "outputs": [
        {
          "internalType": "bool",
          "name": "",
          "type": "bool"
        }
      ],
      "stateMutability": "view",
      "type": "function",
      "constant": true
    },
    {
      "inputs": [],
      "name": "symbol",
      "outputs": [
        {
          "internalType": "string",
          "name": "",
          "type": "string"
        }
      ],
      "stateMutability": "view",
      "type": "function",
      "constant": true
    },
    {
      "inputs": [
        {
          "internalType": "uint256",
          "name": "tokenId",
          "type": "uint256"
        }
      ],
      "name": "tokenURI",
      "outputs": [
        {
          "internalType": "string",
          "name": "",
          "type": "string"
        }
      ],
      "stateMutability": "view",
      "type": "function",
      "constant": true
    },
    {
      "inputs": [
        {
          "internalType": "address",
          "name": "from",
          "type": "address"
        },
        {
          "internalType": "address",
          "name": "to",
          "type": "address"
        },
        {
          "internalType": "uint256",
          "name": "tokenId",
          "type": "uint256"
        }
      ],
      "name": "transferFrom",
      "outputs": [],
      "stateMutability": "nonpayable",
      "type": "function"
    },
    {
      "inputs": [
        {
          "internalType": "address",
          "name": "newOwner",
          "type": "address"
        }
      ],
      "name": "transferOwnership",
      "outputs": [],
      "stateMutability": "nonpayable",
      "type": "function"
    },
    {
      "inputs": [
        {
          "internalType": "address",
          "name": "poh",
          "type": "address"
        },
        {
          "internalType": "address",
          "name": "ubi",
          "type": "address"
        },
        {
          "internalType": "uint256",
          "name": "maxChars",
          "type": "uint256"
        }
      ],
      "name": "initialize",
      "outputs": [],
      "stateMutability": "nonpayable",
      "type": "function"
    },
    {
      "inputs": [
        {
          "internalType": "string",
          "name": "text",
          "type": "string"
        }
      ],
      "name": "publishPost",
      "outputs": [
        {
          "internalType": "uint256",
          "name": "",
          "type": "uint256"
        }
      ],
      "stateMutability": "nonpayable",
      "type": "function"
    },
    {
      "inputs": [
        {
          "internalType": "string",
          "name": "baseURI_",
          "type": "string"
        }
      ],
      "name": "setBaseURI",
      "outputs": [],
      "stateMutability": "nonpayable",
      "type": "function"
    },
    {
      "inputs": [
        {
          "internalType": "uint256",
          "name": "maxChars",
          "type": "uint256"
        }
      ],
      "name": "setMaxChars",
      "outputs": [],
      "stateMutability": "nonpayable",
      "type": "function"
    },
    {
      "inputs": [],
      "name": "getMaxChars",
      "outputs": [
        {
          "internalType": "uint256",
          "name": "",
          "type": "uint256"
        }
      ],
      "stateMutability": "view",
      "type": "function",
      "constant": true
    },
    {
      "inputs": [],
      "name": "getTokenCounter",
      "outputs": [
        {
          "internalType": "uint256",
          "name": "",
          "type": "uint256"
        }
      ],
      "stateMutability": "view",
      "type": "function",
      "constant": true
    },
    {
      "inputs": [
        {
          "internalType": "uint256",
          "name": "tokenId",
          "type": "uint256"
        }
      ],
      "name": "getPost",
      "outputs": [
        {
          "components": [
            {
              "internalType": "uint256",
              "name": "supportGiven",
              "type": "uint256"
            },
            {
              "internalType": "uint256",
              "name": "supportersCount",
              "type": "uint256"
            }
          ],
          "internalType": "struct PostaStorage.PostaData",
          "name": "",
          "type": "tuple"
        }
      ],
      "stateMutability": "view",
      "type": "function",
      "constant": true
    },
    {
      "inputs": [
        {
          "internalType": "uint256",
          "name": "tokenId",
          "type": "uint256"
        },
        {
          "internalType": "uint256",
          "name": "ubiAmount",
          "type": "uint256"
        }
      ],
      "name": "support",
      "outputs": [],
      "stateMutability": "nonpayable",
      "type": "function"
    }
  ],
  "bytecode": "0x608060405234801561001057600080fd5b50614111806100206000396000f3fe608060405234801561001057600080fd5b50600436106101585760003560e01c80636e02007d116100c3578063a22cb4651161007c578063a22cb465146103b1578063b88d4fde146103cd578063c5719463146103e9578063c87b56dd14610419578063e985e9c514610449578063f2fde38b1461047957610158565b80636e02007d1461030157806370a082311461031f578063715018a61461034f5780638da5cb5b1461035957806395d89b41146103775780639be56c671461039557610158565b806323b872dd1161011557806323b872dd1461022f57806340731c241461024b57806342842e0e1461027b57806355f804b3146102975780636352211e146102b357806367b7793d146102e357610158565b806301ffc9a71461015d57806306fdde031461018d578063081812fc146101ab578063095ea7b3146101db5780631794bb3c146101f75780631a8d8d1814610213575b600080fd5b61017760048036038101906101729190613089565b610495565b6040516101849190613a0e565b60405180910390f35b610195610577565b6040516101a29190613a29565b60405180910390f35b6101c560048036038101906101c0919061311c565b610609565b6040516101d29190613947565b60405180910390f35b6101f560048036038101906101f09190613024565b61068e565b005b610211600480360381019061020c9190612f1e565b6107a6565b005b61022d6004803603810190610228919061311c565b610993565b005b61024960048036038101906102449190612f1e565b610a19565b005b6102656004803603810190610260919061311c565b610a79565b6040516102729190613c8b565b60405180910390f35b61029560048036038101906102909190612f1e565b610b04565b005b6102b160048036038101906102ac91906130db565b610b24565b005b6102cd60048036038101906102c8919061311c565b610bba565b6040516102da9190613947565b60405180910390f35b6102eb610c6c565b6040516102f89190613ca6565b60405180910390f35b610309610c76565b6040516103169190613ca6565b60405180910390f35b61033960048036038101906103349190612eb9565b610c80565b6040516103469190613ca6565b60405180910390f35b610357610d38565b005b610361610e75565b60405161036e9190613947565b60405180910390f35b61037f610e9f565b60405161038c9190613a29565b60405180910390f35b6103af60048036038101906103aa9190613145565b610f31565b005b6103cb60048036038101906103c69190612fe8565b611219565b005b6103e760048036038101906103e29190612f6d565b61139a565b005b61040360048036038101906103fe91906130db565b6113fc565b6040516104109190613ca6565b60405180910390f35b610433600480360381019061042e919061311c565b61165b565b6040516104409190613a29565b60405180910390f35b610463600480360381019061045e9190612ee2565b611702565b6040516104709190613a0e565b60405180910390f35b610493600480360381019061048e9190612eb9565b611796565b005b60007f80ac58cd000000000000000000000000000000000000000000000000000000007bffffffffffffffffffffffffffffffffffffffffffffffffffffffff1916827bffffffffffffffffffffffffffffffffffffffffffffffffffffffff1916148061056057507f5b5e139f000000000000000000000000000000000000000000000000000000007bffffffffffffffffffffffffffffffffffffffffffffffffffffffff1916827bffffffffffffffffffffffffffffffffffffffffffffffffffffffff1916145b80610570575061056f82611942565b5b9050919050565b6060609e805461058690613f06565b80601f01602080910402602001604051908101604052809291908181526020018280546105b290613f06565b80156105ff5780601f106105d4576101008083540402835291602001916105ff565b820191906000526020600020905b8154815290600101906020018083116105e257829003601f168201915b5050505050905090565b6000610614826119ac565b610653576040517f08c379a000000000000000000000000000000000000000000000000000000000815260040161064a90613bab565b60405180910390fd5b60a2600083815260200190815260200160002060009054906101000a900473ffffffffffffffffffffffffffffffffffffffff169050919050565b600061069982610bba565b90508073ffffffffffffffffffffffffffffffffffffffff168373ffffffffffffffffffffffffffffffffffffffff16141561070a576040517f08c379a000000000000000000000000000000000000000000000000000000000815260040161070190613c2b565b60405180910390fd5b8073ffffffffffffffffffffffffffffffffffffffff16610729611a18565b73ffffffffffffffffffffffffffffffffffffffff161480610758575061075781610752611a18565b611702565b5b610797576040517f08c379a000000000000000000000000000000000000000000000000000000000815260040161078e90613b0b565b60405180910390fd5b6107a18383611a20565b505050565b600760019054906101000a900460ff16806107ce5750600760009054906101000a900460ff16155b61080d576040517f08c379a000000000000000000000000000000000000000000000000000000000815260040161080490613b6b565b60405180910390fd5b6000600760019054906101000a900460ff16159050801561085f576001600760016101000a81548160ff0219169083151502179055506001600760006101000a81548160ff0219169083151502179055505b6108d36040518060400160405280600581526020017f506f7374610000000000000000000000000000000000000000000000000000008152506040518060400160405280600481526020017f5053544100000000000000000000000000000000000000000000000000000000815250611ad9565b6108db611bd3565b600060058190555083600460006101000a81548173ffffffffffffffffffffffffffffffffffffffff021916908373ffffffffffffffffffffffffffffffffffffffff160217905550826000806101000a81548173ffffffffffffffffffffffffffffffffffffffff021916908373ffffffffffffffffffffffffffffffffffffffff16021790555081600181905550801561098d576000600760016101000a81548160ff0219169083151502179055505b50505050565b61099b611a18565b73ffffffffffffffffffffffffffffffffffffffff166109b9610e75565b73ffffffffffffffffffffffffffffffffffffffff1614610a0f576040517f08c379a0000000000000000000000000000000000000000000000000000000008152600401610a0690613bcb565b60405180910390fd5b8060018190555050565b610a2a610a24611a18565b82611cc1565b610a69576040517f08c379a0000000000000000000000000000000000000000000000000000000008152600401610a6090613c4b565b60405180910390fd5b610a74838383611d9f565b505050565b610a81612cae565b81610a8b816119ac565b610aca576040517f08c379a0000000000000000000000000000000000000000000000000000000008152600401610ac190613c0b565b60405180910390fd5b6002600084815260200190815260200160002060405180604001604052908160008201548152602001600182015481525050915050919050565b610b1f8383836040518060200160405280600081525061139a565b505050565b610b2c611a18565b73ffffffffffffffffffffffffffffffffffffffff16610b4a610e75565b73ffffffffffffffffffffffffffffffffffffffff1614610ba0576040517f08c379a0000000000000000000000000000000000000000000000000000000008152600401610b9790613bcb565b60405180910390fd5b8060069080519060200190610bb6929190612cc8565b5050565b60008060a0600084815260200190815260200160002060009054906101000a900473ffffffffffffffffffffffffffffffffffffffff169050600073ffffffffffffffffffffffffffffffffffffffff168173ffffffffffffffffffffffffffffffffffffffff161415610c63576040517f08c379a0000000000000000000000000000000000000000000000000000000008152600401610c5a90613b4b565b60405180910390fd5b80915050919050565b6000600154905090565b6000600554905090565b60008073ffffffffffffffffffffffffffffffffffffffff168273ffffffffffffffffffffffffffffffffffffffff161415610cf1576040517f08c379a0000000000000000000000000000000000000000000000000000000008152600401610ce890613b2b565b60405180910390fd5b60a160008373ffffffffffffffffffffffffffffffffffffffff1673ffffffffffffffffffffffffffffffffffffffff168152602001908152602001600020549050919050565b610d40611a18565b73ffffffffffffffffffffffffffffffffffffffff16610d5e610e75565b73ffffffffffffffffffffffffffffffffffffffff1614610db4576040517f08c379a0000000000000000000000000000000000000000000000000000000008152600401610dab90613bcb565b60405180910390fd5b600073ffffffffffffffffffffffffffffffffffffffff16603a60009054906101000a900473ffffffffffffffffffffffffffffffffffffffff1673ffffffffffffffffffffffffffffffffffffffff167f8be0079c531659141344cd1fd0a4f28419497f9722a3daafe3b4186f6b6457e060405160405180910390a36000603a60006101000a81548173ffffffffffffffffffffffffffffffffffffffff021916908373ffffffffffffffffffffffffffffffffffffffff160217905550565b6000603a60009054906101000a900473ffffffffffffffffffffffffffffffffffffffff16905090565b6060609f8054610eae90613f06565b80601f0160208091040260200160405190810160405280929190818152602001828054610eda90613f06565b8015610f275780601f10610efc57610100808354040283529160200191610f27565b820191906000526020600020905b815481529060010190602001808311610f0a57829003601f168201915b5050505050905090565b81610f3b816119ac565b610f7a576040517f08c379a0000000000000000000000000000000000000000000000000000000008152600401610f7190613c0b565b60405180910390fd5b610f8383610bba565b73ffffffffffffffffffffffffffffffffffffffff16610fa1611a18565b73ffffffffffffffffffffffffffffffffffffffff1614156040518060400160405280601981526020017f43414e545f535550504f52545f53454c465f434f4e54454e540000000000000081525090611030576040517f08c379a00000000000000000000000000000000000000000000000000000000081526004016110279190613a29565b60405180910390fd5b506000611047600284611ffb90919063ffffffff16565b90506000811161108c576040517f08c379a000000000000000000000000000000000000000000000000000000000815260040161108390613c6b565b60405180910390fd5b60008054906101000a900473ffffffffffffffffffffffffffffffffffffffff1673ffffffffffffffffffffffffffffffffffffffff166379cc67906110d0611a18565b836040518363ffffffff1660e01b81526004016110ee9291906139e5565b600060405180830381600087803b15801561110857600080fd5b505af115801561111c573d6000803e3d6000fd5b505050506000611135828561201190919063ffffffff16565b905060008111156112005760008054906101000a900473ffffffffffffffffffffffffffffffffffffffff1673ffffffffffffffffffffffffffffffffffffffff166323b872dd611184611a18565b61118d88610bba565b846040518463ffffffff1660e01b81526004016111ac93929190613962565b602060405180830381600087803b1580156111c657600080fd5b505af11580156111da573d6000803e3d6000fd5b505050506040513d601f19601f820116820180604052508101906111fe9190613060565b505b611212858561120d611a18565b612027565b5050505050565b611221611a18565b73ffffffffffffffffffffffffffffffffffffffff168273ffffffffffffffffffffffffffffffffffffffff16141561128f576040517f08c379a000000000000000000000000000000000000000000000000000000000815260040161128690613acb565b60405180910390fd5b8060a3600061129c611a18565b73ffffffffffffffffffffffffffffffffffffffff1673ffffffffffffffffffffffffffffffffffffffff16815260200190815260200160002060008473ffffffffffffffffffffffffffffffffffffffff1673ffffffffffffffffffffffffffffffffffffffff16815260200190815260200160002060006101000a81548160ff0219169083151502179055508173ffffffffffffffffffffffffffffffffffffffff16611349611a18565b73ffffffffffffffffffffffffffffffffffffffff167f17307eab39ab6107e8899845ad3d59bd9653f200f220920489ca2b5937696c318360405161138e9190613a0e565b60405180910390a35050565b6113ab6113a5611a18565b83611cc1565b6113ea576040517f08c379a00000000000000000000000000000000000000000000000000000000081526004016113e190613c4b565b60405180910390fd5b6113f684848484612153565b50505050565b6000611406611a18565b600460009054906101000a900473ffffffffffffffffffffffffffffffffffffffff1673ffffffffffffffffffffffffffffffffffffffff1663c3c5a547826040518263ffffffff1660e01b81526004016114619190613947565b60206040518083038186803b15801561147957600080fd5b505afa15801561148d573d6000803e3d6000fd5b505050506040513d601f19601f820116820180604052508101906114b19190613060565b6040518060400160405280601481526020017f48554d414e5f4e4f545f5245474953544552454400000000000000000000000081525090611528576040517f08c379a000000000000000000000000000000000000000000000000000000000815260040161151f9190613a29565b60405180910390fd5b50600154835111156040518060400160405280601281526020017f504f53545f544558545f544f4f5f4c4f4e470000000000000000000000000000815250906115a7576040517f08c379a000000000000000000000000000000000000000000000000000000000815260040161159e9190613a29565b60405180910390fd5b50600060055490506115c06115ba611a18565b826121af565b6000604051806040016040528060008152602001600081525090506115e582826121cd565b60016005546115f49190613d95565b60058190555081611603611a18565b73ffffffffffffffffffffffffffffffffffffffff167fd8c86c7877c3f1f8a40af6cf64a11fe867af887f2a1ad31aac849e36730425b0876040516116489190613a29565b60405180910390a3819350505050919050565b6060611666826119ac565b6116a5576040517f08c379a000000000000000000000000000000000000000000000000000000000815260040161169c90613c0b565b60405180910390fd5b60006116af612246565b905060008151116116cf57604051806020016040528060008152506116fa565b806116d9846122d8565b6040516020016116ea929190613923565b6040516020818303038152906040525b915050919050565b600060a360008473ffffffffffffffffffffffffffffffffffffffff1673ffffffffffffffffffffffffffffffffffffffff16815260200190815260200160002060008373ffffffffffffffffffffffffffffffffffffffff1673ffffffffffffffffffffffffffffffffffffffff16815260200190815260200160002060009054906101000a900460ff16905092915050565b61179e611a18565b73ffffffffffffffffffffffffffffffffffffffff166117bc610e75565b73ffffffffffffffffffffffffffffffffffffffff1614611812576040517f08c379a000000000000000000000000000000000000000000000000000000000815260040161180990613bcb565b60405180910390fd5b600073ffffffffffffffffffffffffffffffffffffffff168173ffffffffffffffffffffffffffffffffffffffff161415611882576040517f08c379a000000000000000000000000000000000000000000000000000000000815260040161187990613a6b565b60405180910390fd5b8073ffffffffffffffffffffffffffffffffffffffff16603a60009054906101000a900473ffffffffffffffffffffffffffffffffffffffff1673ffffffffffffffffffffffffffffffffffffffff167f8be0079c531659141344cd1fd0a4f28419497f9722a3daafe3b4186f6b6457e060405160405180910390a380603a60006101000a81548173ffffffffffffffffffffffffffffffffffffffff021916908373ffffffffffffffffffffffffffffffffffffffff16021790555050565b60007f01ffc9a7000000000000000000000000000000000000000000000000000000007bffffffffffffffffffffffffffffffffffffffffffffffffffffffff1916827bffffffffffffffffffffffffffffffffffffffffffffffffffffffff1916149050919050565b60008073ffffffffffffffffffffffffffffffffffffffff1660a0600084815260200190815260200160002060009054906101000a900473ffffffffffffffffffffffffffffffffffffffff1673ffffffffffffffffffffffffffffffffffffffff1614159050919050565b600033905090565b8160a2600083815260200190815260200160002060006101000a81548173ffffffffffffffffffffffffffffffffffffffff021916908373ffffffffffffffffffffffffffffffffffffffff160217905550808273ffffffffffffffffffffffffffffffffffffffff16611a9383610bba565b73ffffffffffffffffffffffffffffffffffffffff167f8c5be1e5ebec7d5bd14f71427d1e84f3dd0314c0f7b2291e5b200ac8c7c3b92560405160405180910390a45050565b600760019054906101000a900460ff1680611b015750600760009054906101000a900460ff16155b611b40576040517f08c379a0000000000000000000000000000000000000000000000000000000008152600401611b3790613b6b565b60405180910390fd5b6000600760019054906101000a900460ff161590508015611b92576001600760016101000a81548160ff0219169083151502179055506001600760006101000a81548160ff0219169083151502179055505b611b9a612485565b611ba2612563565b611bac8383612641565b8015611bce576000600760016101000a81548160ff0219169083151502179055505b505050565b600760019054906101000a900460ff1680611bfb5750600760009054906101000a900460ff16155b611c3a576040517f08c379a0000000000000000000000000000000000000000000000000000000008152600401611c3190613b6b565b60405180910390fd5b6000600760019054906101000a900460ff161590508015611c8c576001600760016101000a81548160ff0219169083151502179055506001600760006101000a81548160ff0219169083151502179055505b611c94612485565b611c9c61274f565b8015611cbe576000600760016101000a81548160ff0219169083151502179055505b50565b6000611ccc826119ac565b611d0b576040517f08c379a0000000000000000000000000000000000000000000000000000000008152600401611d0290613aeb565b60405180910390fd5b6000611d1683610bba565b90508073ffffffffffffffffffffffffffffffffffffffff168473ffffffffffffffffffffffffffffffffffffffff161480611d8557508373ffffffffffffffffffffffffffffffffffffffff16611d6d84610609565b73ffffffffffffffffffffffffffffffffffffffff16145b80611d965750611d958185611702565b5b91505092915050565b8273ffffffffffffffffffffffffffffffffffffffff16611dbf82610bba565b73ffffffffffffffffffffffffffffffffffffffff1614611e15576040517f08c379a0000000000000000000000000000000000000000000000000000000008152600401611e0c90613beb565b60405180910390fd5b600073ffffffffffffffffffffffffffffffffffffffff168273ffffffffffffffffffffffffffffffffffffffff161415611e85576040517f08c379a0000000000000000000000000000000000000000000000000000000008152600401611e7c90613aab565b60405180910390fd5b611e908383836128d6565b611e9b600082611a20565b600160a160008573ffffffffffffffffffffffffffffffffffffffff1673ffffffffffffffffffffffffffffffffffffffff1681526020019081526020016000206000828254611eeb9190613e1c565b92505081905550600160a160008473ffffffffffffffffffffffffffffffffffffffff1673ffffffffffffffffffffffffffffffffffffffff1681526020019081526020016000206000828254611f429190613d95565b925050819055508160a0600083815260200190815260200160002060006101000a81548173ffffffffffffffffffffffffffffffffffffffff021916908373ffffffffffffffffffffffffffffffffffffffff160217905550808273ffffffffffffffffffffffffffffffffffffffff168473ffffffffffffffffffffffffffffffffffffffff167fddf252ad1be2c89b69c2b068fc378daa952ba7f163c4a11628f55a4df523b3ef60405160405180910390a4505050565b600081836120099190613deb565b905092915050565b6000818361201f9190613e1c565b905092915050565b8160026000858152602001908152602001600020600001600082825461204d9190613d95565b925050819055506003600084815260200190815260200160002060008273ffffffffffffffffffffffffffffffffffffffff1673ffffffffffffffffffffffffffffffffffffffff16815260200190815260200160002060009054906101000a900460ff1661214e5760016003600085815260200190815260200160002060008373ffffffffffffffffffffffffffffffffffffffff1673ffffffffffffffffffffffffffffffffffffffff16815260200190815260200160002060006101000a81548160ff02191690831515021790555060016002600085815260200190815260200160002060010160008282546121469190613d95565b925050819055505b505050565b61215e848484611d9f565b61216a848484846128db565b6121a9576040517f08c379a00000000000000000000000000000000000000000000000000000000081526004016121a090613a4b565b60405180910390fd5b50505050565b6121c9828260405180602001604052806000815250612a72565b5050565b816121d7816119ac565b612216576040517f08c379a000000000000000000000000000000000000000000000000000000000815260040161220d90613c0b565b60405180910390fd5b81600260008581526020019081526020016000206000820151816000015560208201518160010155905050505050565b60606006805461225590613f06565b80601f016020809104026020016040519081016040528092919081815260200182805461228190613f06565b80156122ce5780601f106122a3576101008083540402835291602001916122ce565b820191906000526020600020905b8154815290600101906020018083116122b157829003601f168201915b5050505050905090565b60606000821415612320576040518060400160405280600181526020017f30000000000000000000000000000000000000000000000000000000000000008152509050612480565b600082905060005b6000821461235257808061233b90613f38565b915050600a8261234b9190613deb565b9150612328565b60008167ffffffffffffffff811115612394577f4e487b7100000000000000000000000000000000000000000000000000000000600052604160045260246000fd5b6040519080825280601f01601f1916602001820160405280156123c65781602001600182028036833780820191505090505b5090505b60008514612479576001826123df9190613e1c565b9150600a856123ee9190613f81565b60306123fa9190613d95565b60f81b818381518110612436577f4e487b7100000000000000000000000000000000000000000000000000000000600052603260045260246000fd5b60200101907effffffffffffffffffffffffffffffffffffffffffffffffffffffffffffff1916908160001a905350600a856124729190613deb565b94506123ca565b8093505050505b919050565b600760019054906101000a900460ff16806124ad5750600760009054906101000a900460ff16155b6124ec576040517f08c379a00000000000000000000000000000000000000000000000000000000081526004016124e390613b6b565b60405180910390fd5b6000600760019054906101000a900460ff16159050801561253e576001600760016101000a81548160ff0219169083151502179055506001600760006101000a81548160ff0219169083151502179055505b8015612560576000600760016101000a81548160ff0219169083151502179055505b50565b600760019054906101000a900460ff168061258b5750600760009054906101000a900460ff16155b6125ca576040517f08c379a00000000000000000000000000000000000000000000000000000000081526004016125c190613b6b565b60405180910390fd5b6000600760019054906101000a900460ff16159050801561261c576001600760016101000a81548160ff0219169083151502179055506001600760006101000a81548160ff0219169083151502179055505b801561263e576000600760016101000a81548160ff0219169083151502179055505b50565b600760019054906101000a900460ff16806126695750600760009054906101000a900460ff16155b6126a8576040517f08c379a000000000000000000000000000000000000000000000000000000000815260040161269f90613b6b565b60405180910390fd5b6000600760019054906101000a900460ff1615905080156126fa576001600760016101000a81548160ff0219169083151502179055506001600760006101000a81548160ff0219169083151502179055505b82609e9080519060200190612710929190612cc8565b5081609f9080519060200190612727929190612cc8565b50801561274a576000600760016101000a81548160ff0219169083151502179055505b505050565b600760019054906101000a900460ff16806127775750600760009054906101000a900460ff16155b6127b6576040517f08c379a00000000000000000000000000000000000000000000000000000000081526004016127ad90613b6b565b60405180910390fd5b6000600760019054906101000a900460ff161590508015612808576001600760016101000a81548160ff0219169083151502179055506001600760006101000a81548160ff0219169083151502179055505b6000612812611a18565b905080603a60006101000a81548173ffffffffffffffffffffffffffffffffffffffff021916908373ffffffffffffffffffffffffffffffffffffffff1602179055508073ffffffffffffffffffffffffffffffffffffffff16600073ffffffffffffffffffffffffffffffffffffffff167f8be0079c531659141344cd1fd0a4f28419497f9722a3daafe3b4186f6b6457e060405160405180910390a35080156128d3576000600760016101000a81548160ff0219169083151502179055505b50565b505050565b60006128fc8473ffffffffffffffffffffffffffffffffffffffff16612acd565b15612a65578373ffffffffffffffffffffffffffffffffffffffff1663150b7a02612925611a18565b8786866040518563ffffffff1660e01b81526004016129479493929190613999565b602060405180830381600087803b15801561296157600080fd5b505af192505050801561299257506040513d601f19601f8201168201806040525081019061298f91906130b2565b60015b612a15573d80600081146129c2576040519150601f19603f3d011682016040523d82523d6000602084013e6129c7565b606091505b50600081511415612a0d576040517f08c379a0000000000000000000000000000000000000000000000000000000008152600401612a0490613a4b565b60405180910390fd5b805181602001fd5b63150b7a0260e01b7bffffffffffffffffffffffffffffffffffffffffffffffffffffffff1916817bffffffffffffffffffffffffffffffffffffffffffffffffffffffff191614915050612a6a565b600190505b949350505050565b612a7c8383612ae0565b612a8960008484846128db565b612ac8576040517f08c379a0000000000000000000000000000000000000000000000000000000008152600401612abf90613a4b565b60405180910390fd5b505050565b600080823b905060008111915050919050565b600073ffffffffffffffffffffffffffffffffffffffff168273ffffffffffffffffffffffffffffffffffffffff161415612b50576040517f08c379a0000000000000000000000000000000000000000000000000000000008152600401612b4790613b8b565b60405180910390fd5b612b59816119ac565b15612b99576040517f08c379a0000000000000000000000000000000000000000000000000000000008152600401612b9090613a8b565b60405180910390fd5b612ba5600083836128d6565b600160a160008473ffffffffffffffffffffffffffffffffffffffff1673ffffffffffffffffffffffffffffffffffffffff1681526020019081526020016000206000828254612bf59190613d95565b925050819055508160a0600083815260200190815260200160002060006101000a81548173ffffffffffffffffffffffffffffffffffffffff021916908373ffffffffffffffffffffffffffffffffffffffff160217905550808273ffffffffffffffffffffffffffffffffffffffff16600073ffffffffffffffffffffffffffffffffffffffff167fddf252ad1be2c89b69c2b068fc378daa952ba7f163c4a11628f55a4df523b3ef60405160405180910390a45050565b604051806040016040528060008152602001600081525090565b828054612cd490613f06565b90600052602060002090601f016020900481019282612cf65760008555612d3d565b82601f10612d0f57805160ff1916838001178555612d3d565b82800160010185558215612d3d579182015b82811115612d3c578251825591602001919060010190612d21565b5b509050612d4a9190612d4e565b5090565b5b80821115612d67576000816000905550600101612d4f565b5090565b6000612d7e612d7984613cf2565b613cc1565b905082815260208101848484011115612d9657600080fd5b612da1848285613ec4565b509392505050565b6000612dbc612db784613d22565b613cc1565b905082815260208101848484011115612dd457600080fd5b612ddf848285613ec4565b509392505050565b600081359050612df68161407f565b92915050565b600081359050612e0b81614096565b92915050565b600081519050612e2081614096565b92915050565b600081359050612e35816140ad565b92915050565b600081519050612e4a816140ad565b92915050565b600082601f830112612e6157600080fd5b8135612e71848260208601612d6b565b91505092915050565b600082601f830112612e8b57600080fd5b8135612e9b848260208601612da9565b91505092915050565b600081359050612eb3816140c4565b92915050565b600060208284031215612ecb57600080fd5b6000612ed984828501612de7565b91505092915050565b60008060408385031215612ef557600080fd5b6000612f0385828601612de7565b9250506020612f1485828601612de7565b9150509250929050565b600080600060608486031215612f3357600080fd5b6000612f4186828701612de7565b9350506020612f5286828701612de7565b9250506040612f6386828701612ea4565b9150509250925092565b60008060008060808587031215612f8357600080fd5b6000612f9187828801612de7565b9450506020612fa287828801612de7565b9350506040612fb387828801612ea4565b925050606085013567ffffffffffffffff811115612fd057600080fd5b612fdc87828801612e50565b91505092959194509250565b60008060408385031215612ffb57600080fd5b600061300985828601612de7565b925050602061301a85828601612dfc565b9150509250929050565b6000806040838503121561303757600080fd5b600061304585828601612de7565b925050602061305685828601612ea4565b9150509250929050565b60006020828403121561307257600080fd5b600061308084828501612e11565b91505092915050565b60006020828403121561309b57600080fd5b60006130a984828501612e26565b91505092915050565b6000602082840312156130c457600080fd5b60006130d284828501612e3b565b91505092915050565b6000602082840312156130ed57600080fd5b600082013567ffffffffffffffff81111561310757600080fd5b61311384828501612e7a565b91505092915050565b60006020828403121561312e57600080fd5b600061313c84828501612ea4565b91505092915050565b6000806040838503121561315857600080fd5b600061316685828601612ea4565b925050602061317785828601612ea4565b9150509250929050565b61318a81613e50565b82525050565b61319981613e62565b82525050565b60006131aa82613d52565b6131b48185613d68565b93506131c4818560208601613ed3565b6131cd8161406e565b840191505092915050565b60006131e382613d5d565b6131ed8185613d79565b93506131fd818560208601613ed3565b6132068161406e565b840191505092915050565b600061321c82613d5d565b6132268185613d8a565b9350613236818560208601613ed3565b80840191505092915050565b600061324f603283613d79565b91507f4552433732313a207472616e7366657220746f206e6f6e20455243373231526560008301527f63656976657220696d706c656d656e74657200000000000000000000000000006020830152604082019050919050565b60006132b5602683613d79565b91507f4f776e61626c653a206e6577206f776e657220697320746865207a65726f206160008301527f64647265737300000000000000000000000000000000000000000000000000006020830152604082019050919050565b600061331b601c83613d79565b91507f4552433732313a20746f6b656e20616c7265616479206d696e746564000000006000830152602082019050919050565b600061335b602483613d79565b91507f4552433732313a207472616e7366657220746f20746865207a65726f2061646460008301527f72657373000000000000000000000000000000000000000000000000000000006020830152604082019050919050565b60006133c1601983613d79565b91507f4552433732313a20617070726f766520746f2063616c6c6572000000000000006000830152602082019050919050565b6000613401602c83613d79565b91507f4552433732313a206f70657261746f7220717565727920666f72206e6f6e657860008301527f697374656e7420746f6b656e00000000000000000000000000000000000000006020830152604082019050919050565b6000613467603883613d79565b91507f4552433732313a20617070726f76652063616c6c6572206973206e6f74206f7760008301527f6e6572206e6f7220617070726f76656420666f7220616c6c00000000000000006020830152604082019050919050565b60006134cd602a83613d79565b91507f4552433732313a2062616c616e636520717565727920666f7220746865207a6560008301527f726f2061646472657373000000000000000000000000000000000000000000006020830152604082019050919050565b6000613533602983613d79565b91507f4552433732313a206f776e657220717565727920666f72206e6f6e657869737460008301527f656e7420746f6b656e00000000000000000000000000000000000000000000006020830152604082019050919050565b6000613599602e83613d79565b91507f496e697469616c697a61626c653a20636f6e747261637420697320616c72656160008301527f647920696e697469616c697a65640000000000000000000000000000000000006020830152604082019050919050565b60006135ff602083613d79565b91507f4552433732313a206d696e7420746f20746865207a65726f20616464726573736000830152602082019050919050565b600061363f602c83613d79565b91507f4552433732313a20617070726f76656420717565727920666f72206e6f6e657860008301527f697374656e7420746f6b656e00000000000000000000000000000000000000006020830152604082019050919050565b60006136a5602083613d79565b91507f4f776e61626c653a2063616c6c6572206973206e6f7420746865206f776e65726000830152602082019050919050565b60006136e5602983613d79565b91507f4552433732313a207472616e73666572206f6620746f6b656e2074686174206960008301527f73206e6f74206f776e00000000000000000000000000000000000000000000006020830152604082019050919050565b600061374b602f83613d79565b91507f4552433732314d657461646174613a2055524920717565727920666f72206e6f60008301527f6e6578697374656e7420746f6b656e00000000000000000000000000000000006020830152604082019050919050565b60006137b1602183613d79565b91507f4552433732313a20617070726f76616c20746f2063757272656e74206f776e6560008301527f72000000000000000000000000000000000000000000000000000000000000006020830152604082019050919050565b6000613817603183613d79565b91507f4552433732313a207472616e736665722063616c6c6572206973206e6f74206f60008301527f776e6572206e6f7220617070726f7665640000000000000000000000000000006020830152604082019050919050565b600061387d602183613d79565b91507f506f7374613a20696e76616c69642075626920616d6f756e7420746f2062757260008301527f6e000000000000000000000000000000000000000000000000000000000000006020830152604082019050919050565b6040820160008201516138ec6000850182613905565b5060208201516138ff6020850182613905565b50505050565b61390e81613eba565b82525050565b61391d81613eba565b82525050565b600061392f8285613211565b915061393b8284613211565b91508190509392505050565b600060208201905061395c6000830184613181565b92915050565b60006060820190506139776000830186613181565b6139846020830185613181565b6139916040830184613914565b949350505050565b60006080820190506139ae6000830187613181565b6139bb6020830186613181565b6139c86040830185613914565b81810360608301526139da818461319f565b905095945050505050565b60006040820190506139fa6000830185613181565b613a076020830184613914565b9392505050565b6000602082019050613a236000830184613190565b92915050565b60006020820190508181036000830152613a4381846131d8565b905092915050565b60006020820190508181036000830152613a6481613242565b9050919050565b60006020820190508181036000830152613a84816132a8565b9050919050565b60006020820190508181036000830152613aa48161330e565b9050919050565b60006020820190508181036000830152613ac48161334e565b9050919050565b60006020820190508181036000830152613ae4816133b4565b9050919050565b60006020820190508181036000830152613b04816133f4565b9050919050565b60006020820190508181036000830152613b248161345a565b9050919050565b60006020820190508181036000830152613b44816134c0565b9050919050565b60006020820190508181036000830152613b6481613526565b9050919050565b60006020820190508181036000830152613b848161358c565b9050919050565b60006020820190508181036000830152613ba4816135f2565b9050919050565b60006020820190508181036000830152613bc481613632565b9050919050565b60006020820190508181036000830152613be481613698565b9050919050565b60006020820190508181036000830152613c04816136d8565b9050919050565b60006020820190508181036000830152613c248161373e565b9050919050565b60006020820190508181036000830152613c44816137a4565b9050919050565b60006020820190508181036000830152613c648161380a565b9050919050565b60006020820190508181036000830152613c8481613870565b9050919050565b6000604082019050613ca060008301846138d6565b92915050565b6000602082019050613cbb6000830184613914565b92915050565b6000604051905081810181811067ffffffffffffffff82111715613ce857613ce761403f565b5b8060405250919050565b600067ffffffffffffffff821115613d0d57613d0c61403f565b5b601f19601f8301169050602081019050919050565b600067ffffffffffffffff821115613d3d57613d3c61403f565b5b601f19601f8301169050602081019050919050565b600081519050919050565b600081519050919050565b600082825260208201905092915050565b600082825260208201905092915050565b600081905092915050565b6000613da082613eba565b9150613dab83613eba565b9250827fffffffffffffffffffffffffffffffffffffffffffffffffffffffffffffffff03821115613de057613ddf613fb2565b5b828201905092915050565b6000613df682613eba565b9150613e0183613eba565b925082613e1157613e10613fe1565b5b828204905092915050565b6000613e2782613eba565b9150613e3283613eba565b925082821015613e4557613e44613fb2565b5b828203905092915050565b6000613e5b82613e9a565b9050919050565b60008115159050919050565b60007fffffffff0000000000000000000000000000000000000000000000000000000082169050919050565b600073ffffffffffffffffffffffffffffffffffffffff82169050919050565b6000819050919050565b82818337600083830152505050565b60005b83811015613ef1578082015181840152602081019050613ed6565b83811115613f00576000848401525b50505050565b60006002820490506001821680613f1e57607f821691505b60208210811415613f3257613f31614010565b5b50919050565b6000613f4382613eba565b91507fffffffffffffffffffffffffffffffffffffffffffffffffffffffffffffffff821415613f7657613f75613fb2565b5b600182019050919050565b6000613f8c82613eba565b9150613f9783613eba565b925082613fa757613fa6613fe1565b5b828206905092915050565b7f4e487b7100000000000000000000000000000000000000000000000000000000600052601160045260246000fd5b7f4e487b7100000000000000000000000000000000000000000000000000000000600052601260045260246000fd5b7f4e487b7100000000000000000000000000000000000000000000000000000000600052602260045260246000fd5b7f4e487b7100000000000000000000000000000000000000000000000000000000600052604160045260246000fd5b6000601f19601f8301169050919050565b61408881613e50565b811461409357600080fd5b50565b61409f81613e62565b81146140aa57600080fd5b50565b6140b681613e6e565b81146140c157600080fd5b50565b6140cd81613eba565b81146140d857600080fd5b5056fea26469706673582212204702dc5038b6f752227a53d0c88605be221202f209d772759e1a64353135f92464736f6c63430008000033",
  "immutableReferences": {},
  "source": "// SPDX-License-Identifier: MIT\r\npragma solidity 0.8.0;\r\n\r\nimport \"@openzeppelin/contracts/token/ERC20/IERC20.sol\";\r\nimport \"@openzeppelin/contracts/token/ERC20/extensions/ERC20Burnable.sol\";\r\nimport \"@openzeppelin/contracts/utils/math/SafeMath.sol\";\r\nimport \"@openzeppelin/contracts-upgradeable/token/ERC721/ERC721Upgradeable.sol\";\r\nimport \"@openzeppelin/contracts-upgradeable/access/OwnableUpgradeable.sol\";\r\n//import \"@openzeppelin/contracts-upgradeable/proxy/Initializable.sol\";\r\nimport \"./IProofOfHumanity.sol\";\r\nimport \"./PostaStorage.sol\";\r\n\r\ncontract Posta is PostaStorage, Initializable, OwnableUpgradeable, ERC721Upgradeable {\r\n    \r\n    using SafeMath for uint256;\r\n    //using Strings for uint256;\r\n\r\n    event NewPost(address indexed author, uint256 indexed tokenId, string value);\r\n\r\n    string constant HUMAN_NOT_REGISTERED = \"HUMAN_NOT_REGISTERED\";\r\n    string constant POST_TEXT_TOO_LONG = \"POST_TEXT_TOO_LONG\";\r\n    string constant CANT_SUPPORT_SELF_CONTENT = \"CANT_SUPPORT_SELF_CONTENT\";\r\n\r\n    /// Require that an address is a valid registered human.\r\n    modifier isHuman(address _submission) {\r\n        require(IProofOfHumanity(_poh).isRegistered(_submission), HUMAN_NOT_REGISTERED);\r\n        _;\r\n    }\r\n\r\n    /// Require that a token has been minted\r\n    modifier tokenExists(uint256 tokenId) {\r\n        require(_exists(tokenId), \"ERC721Metadata: URI query for nonexistent token\");\r\n        _;\r\n    }\r\n    \r\n    function initialize(address poh, address ubi, uint256 maxChars) public virtual initializer {\r\n        __ERC721_init(\"Posta\",\"PSTA\");\r\n        OwnableUpgradeable.__Ownable_init();\r\n        _tokenCounter = 0;\r\n        _poh = poh;\r\n        _ubi = ubi;\r\n        _maxChars = maxChars;\r\n    }\r\n\r\n    function publishPost(string memory text) public isHuman(_msgSender()) returns(uint256)  {\r\n        require(bytes(text).length <= _maxChars, POST_TEXT_TOO_LONG);\r\n\r\n        // Get the new token iD  \r\n        uint256 newItemId = _tokenCounter;\r\n\r\n        // Mint the NFT with the new ID\r\n        _safeMint(_msgSender(), newItemId);\r\n\r\n        // Generate the post NFT storage data\r\n        PostaData memory post = PostaData({\r\n            supportGiven: 0,\r\n            supportersCount: 0\r\n        });\r\n\r\n        // Set the post dat to the token\r\n        _setPost(newItemId, post);\r\n        \r\n        // Update the token counter\r\n        _tokenCounter = _tokenCounter +1;\r\n\r\n        emit NewPost(_msgSender(), newItemId, text);\r\n\r\n        // Return the new token ID\r\n        return newItemId;\r\n    }\r\n\r\n     function setBaseURI(string memory baseURI_) external onlyOwner() {\r\n        baseURI = baseURI_;\r\n    }\r\n    \r\n    function _baseURI() internal view virtual override returns (string memory) {\r\n        return baseURI;\r\n    }\r\n\r\n    function _setPost(uint256 tokenId, PostaData memory data) internal virtual tokenExists(tokenId) {\r\n     _posts[tokenId] = data;\r\n    }\r\n\r\n    /// @dev Set the max length allowed for posts.\r\n    function setMaxChars(uint256 maxChars) public onlyOwner() {\r\n        _maxChars = maxChars;\r\n    }\r\n\r\n    function getMaxChars() public view returns(uint256) {\r\n        return _maxChars;\r\n    }\r\n\r\n    function getTokenCounter() public view returns(uint256) {\r\n        return _tokenCounter;\r\n    }\r\n\r\n    function getPost(uint256 tokenId) public view virtual tokenExists(tokenId) returns (PostaData memory) {\r\n        return _posts[tokenId];\r\n    }\r\n\r\n    /**\r\n     * Gives support to this posta and burns the UBI. \r\n     * Supporters count is only added once per human.\r\n     * If a Human gives support multiple times it will only count as one supporter.\r\n     */\r\n    function support(uint256 tokenId, uint256 ubiAmount) public tokenExists(tokenId) {\r\n        require(_msgSender() != ownerOf(tokenId), CANT_SUPPORT_SELF_CONTENT);\r\n        // ammount to burn\r\n        uint256 toBurn = ubiAmount.div(2);\r\n        require(toBurn > 0, \"Posta: invalid ubi amount to burn\");\r\n        \r\n        // Burn the UBI on behalf of the caller.\r\n        ERC20Burnable(_ubi).burnFrom(_msgSender(), toBurn);\r\n        \r\n        // Transfer remainder to posta creator\r\n        uint256 forCreator = ubiAmount.sub(toBurn);\r\n        if(forCreator > 0) { \r\n            ERC20(_ubi).transferFrom(_msgSender(), ownerOf(tokenId), forCreator);\r\n        }\r\n\r\n        // Add support based on ubi amount\r\n        _addSupport(tokenId, ubiAmount, _msgSender());\r\n        \r\n    }\r\n\r\n    function _addSupport(uint256 tokenId, uint256 amount, address supporter) private {\r\n        \r\n         // Add the amount of support given\r\n        _posts[tokenId].supportGiven += amount;\r\n\r\n        // If is first support, add 1 supporter.\r\n        if(!_supporters[tokenId][supporter]) {\r\n            _supporters[tokenId][supporter] = true;\r\n            _posts[tokenId].supportersCount += 1;\r\n        }\r\n    }\r\n}",
  "sourcePath": "E:/Code/Repos/JuanuMusic/posta/posta-contracts/contracts/Posta.sol",
  "compiler": {
    "name": "solc",
    "version": "0.8.0+commit.c7dfd78e.Emscripten.clang"
  },
  "schemaVersion": "3.3.4",
  "updatedAt": "2021-06-27T16:51:07.516Z",
  "networkType": "ethereum",
  "devdoc": {
    "kind": "dev",
    "methods": {
      "approve(address,uint256)": {
        "details": "See {IERC721-approve}."
      },
      "balanceOf(address)": {
        "details": "See {IERC721-balanceOf}."
      },
      "getApproved(uint256)": {
        "details": "See {IERC721-getApproved}."
      },
      "isApprovedForAll(address,address)": {
        "details": "See {IERC721-isApprovedForAll}."
      },
      "name()": {
        "details": "See {IERC721Metadata-name}."
      },
      "owner()": {
        "details": "Returns the address of the current owner."
      },
      "ownerOf(uint256)": {
        "details": "See {IERC721-ownerOf}."
      },
      "renounceOwnership()": {
        "details": "Leaves the contract without owner. It will not be possible to call `onlyOwner` functions anymore. Can only be called by the current owner. NOTE: Renouncing ownership will leave the contract without an owner, thereby removing any functionality that is only available to the owner."
      },
      "safeTransferFrom(address,address,uint256)": {
        "details": "See {IERC721-safeTransferFrom}."
      },
      "safeTransferFrom(address,address,uint256,bytes)": {
        "details": "See {IERC721-safeTransferFrom}."
      },
      "setApprovalForAll(address,bool)": {
        "details": "See {IERC721-setApprovalForAll}."
      },
      "setMaxChars(uint256)": {
        "details": "Set the max length allowed for posts."
      },
      "supportsInterface(bytes4)": {
        "details": "See {IERC165-supportsInterface}."
      },
      "symbol()": {
        "details": "See {IERC721Metadata-symbol}."
      },
      "tokenURI(uint256)": {
        "details": "See {IERC721Metadata-tokenURI}."
      },
      "transferFrom(address,address,uint256)": {
        "details": "See {IERC721-transferFrom}."
      },
      "transferOwnership(address)": {
        "details": "Transfers ownership of the contract to a new account (`newOwner`). Can only be called by the current owner."
      }
    },
    "version": 1
  },
  "userdoc": {
    "kind": "user",
    "methods": {
      "support(uint256,uint256)": {
        "notice": "Gives support to this posta and burns the UBI.  Supporters count is only added once per human. If a Human gives support multiple times it will only count as one supporter."
      }
    },
    "version": 1
  }
}