{
  "_format": "hh-sol-artifact-1",
  "contractName": "DummyProofOfHumanity",
  "sourceName": "contracts/DummyProofOfHumanity.sol",
  "abi": [
    {
      "inputs": [
        {
          "internalType": "address",
          "name": "governor",
          "type": "address"
        },
        {
          "internalType": "address",
          "name": "ubi",
          "type": "address"
        }
      ],
      "stateMutability": "nonpayable",
      "type": "constructor"
    },
    {
      "anonymous": false,
      "inputs": [
        {
          "indexed": true,
          "internalType": "address",
          "name": "owner",
          "type": "address"
        },
        {
          "indexed": true,
          "internalType": "address",
          "name": "spender",
          "type": "address"
        },
        {
          "indexed": false,
          "internalType": "uint256",
          "name": "value",
          "type": "uint256"
        }
      ],
      "name": "Approval",
      "type": "event"
    },
    {
      "anonymous": false,
      "inputs": [
        {
          "indexed": true,
          "internalType": "address",
          "name": "from",
          "type": "address"
        },
        {
          "indexed": true,
          "internalType": "address",
          "name": "to",
          "type": "address"
        },
        {
          "indexed": false,
          "internalType": "uint256",
          "name": "value",
          "type": "uint256"
        }
      ],
      "name": "Transfer",
      "type": "event"
    },
    {
      "inputs": [
        {
          "internalType": "address",
          "name": "owner",
          "type": "address"
        },
        {
          "internalType": "address",
          "name": "spender",
          "type": "address"
        }
      ],
      "name": "allowance",
      "outputs": [
        {
          "internalType": "uint256",
          "name": "",
          "type": "uint256"
        }
      ],
      "stateMutability": "view",
      "type": "function"
    },
    {
      "inputs": [
        {
          "internalType": "address",
          "name": "spender",
          "type": "address"
        },
        {
          "internalType": "uint256",
          "name": "amount",
          "type": "uint256"
        }
      ],
      "name": "approve",
      "outputs": [
        {
          "internalType": "bool",
          "name": "",
          "type": "bool"
        }
      ],
      "stateMutability": "nonpayable",
      "type": "function"
    },
    {
      "inputs": [
        {
          "internalType": "address",
          "name": "account",
          "type": "address"
        }
      ],
      "name": "balanceOf",
      "outputs": [
        {
          "internalType": "uint256",
          "name": "",
          "type": "uint256"
        }
      ],
      "stateMutability": "view",
      "type": "function"
    },
    {
      "inputs": [
        {
          "internalType": "address",
          "name": "governor",
          "type": "address"
        }
      ],
      "name": "changeGovernor",
      "outputs": [],
      "stateMutability": "nonpayable",
      "type": "function"
    },
    {
      "inputs": [],
      "name": "decimals",
      "outputs": [
        {
          "internalType": "uint8",
          "name": "",
          "type": "uint8"
        }
      ],
      "stateMutability": "view",
      "type": "function"
    },
    {
      "inputs": [
        {
          "internalType": "address",
          "name": "spender",
          "type": "address"
        },
        {
          "internalType": "uint256",
          "name": "subtractedValue",
          "type": "uint256"
        }
      ],
      "name": "decreaseAllowance",
      "outputs": [
        {
          "internalType": "bool",
          "name": "",
          "type": "bool"
        }
      ],
      "stateMutability": "nonpayable",
      "type": "function"
    },
    {
      "inputs": [
        {
          "internalType": "address",
          "name": "submissionID",
          "type": "address"
        }
      ],
      "name": "getSubmissionInfo",
      "outputs": [
        {
          "components": [
            {
              "internalType": "uint8",
              "name": "status",
              "type": "uint8"
            },
            {
              "internalType": "uint256",
              "name": "submissionTime",
              "type": "uint256"
            },
            {
              "internalType": "uint64",
              "name": "index",
              "type": "uint64"
            },
            {
              "internalType": "bool",
              "name": "registered",
              "type": "bool"
            },
            {
              "internalType": "bool",
              "name": "hasVouched",
              "type": "bool"
            },
            {
              "internalType": "uint256",
              "name": "numberOfRequests",
              "type": "uint256"
            }
          ],
          "internalType": "struct IProofOfHumanity.SubmissionInfo",
          "name": "",
          "type": "tuple"
        }
      ],
      "stateMutability": "view",
      "type": "function"
    },
    {
      "inputs": [
        {
          "internalType": "address",
          "name": "spender",
          "type": "address"
        },
        {
          "internalType": "uint256",
          "name": "addedValue",
          "type": "uint256"
        }
      ],
      "name": "increaseAllowance",
      "outputs": [
        {
          "internalType": "bool",
          "name": "",
          "type": "bool"
        }
      ],
      "stateMutability": "nonpayable",
      "type": "function"
    },
    {
      "inputs": [
        {
          "internalType": "address",
          "name": "submissionID",
          "type": "address"
        }
      ],
      "name": "isRegistered",
      "outputs": [
        {
          "internalType": "bool",
          "name": "",
          "type": "bool"
        }
      ],
      "stateMutability": "view",
      "type": "function"
    },
    {
      "inputs": [],
      "name": "name",
      "outputs": [
        {
          "internalType": "string",
          "name": "",
          "type": "string"
        }
      ],
      "stateMutability": "view",
      "type": "function"
    },
    {
      "inputs": [
        {
          "internalType": "address",
          "name": "submissionID",
          "type": "address"
        }
      ],
      "name": "register",
      "outputs": [],
      "stateMutability": "nonpayable",
      "type": "function"
    },
    {
      "inputs": [],
      "name": "submissionCounter",
      "outputs": [
        {
          "internalType": "uint256",
          "name": "",
          "type": "uint256"
        }
      ],
      "stateMutability": "pure",
      "type": "function"
    },
    {
      "inputs": [],
      "name": "symbol",
      "outputs": [
        {
          "internalType": "string",
          "name": "",
          "type": "string"
        }
      ],
      "stateMutability": "view",
      "type": "function"
    },
    {
      "inputs": [],
      "name": "totalSupply",
      "outputs": [
        {
          "internalType": "uint256",
          "name": "",
          "type": "uint256"
        }
      ],
      "stateMutability": "view",
      "type": "function"
    },
    {
      "inputs": [
        {
          "internalType": "address",
          "name": "recipient",
          "type": "address"
        },
        {
          "internalType": "uint256",
          "name": "amount",
          "type": "uint256"
        }
      ],
      "name": "transfer",
      "outputs": [
        {
          "internalType": "bool",
          "name": "",
          "type": "bool"
        }
      ],
      "stateMutability": "nonpayable",
      "type": "function"
    },
    {
      "inputs": [
        {
          "internalType": "address",
          "name": "sender",
          "type": "address"
        },
        {
          "internalType": "address",
          "name": "recipient",
          "type": "address"
        },
        {
          "internalType": "uint256",
          "name": "amount",
          "type": "uint256"
        }
      ],
      "name": "transferFrom",
      "outputs": [
        {
          "internalType": "bool",
          "name": "",
          "type": "bool"
        }
      ],
      "stateMutability": "nonpayable",
      "type": "function"
    }
  ],
  "bytecode": "0x60806040523480156200001157600080fd5b5060405162000f5538038062000f558339810160408190526200003491620001b0565b6040518060400160405280601681526020017f556e6976657273616c20426173696320496e636f6d65000000000000000000008152506040518060400160405280600381526020016255424960e81b81525081600390805190602001906200009e929190620000ed565b508051620000b4906004906020840190620000ed565b5050600580546001600160a01b039485166001600160a01b03199182161790915560068054939094169216919091179091555062000224565b828054620000fb90620001e7565b90600052602060002090601f0160209004810192826200011f57600085556200016a565b82601f106200013a57805160ff19168380011785556200016a565b828001600101855582156200016a579182015b828111156200016a5782518255916020019190600101906200014d565b50620001789291506200017c565b5090565b5b808211156200017857600081556001016200017d565b80516001600160a01b0381168114620001ab57600080fd5b919050565b60008060408385031215620001c3578182fd5b620001ce8362000193565b9150620001de6020840162000193565b90509250929050565b600281046001821680620001fc57607f821691505b602082108114156200021e57634e487b7160e01b600052602260045260246000fd5b50919050565b610d2180620002346000396000f3fe608060405234801561001057600080fd5b50600436106101005760003560e01c806376c23ff111610097578063a9059cbb11610066578063a9059cbb146102fd578063c3c5a54714610310578063dd62ed3e1461033c578063e4c0aaf41461037557610100565b806376c23ff1146101b557806395d89b41146101bc57806397973043146101c4578063a457c2d7146102ea57610100565b8063313ce567116100d3578063313ce5671461016b578063395093511461017a5780634420e4861461018d57806370a08231146101a257610100565b806306fdde0314610105578063095ea7b31461012357806318160ddd1461014657806323b872dd14610158575b600080fd5b61010d6103bd565b60405161011a9190610c18565b60405180910390f35b610136610131366004610bef565b61044f565b604051901515815260200161011a565b6002545b60405190815260200161011a565b610136610166366004610bb4565b610465565b6040516012815260200161011a565b610136610188366004610bef565b610530565b6101a061019b366004610b61565b610567565b005b61014a6101b0366004610b61565b6106e3565b600061014a565b61010d610702565b61028d6101d2366004610b61565b6040805160c081018252600080825260208201819052918101829052606081018290526080810182905260a0810191909152506001600160a01b0316600090815260076020908152604091829020825160c081018452815460ff9081168252600183015493820193909352600282015467ffffffffffffffff8116948201949094526801000000000000000084048316151560608201526901000000000000000000909304909116151560808301526003015460a082015290565b60405161011a9190600060c08201905060ff83511682526020830151602083015267ffffffffffffffff604084015116604083015260608301511515606083015260808301511515608083015260a083015160a083015292915050565b6101366102f8366004610bef565b610711565b61013661030b366004610bef565b6107c4565b61013661031e366004610b61565b6001600160a01b031660009081526008602052604090205460ff1690565b61014a61034a366004610b82565b6001600160a01b03918216600090815260016020908152604080832093909416825291909152205490565b6101a0610383366004610b61565b600580547fffffffffffffffffffffffff0000000000000000000000000000000000000000166001600160a01b0392909216919091179055565b6060600380546103cc90610c9a565b80601f01602080910402602001604051908101604052809291908181526020018280546103f890610c9a565b80156104455780601f1061041a57610100808354040283529160200191610445565b820191906000526020600020905b81548152906001019060200180831161042857829003601f168201915b5050505050905090565b600061045c3384846107d1565b50600192915050565b6000610472848484610929565b6001600160a01b0384166000908152600160209081526040808320338452909152902054828110156105115760405162461bcd60e51b815260206004820152602860248201527f45524332303a207472616e7366657220616d6f756e742065786365656473206160448201527f6c6c6f77616e636500000000000000000000000000000000000000000000000060648201526084015b60405180910390fd5b61052585336105208685610c83565b6107d1565b506001949350505050565b3360008181526001602090815260408083206001600160a01b0387168452909152812054909161045c918590610520908690610c6b565b6006546040517f40c10f190000000000000000000000000000000000000000000000000000000081526001600160a01b038381166004830152683635c9adc5dea000006024830152909116906340c10f1990604401600060405180830381600087803b1580156105d657600080fd5b505af11580156105ea573d6000803e3d6000fd5b505050506001600160a01b031660008181526008602090815260408083208054600160ff199182168117909255825160c08101845285815242818601908152606a828601908152606083018581526080840186815260a085018781529a8a526007909852959097209151825490931660ff90931692909217815590519181019190915592516002840180549251935167ffffffffffffffff1990931667ffffffffffffffff9092169190911768ff0000000000000000191668010000000000000000931515939093029290921769ff00000000000000000019166901000000000000000000911515919091021790559051600390910155565b6001600160a01b0381166000908152602081905260409020545b919050565b6060600480546103cc90610c9a565b3360009081526001602090815260408083206001600160a01b0386168452909152812054828110156107ab5760405162461bcd60e51b815260206004820152602560248201527f45524332303a2064656372656173656420616c6c6f77616e63652062656c6f7760448201527f207a65726f0000000000000000000000000000000000000000000000000000006064820152608401610508565b6107ba33856105208685610c83565b5060019392505050565b600061045c338484610929565b6001600160a01b03831661084c5760405162461bcd60e51b8152602060048201526024808201527f45524332303a20617070726f76652066726f6d20746865207a65726f2061646460448201527f72657373000000000000000000000000000000000000000000000000000000006064820152608401610508565b6001600160a01b0382166108c85760405162461bcd60e51b815260206004820152602260248201527f45524332303a20617070726f766520746f20746865207a65726f20616464726560448201527f73730000000000000000000000000000000000000000000000000000000000006064820152608401610508565b6001600160a01b0383811660008181526001602090815260408083209487168084529482529182902085905590518481527f8c5be1e5ebec7d5bd14f71427d1e84f3dd0314c0f7b2291e5b200ac8c7c3b925910160405180910390a3505050565b6001600160a01b0383166109a55760405162461bcd60e51b815260206004820152602560248201527f45524332303a207472616e736665722066726f6d20746865207a65726f20616460448201527f64726573730000000000000000000000000000000000000000000000000000006064820152608401610508565b6001600160a01b038216610a215760405162461bcd60e51b815260206004820152602360248201527f45524332303a207472616e7366657220746f20746865207a65726f206164647260448201527f65737300000000000000000000000000000000000000000000000000000000006064820152608401610508565b6001600160a01b03831660009081526020819052604090205481811015610ab05760405162461bcd60e51b815260206004820152602660248201527f45524332303a207472616e7366657220616d6f756e742065786365656473206260448201527f616c616e636500000000000000000000000000000000000000000000000000006064820152608401610508565b610aba8282610c83565b6001600160a01b038086166000908152602081905260408082209390935590851681529081208054849290610af0908490610c6b565b92505081905550826001600160a01b0316846001600160a01b03167fddf252ad1be2c89b69c2b068fc378daa952ba7f163c4a11628f55a4df523b3ef84604051610b3c91815260200190565b60405180910390a350505050565b80356001600160a01b03811681146106fd57600080fd5b600060208284031215610b72578081fd5b610b7b82610b4a565b9392505050565b60008060408385031215610b94578081fd5b610b9d83610b4a565b9150610bab60208401610b4a565b90509250929050565b600080600060608486031215610bc8578081fd5b610bd184610b4a565b9250610bdf60208501610b4a565b9150604084013590509250925092565b60008060408385031215610c01578182fd5b610c0a83610b4a565b946020939093013593505050565b6000602080835283518082850152825b81811015610c4457858101830151858201604001528201610c28565b81811115610c555783604083870101525b50601f01601f1916929092016040019392505050565b60008219821115610c7e57610c7e610cd5565b500190565b600082821015610c9557610c95610cd5565b500390565b600281046001821680610cae57607f821691505b60208210811415610ccf57634e487b7160e01b600052602260045260246000fd5b50919050565b634e487b7160e01b600052601160045260246000fdfea2646970667358221220af90b26c7ea77b92f4718f1b53febfe70953b2594860c32b6b113c7b43231f8b64736f6c63430008020033",
  "linkReferences": {},
  "deployedLinkReferences": {}
}