{
  "_format": "hh-sol-artifact-1",
  "contractName": "PostaV0_6",
  "sourceName": "contracts/v0.6/PostaV0_6.sol",
  "abi": [
    {
      "anonymous": false,
      "inputs": [
        {
          "indexed": true,
          "internalType": "address",
          "name": "owner",
          "type": "address"
        },
        {
          "indexed": true,
          "internalType": "address",
          "name": "approved",
          "type": "address"
        },
        {
          "indexed": true,
          "internalType": "uint256",
          "name": "tokenId",
          "type": "uint256"
        }
      ],
      "name": "Approval",
      "type": "event"
    },
    {
      "anonymous": false,
      "inputs": [
        {
          "indexed": true,
          "internalType": "address",
          "name": "owner",
          "type": "address"
        },
        {
          "indexed": true,
          "internalType": "address",
          "name": "operator",
          "type": "address"
        },
        {
          "indexed": false,
          "internalType": "bool",
          "name": "approved",
          "type": "bool"
        }
      ],
      "name": "ApprovalForAll",
      "type": "event"
    },
    {
      "anonymous": false,
      "inputs": [
        {
          "indexed": true,
          "internalType": "address",
          "name": "author",
          "type": "address"
        },
        {
          "indexed": true,
          "internalType": "uint256",
          "name": "tokenId",
          "type": "uint256"
        },
        {
          "indexed": false,
          "internalType": "string",
          "name": "value",
          "type": "string"
        }
      ],
      "name": "NewPost",
      "type": "event"
    },
    {
      "anonymous": false,
      "inputs": [
        {
          "indexed": true,
          "internalType": "uint256",
          "name": "tokenId",
          "type": "uint256"
        },
        {
          "indexed": true,
          "internalType": "uint256",
          "name": "replyOfTokenId",
          "type": "uint256"
        }
      ],
      "name": "NewPostReply",
      "type": "event"
    },
    {
      "anonymous": false,
      "inputs": [
        {
          "indexed": true,
          "internalType": "address",
          "name": "previousOwner",
          "type": "address"
        },
        {
          "indexed": true,
          "internalType": "address",
          "name": "newOwner",
          "type": "address"
        }
      ],
      "name": "OwnershipTransferred",
      "type": "event"
    },
    {
      "anonymous": false,
      "inputs": [
        {
          "indexed": true,
          "internalType": "uint256",
          "name": "tokenId",
          "type": "uint256"
        },
        {
          "indexed": true,
          "internalType": "address",
          "name": "supporter",
          "type": "address"
        },
        {
          "indexed": false,
          "internalType": "uint256",
          "name": "amount",
          "type": "uint256"
        },
        {
          "indexed": false,
          "internalType": "uint256",
          "name": "burnt",
          "type": "uint256"
        },
        {
          "indexed": false,
          "internalType": "uint256",
          "name": "treasury",
          "type": "uint256"
        }
      ],
      "name": "SupportGiven",
      "type": "event"
    },
    {
      "anonymous": false,
      "inputs": [
        {
          "indexed": true,
          "internalType": "address",
          "name": "from",
          "type": "address"
        },
        {
          "indexed": true,
          "internalType": "address",
          "name": "to",
          "type": "address"
        },
        {
          "indexed": true,
          "internalType": "uint256",
          "name": "tokenId",
          "type": "uint256"
        }
      ],
      "name": "Transfer",
      "type": "event"
    },
    {
      "inputs": [
        {
          "internalType": "uint256",
          "name": "totalAmount",
          "type": "uint256"
        },
        {
          "internalType": "uint256",
          "name": "percentage",
          "type": "uint256"
        }
      ],
      "name": "_getAmountFromPct",
      "outputs": [
        {
          "internalType": "uint256",
          "name": "calculatedValue",
          "type": "uint256"
        }
      ],
      "stateMutability": "pure",
      "type": "function"
    },
    {
      "inputs": [
        {
          "internalType": "address",
          "name": "to",
          "type": "address"
        },
        {
          "internalType": "uint256",
          "name": "tokenId",
          "type": "uint256"
        }
      ],
      "name": "approve",
      "outputs": [],
      "stateMutability": "nonpayable",
      "type": "function"
    },
    {
      "inputs": [
        {
          "internalType": "address",
          "name": "owner",
          "type": "address"
        }
      ],
      "name": "balanceOf",
      "outputs": [
        {
          "internalType": "uint256",
          "name": "",
          "type": "uint256"
        }
      ],
      "stateMutability": "view",
      "type": "function"
    },
    {
      "inputs": [
        {
          "internalType": "uint256",
          "name": "tokenId",
          "type": "uint256"
        }
      ],
      "name": "getApproved",
      "outputs": [
        {
          "internalType": "address",
          "name": "",
          "type": "address"
        }
      ],
      "stateMutability": "view",
      "type": "function"
    },
    {
      "inputs": [],
      "name": "getBurnPct",
      "outputs": [
        {
          "internalType": "uint256",
          "name": "",
          "type": "uint256"
        }
      ],
      "stateMutability": "view",
      "type": "function"
    },
    {
      "inputs": [],
      "name": "getMaxChars",
      "outputs": [
        {
          "internalType": "uint256",
          "name": "",
          "type": "uint256"
        }
      ],
      "stateMutability": "view",
      "type": "function"
    },
    {
      "inputs": [],
      "name": "getPOH",
      "outputs": [
        {
          "internalType": "address",
          "name": "",
          "type": "address"
        }
      ],
      "stateMutability": "view",
      "type": "function"
    },
    {
      "inputs": [
        {
          "internalType": "uint256",
          "name": "tokenId",
          "type": "uint256"
        }
      ],
      "name": "getPost",
      "outputs": [
        {
          "components": [
            {
              "internalType": "uint256",
              "name": "supportGiven",
              "type": "uint256"
            },
            {
              "internalType": "uint256",
              "name": "supportersCount",
              "type": "uint256"
            }
          ],
          "internalType": "struct PostaData",
          "name": "",
          "type": "tuple"
        }
      ],
      "stateMutability": "view",
      "type": "function"
    },
    {
      "inputs": [],
      "name": "getTokenCounter",
      "outputs": [
        {
          "internalType": "uint256",
          "name": "",
          "type": "uint256"
        }
      ],
      "stateMutability": "view",
      "type": "function"
    },
    {
      "inputs": [],
      "name": "getTreasuryPct",
      "outputs": [
        {
          "internalType": "uint256",
          "name": "",
          "type": "uint256"
        }
      ],
      "stateMutability": "view",
      "type": "function"
    },
    {
      "inputs": [],
      "name": "getUBI",
      "outputs": [
        {
          "internalType": "address",
          "name": "",
          "type": "address"
        }
      ],
      "stateMutability": "view",
      "type": "function"
    },
    {
      "inputs": [
        {
          "internalType": "address",
          "name": "owner",
          "type": "address"
        },
        {
          "internalType": "address",
          "name": "operator",
          "type": "address"
        }
      ],
      "name": "isApprovedForAll",
      "outputs": [
        {
          "internalType": "bool",
          "name": "",
          "type": "bool"
        }
      ],
      "stateMutability": "view",
      "type": "function"
    },
    {
      "inputs": [],
      "name": "name",
      "outputs": [
        {
          "internalType": "string",
          "name": "",
          "type": "string"
        }
      ],
      "stateMutability": "view",
      "type": "function"
    },
    {
      "inputs": [],
      "name": "owner",
      "outputs": [
        {
          "internalType": "address",
          "name": "",
          "type": "address"
        }
      ],
      "stateMutability": "view",
      "type": "function"
    },
    {
      "inputs": [
        {
          "internalType": "uint256",
          "name": "tokenId",
          "type": "uint256"
        }
      ],
      "name": "ownerOf",
      "outputs": [
        {
          "internalType": "address",
          "name": "",
          "type": "address"
        }
      ],
      "stateMutability": "view",
      "type": "function"
    },
    {
      "inputs": [
        {
          "internalType": "string",
          "name": "text",
          "type": "string"
        }
      ],
      "name": "publishPost",
      "outputs": [
        {
          "internalType": "uint256",
          "name": "",
          "type": "uint256"
        }
      ],
      "stateMutability": "nonpayable",
      "type": "function"
    },
    {
      "inputs": [],
      "name": "renounceOwnership",
      "outputs": [],
      "stateMutability": "nonpayable",
      "type": "function"
    },
    {
      "inputs": [
        {
          "internalType": "string",
          "name": "text",
          "type": "string"
        },
        {
          "internalType": "uint256",
          "name": "tokenId",
          "type": "uint256"
        }
      ],
      "name": "replyPost",
      "outputs": [
        {
          "internalType": "uint256",
          "name": "",
          "type": "uint256"
        }
      ],
      "stateMutability": "nonpayable",
      "type": "function"
    },
    {
      "inputs": [
        {
          "internalType": "address",
          "name": "from",
          "type": "address"
        },
        {
          "internalType": "address",
          "name": "to",
          "type": "address"
        },
        {
          "internalType": "uint256",
          "name": "tokenId",
          "type": "uint256"
        }
      ],
      "name": "safeTransferFrom",
      "outputs": [],
      "stateMutability": "nonpayable",
      "type": "function"
    },
    {
      "inputs": [
        {
          "internalType": "address",
          "name": "from",
          "type": "address"
        },
        {
          "internalType": "address",
          "name": "to",
          "type": "address"
        },
        {
          "internalType": "uint256",
          "name": "tokenId",
          "type": "uint256"
        },
        {
          "internalType": "bytes",
          "name": "_data",
          "type": "bytes"
        }
      ],
      "name": "safeTransferFrom",
      "outputs": [],
      "stateMutability": "nonpayable",
      "type": "function"
    },
    {
      "inputs": [
        {
          "internalType": "address",
          "name": "operator",
          "type": "address"
        },
        {
          "internalType": "bool",
          "name": "approved",
          "type": "bool"
        }
      ],
      "name": "setApprovalForAll",
      "outputs": [],
      "stateMutability": "nonpayable",
      "type": "function"
    },
    {
      "inputs": [
        {
          "internalType": "string",
          "name": "baseURI_",
          "type": "string"
        }
      ],
      "name": "setBaseURI",
      "outputs": [],
      "stateMutability": "nonpayable",
      "type": "function"
    },
    {
      "inputs": [
        {
          "internalType": "uint256",
          "name": "burnPct",
          "type": "uint256"
        }
      ],
      "name": "setBurnPct",
      "outputs": [],
      "stateMutability": "nonpayable",
      "type": "function"
    },
    {
      "inputs": [
        {
          "internalType": "uint256",
          "name": "maxChars",
          "type": "uint256"
        }
      ],
      "name": "setMaxChars",
      "outputs": [],
      "stateMutability": "nonpayable",
      "type": "function"
    },
    {
      "inputs": [
        {
          "internalType": "address",
          "name": "poh",
          "type": "address"
        }
      ],
      "name": "setPOH",
      "outputs": [],
      "stateMutability": "nonpayable",
      "type": "function"
    },
    {
      "inputs": [
        {
          "internalType": "uint256",
          "name": "treasuryPct",
          "type": "uint256"
        }
      ],
      "name": "setTreasuryPct",
      "outputs": [],
      "stateMutability": "nonpayable",
      "type": "function"
    },
    {
      "inputs": [
        {
          "internalType": "address",
          "name": "ubi",
          "type": "address"
        }
      ],
      "name": "setUBI",
      "outputs": [],
      "stateMutability": "nonpayable",
      "type": "function"
    },
    {
      "inputs": [
        {
          "internalType": "uint256",
          "name": "tokenId",
          "type": "uint256"
        },
        {
          "internalType": "uint256",
          "name": "ubiAmount",
          "type": "uint256"
        }
      ],
      "name": "support",
      "outputs": [],
      "stateMutability": "nonpayable",
      "type": "function"
    },
    {
      "inputs": [
        {
          "internalType": "bytes4",
          "name": "interfaceId",
          "type": "bytes4"
        }
      ],
      "name": "supportsInterface",
      "outputs": [
        {
          "internalType": "bool",
          "name": "",
          "type": "bool"
        }
      ],
      "stateMutability": "view",
      "type": "function"
    },
    {
      "inputs": [],
      "name": "symbol",
      "outputs": [
        {
          "internalType": "string",
          "name": "",
          "type": "string"
        }
      ],
      "stateMutability": "view",
      "type": "function"
    },
    {
      "inputs": [
        {
          "internalType": "uint256",
          "name": "tokenId",
          "type": "uint256"
        }
      ],
      "name": "tokenURI",
      "outputs": [
        {
          "internalType": "string",
          "name": "",
          "type": "string"
        }
      ],
      "stateMutability": "view",
      "type": "function"
    },
    {
      "inputs": [
        {
          "internalType": "address",
          "name": "from",
          "type": "address"
        },
        {
          "internalType": "address",
          "name": "to",
          "type": "address"
        },
        {
          "internalType": "uint256",
          "name": "tokenId",
          "type": "uint256"
        }
      ],
      "name": "transferFrom",
      "outputs": [],
      "stateMutability": "nonpayable",
      "type": "function"
    },
    {
      "inputs": [
        {
          "internalType": "address",
          "name": "newOwner",
          "type": "address"
        }
      ],
      "name": "transferOwnership",
      "outputs": [],
      "stateMutability": "nonpayable",
      "type": "function"
    }
  ],
  "bytecode": "0x608060405234801561001057600080fd5b506128df806100206000396000f3fe608060405234801561001057600080fd5b506004361061020b5760003560e01c80636c71f9da1161012a578063a22cb465116100bd578063c87b56dd1161008c578063e18709f011610071578063e18709f014610458578063e985e9c51461046b578063f2fde38b146104a75761020b565b8063c87b56dd1461043d578063cfe1c8a2146104505761020b565b8063a22cb465146103f1578063b88d4fde14610404578063c51a2bba14610417578063c57194631461042a5761020b565b80638da5cb5b116100f95780638da5cb5b146103b25780639588cdb3146103c357806395d89b41146103d65780639be56c67146103de5761020b565b80636c71f9da1461037c5780636e02007d1461038f57806370a0823114610397578063715018a6146103aa5761020b565b80633a759157116101a25780635cfd70bf116101715780635cfd70bf1461033b5780636352211e1461034e57806367b7793d1461036157806368bed9e3146103695761020b565b80633a759157146102d657806340731c24146102e757806342842e0e1461031557806355f804b3146103285761020b565b8063097377ec116101de578063097377ec1461028d5780631a8d8d181461029f57806323b872dd146102b2578063365b96e4146102c55761020b565b806301ffc9a71461021057806306fdde0314610238578063081812fc1461024d578063095ea7b314610278575b600080fd5b61022361021e3660046125dc565b6104ba565b60405190151581526020015b60405180910390f35b610240610559565b60405161022f919061275a565b61026061025b36600461268a565b6105eb565b6040516001600160a01b03909116815260200161022f565b61028b610286366004612597565b610685565b005b60d0545b60405190815260200161022f565b61028b6102ad36600461268a565b6107b7565b61028b6102c03660046124ad565b610816565b60cb546001600160a01b0316610260565b60cc546001600160a01b0316610260565b6102fa6102f536600461268a565b61089d565b6040805182518152602092830151928101929092520161022f565b61028b6103233660046124ad565b610966565b61028b610336366004612614565b610981565b6102916103493660046126a2565b6109f2565b61026061035c36600461268a565b610a1f565b60cf54610291565b61028b610377366004612461565b610aaa565b61029161038a366004612647565b610b26565b60ce54610291565b6102916103a5366004612461565b610cbd565b61028b610d57565b6033546001600160a01b0316610260565b61028b6103d136600461268a565b610dfb565b610240610ec8565b61028b6103ec3660046126a2565b610ed7565b61028b6103ff366004612561565b611202565b61028b6104123660046124e8565b6112d4565b61028b61042536600461268a565b611362565b610291610438366004612614565b61142f565b61024061044b36600461268a565b611514565b60d154610291565b61028b610466366004612461565b6115ef565b61022361047936600461247b565b6001600160a01b039182166000908152609c6020908152604080832093909416825291909152205460ff1690565b61028b6104b5366004612461565b61166b565b60006001600160e01b031982167f80ac58cd00000000000000000000000000000000000000000000000000000000148061051d57506001600160e01b031982167f5b5e139f00000000000000000000000000000000000000000000000000000000145b8061055157507f01ffc9a7000000000000000000000000000000000000000000000000000000006001600160e01b03198316145b90505b919050565b606060978054610568906127dc565b80601f0160208091040260200160405190810160405280929190818152602001828054610594906127dc565b80156105e15780601f106105b6576101008083540402835291602001916105e1565b820191906000526020600020905b8154815290600101906020018083116105c457829003601f168201915b5050505050905090565b6000818152609960205260408120546001600160a01b03166106695760405162461bcd60e51b815260206004820152602c60248201527f4552433732313a20617070726f76656420717565727920666f72206e6f6e657860448201526b34b9ba32b73a103a37b5b2b760a11b60648201526084015b60405180910390fd5b506000908152609b60205260409020546001600160a01b031690565b600061069082610a1f565b9050806001600160a01b0316836001600160a01b0316141561071a5760405162461bcd60e51b815260206004820152602160248201527f4552433732313a20617070726f76616c20746f2063757272656e74206f776e6560448201527f72000000000000000000000000000000000000000000000000000000000000006064820152608401610660565b336001600160a01b038216148061073657506107368133610479565b6107a85760405162461bcd60e51b815260206004820152603860248201527f4552433732313a20617070726f76652063616c6c6572206973206e6f74206f7760448201527f6e6572206e6f7220617070726f76656420666f7220616c6c00000000000000006064820152608401610660565b6107b2838361179d565b505050565b6033546001600160a01b031633146108115760405162461bcd60e51b815260206004820181905260248201527f4f776e61626c653a2063616c6c6572206973206e6f7420746865206f776e65726044820152606401610660565b60cf55565b610820338261180b565b6108925760405162461bcd60e51b815260206004820152603160248201527f4552433732313a207472616e736665722063616c6c6572206973206e6f74206f60448201527f776e6572206e6f7220617070726f7665640000000000000000000000000000006064820152608401610660565b6107b2838383611902565b6040805180820190915260008082526020820152816108d3816000908152609960205260409020546001600160a01b0316151590565b6109375760405162461bcd60e51b815260206004820152602f60248201527f4552433732314d657461646174613a2055524920717565727920666f72206e6f60448201526e3732bc34b9ba32b73a103a37b5b2b760891b6064820152608401610660565b600083815260c96020908152604091829020825180840190935280548352600101549082015291505b50919050565b6107b2838383604051806020016040528060008152506112d4565b6033546001600160a01b031633146109db5760405162461bcd60e51b815260206004820181905260248201527f4f776e61626c653a2063616c6c6572206973206e6f7420746865206f776e65726044820152606401610660565b80516109ee9060d290602084019061231c565b5050565b60008115610a1957610a0c82670de0b6b3a7640000612785565b610a169084612785565b90505b92915050565b6000818152609960205260408120546001600160a01b0316806105515760405162461bcd60e51b815260206004820152602960248201527f4552433732313a206f776e657220717565727920666f72206e6f6e657869737460448201527f656e7420746f6b656e00000000000000000000000000000000000000000000006064820152608401610660565b6033546001600160a01b03163314610b045760405162461bcd60e51b815260206004820181905260248201527f4f776e61626c653a2063616c6c6572206973206e6f7420746865206f776e65726044820152606401610660565b60cb80546001600160a01b0319166001600160a01b0392909216919091179055565b60003360cb5460405163c3c5a54760e01b81526001600160a01b0383811660048301529091169063c3c5a5479060240160206040518083038186803b158015610b6e57600080fd5b505afa158015610b82573d6000803e3d6000fd5b505050506040513d601f19601f82011682018060405250810190610ba691906125c0565b6040518060400160405280601481526020017f48554d414e5f4e4f545f5245474953544552454400000000000000000000000081525090610bfa5760405162461bcd60e51b8152600401610660919061275a565b5060008381526099602052604090205483906001600160a01b0316610c795760405162461bcd60e51b815260206004820152602f60248201527f4552433732314d657461646174613a2055524920717565727920666f72206e6f60448201526e3732bc34b9ba32b73a103a37b5b2b760891b6064820152608401610660565b6000610c8486611acf565b905084817f2b50d9ccb8650c1d7f446f9ae1358e761b3a0601260793e28bc458d80b81a74f60405160405180910390a395945050505050565b60006001600160a01b038216610d3b5760405162461bcd60e51b815260206004820152602a60248201527f4552433732313a2062616c616e636520717565727920666f7220746865207a6560448201527f726f2061646472657373000000000000000000000000000000000000000000006064820152608401610660565b506001600160a01b03166000908152609a602052604090205490565b6033546001600160a01b03163314610db15760405162461bcd60e51b815260206004820181905260248201527f4f776e61626c653a2063616c6c6572206973206e6f7420746865206f776e65726044820152606401610660565b6033546040516000916001600160a01b0316907f8be0079c531659141344cd1fd0a4f28419497f9722a3daafe3b4186f6b6457e0908390a3603380546001600160a01b0319169055565b6033546001600160a01b03163314610e555760405162461bcd60e51b815260206004820181905260248201527f4f776e61626c653a2063616c6c6572206973206e6f7420746865206f776e65726044820152606401610660565b670de0b6b3a76400008160d054610e6c919061276d565b11156040518060400160405280601c81526020017f4255524e5f54524541535552595f4d5553545f544f54414c5f4f4e450000000081525090610ec25760405162461bcd60e51b8152600401610660919061275a565b5060d155565b606060988054610568906127dc565b60008281526099602052604090205482906001600160a01b0316610f555760405162461bcd60e51b815260206004820152602f60248201527f4552433732314d657461646174613a2055524920717565727920666f72206e6f60448201526e3732bc34b9ba32b73a103a37b5b2b760891b6064820152608401610660565b610f5e83610a1f565b6001600160a01b0316336001600160a01b031614156040518060400160405280601981526020017f43414e545f535550504f52545f53454c465f434f4e54454e540000000000000081525090610fc75760405162461bcd60e51b8152600401610660919061275a565b506000806000610fd685611c8d565b60cc5492955090935091506001600160a01b03168315611061576001600160a01b0381166379cc6790336040516001600160e01b031960e084901b1681526001600160a01b03909116600482015260248101879052604401600060405180830381600087803b15801561104857600080fd5b505af115801561105c573d6000803e3d6000fd5b505050505b82156110ff576001600160a01b0381166323b872dd336040516001600160e01b031960e084901b1681526001600160a01b03909116600482015230602482015260448101869052606401602060405180830381600087803b1580156110c557600080fd5b505af11580156110d9573d6000803e3d6000fd5b505050506040513d601f19601f820116820180604052508101906110fd91906125c0565b505b81156111a95760cc546001600160a01b03166323b872dd336111208a610a1f565b6040516001600160e01b031960e085901b1681526001600160a01b0392831660048201529116602482015260448101859052606401602060405180830381600087803b15801561116f57600080fd5b505af1158015611183573d6000803e3d6000fd5b505050506040513d601f19601f820116820180604052508101906111a791906125c0565b505b6111b4878733611ccb565b6040805187815260208101869052908101849052339088907f5d68364fffa9a34e52cf1cb2930a08837021eed766ce4cc6bf1ff132efcacc9d9060600160405180910390a350505050505050565b6001600160a01b03821633141561125b5760405162461bcd60e51b815260206004820152601960248201527f4552433732313a20617070726f766520746f2063616c6c6572000000000000006044820152606401610660565b336000818152609c602090815260408083206001600160a01b0387168085529252909120805460ff1916841515179055906001600160a01b03167f17307eab39ab6107e8899845ad3d59bd9653f200f220920489ca2b5937696c31836040516112c8911515815260200190565b60405180910390a35050565b6112de338361180b565b6113505760405162461bcd60e51b815260206004820152603160248201527f4552433732313a207472616e736665722063616c6c6572206973206e6f74206f60448201527f776e6572206e6f7220617070726f7665640000000000000000000000000000006064820152608401610660565b61135c84848484611d6f565b50505050565b6033546001600160a01b031633146113bc5760405162461bcd60e51b815260206004820181905260248201527f4f776e61626c653a2063616c6c6572206973206e6f7420746865206f776e65726044820152606401610660565b670de0b6b3a764000060d154826113d3919061276d565b11156040518060400160405280601c81526020017f4255524e5f54524541535552595f4d5553545f544f54414c5f4f4e4500000000815250906114295760405162461bcd60e51b8152600401610660919061275a565b5060d055565b60003360cb5460405163c3c5a54760e01b81526001600160a01b0383811660048301529091169063c3c5a5479060240160206040518083038186803b15801561147757600080fd5b505afa15801561148b573d6000803e3d6000fd5b505050506040513d601f19601f820116820180604052508101906114af91906125c0565b6040518060400160405280601481526020017f48554d414e5f4e4f545f52454749535445524544000000000000000000000000815250906115035760405162461bcd60e51b8152600401610660919061275a565b5061150d83611acf565b9392505050565b6000818152609960205260409020546060906001600160a01b03166115935760405162461bcd60e51b815260206004820152602f60248201527f4552433732314d657461646174613a2055524920717565727920666f72206e6f60448201526e3732bc34b9ba32b73a103a37b5b2b760891b6064820152608401610660565b600061159d611ded565b905060008151116115bd576040518060200160405280600081525061150d565b806115c784611dfc565b6040516020016115d89291906126ef565b604051602081830303815290604052915050919050565b6033546001600160a01b031633146116495760405162461bcd60e51b815260206004820181905260248201527f4f776e61626c653a2063616c6c6572206973206e6f7420746865206f776e65726044820152606401610660565b60cc80546001600160a01b0319166001600160a01b0392909216919091179055565b6033546001600160a01b031633146116c55760405162461bcd60e51b815260206004820181905260248201527f4f776e61626c653a2063616c6c6572206973206e6f7420746865206f776e65726044820152606401610660565b6001600160a01b0381166117415760405162461bcd60e51b815260206004820152602660248201527f4f776e61626c653a206e6577206f776e657220697320746865207a65726f206160448201527f64647265737300000000000000000000000000000000000000000000000000006064820152608401610660565b6033546040516001600160a01b038084169216907f8be0079c531659141344cd1fd0a4f28419497f9722a3daafe3b4186f6b6457e090600090a3603380546001600160a01b0319166001600160a01b0392909216919091179055565b6000818152609b6020526040902080546001600160a01b0319166001600160a01b03841690811790915581906117d282610a1f565b6001600160a01b03167f8c5be1e5ebec7d5bd14f71427d1e84f3dd0314c0f7b2291e5b200ac8c7c3b92560405160405180910390a45050565b6000818152609960205260408120546001600160a01b03166118845760405162461bcd60e51b815260206004820152602c60248201527f4552433732313a206f70657261746f7220717565727920666f72206e6f6e657860448201526b34b9ba32b73a103a37b5b2b760a11b6064820152608401610660565b600061188f83610a1f565b9050806001600160a01b0316846001600160a01b031614806118ca5750836001600160a01b03166118bf846105eb565b6001600160a01b0316145b806118fa57506001600160a01b038082166000908152609c602090815260408083209388168352929052205460ff165b949350505050565b826001600160a01b031661191582610a1f565b6001600160a01b0316146119915760405162461bcd60e51b815260206004820152602960248201527f4552433732313a207472616e73666572206f6620746f6b656e2074686174206960448201527f73206e6f74206f776e00000000000000000000000000000000000000000000006064820152608401610660565b6001600160a01b038216611a0c5760405162461bcd60e51b8152602060048201526024808201527f4552433732313a207472616e7366657220746f20746865207a65726f2061646460448201527f72657373000000000000000000000000000000000000000000000000000000006064820152608401610660565b611a1760008261179d565b6001600160a01b0383166000908152609a60205260408120805460019290611a40908490612799565b90915550506001600160a01b0382166000908152609a60205260408120805460019290611a6e90849061276d565b909155505060008181526099602052604080822080546001600160a01b0319166001600160a01b0386811691821790925591518493918716917fddf252ad1be2c89b69c2b068fc378daa952ba7f163c4a11628f55a4df523b3ef91a4505050565b60003360cb5460405163c3c5a54760e01b81526001600160a01b0383811660048301529091169063c3c5a5479060240160206040518083038186803b158015611b1757600080fd5b505afa158015611b2b573d6000803e3d6000fd5b505050506040513d601f19601f82011682018060405250810190611b4f91906125c0565b6040518060400160405280601481526020017f48554d414e5f4e4f545f5245474953544552454400000000000000000000000081525090611ba35760405162461bcd60e51b8152600401610660919061275a565b5060cf54835111156040518060400160405280601281526020017f504f53545f544558545f544f4f5f4c4f4e47000000000000000000000000000081525090611bff5760405162461bcd60e51b8152600401610660919061275a565b50600160ce6000828254611c13919061276d565b909155505060ce54611c253382611f4b565b6040805180820190915260008082526020820152611c438282611f65565b81336001600160a01b03167fd8c86c7877c3f1f8a40af6cf64a11fe867af887f2a1ad31aac849e36730425b087604051611c7d919061275a565b60405180910390a3509392505050565b6000806000611c9e8460d0546109f2565b9250611cac8460d1546109f2565b915081611cb98486612799565b611cc39190612799565b929491935050565b600083815260c9602052604081208054849290611ce990849061276d565b9091555050600083815260ca602090815260408083206001600160a01b038516845290915290205460ff166107b257600083815260ca602090815260408083206001600160a01b03851684528252808320805460ff1916600190811790915586845260c990925282208101805491929091611d6590849061276d565b9091555050505050565b611d7a848484611902565b611d8684848484612004565b61135c5760405162461bcd60e51b815260206004820152603260248201527f4552433732313a207472616e7366657220746f206e6f6e20455243373231526560448201527131b2b4bb32b91034b6b83632b6b2b73a32b960711b6064820152608401610660565b606060d28054610568906127dc565b606081611e3d575060408051808201909152600181527f30000000000000000000000000000000000000000000000000000000000000006020820152610554565b8160005b8115611e675780611e5181612811565b9150611e609050600a83612785565b9150611e41565b60008167ffffffffffffffff811115611e9057634e487b7160e01b600052604160045260246000fd5b6040519080825280601f01601f191660200182016040528015611eba576020820181803683370190505b5090505b84156118fa57611ecf600183612799565b9150611edc600a8661282c565b611ee790603061276d565b60f81b818381518110611f0a57634e487b7160e01b600052603260045260246000fd5b60200101907effffffffffffffffffffffffffffffffffffffffffffffffffffffffffffff1916908160001a905350611f44600a86612785565b9450611ebe565b6109ee82826040518060200160405280600081525061215c565b60008281526099602052604090205482906001600160a01b0316611fe35760405162461bcd60e51b815260206004820152602f60248201527f4552433732314d657461646174613a2055524920717565727920666f72206e6f60448201526e3732bc34b9ba32b73a103a37b5b2b760891b6064820152608401610660565b50600091825260c96020908152604090922081518155910151600190910155565b60006001600160a01b0384163b1561215157604051630a85bd0160e11b81526001600160a01b0385169063150b7a029061204890339089908890889060040161271e565b602060405180830381600087803b15801561206257600080fd5b505af1925050508015612092575060408051601f3d908101601f1916820190925261208f918101906125f8565b60015b612137573d8080156120c0576040519150601f19603f3d011682016040523d82523d6000602084013e6120c5565b606091505b50805161212f5760405162461bcd60e51b815260206004820152603260248201527f4552433732313a207472616e7366657220746f206e6f6e20455243373231526560448201527131b2b4bb32b91034b6b83632b6b2b73a32b960711b6064820152608401610660565b805181602001fd5b6001600160e01b031916630a85bd0160e11b1490506118fa565b506001949350505050565b61216683836121da565b6121736000848484612004565b6107b25760405162461bcd60e51b815260206004820152603260248201527f4552433732313a207472616e7366657220746f206e6f6e20455243373231526560448201527131b2b4bb32b91034b6b83632b6b2b73a32b960711b6064820152608401610660565b6001600160a01b0382166122305760405162461bcd60e51b815260206004820181905260248201527f4552433732313a206d696e7420746f20746865207a65726f20616464726573736044820152606401610660565b6000818152609960205260409020546001600160a01b0316156122955760405162461bcd60e51b815260206004820152601c60248201527f4552433732313a20746f6b656e20616c7265616479206d696e746564000000006044820152606401610660565b6001600160a01b0382166000908152609a602052604081208054600192906122be90849061276d565b909155505060008181526099602052604080822080546001600160a01b0319166001600160a01b03861690811790915590518392907fddf252ad1be2c89b69c2b068fc378daa952ba7f163c4a11628f55a4df523b3ef908290a45050565b828054612328906127dc565b90600052602060002090601f01602090048101928261234a5760008555612390565b82601f1061236357805160ff1916838001178555612390565b82800160010185558215612390579182015b82811115612390578251825591602001919060010190612375565b5061239c9291506123a0565b5090565b5b8082111561239c57600081556001016123a1565b600067ffffffffffffffff808411156123d0576123d061286c565b604051601f8501601f19908116603f011681019082821181831017156123f8576123f861286c565b8160405280935085815286868601111561241157600080fd5b858560208301376000602087830101525050509392505050565b80356001600160a01b038116811461055457600080fd5b600082601f830112612452578081fd5b610a16838335602085016123b5565b600060208284031215612472578081fd5b610a168261242b565b6000806040838503121561248d578081fd5b6124968361242b565b91506124a46020840161242b565b90509250929050565b6000806000606084860312156124c1578081fd5b6124ca8461242b565b92506124d86020850161242b565b9150604084013590509250925092565b600080600080608085870312156124fd578081fd5b6125068561242b565b93506125146020860161242b565b925060408501359150606085013567ffffffffffffffff811115612536578182fd5b8501601f81018713612546578182fd5b612555878235602084016123b5565b91505092959194509250565b60008060408385031215612573578182fd5b61257c8361242b565b9150602083013561258c81612882565b809150509250929050565b600080604083850312156125a9578182fd5b6125b28361242b565b946020939093013593505050565b6000602082840312156125d1578081fd5b815161150d81612882565b6000602082840312156125ed578081fd5b813561150d81612893565b600060208284031215612609578081fd5b815161150d81612893565b600060208284031215612625578081fd5b813567ffffffffffffffff81111561263b578182fd5b6118fa84828501612442565b60008060408385031215612659578182fd5b823567ffffffffffffffff81111561266f578283fd5b61267b85828601612442565b95602094909401359450505050565b60006020828403121561269b578081fd5b5035919050565b600080604083850312156126b4578182fd5b50508035926020909101359150565b600081518084526126db8160208601602086016127b0565b601f01601f19169290920160200192915050565b600083516127018184602088016127b0565b8351908301906127158183602088016127b0565b01949350505050565b60006001600160a01b0380871683528086166020840152508360408301526080606083015261275060808301846126c3565b9695505050505050565b600060208252610a1660208301846126c3565b6000821982111561278057612780612840565b500190565b60008261279457612794612856565b500490565b6000828210156127ab576127ab612840565b500390565b60005b838110156127cb5781810151838201526020016127b3565b8381111561135c5750506000910152565b6002810460018216806127f057607f821691505b6020821081141561096057634e487b7160e01b600052602260045260246000fd5b600060001982141561282557612825612840565b5060010190565b60008261283b5761283b612856565b500690565b634e487b7160e01b600052601160045260246000fd5b634e487b7160e01b600052601260045260246000fd5b634e487b7160e01b600052604160045260246000fd5b801515811461289057600080fd5b50565b6001600160e01b03198116811461289057600080fdfea26469706673582212209bfd370c31fccb10a94c8a1625c29e6f37e334b60799007a6254ada705fc6d3464736f6c63430008020033",
  "linkReferences": {},
  "deployedLinkReferences": {}
}