{
  "_format": "hh-sol-artifact-1",
  "contractName": "Posta",
  "sourceName": "contracts/v0.2/Posta.sol",
  "abi": [
    {
      "anonymous": false,
      "inputs": [
        {
          "indexed": true,
          "internalType": "address",
          "name": "owner",
          "type": "address"
        },
        {
          "indexed": true,
          "internalType": "address",
          "name": "approved",
          "type": "address"
        },
        {
          "indexed": true,
          "internalType": "uint256",
          "name": "tokenId",
          "type": "uint256"
        }
      ],
      "name": "Approval",
      "type": "event"
    },
    {
      "anonymous": false,
      "inputs": [
        {
          "indexed": true,
          "internalType": "address",
          "name": "owner",
          "type": "address"
        },
        {
          "indexed": true,
          "internalType": "address",
          "name": "operator",
          "type": "address"
        },
        {
          "indexed": false,
          "internalType": "bool",
          "name": "approved",
          "type": "bool"
        }
      ],
      "name": "ApprovalForAll",
      "type": "event"
    },
    {
      "anonymous": false,
      "inputs": [
        {
          "indexed": true,
          "internalType": "address",
          "name": "author",
          "type": "address"
        },
        {
          "indexed": true,
          "internalType": "uint256",
          "name": "tokenId",
          "type": "uint256"
        },
        {
          "indexed": false,
          "internalType": "string",
          "name": "value",
          "type": "string"
        }
      ],
      "name": "NewPost",
      "type": "event"
    },
    {
      "anonymous": false,
      "inputs": [
        {
          "indexed": true,
          "internalType": "address",
          "name": "previousOwner",
          "type": "address"
        },
        {
          "indexed": true,
          "internalType": "address",
          "name": "newOwner",
          "type": "address"
        }
      ],
      "name": "OwnershipTransferred",
      "type": "event"
    },
    {
      "anonymous": false,
      "inputs": [
        {
          "indexed": true,
          "internalType": "address",
          "name": "from",
          "type": "address"
        },
        {
          "indexed": true,
          "internalType": "address",
          "name": "to",
          "type": "address"
        },
        {
          "indexed": true,
          "internalType": "uint256",
          "name": "tokenId",
          "type": "uint256"
        }
      ],
      "name": "Transfer",
      "type": "event"
    },
    {
      "inputs": [
        {
          "internalType": "uint256",
          "name": "totalAmount",
          "type": "uint256"
        },
        {
          "internalType": "uint256",
          "name": "percentage",
          "type": "uint256"
        }
      ],
      "name": "_getAmountFromPct",
      "outputs": [
        {
          "internalType": "uint256",
          "name": "calculatedValue",
          "type": "uint256"
        }
      ],
      "stateMutability": "pure",
      "type": "function"
    },
    {
      "inputs": [
        {
          "internalType": "address",
          "name": "to",
          "type": "address"
        },
        {
          "internalType": "uint256",
          "name": "tokenId",
          "type": "uint256"
        }
      ],
      "name": "approve",
      "outputs": [],
      "stateMutability": "nonpayable",
      "type": "function"
    },
    {
      "inputs": [
        {
          "internalType": "address",
          "name": "owner",
          "type": "address"
        }
      ],
      "name": "balanceOf",
      "outputs": [
        {
          "internalType": "uint256",
          "name": "",
          "type": "uint256"
        }
      ],
      "stateMutability": "view",
      "type": "function"
    },
    {
      "inputs": [
        {
          "internalType": "uint256",
          "name": "tokenId",
          "type": "uint256"
        }
      ],
      "name": "getApproved",
      "outputs": [
        {
          "internalType": "address",
          "name": "",
          "type": "address"
        }
      ],
      "stateMutability": "view",
      "type": "function"
    },
    {
      "inputs": [],
      "name": "getBurnPct",
      "outputs": [
        {
          "internalType": "uint256",
          "name": "",
          "type": "uint256"
        }
      ],
      "stateMutability": "view",
      "type": "function"
    },
    {
      "inputs": [],
      "name": "getMaxChars",
      "outputs": [
        {
          "internalType": "uint256",
          "name": "",
          "type": "uint256"
        }
      ],
      "stateMutability": "view",
      "type": "function"
    },
    {
      "inputs": [],
      "name": "getPOH",
      "outputs": [
        {
          "internalType": "address",
          "name": "",
          "type": "address"
        }
      ],
      "stateMutability": "view",
      "type": "function"
    },
    {
      "inputs": [
        {
          "internalType": "uint256",
          "name": "tokenId",
          "type": "uint256"
        }
      ],
      "name": "getPost",
      "outputs": [
        {
          "components": [
            {
              "internalType": "uint256",
              "name": "supportGiven",
              "type": "uint256"
            },
            {
              "internalType": "uint256",
              "name": "supportersCount",
              "type": "uint256"
            }
          ],
          "internalType": "struct PostaData",
          "name": "",
          "type": "tuple"
        }
      ],
      "stateMutability": "view",
      "type": "function"
    },
    {
      "inputs": [],
      "name": "getTokenCounter",
      "outputs": [
        {
          "internalType": "uint256",
          "name": "",
          "type": "uint256"
        }
      ],
      "stateMutability": "view",
      "type": "function"
    },
    {
      "inputs": [],
      "name": "getTreasuryPct",
      "outputs": [
        {
          "internalType": "uint256",
          "name": "",
          "type": "uint256"
        }
      ],
      "stateMutability": "view",
      "type": "function"
    },
    {
      "inputs": [],
      "name": "getUBI",
      "outputs": [
        {
          "internalType": "address",
          "name": "",
          "type": "address"
        }
      ],
      "stateMutability": "view",
      "type": "function"
    },
    {
      "inputs": [
        {
          "internalType": "address",
          "name": "poh",
          "type": "address"
        },
        {
          "internalType": "address",
          "name": "ubi",
          "type": "address"
        },
        {
          "internalType": "uint256",
          "name": "maxChars",
          "type": "uint256"
        },
        {
          "internalType": "uint256",
          "name": "burnPct",
          "type": "uint256"
        },
        {
          "internalType": "uint256",
          "name": "treasuryPct",
          "type": "uint256"
        }
      ],
      "name": "initialize",
      "outputs": [],
      "stateMutability": "nonpayable",
      "type": "function"
    },
    {
      "inputs": [
        {
          "internalType": "address",
          "name": "owner",
          "type": "address"
        },
        {
          "internalType": "address",
          "name": "operator",
          "type": "address"
        }
      ],
      "name": "isApprovedForAll",
      "outputs": [
        {
          "internalType": "bool",
          "name": "",
          "type": "bool"
        }
      ],
      "stateMutability": "view",
      "type": "function"
    },
    {
      "inputs": [],
      "name": "name",
      "outputs": [
        {
          "internalType": "string",
          "name": "",
          "type": "string"
        }
      ],
      "stateMutability": "view",
      "type": "function"
    },
    {
      "inputs": [],
      "name": "owner",
      "outputs": [
        {
          "internalType": "address",
          "name": "",
          "type": "address"
        }
      ],
      "stateMutability": "view",
      "type": "function"
    },
    {
      "inputs": [
        {
          "internalType": "uint256",
          "name": "tokenId",
          "type": "uint256"
        }
      ],
      "name": "ownerOf",
      "outputs": [
        {
          "internalType": "address",
          "name": "",
          "type": "address"
        }
      ],
      "stateMutability": "view",
      "type": "function"
    },
    {
      "inputs": [
        {
          "internalType": "string",
          "name": "text",
          "type": "string"
        }
      ],
      "name": "publishPost",
      "outputs": [
        {
          "internalType": "uint256",
          "name": "",
          "type": "uint256"
        }
      ],
      "stateMutability": "nonpayable",
      "type": "function"
    },
    {
      "inputs": [],
      "name": "renounceOwnership",
      "outputs": [],
      "stateMutability": "nonpayable",
      "type": "function"
    },
    {
      "inputs": [
        {
          "internalType": "address",
          "name": "from",
          "type": "address"
        },
        {
          "internalType": "address",
          "name": "to",
          "type": "address"
        },
        {
          "internalType": "uint256",
          "name": "tokenId",
          "type": "uint256"
        }
      ],
      "name": "safeTransferFrom",
      "outputs": [],
      "stateMutability": "nonpayable",
      "type": "function"
    },
    {
      "inputs": [
        {
          "internalType": "address",
          "name": "from",
          "type": "address"
        },
        {
          "internalType": "address",
          "name": "to",
          "type": "address"
        },
        {
          "internalType": "uint256",
          "name": "tokenId",
          "type": "uint256"
        },
        {
          "internalType": "bytes",
          "name": "_data",
          "type": "bytes"
        }
      ],
      "name": "safeTransferFrom",
      "outputs": [],
      "stateMutability": "nonpayable",
      "type": "function"
    },
    {
      "inputs": [
        {
          "internalType": "address",
          "name": "operator",
          "type": "address"
        },
        {
          "internalType": "bool",
          "name": "approved",
          "type": "bool"
        }
      ],
      "name": "setApprovalForAll",
      "outputs": [],
      "stateMutability": "nonpayable",
      "type": "function"
    },
    {
      "inputs": [
        {
          "internalType": "string",
          "name": "baseURI_",
          "type": "string"
        }
      ],
      "name": "setBaseURI",
      "outputs": [],
      "stateMutability": "nonpayable",
      "type": "function"
    },
    {
      "inputs": [
        {
          "internalType": "uint256",
          "name": "burnPct",
          "type": "uint256"
        }
      ],
      "name": "setBurnPct",
      "outputs": [],
      "stateMutability": "nonpayable",
      "type": "function"
    },
    {
      "inputs": [
        {
          "internalType": "uint256",
          "name": "maxChars",
          "type": "uint256"
        }
      ],
      "name": "setMaxChars",
      "outputs": [],
      "stateMutability": "nonpayable",
      "type": "function"
    },
    {
      "inputs": [
        {
          "internalType": "address",
          "name": "poh",
          "type": "address"
        }
      ],
      "name": "setPOH",
      "outputs": [],
      "stateMutability": "nonpayable",
      "type": "function"
    },
    {
      "inputs": [
        {
          "internalType": "uint256",
          "name": "treasuryPct",
          "type": "uint256"
        }
      ],
      "name": "setTreasuryPct",
      "outputs": [],
      "stateMutability": "nonpayable",
      "type": "function"
    },
    {
      "inputs": [
        {
          "internalType": "address",
          "name": "ubi",
          "type": "address"
        }
      ],
      "name": "setUBI",
      "outputs": [],
      "stateMutability": "nonpayable",
      "type": "function"
    },
    {
      "inputs": [
        {
          "internalType": "uint256",
          "name": "tokenId",
          "type": "uint256"
        },
        {
          "internalType": "uint256",
          "name": "ubiAmount",
          "type": "uint256"
        }
      ],
      "name": "support",
      "outputs": [],
      "stateMutability": "nonpayable",
      "type": "function"
    },
    {
      "inputs": [
        {
          "internalType": "bytes4",
          "name": "interfaceId",
          "type": "bytes4"
        }
      ],
      "name": "supportsInterface",
      "outputs": [
        {
          "internalType": "bool",
          "name": "",
          "type": "bool"
        }
      ],
      "stateMutability": "view",
      "type": "function"
    },
    {
      "inputs": [],
      "name": "symbol",
      "outputs": [
        {
          "internalType": "string",
          "name": "",
          "type": "string"
        }
      ],
      "stateMutability": "view",
      "type": "function"
    },
    {
      "inputs": [
        {
          "internalType": "uint256",
          "name": "tokenId",
          "type": "uint256"
        }
      ],
      "name": "tokenURI",
      "outputs": [
        {
          "internalType": "string",
          "name": "",
          "type": "string"
        }
      ],
      "stateMutability": "view",
      "type": "function"
    },
    {
      "inputs": [
        {
          "internalType": "address",
          "name": "from",
          "type": "address"
        },
        {
          "internalType": "address",
          "name": "to",
          "type": "address"
        },
        {
          "internalType": "uint256",
          "name": "tokenId",
          "type": "uint256"
        }
      ],
      "name": "transferFrom",
      "outputs": [],
      "stateMutability": "nonpayable",
      "type": "function"
    },
    {
      "inputs": [
        {
          "internalType": "address",
          "name": "newOwner",
          "type": "address"
        }
      ],
      "name": "transferOwnership",
      "outputs": [],
      "stateMutability": "nonpayable",
      "type": "function"
    }
  ],
  "bytecode": "0x608060405234801561001057600080fd5b50612acf806100206000396000f3fe608060405234801561001057600080fd5b506004361061020b5760003560e01c80636e02007d1161012a578063b88d4fde116100bd578063cfe1c8a21161008c578063e18709f011610071578063e18709f014610450578063e985e9c514610463578063f2fde38b1461049f5761020b565b8063cfe1c8a21461028d578063d13f90b41461043d5761020b565b8063b88d4fde146103f1578063c51a2bba14610404578063c571946314610417578063c87b56dd1461042a5761020b565b80639588cdb3116100f95780639588cdb3146103b057806395d89b41146103c35780639be56c67146103cb578063a22cb465146103de5761020b565b80636e02007d1461037c57806370a0823114610384578063715018a6146103975780638da5cb5b1461039f5761020b565b80633a759157116101a25780635cfd70bf116101715780635cfd70bf1461033b5780636352211e1461034e57806367b7793d1461036157806368bed9e3146103695761020b565b80633a759157146102d657806340731c24146102e757806342842e0e1461031557806355f804b3146103285761020b565b8063097377ec116101de578063097377ec1461028d5780631a8d8d181461029f57806323b872dd146102b2578063365b96e4146102c55761020b565b806301ffc9a71461021057806306fdde0314610238578063081812fc1461024d578063095ea7b314610278575b600080fd5b61022361021e3660046127ff565b6104b2565b60405190151581526020015b60405180910390f35b610240610551565b60405161022f919061294d565b61026061025b36600461287d565b6105e3565b6040516001600160a01b03909116815260200161022f565b61028b6102863660046127ba565b61067d565b005b60d0545b60405190815260200161022f565b61028b6102ad36600461287d565b6107af565b61028b6102c0366004612684565b61080e565b60cb546001600160a01b0316610260565b60cc546001600160a01b0316610260565b6102fa6102f536600461287d565b610895565b6040805182518152602092830151928101929092520161022f565b61028b610323366004612684565b61095e565b61028b610336366004612837565b610979565b610291610349366004612895565b6109ea565b61026061035c36600461287d565b610a17565b60cf54610291565b61028b610377366004612638565b610aa2565b60ce54610291565b610291610392366004612638565b610b1e565b61028b610bb8565b6033546001600160a01b0316610260565b61028b6103be36600461287d565b610c5c565b610240610cbb565b61028b6103d9366004612895565b610cca565b61028b6103ec366004612784565b610f7a565b61028b6103ff3660046126bf565b61104c565b61028b61041236600461287d565b6110da565b610291610425366004612837565b611139565b61024061043836600461287d565b611308565b61028b61044b366004612738565b6113e3565b61028b61045e366004612638565b611563565b610223610471366004612652565b6001600160a01b039182166000908152609c6020908152604080832093909416825291909152205460ff1690565b61028b6104ad366004612638565b6115df565b60006001600160e01b031982167f80ac58cd00000000000000000000000000000000000000000000000000000000148061051557506001600160e01b031982167f5b5e139f00000000000000000000000000000000000000000000000000000000145b8061054957507f01ffc9a7000000000000000000000000000000000000000000000000000000006001600160e01b03198316145b90505b919050565b606060978054610560906129cf565b80601f016020809104026020016040519081016040528092919081815260200182805461058c906129cf565b80156105d95780601f106105ae576101008083540402835291602001916105d9565b820191906000526020600020905b8154815290600101906020018083116105bc57829003601f168201915b5050505050905090565b6000818152609960205260408120546001600160a01b03166106615760405162461bcd60e51b815260206004820152602c60248201527f4552433732313a20617070726f76656420717565727920666f72206e6f6e657860448201526b34b9ba32b73a103a37b5b2b760a11b60648201526084015b60405180910390fd5b506000908152609b60205260409020546001600160a01b031690565b600061068882610a17565b9050806001600160a01b0316836001600160a01b031614156107125760405162461bcd60e51b815260206004820152602160248201527f4552433732313a20617070726f76616c20746f2063757272656e74206f776e6560448201527f72000000000000000000000000000000000000000000000000000000000000006064820152608401610658565b336001600160a01b038216148061072e575061072e8133610471565b6107a05760405162461bcd60e51b815260206004820152603860248201527f4552433732313a20617070726f76652063616c6c6572206973206e6f74206f7760448201527f6e6572206e6f7220617070726f76656420666f7220616c6c00000000000000006064820152608401610658565b6107aa8383611711565b505050565b6033546001600160a01b031633146108095760405162461bcd60e51b815260206004820181905260248201527f4f776e61626c653a2063616c6c6572206973206e6f7420746865206f776e65726044820152606401610658565b60cf55565b610818338261177f565b61088a5760405162461bcd60e51b815260206004820152603160248201527f4552433732313a207472616e736665722063616c6c6572206973206e6f74206f60448201527f776e6572206e6f7220617070726f7665640000000000000000000000000000006064820152608401610658565b6107aa838383611876565b6040805180820190915260008082526020820152816108cb816000908152609960205260409020546001600160a01b0316151590565b61092f5760405162461bcd60e51b815260206004820152602f60248201527f4552433732314d657461646174613a2055524920717565727920666f72206e6f60448201526e3732bc34b9ba32b73a103a37b5b2b760891b6064820152608401610658565b600083815260c96020908152604091829020825180840190935280548352600101549082015291505b50919050565b6107aa8383836040518060200160405280600081525061104c565b6033546001600160a01b031633146109d35760405162461bcd60e51b815260206004820181905260248201527f4f776e61626c653a2063616c6c6572206973206e6f7420746865206f776e65726044820152606401610658565b80516109e69060d2906020840190612512565b5050565b60008115610a1157610a0482670de0b6b3a7640000612978565b610a0e9084612978565b90505b92915050565b6000818152609960205260408120546001600160a01b0316806105495760405162461bcd60e51b815260206004820152602960248201527f4552433732313a206f776e657220717565727920666f72206e6f6e657869737460448201527f656e7420746f6b656e00000000000000000000000000000000000000000000006064820152608401610658565b6033546001600160a01b03163314610afc5760405162461bcd60e51b815260206004820181905260248201527f4f776e61626c653a2063616c6c6572206973206e6f7420746865206f776e65726044820152606401610658565b60cb80546001600160a01b0319166001600160a01b0392909216919091179055565b60006001600160a01b038216610b9c5760405162461bcd60e51b815260206004820152602a60248201527f4552433732313a2062616c616e636520717565727920666f7220746865207a6560448201527f726f2061646472657373000000000000000000000000000000000000000000006064820152608401610658565b506001600160a01b03166000908152609a602052604090205490565b6033546001600160a01b03163314610c125760405162461bcd60e51b815260206004820181905260248201527f4f776e61626c653a2063616c6c6572206973206e6f7420746865206f776e65726044820152606401610658565b6033546040516000916001600160a01b0316907f8be0079c531659141344cd1fd0a4f28419497f9722a3daafe3b4186f6b6457e0908390a3603380546001600160a01b0319169055565b6033546001600160a01b03163314610cb65760405162461bcd60e51b815260206004820181905260248201527f4f776e61626c653a2063616c6c6572206973206e6f7420746865206f776e65726044820152606401610658565b60d155565b606060988054610560906129cf565b60008281526099602052604090205482906001600160a01b0316610d485760405162461bcd60e51b815260206004820152602f60248201527f4552433732314d657461646174613a2055524920717565727920666f72206e6f60448201526e3732bc34b9ba32b73a103a37b5b2b760891b6064820152608401610658565b610d5183610a17565b6001600160a01b0316336001600160a01b031614156040518060400160405280601981526020017f43414e545f535550504f52545f53454c465f434f4e54454e540000000000000081525090610dba5760405162461bcd60e51b8152600401610658919061294d565b506000806000610dc985611a43565b919450925090508215610e495760cc546001600160a01b03166379cc6790336040516001600160e01b031960e084901b1681526001600160a01b03909116600482015260248101869052604401600060405180830381600087803b158015610e3057600080fd5b505af1158015610e44573d6000803e3d6000fd5b505050505b8115610ebd5760405162461bcd60e51b815260206004820152603460248201527f506f737461205472656173757279206e6f7420696d706c656d656e7465642e2060448201527f53657420747265617375727950637420746f20300000000000000000000000006064820152608401610658565b8015610f675760cc546001600160a01b03166323b872dd33610ede89610a17565b6040516001600160e01b031960e085901b1681526001600160a01b0392831660048201529116602482015260448101849052606401602060405180830381600087803b158015610f2d57600080fd5b505af1158015610f41573d6000803e3d6000fd5b505050506040513d601f19601f82011682018060405250810190610f6591906127e3565b505b610f72868633611a81565b505050505050565b6001600160a01b038216331415610fd35760405162461bcd60e51b815260206004820152601960248201527f4552433732313a20617070726f766520746f2063616c6c6572000000000000006044820152606401610658565b336000818152609c602090815260408083206001600160a01b0387168085529252909120805460ff1916841515179055906001600160a01b03167f17307eab39ab6107e8899845ad3d59bd9653f200f220920489ca2b5937696c3183604051611040911515815260200190565b60405180910390a35050565b611056338361177f565b6110c85760405162461bcd60e51b815260206004820152603160248201527f4552433732313a207472616e736665722063616c6c6572206973206e6f74206f60448201527f776e6572206e6f7220617070726f7665640000000000000000000000000000006064820152608401610658565b6110d484848484611b25565b50505050565b6033546001600160a01b031633146111345760405162461bcd60e51b815260206004820181905260248201527f4f776e61626c653a2063616c6c6572206973206e6f7420746865206f776e65726044820152606401610658565b60d055565b60003360cb546040517fc3c5a5470000000000000000000000000000000000000000000000000000000081526001600160a01b0383811660048301529091169063c3c5a5479060240160206040518083038186803b15801561119a57600080fd5b505afa1580156111ae573d6000803e3d6000fd5b505050506040513d601f19601f820116820180604052508101906111d291906127e3565b6040518060400160405280601481526020017f48554d414e5f4e4f545f52454749535445524544000000000000000000000000815250906112265760405162461bcd60e51b8152600401610658919061294d565b5060cf54835111156040518060400160405280601281526020017f504f53545f544558545f544f4f5f4c4f4e470000000000000000000000000000815250906112825760405162461bcd60e51b8152600401610658919061294d565b5060ce54611291906001612960565b60ce8190556112a03382611ba3565b60408051808201909152600080825260208201526112be8282611bbd565b81336001600160a01b03167fd8c86c7877c3f1f8a40af6cf64a11fe867af887f2a1ad31aac849e36730425b0876040516112f8919061294d565b60405180910390a3509392505050565b6000818152609960205260409020546060906001600160a01b03166113875760405162461bcd60e51b815260206004820152602f60248201527f4552433732314d657461646174613a2055524920717565727920666f72206e6f60448201526e3732bc34b9ba32b73a103a37b5b2b760891b6064820152608401610658565b6000611391611c5c565b905060008151116113b157604051806020016040528060008152506113dc565b806113bb84611c6b565b6040516020016113cc9291906128e2565b6040516020818303038152906040525b9392505050565b600054610100900460ff16806113fc575060005460ff16155b61145f5760405162461bcd60e51b815260206004820152602e60248201527f496e697469616c697a61626c653a20636f6e747261637420697320616c72656160448201526d191e481a5b9a5d1a585b1a5e995960921b6064820152608401610658565b600054610100900460ff1615801561148a576000805460ff1961ff0019909116610100171660011790555b6114fe6040518060400160405280600581526020017f506f7374610000000000000000000000000000000000000000000000000000008152506040518060400160405280600581526020017f504f535441000000000000000000000000000000000000000000000000000000815250611dba565b611506611e91565b600060ce5560cb80546001600160a01b038089166001600160a01b03199283161790925560cc80549288169290911691909117905560cf84905560d083905560d18290558015610f72576000805461ff0019169055505050505050565b6033546001600160a01b031633146115bd5760405162461bcd60e51b815260206004820181905260248201527f4f776e61626c653a2063616c6c6572206973206e6f7420746865206f776e65726044820152606401610658565b60cc80546001600160a01b0319166001600160a01b0392909216919091179055565b6033546001600160a01b031633146116395760405162461bcd60e51b815260206004820181905260248201527f4f776e61626c653a2063616c6c6572206973206e6f7420746865206f776e65726044820152606401610658565b6001600160a01b0381166116b55760405162461bcd60e51b815260206004820152602660248201527f4f776e61626c653a206e6577206f776e657220697320746865207a65726f206160448201527f64647265737300000000000000000000000000000000000000000000000000006064820152608401610658565b6033546040516001600160a01b038084169216907f8be0079c531659141344cd1fd0a4f28419497f9722a3daafe3b4186f6b6457e090600090a3603380546001600160a01b0319166001600160a01b0392909216919091179055565b6000818152609b6020526040902080546001600160a01b0319166001600160a01b038416908117909155819061174682610a17565b6001600160a01b03167f8c5be1e5ebec7d5bd14f71427d1e84f3dd0314c0f7b2291e5b200ac8c7c3b92560405160405180910390a45050565b6000818152609960205260408120546001600160a01b03166117f85760405162461bcd60e51b815260206004820152602c60248201527f4552433732313a206f70657261746f7220717565727920666f72206e6f6e657860448201526b34b9ba32b73a103a37b5b2b760a11b6064820152608401610658565b600061180383610a17565b9050806001600160a01b0316846001600160a01b0316148061183e5750836001600160a01b0316611833846105e3565b6001600160a01b0316145b8061186e57506001600160a01b038082166000908152609c602090815260408083209388168352929052205460ff165b949350505050565b826001600160a01b031661188982610a17565b6001600160a01b0316146119055760405162461bcd60e51b815260206004820152602960248201527f4552433732313a207472616e73666572206f6620746f6b656e2074686174206960448201527f73206e6f74206f776e00000000000000000000000000000000000000000000006064820152608401610658565b6001600160a01b0382166119805760405162461bcd60e51b8152602060048201526024808201527f4552433732313a207472616e7366657220746f20746865207a65726f2061646460448201527f72657373000000000000000000000000000000000000000000000000000000006064820152608401610658565b61198b600082611711565b6001600160a01b0383166000908152609a602052604081208054600192906119b490849061298c565b90915550506001600160a01b0382166000908152609a602052604081208054600192906119e2908490612960565b909155505060008181526099602052604080822080546001600160a01b0319166001600160a01b0386811691821790925591518493918716917fddf252ad1be2c89b69c2b068fc378daa952ba7f163c4a11628f55a4df523b3ef91a4505050565b6000806000611a548460d0546109ea565b9250611a628460d1546109ea565b915081611a6f848661298c565b611a79919061298c565b929491935050565b600083815260c9602052604081208054849290611a9f908490612960565b9091555050600083815260ca602090815260408083206001600160a01b038516845290915290205460ff166107aa57600083815260ca602090815260408083206001600160a01b03851684528252808320805460ff1916600190811790915586845260c990925282208101805491929091611b1b908490612960565b9091555050505050565b611b30848484611876565b611b3c84848484611f5d565b6110d45760405162461bcd60e51b815260206004820152603260248201527f4552433732313a207472616e7366657220746f206e6f6e20455243373231526560448201527131b2b4bb32b91034b6b83632b6b2b73a32b960711b6064820152608401610658565b6109e68282604051806020016040528060008152506120b5565b60008281526099602052604090205482906001600160a01b0316611c3b5760405162461bcd60e51b815260206004820152602f60248201527f4552433732314d657461646174613a2055524920717565727920666f72206e6f60448201526e3732bc34b9ba32b73a103a37b5b2b760891b6064820152608401610658565b50600091825260c96020908152604090922081518155910151600190910155565b606060d28054610560906129cf565b606081611cac575060408051808201909152600181527f3000000000000000000000000000000000000000000000000000000000000000602082015261054c565b8160005b8115611cd65780611cc081612a04565b9150611ccf9050600a83612978565b9150611cb0565b60008167ffffffffffffffff811115611cff57634e487b7160e01b600052604160045260246000fd5b6040519080825280601f01601f191660200182016040528015611d29576020820181803683370190505b5090505b841561186e57611d3e60018361298c565b9150611d4b600a86612a1f565b611d56906030612960565b60f81b818381518110611d7957634e487b7160e01b600052603260045260246000fd5b60200101907effffffffffffffffffffffffffffffffffffffffffffffffffffffffffffff1916908160001a905350611db3600a86612978565b9450611d2d565b600054610100900460ff1680611dd3575060005460ff16155b611e365760405162461bcd60e51b815260206004820152602e60248201527f496e697469616c697a61626c653a20636f6e747261637420697320616c72656160448201526d191e481a5b9a5d1a585b1a5e995960921b6064820152608401610658565b600054610100900460ff16158015611e61576000805460ff1961ff0019909116610100171660011790555b611e69612133565b611e71612133565b611e7b83836121ed565b80156107aa576000805461ff0019169055505050565b600054610100900460ff1680611eaa575060005460ff16155b611f0d5760405162461bcd60e51b815260206004820152602e60248201527f496e697469616c697a61626c653a20636f6e747261637420697320616c72656160448201526d191e481a5b9a5d1a585b1a5e995960921b6064820152608401610658565b600054610100900460ff16158015611f38576000805460ff1961ff0019909116610100171660011790555b611f40612133565b611f486122d2565b8015611f5a576000805461ff00191690555b50565b60006001600160a01b0384163b156120aa57604051630a85bd0160e11b81526001600160a01b0385169063150b7a0290611fa1903390899088908890600401612911565b602060405180830381600087803b158015611fbb57600080fd5b505af1925050508015611feb575060408051601f3d908101601f19168201909252611fe89181019061281b565b60015b612090573d808015612019576040519150601f19603f3d011682016040523d82523d6000602084013e61201e565b606091505b5080516120885760405162461bcd60e51b815260206004820152603260248201527f4552433732313a207472616e7366657220746f206e6f6e20455243373231526560448201527131b2b4bb32b91034b6b83632b6b2b73a32b960711b6064820152608401610658565b805181602001fd5b6001600160e01b031916630a85bd0160e11b14905061186e565b506001949350505050565b6120bf83836123d0565b6120cc6000848484611f5d565b6107aa5760405162461bcd60e51b815260206004820152603260248201527f4552433732313a207472616e7366657220746f206e6f6e20455243373231526560448201527131b2b4bb32b91034b6b83632b6b2b73a32b960711b6064820152608401610658565b600054610100900460ff168061214c575060005460ff16155b6121af5760405162461bcd60e51b815260206004820152602e60248201527f496e697469616c697a61626c653a20636f6e747261637420697320616c72656160448201526d191e481a5b9a5d1a585b1a5e995960921b6064820152608401610658565b600054610100900460ff16158015611f48576000805460ff1961ff0019909116610100171660011790558015611f5a576000805461ff001916905550565b600054610100900460ff1680612206575060005460ff16155b6122695760405162461bcd60e51b815260206004820152602e60248201527f496e697469616c697a61626c653a20636f6e747261637420697320616c72656160448201526d191e481a5b9a5d1a585b1a5e995960921b6064820152608401610658565b600054610100900460ff16158015612294576000805460ff1961ff0019909116610100171660011790555b82516122a7906097906020860190612512565b5081516122bb906098906020850190612512565b5080156107aa576000805461ff0019169055505050565b600054610100900460ff16806122eb575060005460ff16155b61234e5760405162461bcd60e51b815260206004820152602e60248201527f496e697469616c697a61626c653a20636f6e747261637420697320616c72656160448201526d191e481a5b9a5d1a585b1a5e995960921b6064820152608401610658565b600054610100900460ff16158015612379576000805460ff1961ff0019909116610100171660011790555b603380546001600160a01b0319163390811790915560405181906000907f8be0079c531659141344cd1fd0a4f28419497f9722a3daafe3b4186f6b6457e0908290a3508015611f5a576000805461ff001916905550565b6001600160a01b0382166124265760405162461bcd60e51b815260206004820181905260248201527f4552433732313a206d696e7420746f20746865207a65726f20616464726573736044820152606401610658565b6000818152609960205260409020546001600160a01b03161561248b5760405162461bcd60e51b815260206004820152601c60248201527f4552433732313a20746f6b656e20616c7265616479206d696e746564000000006044820152606401610658565b6001600160a01b0382166000908152609a602052604081208054600192906124b4908490612960565b909155505060008181526099602052604080822080546001600160a01b0319166001600160a01b03861690811790915590518392907fddf252ad1be2c89b69c2b068fc378daa952ba7f163c4a11628f55a4df523b3ef908290a45050565b82805461251e906129cf565b90600052602060002090601f0160209004810192826125405760008555612586565b82601f1061255957805160ff1916838001178555612586565b82800160010185558215612586579182015b8281111561258657825182559160200191906001019061256b565b50612592929150612596565b5090565b5b808211156125925760008155600101612597565b600067ffffffffffffffff808411156125c6576125c6612a5f565b604051601f8501601f19908116603f011681019082821181831017156125ee576125ee612a5f565b8160405280935085815286868601111561260757600080fd5b858560208301376000602087830101525050509392505050565b80356001600160a01b038116811461054c57600080fd5b600060208284031215612649578081fd5b610a0e82612621565b60008060408385031215612664578081fd5b61266d83612621565b915061267b60208401612621565b90509250929050565b600080600060608486031215612698578081fd5b6126a184612621565b92506126af60208501612621565b9150604084013590509250925092565b600080600080608085870312156126d4578081fd5b6126dd85612621565b93506126eb60208601612621565b925060408501359150606085013567ffffffffffffffff81111561270d578182fd5b8501601f8101871361271d578182fd5b61272c878235602084016125ab565b91505092959194509250565b600080600080600060a0868803121561274f578081fd5b61275886612621565b945061276660208701612621565b94979496505050506040830135926060810135926080909101359150565b60008060408385031215612796578182fd5b61279f83612621565b915060208301356127af81612a75565b809150509250929050565b600080604083850312156127cc578182fd5b6127d583612621565b946020939093013593505050565b6000602082840312156127f4578081fd5b81516113dc81612a75565b600060208284031215612810578081fd5b81356113dc81612a83565b60006020828403121561282c578081fd5b81516113dc81612a83565b600060208284031215612848578081fd5b813567ffffffffffffffff81111561285e578182fd5b8201601f8101841361286e578182fd5b61186e848235602084016125ab565b60006020828403121561288e578081fd5b5035919050565b600080604083850312156128a7578182fd5b50508035926020909101359150565b600081518084526128ce8160208601602086016129a3565b601f01601f19169290920160200192915050565b600083516128f48184602088016129a3565b8351908301906129088183602088016129a3565b01949350505050565b60006001600160a01b0380871683528086166020840152508360408301526080606083015261294360808301846128b6565b9695505050505050565b600060208252610a0e60208301846128b6565b6000821982111561297357612973612a33565b500190565b60008261298757612987612a49565b500490565b60008282101561299e5761299e612a33565b500390565b60005b838110156129be5781810151838201526020016129a6565b838111156110d45750506000910152565b6002810460018216806129e357607f821691505b6020821081141561095857634e487b7160e01b600052602260045260246000fd5b6000600019821415612a1857612a18612a33565b5060010190565b600082612a2e57612a2e612a49565b500690565b634e487b7160e01b600052601160045260246000fd5b634e487b7160e01b600052601260045260246000fd5b634e487b7160e01b600052604160045260246000fd5b8015158114611f5a57600080fd5b6001600160e01b031981168114611f5a57600080fdfea26469706673582212201d76af8fb708b13582f7c5e70fe92e6e018781450615adb80ba6235a40f2166c64736f6c63430008020033",
  "linkReferences": {},
  "deployedLinkReferences": {}
}