{
  "_format": "hh-sol-artifact-1",
  "contractName": "PostaV0_3",
  "sourceName": "contracts/v0.3/PostaV0_3.sol",
  "abi": [
    {
      "anonymous": false,
      "inputs": [
        {
          "indexed": true,
          "internalType": "address",
          "name": "owner",
          "type": "address"
        },
        {
          "indexed": true,
          "internalType": "address",
          "name": "approved",
          "type": "address"
        },
        {
          "indexed": true,
          "internalType": "uint256",
          "name": "tokenId",
          "type": "uint256"
        }
      ],
      "name": "Approval",
      "type": "event"
    },
    {
      "anonymous": false,
      "inputs": [
        {
          "indexed": true,
          "internalType": "address",
          "name": "owner",
          "type": "address"
        },
        {
          "indexed": true,
          "internalType": "address",
          "name": "operator",
          "type": "address"
        },
        {
          "indexed": false,
          "internalType": "bool",
          "name": "approved",
          "type": "bool"
        }
      ],
      "name": "ApprovalForAll",
      "type": "event"
    },
    {
      "anonymous": false,
      "inputs": [
        {
          "indexed": true,
          "internalType": "address",
          "name": "author",
          "type": "address"
        },
        {
          "indexed": true,
          "internalType": "uint256",
          "name": "tokenId",
          "type": "uint256"
        },
        {
          "indexed": false,
          "internalType": "string",
          "name": "value",
          "type": "string"
        }
      ],
      "name": "NewPost",
      "type": "event"
    },
    {
      "anonymous": false,
      "inputs": [
        {
          "indexed": true,
          "internalType": "uint256",
          "name": "tokenId",
          "type": "uint256"
        },
        {
          "indexed": true,
          "internalType": "uint256",
          "name": "replyOfTokenId",
          "type": "uint256"
        }
      ],
      "name": "NewPostReply",
      "type": "event"
    },
    {
      "anonymous": false,
      "inputs": [
        {
          "indexed": true,
          "internalType": "address",
          "name": "previousOwner",
          "type": "address"
        },
        {
          "indexed": true,
          "internalType": "address",
          "name": "newOwner",
          "type": "address"
        }
      ],
      "name": "OwnershipTransferred",
      "type": "event"
    },
    {
      "anonymous": false,
      "inputs": [
        {
          "indexed": true,
          "internalType": "address",
          "name": "from",
          "type": "address"
        },
        {
          "indexed": true,
          "internalType": "address",
          "name": "to",
          "type": "address"
        },
        {
          "indexed": true,
          "internalType": "uint256",
          "name": "tokenId",
          "type": "uint256"
        }
      ],
      "name": "Transfer",
      "type": "event"
    },
    {
      "inputs": [
        {
          "internalType": "uint256",
          "name": "totalAmount",
          "type": "uint256"
        },
        {
          "internalType": "uint256",
          "name": "percentage",
          "type": "uint256"
        }
      ],
      "name": "_getAmountFromPct",
      "outputs": [
        {
          "internalType": "uint256",
          "name": "calculatedValue",
          "type": "uint256"
        }
      ],
      "stateMutability": "pure",
      "type": "function"
    },
    {
      "inputs": [
        {
          "internalType": "address",
          "name": "to",
          "type": "address"
        },
        {
          "internalType": "uint256",
          "name": "tokenId",
          "type": "uint256"
        }
      ],
      "name": "approve",
      "outputs": [],
      "stateMutability": "nonpayable",
      "type": "function"
    },
    {
      "inputs": [
        {
          "internalType": "address",
          "name": "owner",
          "type": "address"
        }
      ],
      "name": "balanceOf",
      "outputs": [
        {
          "internalType": "uint256",
          "name": "",
          "type": "uint256"
        }
      ],
      "stateMutability": "view",
      "type": "function"
    },
    {
      "inputs": [
        {
          "internalType": "uint256",
          "name": "tokenId",
          "type": "uint256"
        }
      ],
      "name": "getApproved",
      "outputs": [
        {
          "internalType": "address",
          "name": "",
          "type": "address"
        }
      ],
      "stateMutability": "view",
      "type": "function"
    },
    {
      "inputs": [],
      "name": "getBurnPct",
      "outputs": [
        {
          "internalType": "uint256",
          "name": "",
          "type": "uint256"
        }
      ],
      "stateMutability": "view",
      "type": "function"
    },
    {
      "inputs": [],
      "name": "getMaxChars",
      "outputs": [
        {
          "internalType": "uint256",
          "name": "",
          "type": "uint256"
        }
      ],
      "stateMutability": "view",
      "type": "function"
    },
    {
      "inputs": [],
      "name": "getPOH",
      "outputs": [
        {
          "internalType": "address",
          "name": "",
          "type": "address"
        }
      ],
      "stateMutability": "view",
      "type": "function"
    },
    {
      "inputs": [
        {
          "internalType": "uint256",
          "name": "tokenId",
          "type": "uint256"
        }
      ],
      "name": "getPost",
      "outputs": [
        {
          "components": [
            {
              "internalType": "uint256",
              "name": "supportGiven",
              "type": "uint256"
            },
            {
              "internalType": "uint256",
              "name": "supportersCount",
              "type": "uint256"
            }
          ],
          "internalType": "struct PostaData",
          "name": "",
          "type": "tuple"
        }
      ],
      "stateMutability": "view",
      "type": "function"
    },
    {
      "inputs": [],
      "name": "getTokenCounter",
      "outputs": [
        {
          "internalType": "uint256",
          "name": "",
          "type": "uint256"
        }
      ],
      "stateMutability": "view",
      "type": "function"
    },
    {
      "inputs": [],
      "name": "getTreasuryPct",
      "outputs": [
        {
          "internalType": "uint256",
          "name": "",
          "type": "uint256"
        }
      ],
      "stateMutability": "view",
      "type": "function"
    },
    {
      "inputs": [],
      "name": "getUBI",
      "outputs": [
        {
          "internalType": "address",
          "name": "",
          "type": "address"
        }
      ],
      "stateMutability": "view",
      "type": "function"
    },
    {
      "inputs": [
        {
          "internalType": "address",
          "name": "owner",
          "type": "address"
        },
        {
          "internalType": "address",
          "name": "operator",
          "type": "address"
        }
      ],
      "name": "isApprovedForAll",
      "outputs": [
        {
          "internalType": "bool",
          "name": "",
          "type": "bool"
        }
      ],
      "stateMutability": "view",
      "type": "function"
    },
    {
      "inputs": [],
      "name": "name",
      "outputs": [
        {
          "internalType": "string",
          "name": "",
          "type": "string"
        }
      ],
      "stateMutability": "view",
      "type": "function"
    },
    {
      "inputs": [],
      "name": "owner",
      "outputs": [
        {
          "internalType": "address",
          "name": "",
          "type": "address"
        }
      ],
      "stateMutability": "view",
      "type": "function"
    },
    {
      "inputs": [
        {
          "internalType": "uint256",
          "name": "tokenId",
          "type": "uint256"
        }
      ],
      "name": "ownerOf",
      "outputs": [
        {
          "internalType": "address",
          "name": "",
          "type": "address"
        }
      ],
      "stateMutability": "view",
      "type": "function"
    },
    {
      "inputs": [
        {
          "internalType": "string",
          "name": "text",
          "type": "string"
        }
      ],
      "name": "publishPost",
      "outputs": [
        {
          "internalType": "uint256",
          "name": "",
          "type": "uint256"
        }
      ],
      "stateMutability": "nonpayable",
      "type": "function"
    },
    {
      "inputs": [],
      "name": "renounceOwnership",
      "outputs": [],
      "stateMutability": "nonpayable",
      "type": "function"
    },
    {
      "inputs": [
        {
          "internalType": "string",
          "name": "text",
          "type": "string"
        },
        {
          "internalType": "uint256",
          "name": "tokenId",
          "type": "uint256"
        }
      ],
      "name": "replyPost",
      "outputs": [
        {
          "internalType": "uint256",
          "name": "",
          "type": "uint256"
        }
      ],
      "stateMutability": "nonpayable",
      "type": "function"
    },
    {
      "inputs": [
        {
          "internalType": "address",
          "name": "from",
          "type": "address"
        },
        {
          "internalType": "address",
          "name": "to",
          "type": "address"
        },
        {
          "internalType": "uint256",
          "name": "tokenId",
          "type": "uint256"
        }
      ],
      "name": "safeTransferFrom",
      "outputs": [],
      "stateMutability": "nonpayable",
      "type": "function"
    },
    {
      "inputs": [
        {
          "internalType": "address",
          "name": "from",
          "type": "address"
        },
        {
          "internalType": "address",
          "name": "to",
          "type": "address"
        },
        {
          "internalType": "uint256",
          "name": "tokenId",
          "type": "uint256"
        },
        {
          "internalType": "bytes",
          "name": "_data",
          "type": "bytes"
        }
      ],
      "name": "safeTransferFrom",
      "outputs": [],
      "stateMutability": "nonpayable",
      "type": "function"
    },
    {
      "inputs": [
        {
          "internalType": "address",
          "name": "operator",
          "type": "address"
        },
        {
          "internalType": "bool",
          "name": "approved",
          "type": "bool"
        }
      ],
      "name": "setApprovalForAll",
      "outputs": [],
      "stateMutability": "nonpayable",
      "type": "function"
    },
    {
      "inputs": [
        {
          "internalType": "string",
          "name": "baseURI_",
          "type": "string"
        }
      ],
      "name": "setBaseURI",
      "outputs": [],
      "stateMutability": "nonpayable",
      "type": "function"
    },
    {
      "inputs": [
        {
          "internalType": "uint256",
          "name": "burnPct",
          "type": "uint256"
        }
      ],
      "name": "setBurnPct",
      "outputs": [],
      "stateMutability": "nonpayable",
      "type": "function"
    },
    {
      "inputs": [
        {
          "internalType": "uint256",
          "name": "maxChars",
          "type": "uint256"
        }
      ],
      "name": "setMaxChars",
      "outputs": [],
      "stateMutability": "nonpayable",
      "type": "function"
    },
    {
      "inputs": [
        {
          "internalType": "address",
          "name": "poh",
          "type": "address"
        }
      ],
      "name": "setPOH",
      "outputs": [],
      "stateMutability": "nonpayable",
      "type": "function"
    },
    {
      "inputs": [
        {
          "internalType": "uint256",
          "name": "treasuryPct",
          "type": "uint256"
        }
      ],
      "name": "setTreasuryPct",
      "outputs": [],
      "stateMutability": "nonpayable",
      "type": "function"
    },
    {
      "inputs": [
        {
          "internalType": "address",
          "name": "ubi",
          "type": "address"
        }
      ],
      "name": "setUBI",
      "outputs": [],
      "stateMutability": "nonpayable",
      "type": "function"
    },
    {
      "inputs": [
        {
          "internalType": "uint256",
          "name": "tokenId",
          "type": "uint256"
        },
        {
          "internalType": "uint256",
          "name": "ubiAmount",
          "type": "uint256"
        }
      ],
      "name": "support",
      "outputs": [],
      "stateMutability": "nonpayable",
      "type": "function"
    },
    {
      "inputs": [
        {
          "internalType": "bytes4",
          "name": "interfaceId",
          "type": "bytes4"
        }
      ],
      "name": "supportsInterface",
      "outputs": [
        {
          "internalType": "bool",
          "name": "",
          "type": "bool"
        }
      ],
      "stateMutability": "view",
      "type": "function"
    },
    {
      "inputs": [],
      "name": "symbol",
      "outputs": [
        {
          "internalType": "string",
          "name": "",
          "type": "string"
        }
      ],
      "stateMutability": "view",
      "type": "function"
    },
    {
      "inputs": [
        {
          "internalType": "uint256",
          "name": "tokenId",
          "type": "uint256"
        }
      ],
      "name": "tokenURI",
      "outputs": [
        {
          "internalType": "string",
          "name": "",
          "type": "string"
        }
      ],
      "stateMutability": "view",
      "type": "function"
    },
    {
      "inputs": [
        {
          "internalType": "address",
          "name": "from",
          "type": "address"
        },
        {
          "internalType": "address",
          "name": "to",
          "type": "address"
        },
        {
          "internalType": "uint256",
          "name": "tokenId",
          "type": "uint256"
        }
      ],
      "name": "transferFrom",
      "outputs": [],
      "stateMutability": "nonpayable",
      "type": "function"
    },
    {
      "inputs": [
        {
          "internalType": "address",
          "name": "newOwner",
          "type": "address"
        }
      ],
      "name": "transferOwnership",
      "outputs": [],
      "stateMutability": "nonpayable",
      "type": "function"
    }
  ],
  "bytecode": "0x608060405234801561001057600080fd5b50612892806100206000396000f3fe608060405234801561001057600080fd5b506004361061020b5760003560e01c80636c71f9da1161012a578063a22cb465116100bd578063c87b56dd1161008c578063e18709f011610071578063e18709f014610450578063e985e9c514610463578063f2fde38b1461049f5761020b565b8063c87b56dd1461043d578063cfe1c8a21461028d5761020b565b8063a22cb465146103f1578063b88d4fde14610404578063c51a2bba14610417578063c57194631461042a5761020b565b80638da5cb5b116100f95780638da5cb5b146103b25780639588cdb3146103c357806395d89b41146103d65780639be56c67146103de5761020b565b80636c71f9da1461037c5780636e02007d1461038f57806370a0823114610397578063715018a6146103aa5761020b565b80633a759157116101a25780635cfd70bf116101715780635cfd70bf1461033b5780636352211e1461034e57806367b7793d1461036157806368bed9e3146103695761020b565b80633a759157146102d657806340731c24146102e757806342842e0e1461031557806355f804b3146103285761020b565b8063097377ec116101de578063097377ec1461028d5780631a8d8d181461029f57806323b872dd146102b2578063365b96e4146102c55761020b565b806301ffc9a71461021057806306fdde0314610238578063081812fc1461024d578063095ea7b314610278575b600080fd5b61022361021e36600461258f565b6104b2565b60405190151581526020015b60405180910390f35b610240610551565b60405161022f919061270d565b61026061025b36600461263d565b6105e3565b6040516001600160a01b03909116815260200161022f565b61028b61028636600461254a565b61067d565b005b60d0545b60405190815260200161022f565b61028b6102ad36600461263d565b6107af565b61028b6102c0366004612460565b61080e565b60cb546001600160a01b0316610260565b60cc546001600160a01b0316610260565b6102fa6102f536600461263d565b610895565b6040805182518152602092830151928101929092520161022f565b61028b610323366004612460565b61095e565b61028b6103363660046125c7565b610979565b610291610349366004612655565b6109ea565b61026061035c36600461263d565b610a17565b60cf54610291565b61028b610377366004612414565b610aa2565b61029161038a3660046125fa565b610b1e565b60ce54610291565b6102916103a5366004612414565b610cb5565b61028b610d4f565b6033546001600160a01b0316610260565b61028b6103d136600461263d565b610df3565b610240610ec0565b61028b6103ec366004612655565b610ecf565b61028b6103ff366004612514565b6111b5565b61028b61041236600461249b565b611287565b61028b61042536600461263d565b611315565b6102916104383660046125c7565b6113e2565b61024061044b36600461263d565b6114c7565b61028b61045e366004612414565b6115a2565b61022361047136600461242e565b6001600160a01b039182166000908152609c6020908152604080832093909416825291909152205460ff1690565b61028b6104ad366004612414565b61161e565b60006001600160e01b031982167f80ac58cd00000000000000000000000000000000000000000000000000000000148061051557506001600160e01b031982167f5b5e139f00000000000000000000000000000000000000000000000000000000145b8061054957507f01ffc9a7000000000000000000000000000000000000000000000000000000006001600160e01b03198316145b90505b919050565b6060609780546105609061278f565b80601f016020809104026020016040519081016040528092919081815260200182805461058c9061278f565b80156105d95780601f106105ae576101008083540402835291602001916105d9565b820191906000526020600020905b8154815290600101906020018083116105bc57829003601f168201915b5050505050905090565b6000818152609960205260408120546001600160a01b03166106615760405162461bcd60e51b815260206004820152602c60248201527f4552433732313a20617070726f76656420717565727920666f72206e6f6e657860448201526b34b9ba32b73a103a37b5b2b760a11b60648201526084015b60405180910390fd5b506000908152609b60205260409020546001600160a01b031690565b600061068882610a17565b9050806001600160a01b0316836001600160a01b031614156107125760405162461bcd60e51b815260206004820152602160248201527f4552433732313a20617070726f76616c20746f2063757272656e74206f776e6560448201527f72000000000000000000000000000000000000000000000000000000000000006064820152608401610658565b336001600160a01b038216148061072e575061072e8133610471565b6107a05760405162461bcd60e51b815260206004820152603860248201527f4552433732313a20617070726f76652063616c6c6572206973206e6f74206f7760448201527f6e6572206e6f7220617070726f76656420666f7220616c6c00000000000000006064820152608401610658565b6107aa8383611750565b505050565b6033546001600160a01b031633146108095760405162461bcd60e51b815260206004820181905260248201527f4f776e61626c653a2063616c6c6572206973206e6f7420746865206f776e65726044820152606401610658565b60cf55565b61081833826117be565b61088a5760405162461bcd60e51b815260206004820152603160248201527f4552433732313a207472616e736665722063616c6c6572206973206e6f74206f60448201527f776e6572206e6f7220617070726f7665640000000000000000000000000000006064820152608401610658565b6107aa8383836118b5565b6040805180820190915260008082526020820152816108cb816000908152609960205260409020546001600160a01b0316151590565b61092f5760405162461bcd60e51b815260206004820152602f60248201527f4552433732314d657461646174613a2055524920717565727920666f72206e6f60448201526e3732bc34b9ba32b73a103a37b5b2b760891b6064820152608401610658565b600083815260c96020908152604091829020825180840190935280548352600101549082015291505b50919050565b6107aa83838360405180602001604052806000815250611287565b6033546001600160a01b031633146109d35760405162461bcd60e51b815260206004820181905260248201527f4f776e61626c653a2063616c6c6572206973206e6f7420746865206f776e65726044820152606401610658565b80516109e69060d29060208401906122cf565b5050565b60008115610a1157610a0482670de0b6b3a7640000612738565b610a0e9084612738565b90505b92915050565b6000818152609960205260408120546001600160a01b0316806105495760405162461bcd60e51b815260206004820152602960248201527f4552433732313a206f776e657220717565727920666f72206e6f6e657869737460448201527f656e7420746f6b656e00000000000000000000000000000000000000000000006064820152608401610658565b6033546001600160a01b03163314610afc5760405162461bcd60e51b815260206004820181905260248201527f4f776e61626c653a2063616c6c6572206973206e6f7420746865206f776e65726044820152606401610658565b60cb80546001600160a01b0319166001600160a01b0392909216919091179055565b60003360cb5460405163c3c5a54760e01b81526001600160a01b0383811660048301529091169063c3c5a5479060240160206040518083038186803b158015610b6657600080fd5b505afa158015610b7a573d6000803e3d6000fd5b505050506040513d601f19601f82011682018060405250810190610b9e9190612573565b6040518060400160405280601481526020017f48554d414e5f4e4f545f5245474953544552454400000000000000000000000081525090610bf25760405162461bcd60e51b8152600401610658919061270d565b5060008381526099602052604090205483906001600160a01b0316610c715760405162461bcd60e51b815260206004820152602f60248201527f4552433732314d657461646174613a2055524920717565727920666f72206e6f60448201526e3732bc34b9ba32b73a103a37b5b2b760891b6064820152608401610658565b6000610c7c86611a82565b905084817f2b50d9ccb8650c1d7f446f9ae1358e761b3a0601260793e28bc458d80b81a74f60405160405180910390a395945050505050565b60006001600160a01b038216610d335760405162461bcd60e51b815260206004820152602a60248201527f4552433732313a2062616c616e636520717565727920666f7220746865207a6560448201527f726f2061646472657373000000000000000000000000000000000000000000006064820152608401610658565b506001600160a01b03166000908152609a602052604090205490565b6033546001600160a01b03163314610da95760405162461bcd60e51b815260206004820181905260248201527f4f776e61626c653a2063616c6c6572206973206e6f7420746865206f776e65726044820152606401610658565b6033546040516000916001600160a01b0316907f8be0079c531659141344cd1fd0a4f28419497f9722a3daafe3b4186f6b6457e0908390a3603380546001600160a01b0319169055565b6033546001600160a01b03163314610e4d5760405162461bcd60e51b815260206004820181905260248201527f4f776e61626c653a2063616c6c6572206973206e6f7420746865206f776e65726044820152606401610658565b670de0b6b3a76400008160d054610e649190612720565b11156040518060400160405280601c81526020017f4255524e5f54524541535552595f4d5553545f544f54414c5f4f4e450000000081525090610eba5760405162461bcd60e51b8152600401610658919061270d565b5060d155565b6060609880546105609061278f565b60008281526099602052604090205482906001600160a01b0316610f4d5760405162461bcd60e51b815260206004820152602f60248201527f4552433732314d657461646174613a2055524920717565727920666f72206e6f60448201526e3732bc34b9ba32b73a103a37b5b2b760891b6064820152608401610658565b610f5683610a17565b6001600160a01b0316336001600160a01b031614156040518060400160405280601981526020017f43414e545f535550504f52545f53454c465f434f4e54454e540000000000000081525090610fbf5760405162461bcd60e51b8152600401610658919061270d565b506000806000610fce85611c40565b60cc5492955090935091506001600160a01b03168315611059576001600160a01b0381166379cc6790336040516001600160e01b031960e084901b1681526001600160a01b03909116600482015260248101879052604401600060405180830381600087803b15801561104057600080fd5b505af1158015611054573d6000803e3d6000fd5b505050505b82156110f7576001600160a01b0381166323b872dd336040516001600160e01b031960e084901b1681526001600160a01b03909116600482015230602482015260448101869052606401602060405180830381600087803b1580156110bd57600080fd5b505af11580156110d1573d6000803e3d6000fd5b505050506040513d601f19601f820116820180604052508101906110f59190612573565b505b81156111a15760cc546001600160a01b03166323b872dd336111188a610a17565b6040516001600160e01b031960e085901b1681526001600160a01b0392831660048201529116602482015260448101859052606401602060405180830381600087803b15801561116757600080fd5b505af115801561117b573d6000803e3d6000fd5b505050506040513d601f19601f8201168201806040525081019061119f9190612573565b505b6111ac878733611c7e565b50505050505050565b6001600160a01b03821633141561120e5760405162461bcd60e51b815260206004820152601960248201527f4552433732313a20617070726f766520746f2063616c6c6572000000000000006044820152606401610658565b336000818152609c602090815260408083206001600160a01b0387168085529252909120805460ff1916841515179055906001600160a01b03167f17307eab39ab6107e8899845ad3d59bd9653f200f220920489ca2b5937696c318360405161127b911515815260200190565b60405180910390a35050565b61129133836117be565b6113035760405162461bcd60e51b815260206004820152603160248201527f4552433732313a207472616e736665722063616c6c6572206973206e6f74206f60448201527f776e6572206e6f7220617070726f7665640000000000000000000000000000006064820152608401610658565b61130f84848484611d22565b50505050565b6033546001600160a01b0316331461136f5760405162461bcd60e51b815260206004820181905260248201527f4f776e61626c653a2063616c6c6572206973206e6f7420746865206f776e65726044820152606401610658565b670de0b6b3a764000060d154826113869190612720565b11156040518060400160405280601c81526020017f4255524e5f54524541535552595f4d5553545f544f54414c5f4f4e4500000000815250906113dc5760405162461bcd60e51b8152600401610658919061270d565b5060d055565b60003360cb5460405163c3c5a54760e01b81526001600160a01b0383811660048301529091169063c3c5a5479060240160206040518083038186803b15801561142a57600080fd5b505afa15801561143e573d6000803e3d6000fd5b505050506040513d601f19601f820116820180604052508101906114629190612573565b6040518060400160405280601481526020017f48554d414e5f4e4f545f52454749535445524544000000000000000000000000815250906114b65760405162461bcd60e51b8152600401610658919061270d565b506114c083611a82565b9392505050565b6000818152609960205260409020546060906001600160a01b03166115465760405162461bcd60e51b815260206004820152602f60248201527f4552433732314d657461646174613a2055524920717565727920666f72206e6f60448201526e3732bc34b9ba32b73a103a37b5b2b760891b6064820152608401610658565b6000611550611da0565b9050600081511161157057604051806020016040528060008152506114c0565b8061157a84611daf565b60405160200161158b9291906126a2565b604051602081830303815290604052915050919050565b6033546001600160a01b031633146115fc5760405162461bcd60e51b815260206004820181905260248201527f4f776e61626c653a2063616c6c6572206973206e6f7420746865206f776e65726044820152606401610658565b60cc80546001600160a01b0319166001600160a01b0392909216919091179055565b6033546001600160a01b031633146116785760405162461bcd60e51b815260206004820181905260248201527f4f776e61626c653a2063616c6c6572206973206e6f7420746865206f776e65726044820152606401610658565b6001600160a01b0381166116f45760405162461bcd60e51b815260206004820152602660248201527f4f776e61626c653a206e6577206f776e657220697320746865207a65726f206160448201527f64647265737300000000000000000000000000000000000000000000000000006064820152608401610658565b6033546040516001600160a01b038084169216907f8be0079c531659141344cd1fd0a4f28419497f9722a3daafe3b4186f6b6457e090600090a3603380546001600160a01b0319166001600160a01b0392909216919091179055565b6000818152609b6020526040902080546001600160a01b0319166001600160a01b038416908117909155819061178582610a17565b6001600160a01b03167f8c5be1e5ebec7d5bd14f71427d1e84f3dd0314c0f7b2291e5b200ac8c7c3b92560405160405180910390a45050565b6000818152609960205260408120546001600160a01b03166118375760405162461bcd60e51b815260206004820152602c60248201527f4552433732313a206f70657261746f7220717565727920666f72206e6f6e657860448201526b34b9ba32b73a103a37b5b2b760a11b6064820152608401610658565b600061184283610a17565b9050806001600160a01b0316846001600160a01b0316148061187d5750836001600160a01b0316611872846105e3565b6001600160a01b0316145b806118ad57506001600160a01b038082166000908152609c602090815260408083209388168352929052205460ff165b949350505050565b826001600160a01b03166118c882610a17565b6001600160a01b0316146119445760405162461bcd60e51b815260206004820152602960248201527f4552433732313a207472616e73666572206f6620746f6b656e2074686174206960448201527f73206e6f74206f776e00000000000000000000000000000000000000000000006064820152608401610658565b6001600160a01b0382166119bf5760405162461bcd60e51b8152602060048201526024808201527f4552433732313a207472616e7366657220746f20746865207a65726f2061646460448201527f72657373000000000000000000000000000000000000000000000000000000006064820152608401610658565b6119ca600082611750565b6001600160a01b0383166000908152609a602052604081208054600192906119f390849061274c565b90915550506001600160a01b0382166000908152609a60205260408120805460019290611a21908490612720565b909155505060008181526099602052604080822080546001600160a01b0319166001600160a01b0386811691821790925591518493918716917fddf252ad1be2c89b69c2b068fc378daa952ba7f163c4a11628f55a4df523b3ef91a4505050565b60003360cb5460405163c3c5a54760e01b81526001600160a01b0383811660048301529091169063c3c5a5479060240160206040518083038186803b158015611aca57600080fd5b505afa158015611ade573d6000803e3d6000fd5b505050506040513d601f19601f82011682018060405250810190611b029190612573565b6040518060400160405280601481526020017f48554d414e5f4e4f545f5245474953544552454400000000000000000000000081525090611b565760405162461bcd60e51b8152600401610658919061270d565b5060cf54835111156040518060400160405280601281526020017f504f53545f544558545f544f4f5f4c4f4e47000000000000000000000000000081525090611bb25760405162461bcd60e51b8152600401610658919061270d565b50600160ce6000828254611bc69190612720565b909155505060ce54611bd83382611efe565b6040805180820190915260008082526020820152611bf68282611f18565b81336001600160a01b03167fd8c86c7877c3f1f8a40af6cf64a11fe867af887f2a1ad31aac849e36730425b087604051611c30919061270d565b60405180910390a3509392505050565b6000806000611c518460d0546109ea565b9250611c5f8460d1546109ea565b915081611c6c848661274c565b611c76919061274c565b929491935050565b600083815260c9602052604081208054849290611c9c908490612720565b9091555050600083815260ca602090815260408083206001600160a01b038516845290915290205460ff166107aa57600083815260ca602090815260408083206001600160a01b03851684528252808320805460ff1916600190811790915586845260c990925282208101805491929091611d18908490612720565b9091555050505050565b611d2d8484846118b5565b611d3984848484611fb7565b61130f5760405162461bcd60e51b815260206004820152603260248201527f4552433732313a207472616e7366657220746f206e6f6e20455243373231526560448201527131b2b4bb32b91034b6b83632b6b2b73a32b960711b6064820152608401610658565b606060d280546105609061278f565b606081611df0575060408051808201909152600181527f3000000000000000000000000000000000000000000000000000000000000000602082015261054c565b8160005b8115611e1a5780611e04816127c4565b9150611e139050600a83612738565b9150611df4565b60008167ffffffffffffffff811115611e4357634e487b7160e01b600052604160045260246000fd5b6040519080825280601f01601f191660200182016040528015611e6d576020820181803683370190505b5090505b84156118ad57611e8260018361274c565b9150611e8f600a866127df565b611e9a906030612720565b60f81b818381518110611ebd57634e487b7160e01b600052603260045260246000fd5b60200101907effffffffffffffffffffffffffffffffffffffffffffffffffffffffffffff1916908160001a905350611ef7600a86612738565b9450611e71565b6109e682826040518060200160405280600081525061210f565b60008281526099602052604090205482906001600160a01b0316611f965760405162461bcd60e51b815260206004820152602f60248201527f4552433732314d657461646174613a2055524920717565727920666f72206e6f60448201526e3732bc34b9ba32b73a103a37b5b2b760891b6064820152608401610658565b50600091825260c96020908152604090922081518155910151600190910155565b60006001600160a01b0384163b1561210457604051630a85bd0160e11b81526001600160a01b0385169063150b7a0290611ffb9033908990889088906004016126d1565b602060405180830381600087803b15801561201557600080fd5b505af1925050508015612045575060408051601f3d908101601f19168201909252612042918101906125ab565b60015b6120ea573d808015612073576040519150601f19603f3d011682016040523d82523d6000602084013e612078565b606091505b5080516120e25760405162461bcd60e51b815260206004820152603260248201527f4552433732313a207472616e7366657220746f206e6f6e20455243373231526560448201527131b2b4bb32b91034b6b83632b6b2b73a32b960711b6064820152608401610658565b805181602001fd5b6001600160e01b031916630a85bd0160e11b1490506118ad565b506001949350505050565b612119838361218d565b6121266000848484611fb7565b6107aa5760405162461bcd60e51b815260206004820152603260248201527f4552433732313a207472616e7366657220746f206e6f6e20455243373231526560448201527131b2b4bb32b91034b6b83632b6b2b73a32b960711b6064820152608401610658565b6001600160a01b0382166121e35760405162461bcd60e51b815260206004820181905260248201527f4552433732313a206d696e7420746f20746865207a65726f20616464726573736044820152606401610658565b6000818152609960205260409020546001600160a01b0316156122485760405162461bcd60e51b815260206004820152601c60248201527f4552433732313a20746f6b656e20616c7265616479206d696e746564000000006044820152606401610658565b6001600160a01b0382166000908152609a60205260408120805460019290612271908490612720565b909155505060008181526099602052604080822080546001600160a01b0319166001600160a01b03861690811790915590518392907fddf252ad1be2c89b69c2b068fc378daa952ba7f163c4a11628f55a4df523b3ef908290a45050565b8280546122db9061278f565b90600052602060002090601f0160209004810192826122fd5760008555612343565b82601f1061231657805160ff1916838001178555612343565b82800160010185558215612343579182015b82811115612343578251825591602001919060010190612328565b5061234f929150612353565b5090565b5b8082111561234f5760008155600101612354565b600067ffffffffffffffff808411156123835761238361281f565b604051601f8501601f19908116603f011681019082821181831017156123ab576123ab61281f565b816040528093508581528686860111156123c457600080fd5b858560208301376000602087830101525050509392505050565b80356001600160a01b038116811461054c57600080fd5b600082601f830112612405578081fd5b610a0e83833560208501612368565b600060208284031215612425578081fd5b610a0e826123de565b60008060408385031215612440578081fd5b612449836123de565b9150612457602084016123de565b90509250929050565b600080600060608486031215612474578081fd5b61247d846123de565b925061248b602085016123de565b9150604084013590509250925092565b600080600080608085870312156124b0578081fd5b6124b9856123de565b93506124c7602086016123de565b925060408501359150606085013567ffffffffffffffff8111156124e9578182fd5b8501601f810187136124f9578182fd5b61250887823560208401612368565b91505092959194509250565b60008060408385031215612526578182fd5b61252f836123de565b9150602083013561253f81612835565b809150509250929050565b6000806040838503121561255c578182fd5b612565836123de565b946020939093013593505050565b600060208284031215612584578081fd5b81516114c081612835565b6000602082840312156125a0578081fd5b81356114c081612846565b6000602082840312156125bc578081fd5b81516114c081612846565b6000602082840312156125d8578081fd5b813567ffffffffffffffff8111156125ee578182fd5b6118ad848285016123f5565b6000806040838503121561260c578182fd5b823567ffffffffffffffff811115612622578283fd5b61262e858286016123f5565b95602094909401359450505050565b60006020828403121561264e578081fd5b5035919050565b60008060408385031215612667578182fd5b50508035926020909101359150565b6000815180845261268e816020860160208601612763565b601f01601f19169290920160200192915050565b600083516126b4818460208801612763565b8351908301906126c8818360208801612763565b01949350505050565b60006001600160a01b038087168352808616602084015250836040830152608060608301526127036080830184612676565b9695505050505050565b600060208252610a0e6020830184612676565b60008219821115612733576127336127f3565b500190565b60008261274757612747612809565b500490565b60008282101561275e5761275e6127f3565b500390565b60005b8381101561277e578181015183820152602001612766565b8381111561130f5750506000910152565b6002810460018216806127a357607f821691505b6020821081141561095857634e487b7160e01b600052602260045260246000fd5b60006000198214156127d8576127d86127f3565b5060010190565b6000826127ee576127ee612809565b500690565b634e487b7160e01b600052601160045260246000fd5b634e487b7160e01b600052601260045260246000fd5b634e487b7160e01b600052604160045260246000fd5b801515811461284357600080fd5b50565b6001600160e01b03198116811461284357600080fdfea264697066735822122048481739375d80613d0a5d09a2b9fdb95eb46929b3e52e4c2ecde6c73a69cc3164736f6c63430008020033",
  "linkReferences": {},
  "deployedLinkReferences": {}
}