{
    "contractName": "DummyProofOfHumanity",
    "abi": [
        {
            "inputs": [
                {
                    "internalType": "address",
                    "name": "governor",
                    "type": "address"
                },
                {
                    "internalType": "address",
                    "name": "ubi",
                    "type": "address"
                }
            ],
            "stateMutability": "nonpayable",
            "type": "constructor"
        },
        {
            "anonymous": false,
            "inputs": [
                {
                    "indexed": true,
                    "internalType": "address",
                    "name": "owner",
                    "type": "address"
                },
                {
                    "indexed": true,
                    "internalType": "address",
                    "name": "spender",
                    "type": "address"
                },
                {
                    "indexed": false,
                    "internalType": "uint256",
                    "name": "value",
                    "type": "uint256"
                }
            ],
            "name": "Approval",
            "type": "event"
        },
        {
            "anonymous": false,
            "inputs": [
                {
                    "indexed": true,
                    "internalType": "address",
                    "name": "from",
                    "type": "address"
                },
                {
                    "indexed": true,
                    "internalType": "address",
                    "name": "to",
                    "type": "address"
                },
                {
                    "indexed": false,
                    "internalType": "uint256",
                    "name": "value",
                    "type": "uint256"
                }
            ],
            "name": "Transfer",
            "type": "event"
        },
        {
            "inputs": [
                {
                    "internalType": "address",
                    "name": "owner",
                    "type": "address"
                },
                {
                    "internalType": "address",
                    "name": "spender",
                    "type": "address"
                }
            ],
            "name": "allowance",
            "outputs": [
                {
                    "internalType": "uint256",
                    "name": "",
                    "type": "uint256"
                }
            ],
            "stateMutability": "view",
            "type": "function",
            "constant": true
        },
        {
            "inputs": [
                {
                    "internalType": "address",
                    "name": "spender",
                    "type": "address"
                },
                {
                    "internalType": "uint256",
                    "name": "amount",
                    "type": "uint256"
                }
            ],
            "name": "approve",
            "outputs": [
                {
                    "internalType": "bool",
                    "name": "",
                    "type": "bool"
                }
            ],
            "stateMutability": "nonpayable",
            "type": "function"
        },
        {
            "inputs": [
                {
                    "internalType": "address",
                    "name": "account",
                    "type": "address"
                }
            ],
            "name": "balanceOf",
            "outputs": [
                {
                    "internalType": "uint256",
                    "name": "",
                    "type": "uint256"
                }
            ],
            "stateMutability": "view",
            "type": "function",
            "constant": true
        },
        {
            "inputs": [],
            "name": "decimals",
            "outputs": [
                {
                    "internalType": "uint8",
                    "name": "",
                    "type": "uint8"
                }
            ],
            "stateMutability": "view",
            "type": "function",
            "constant": true
        },
        {
            "inputs": [
                {
                    "internalType": "address",
                    "name": "spender",
                    "type": "address"
                },
                {
                    "internalType": "uint256",
                    "name": "subtractedValue",
                    "type": "uint256"
                }
            ],
            "name": "decreaseAllowance",
            "outputs": [
                {
                    "internalType": "bool",
                    "name": "",
                    "type": "bool"
                }
            ],
            "stateMutability": "nonpayable",
            "type": "function"
        },
        {
            "inputs": [
                {
                    "internalType": "address",
                    "name": "spender",
                    "type": "address"
                },
                {
                    "internalType": "uint256",
                    "name": "addedValue",
                    "type": "uint256"
                }
            ],
            "name": "increaseAllowance",
            "outputs": [
                {
                    "internalType": "bool",
                    "name": "",
                    "type": "bool"
                }
            ],
            "stateMutability": "nonpayable",
            "type": "function"
        },
        {
            "inputs": [],
            "name": "name",
            "outputs": [
                {
                    "internalType": "string",
                    "name": "",
                    "type": "string"
                }
            ],
            "stateMutability": "view",
            "type": "function",
            "constant": true
        },
        {
            "inputs": [],
            "name": "symbol",
            "outputs": [
                {
                    "internalType": "string",
                    "name": "",
                    "type": "string"
                }
            ],
            "stateMutability": "view",
            "type": "function",
            "constant": true
        },
        {
            "inputs": [],
            "name": "totalSupply",
            "outputs": [
                {
                    "internalType": "uint256",
                    "name": "",
                    "type": "uint256"
                }
            ],
            "stateMutability": "view",
            "type": "function",
            "constant": true
        },
        {
            "inputs": [
                {
                    "internalType": "address",
                    "name": "recipient",
                    "type": "address"
                },
                {
                    "internalType": "uint256",
                    "name": "amount",
                    "type": "uint256"
                }
            ],
            "name": "transfer",
            "outputs": [
                {
                    "internalType": "bool",
                    "name": "",
                    "type": "bool"
                }
            ],
            "stateMutability": "nonpayable",
            "type": "function"
        },
        {
            "inputs": [
                {
                    "internalType": "address",
                    "name": "sender",
                    "type": "address"
                },
                {
                    "internalType": "address",
                    "name": "recipient",
                    "type": "address"
                },
                {
                    "internalType": "uint256",
                    "name": "amount",
                    "type": "uint256"
                }
            ],
            "name": "transferFrom",
            "outputs": [
                {
                    "internalType": "bool",
                    "name": "",
                    "type": "bool"
                }
            ],
            "stateMutability": "nonpayable",
            "type": "function"
        },
        {
            "inputs": [
                {
                    "internalType": "address",
                    "name": "governor",
                    "type": "address"
                }
            ],
            "name": "changeGovernor",
            "outputs": [],
            "stateMutability": "nonpayable",
            "type": "function"
        },
        {
            "inputs": [
                {
                    "internalType": "address",
                    "name": "submissionID",
                    "type": "address"
                }
            ],
            "name": "isRegistered",
            "outputs": [
                {
                    "internalType": "bool",
                    "name": "",
                    "type": "bool"
                }
            ],
            "stateMutability": "view",
            "type": "function",
            "constant": true
        },
        {
            "inputs": [
                {
                    "internalType": "address",
                    "name": "submissionID",
                    "type": "address"
                }
            ],
            "name": "register",
            "outputs": [],
            "stateMutability": "nonpayable",
            "type": "function"
        },
        {
            "inputs": [],
            "name": "submissionCounter",
            "outputs": [
                {
                    "internalType": "uint256",
                    "name": "",
                    "type": "uint256"
                }
            ],
            "stateMutability": "pure",
            "type": "function",
            "constant": true
        },
        {
            "inputs": [
                {
                    "internalType": "address",
                    "name": "submissionID",
                    "type": "address"
                }
            ],
            "name": "getSubmissionInfo",
            "outputs": [
                {
                    "components": [
                        {
                            "internalType": "uint8",
                            "name": "status",
                            "type": "uint8"
                        },
                        {
                            "internalType": "uint256",
                            "name": "submissionTime",
                            "type": "uint256"
                        },
                        {
                            "internalType": "uint64",
                            "name": "index",
                            "type": "uint64"
                        },
                        {
                            "internalType": "bool",
                            "name": "registered",
                            "type": "bool"
                        },
                        {
                            "internalType": "bool",
                            "name": "hasVouched",
                            "type": "bool"
                        },
                        {
                            "internalType": "uint256",
                            "name": "numberOfRequests",
                            "type": "uint256"
                        }
                    ],
                    "internalType": "struct IProofOfHumanity.SubmissionInfo",
                    "name": "",
                    "type": "tuple"
                }
            ],
            "stateMutability": "view",
            "type": "function",
            "constant": true
        }
    ],
    "bytecode": "0x60806040523480156200001157600080fd5b5060405162001cec38038062001cec833981810160405281019062000037919062000228565b6040518060400160405280601681526020017f556e6976657273616c20426173696320496e636f6d65000000000000000000008152506040518060400160405280600381526020017f55424900000000000000000000000000000000000000000000000000000000008152508160039080519060200190620000bb92919062000161565b508060049080519060200190620000d492919062000161565b50505081600560006101000a81548173ffffffffffffffffffffffffffffffffffffffff021916908373ffffffffffffffffffffffffffffffffffffffff16021790555080600660006101000a81548173ffffffffffffffffffffffffffffffffffffffff021916908373ffffffffffffffffffffffffffffffffffffffff16021790555050506200031c565b8280546200016f906200029d565b90600052602060002090601f016020900481019282620001935760008555620001df565b82601f10620001ae57805160ff1916838001178555620001df565b82800160010185558215620001df579182015b82811115620001de578251825591602001919060010190620001c1565b5b509050620001ee9190620001f2565b5090565b5b808211156200020d576000816000905550600101620001f3565b5090565b600081519050620002228162000302565b92915050565b600080604083850312156200023c57600080fd5b60006200024c8582860162000211565b92505060206200025f8582860162000211565b9150509250929050565b600062000276826200027d565b9050919050565b600073ffffffffffffffffffffffffffffffffffffffff82169050919050565b60006002820490506001821680620002b657607f821691505b60208210811415620002cd57620002cc620002d3565b5b50919050565b7f4e487b7100000000000000000000000000000000000000000000000000000000600052602260045260246000fd5b6200030d8162000269565b81146200031957600080fd5b50565b6119c0806200032c6000396000f3fe608060405234801561001057600080fd5b50600436106101005760003560e01c806376c23ff111610097578063a9059cbb11610066578063a9059cbb146102d7578063c3c5a54714610307578063dd62ed3e14610337578063e4c0aaf41461036757610100565b806376c23ff11461023b57806395d89b41146102595780639797304314610277578063a457c2d7146102a757610100565b8063313ce567116100d3578063313ce567146101a157806339509351146101bf5780634420e486146101ef57806370a082311461020b57610100565b806306fdde0314610105578063095ea7b31461012357806318160ddd1461015357806323b872dd14610171575b600080fd5b61010d610383565b60405161011a9190611614565b60405180910390f35b61013d6004803603810190610138919061118f565b610415565b60405161014a91906115f9565b60405180910390f35b61015b610433565b6040516101689190611731565b60405180910390f35b61018b60048036038101906101869190611140565b61043d565b60405161019891906115f9565b60405180910390f35b6101a961053e565b6040516101b6919061174c565b60405180910390f35b6101d960048036038101906101d4919061118f565b610547565b6040516101e691906115f9565b60405180910390f35b610209600480360381019061020491906110db565b6105f3565b005b610225600480360381019061022091906110db565b61080f565b6040516102329190611731565b60405180910390f35b610243610857565b6040516102509190611731565b60405180910390f35b61026161085c565b60405161026e9190611614565b60405180910390f35b610291600480360381019061028c91906110db565b6108ee565b60405161029e9190611716565b60405180910390f35b6102c160048036038101906102bc919061118f565b6109e0565b6040516102ce91906115f9565b60405180910390f35b6102f160048036038101906102ec919061118f565b610ad4565b6040516102fe91906115f9565b60405180910390f35b610321600480360381019061031c91906110db565b610af2565b60405161032e91906115f9565b60405180910390f35b610351600480360381019061034c9190611104565b610b48565b60405161035e9190611731565b60405180910390f35b610381600480360381019061037c91906110db565b610bcf565b005b606060038054610392906118bb565b80601f01602080910402602001604051908101604052809291908181526020018280546103be906118bb565b801561040b5780601f106103e05761010080835404028352916020019161040b565b820191906000526020600020905b8154815290600101906020018083116103ee57829003601f168201915b5050505050905090565b6000610429610422610c13565b8484610c1b565b6001905092915050565b6000600254905090565b600061044a848484610de6565b6000600160008673ffffffffffffffffffffffffffffffffffffffff1673ffffffffffffffffffffffffffffffffffffffff1681526020019081526020016000206000610495610c13565b73ffffffffffffffffffffffffffffffffffffffff1673ffffffffffffffffffffffffffffffffffffffff16815260200190815260200160002054905082811015610515576040517f08c379a000000000000000000000000000000000000000000000000000000000815260040161050c90611696565b60405180910390fd5b61053285610521610c13565b858461052d91906117d9565b610c1b565b60019150509392505050565b60006012905090565b60006105e9610554610c13565b848460016000610562610c13565b73ffffffffffffffffffffffffffffffffffffffff1673ffffffffffffffffffffffffffffffffffffffff16815260200190815260200160002060008873ffffffffffffffffffffffffffffffffffffffff1673ffffffffffffffffffffffffffffffffffffffff168152602001908152602001600020546105e49190611783565b610c1b565b6001905092915050565b600660009054906101000a900473ffffffffffffffffffffffffffffffffffffffff1673ffffffffffffffffffffffffffffffffffffffff166340c10f198268056bc75e2d631000006040518363ffffffff1660e01b81526004016106599291906115d0565b600060405180830381600087803b15801561067357600080fd5b505af1158015610687573d6000803e3d6000fd5b505050506001600860008373ffffffffffffffffffffffffffffffffffffffff1673ffffffffffffffffffffffffffffffffffffffff16815260200190815260200160002060006101000a81548160ff0219169083151502179055506040518060c00160405280600060ff168152602001428152602001606a67ffffffffffffffff1681526020016001151581526020016001151581526020016001815250600760008373ffffffffffffffffffffffffffffffffffffffff1673ffffffffffffffffffffffffffffffffffffffff16815260200190815260200160002060008201518160000160006101000a81548160ff021916908360ff1602179055506020820151816001015560408201518160020160006101000a81548167ffffffffffffffff021916908367ffffffffffffffff16021790555060608201518160020160086101000a81548160ff02191690831515021790555060808201518160020160096101000a81548160ff02191690831515021790555060a0820151816003015590505050565b60008060008373ffffffffffffffffffffffffffffffffffffffff1673ffffffffffffffffffffffffffffffffffffffff168152602001908152602001600020549050919050565b600090565b60606004805461086b906118bb565b80601f0160208091040260200160405190810160405280929190818152602001828054610897906118bb565b80156108e45780601f106108b9576101008083540402835291602001916108e4565b820191906000526020600020905b8154815290600101906020018083116108c757829003601f168201915b5050505050905090565b6108f661106a565b600760008373ffffffffffffffffffffffffffffffffffffffff1673ffffffffffffffffffffffffffffffffffffffff1681526020019081526020016000206040518060c00160405290816000820160009054906101000a900460ff1660ff1660ff168152602001600182015481526020016002820160009054906101000a900467ffffffffffffffff1667ffffffffffffffff1667ffffffffffffffff1681526020016002820160089054906101000a900460ff161515151581526020016002820160099054906101000a900460ff161515151581526020016003820154815250509050919050565b600080600160006109ef610c13565b73ffffffffffffffffffffffffffffffffffffffff1673ffffffffffffffffffffffffffffffffffffffff16815260200190815260200160002060008573ffffffffffffffffffffffffffffffffffffffff1673ffffffffffffffffffffffffffffffffffffffff16815260200190815260200160002054905082811015610aac576040517f08c379a0000000000000000000000000000000000000000000000000000000008152600401610aa3906116f6565b60405180910390fd5b610ac9610ab7610c13565b858584610ac491906117d9565b610c1b565b600191505092915050565b6000610ae8610ae1610c13565b8484610de6565b6001905092915050565b6000600860008373ffffffffffffffffffffffffffffffffffffffff1673ffffffffffffffffffffffffffffffffffffffff16815260200190815260200160002060009054906101000a900460ff169050919050565b6000600160008473ffffffffffffffffffffffffffffffffffffffff1673ffffffffffffffffffffffffffffffffffffffff16815260200190815260200160002060008373ffffffffffffffffffffffffffffffffffffffff1673ffffffffffffffffffffffffffffffffffffffff16815260200190815260200160002054905092915050565b80600560006101000a81548173ffffffffffffffffffffffffffffffffffffffff021916908373ffffffffffffffffffffffffffffffffffffffff16021790555050565b600033905090565b600073ffffffffffffffffffffffffffffffffffffffff168373ffffffffffffffffffffffffffffffffffffffff161415610c8b576040517f08c379a0000000000000000000000000000000000000000000000000000000008152600401610c82906116d6565b60405180910390fd5b600073ffffffffffffffffffffffffffffffffffffffff168273ffffffffffffffffffffffffffffffffffffffff161415610cfb576040517f08c379a0000000000000000000000000000000000000000000000000000000008152600401610cf290611656565b60405180910390fd5b80600160008573ffffffffffffffffffffffffffffffffffffffff1673ffffffffffffffffffffffffffffffffffffffff16815260200190815260200160002060008473ffffffffffffffffffffffffffffffffffffffff1673ffffffffffffffffffffffffffffffffffffffff168152602001908152602001600020819055508173ffffffffffffffffffffffffffffffffffffffff168373ffffffffffffffffffffffffffffffffffffffff167f8c5be1e5ebec7d5bd14f71427d1e84f3dd0314c0f7b2291e5b200ac8c7c3b92583604051610dd99190611731565b60405180910390a3505050565b600073ffffffffffffffffffffffffffffffffffffffff168373ffffffffffffffffffffffffffffffffffffffff161415610e56576040517f08c379a0000000000000000000000000000000000000000000000000000000008152600401610e4d906116b6565b60405180910390fd5b600073ffffffffffffffffffffffffffffffffffffffff168273ffffffffffffffffffffffffffffffffffffffff161415610ec6576040517f08c379a0000000000000000000000000000000000000000000000000000000008152600401610ebd90611636565b60405180910390fd5b610ed1838383611065565b60008060008573ffffffffffffffffffffffffffffffffffffffff1673ffffffffffffffffffffffffffffffffffffffff16815260200190815260200160002054905081811015610f57576040517f08c379a0000000000000000000000000000000000000000000000000000000008152600401610f4e90611676565b60405180910390fd5b8181610f6391906117d9565b6000808673ffffffffffffffffffffffffffffffffffffffff1673ffffffffffffffffffffffffffffffffffffffff16815260200190815260200160002081905550816000808573ffffffffffffffffffffffffffffffffffffffff1673ffffffffffffffffffffffffffffffffffffffff1681526020019081526020016000206000828254610ff39190611783565b925050819055508273ffffffffffffffffffffffffffffffffffffffff168473ffffffffffffffffffffffffffffffffffffffff167fddf252ad1be2c89b69c2b068fc378daa952ba7f163c4a11628f55a4df523b3ef846040516110579190611731565b60405180910390a350505050565b505050565b6040518060c00160405280600060ff16815260200160008152602001600067ffffffffffffffff168152602001600015158152602001600015158152602001600081525090565b6000813590506110c08161195c565b92915050565b6000813590506110d581611973565b92915050565b6000602082840312156110ed57600080fd5b60006110fb848285016110b1565b91505092915050565b6000806040838503121561111757600080fd5b6000611125858286016110b1565b9250506020611136858286016110b1565b9150509250929050565b60008060006060848603121561115557600080fd5b6000611163868287016110b1565b9350506020611174868287016110b1565b9250506040611185868287016110c6565b9150509250925092565b600080604083850312156111a257600080fd5b60006111b0858286016110b1565b92505060206111c1858286016110c6565b9150509250929050565b6111d48161180d565b82525050565b6111e38161181f565b82525050565b6111f28161181f565b82525050565b61120181611876565b82525050565b600061121282611767565b61121c8185611772565b935061122c818560208601611888565b6112358161194b565b840191505092915050565b600061124d602383611772565b91507f45524332303a207472616e7366657220746f20746865207a65726f206164647260008301527f65737300000000000000000000000000000000000000000000000000000000006020830152604082019050919050565b60006112b3602283611772565b91507f45524332303a20617070726f766520746f20746865207a65726f20616464726560008301527f73730000000000000000000000000000000000000000000000000000000000006020830152604082019050919050565b6000611319602683611772565b91507f45524332303a207472616e7366657220616d6f756e742065786365656473206260008301527f616c616e636500000000000000000000000000000000000000000000000000006020830152604082019050919050565b600061137f602883611772565b91507f45524332303a207472616e7366657220616d6f756e742065786365656473206160008301527f6c6c6f77616e63650000000000000000000000000000000000000000000000006020830152604082019050919050565b60006113e5602583611772565b91507f45524332303a207472616e736665722066726f6d20746865207a65726f20616460008301527f64726573730000000000000000000000000000000000000000000000000000006020830152604082019050919050565b600061144b602483611772565b91507f45524332303a20617070726f76652066726f6d20746865207a65726f2061646460008301527f72657373000000000000000000000000000000000000000000000000000000006020830152604082019050919050565b60006114b1602583611772565b91507f45524332303a2064656372656173656420616c6c6f77616e63652062656c6f7760008301527f207a65726f0000000000000000000000000000000000000000000000000000006020830152604082019050919050565b60c08201600082015161152060008501826115b2565b5060208201516115336020850182611585565b50604082015161154660408501826115a3565b50606082015161155960608501826111da565b50608082015161156c60808501826111da565b5060a082015161157f60a0850182611585565b50505050565b61158e8161184b565b82525050565b61159d8161184b565b82525050565b6115ac81611855565b82525050565b6115bb81611869565b82525050565b6115ca81611869565b82525050565b60006040820190506115e560008301856111cb565b6115f260208301846111f8565b9392505050565b600060208201905061160e60008301846111e9565b92915050565b6000602082019050818103600083015261162e8184611207565b905092915050565b6000602082019050818103600083015261164f81611240565b9050919050565b6000602082019050818103600083015261166f816112a6565b9050919050565b6000602082019050818103600083015261168f8161130c565b9050919050565b600060208201905081810360008301526116af81611372565b9050919050565b600060208201905081810360008301526116cf816113d8565b9050919050565b600060208201905081810360008301526116ef8161143e565b9050919050565b6000602082019050818103600083015261170f816114a4565b9050919050565b600060c08201905061172b600083018461150a565b92915050565b60006020820190506117466000830184611594565b92915050565b600060208201905061176160008301846115c1565b92915050565b600081519050919050565b600082825260208201905092915050565b600061178e8261184b565b91506117998361184b565b9250827fffffffffffffffffffffffffffffffffffffffffffffffffffffffffffffffff038211156117ce576117cd6118ed565b5b828201905092915050565b60006117e48261184b565b91506117ef8361184b565b925082821015611802576118016118ed565b5b828203905092915050565b60006118188261182b565b9050919050565b60008115159050919050565b600073ffffffffffffffffffffffffffffffffffffffff82169050919050565b6000819050919050565b600067ffffffffffffffff82169050919050565b600060ff82169050919050565b60006118818261184b565b9050919050565b60005b838110156118a657808201518184015260208101905061188b565b838111156118b5576000848401525b50505050565b600060028204905060018216806118d357607f821691505b602082108114156118e7576118e661191c565b5b50919050565b7f4e487b7100000000000000000000000000000000000000000000000000000000600052601160045260246000fd5b7f4e487b7100000000000000000000000000000000000000000000000000000000600052602260045260246000fd5b6000601f19601f8301169050919050565b6119658161180d565b811461197057600080fd5b50565b61197c8161184b565b811461198757600080fd5b5056fea2646970667358221220537c9ef68b82d244cd8c11d65553ba7b2fdf39f157716afee9d1e96142cfc83c64736f6c63430008000033",
    "immutableReferences": {},
    "source": "// SPDX-License-Identifier: MIT\r\npragma solidity 0.8.0;\r\n\r\nimport \"./IProofOfHumanity.sol\";\r\nimport \"./IUBI.sol\";\r\nimport \"@openzeppelin/contracts/token/ERC20/ERC20.sol\";\r\n\r\ncontract DummyProofOfHumanity is IProofOfHumanity, ERC20  {\r\n\r\n    address _governor;\r\n    IUBI _ubi;\r\n    mapping(address => SubmissionInfo) _submissions;\r\n\r\n    mapping(address => bool) _registrants;\r\n    /** @dev Constructor.\r\n     */\r\n    constructor(address governor, address ubi) ERC20(\"Universal Basic Income\", \"UBI\") {\r\n        _governor = governor;\r\n        _ubi = IUBI(ubi);\r\n    }\r\n    //constructor(IProofOfHumanity _PoH) virtual;\r\n    \r\n    /** @dev Changes the address of the the governor.\r\n     *  @param governor The address of the new governor.\r\n     */\r\n    function changeGovernor(address governor) external { _governor = governor; }\r\n    \r\n\r\n    /** @dev Returns true if the submission is registered and not expired.\r\n     *  @param submissionID The address of the submission.\r\n     *  @return Whether the submission is registered or not.\r\n     */\r\n    function isRegistered(address submissionID) public override view returns (bool) {\r\n        return _registrants[submissionID];\r\n    }\r\n\r\n    function register(address submissionID) public {\r\n        // Dummy contracts assigns free ERC20\r\n        _ubi.mint(submissionID, 100*10**18);\r\n        _registrants[submissionID] = true;\r\n        _submissions[submissionID] = IProofOfHumanity.SubmissionInfo({\r\n            status: 0,\r\n            submissionTime: block.timestamp,\r\n            index: 106,\r\n            registered: true,\r\n            hasVouched: true,\r\n            numberOfRequests:  1\r\n        });\r\n    }\r\n\r\n    function submissionCounter() external override pure returns(uint) { return 0; } \r\n\r\nfunction getSubmissionInfo(address submissionID) external override view returns (SubmissionInfo memory) {\r\n    return _submissions[submissionID];\r\n}\r\n    // // /** @dev Returns the balance of a particular submission of the ProofOfHumanity contract.\r\n    // //  *  Note that this function takes the expiration date into account.\r\n    // //  *  @param _submissionID The address of the submission.\r\n    // //  *  @return The balance of the submission.\r\n    // //  */\r\n    // function balanceOf(address _submissionID) external override view returns (uint256) {\r\n    //     return _poh.balanceOf(_submissionID);\r\n    // }\r\n\r\n    // // /** @dev Returns the count of all submissions that made a registration request at some point, including those that were added manually.\r\n    // //  *  Note that with the current implementation of ProofOfHumanity it'd be very costly to count only the submissions that are currently registered.\r\n    // //  *  @return The total count of submissions.\r\n    // //  */\r\n    // function totalSupply() external override  view returns (uint256) {\r\n    //     return _poh.totalSupply();\r\n    // }\r\n\r\n    // function transfer(address _recipient, uint256 _amount) external override returns (bool) { return _poh.transfer(_recipient, _amount); }\r\n\r\n    // function allowance(address _owner, address _spender) external override view returns (uint256) { return _poh.allowance(_owner, _spender); }\r\n\r\n    // function approve(address _spender, uint256 _amount) external override returns (bool) { return _poh.approve(_spender, _amount); }\r\n\r\n    // function transferFrom(address _sender, address _recipient, uint256 _amount) external override returns (bool) { return _poh.transferFrom(_sender, _recipient, _amount); }\r\n}",
    "sourcePath": "E:/Code/Repos/JuanuMusic/posta/posta-contracts/contracts/DummyProofOfHumanity.sol",
    "compiler": {
        "name": "solc",
        "version": "0.8.0+commit.c7dfd78e.Emscripten.clang"
    },
    "schemaVersion": "3.3.4",
    "updatedAt": "2021-06-27T16:51:07.569Z",
    "networkType": "ethereum",
    "devdoc": {
        "kind": "dev",
        "methods": {
            "allowance(address,address)": {
                "details": "See {IERC20-allowance}."
            },
            "approve(address,uint256)": {
                "details": "See {IERC20-approve}. Requirements: - `spender` cannot be the zero address."
            },
            "balanceOf(address)": {
                "details": "See {IERC20-balanceOf}."
            },
            "changeGovernor(address)": {
                "details": "Changes the address of the the governor.",
                "params": {
                    "governor": "The address of the new governor."
                }
            },
            "constructor": {
                "details": "Constructor."
            },
            "decimals()": {
                "details": "Returns the number of decimals used to get its user representation. For example, if `decimals` equals `2`, a balance of `505` tokens should be displayed to a user as `5,05` (`505 / 10 ** 2`). Tokens usually opt for a value of 18, imitating the relationship between Ether and Wei. This is the value {ERC20} uses, unless this function is overridden; NOTE: This information is only used for _display_ purposes: it in no way affects any of the arithmetic of the contract, including {IERC20-balanceOf} and {IERC20-transfer}."
            },
            "decreaseAllowance(address,uint256)": {
                "details": "Atomically decreases the allowance granted to `spender` by the caller. This is an alternative to {approve} that can be used as a mitigation for problems described in {IERC20-approve}. Emits an {Approval} event indicating the updated allowance. Requirements: - `spender` cannot be the zero address. - `spender` must have allowance for the caller of at least `subtractedValue`."
            },
            "increaseAllowance(address,uint256)": {
                "details": "Atomically increases the allowance granted to `spender` by the caller. This is an alternative to {approve} that can be used as a mitigation for problems described in {IERC20-approve}. Emits an {Approval} event indicating the updated allowance. Requirements: - `spender` cannot be the zero address."
            },
            "isRegistered(address)": {
                "details": "Returns true if the submission is registered and not expired.",
                "params": {
                    "submissionID": "The address of the submission."
                },
                "returns": {
                    "_0": "Whether the submission is registered or not."
                }
            },
            "name()": {
                "details": "Returns the name of the token."
            },
            "submissionCounter()": {
                "details": "Return the number of submissions irrespective of their status.",
                "returns": {
                    "_0": "The number of submissions."
                }
            },
            "symbol()": {
                "details": "Returns the symbol of the token, usually a shorter version of the name."
            },
            "totalSupply()": {
                "details": "See {IERC20-totalSupply}."
            },
            "transfer(address,uint256)": {
                "details": "See {IERC20-transfer}. Requirements: - `recipient` cannot be the zero address. - the caller must have a balance of at least `amount`."
            },
            "transferFrom(address,address,uint256)": {
                "details": "See {IERC20-transferFrom}. Emits an {Approval} event indicating the updated allowance. This is not required by the EIP. See the note at the beginning of {ERC20}. Requirements: - `sender` and `recipient` cannot be the zero address. - `sender` must have a balance of at least `amount`. - the caller must have allowance for ``sender``'s tokens of at least `amount`."
            }
        },
        "version": 1
    },
    "userdoc": {
        "kind": "user",
        "methods": {},
        "version": 1
    }
}