{
  "_format": "hh-sol-artifact-1",
  "contractName": "Posta",
  "sourceName": "contracts/v0.2/Posta.sol",
  "abi": [
    {
      "anonymous": false,
      "inputs": [
        {
          "indexed": true,
          "internalType": "address",
          "name": "owner",
          "type": "address"
        },
        {
          "indexed": true,
          "internalType": "address",
          "name": "approved",
          "type": "address"
        },
        {
          "indexed": true,
          "internalType": "uint256",
          "name": "tokenId",
          "type": "uint256"
        }
      ],
      "name": "Approval",
      "type": "event"
    },
    {
      "anonymous": false,
      "inputs": [
        {
          "indexed": true,
          "internalType": "address",
          "name": "owner",
          "type": "address"
        },
        {
          "indexed": true,
          "internalType": "address",
          "name": "operator",
          "type": "address"
        },
        {
          "indexed": false,
          "internalType": "bool",
          "name": "approved",
          "type": "bool"
        }
      ],
      "name": "ApprovalForAll",
      "type": "event"
    },
    {
      "anonymous": false,
      "inputs": [
        {
          "indexed": true,
          "internalType": "address",
          "name": "author",
          "type": "address"
        },
        {
          "indexed": true,
          "internalType": "uint256",
          "name": "tokenId",
          "type": "uint256"
        },
        {
          "indexed": false,
          "internalType": "string",
          "name": "value",
          "type": "string"
        }
      ],
      "name": "NewPost",
      "type": "event"
    },
    {
      "anonymous": false,
      "inputs": [
        {
          "indexed": true,
          "internalType": "address",
          "name": "previousOwner",
          "type": "address"
        },
        {
          "indexed": true,
          "internalType": "address",
          "name": "newOwner",
          "type": "address"
        }
      ],
      "name": "OwnershipTransferred",
      "type": "event"
    },
    {
      "anonymous": false,
      "inputs": [
        {
          "indexed": true,
          "internalType": "address",
          "name": "from",
          "type": "address"
        },
        {
          "indexed": true,
          "internalType": "address",
          "name": "to",
          "type": "address"
        },
        {
          "indexed": true,
          "internalType": "uint256",
          "name": "tokenId",
          "type": "uint256"
        }
      ],
      "name": "Transfer",
      "type": "event"
    },
    {
      "inputs": [
        {
          "internalType": "uint256",
          "name": "totalAmount",
          "type": "uint256"
        },
        {
          "internalType": "uint256",
          "name": "percentage",
          "type": "uint256"
        }
      ],
      "name": "_getAmountFromPct",
      "outputs": [
        {
          "internalType": "uint256",
          "name": "calculatedValue",
          "type": "uint256"
        }
      ],
      "stateMutability": "pure",
      "type": "function"
    },
    {
      "inputs": [
        {
          "internalType": "address",
          "name": "to",
          "type": "address"
        },
        {
          "internalType": "uint256",
          "name": "tokenId",
          "type": "uint256"
        }
      ],
      "name": "approve",
      "outputs": [],
      "stateMutability": "nonpayable",
      "type": "function"
    },
    {
      "inputs": [
        {
          "internalType": "address",
          "name": "owner",
          "type": "address"
        }
      ],
      "name": "balanceOf",
      "outputs": [
        {
          "internalType": "uint256",
          "name": "",
          "type": "uint256"
        }
      ],
      "stateMutability": "view",
      "type": "function"
    },
    {
      "inputs": [
        {
          "internalType": "uint256",
          "name": "tokenId",
          "type": "uint256"
        }
      ],
      "name": "getApproved",
      "outputs": [
        {
          "internalType": "address",
          "name": "",
          "type": "address"
        }
      ],
      "stateMutability": "view",
      "type": "function"
    },
    {
      "inputs": [],
      "name": "getBurnPct",
      "outputs": [
        {
          "internalType": "uint256",
          "name": "",
          "type": "uint256"
        }
      ],
      "stateMutability": "view",
      "type": "function"
    },
    {
      "inputs": [],
      "name": "getMaxChars",
      "outputs": [
        {
          "internalType": "uint256",
          "name": "",
          "type": "uint256"
        }
      ],
      "stateMutability": "view",
      "type": "function"
    },
    {
      "inputs": [],
      "name": "getPOH",
      "outputs": [
        {
          "internalType": "address",
          "name": "",
          "type": "address"
        }
      ],
      "stateMutability": "view",
      "type": "function"
    },
    {
      "inputs": [
        {
          "internalType": "uint256",
          "name": "tokenId",
          "type": "uint256"
        }
      ],
      "name": "getPost",
      "outputs": [
        {
          "components": [
            {
              "internalType": "uint256",
              "name": "supportGiven",
              "type": "uint256"
            },
            {
              "internalType": "uint256",
              "name": "supportersCount",
              "type": "uint256"
            }
          ],
          "internalType": "struct PostaData",
          "name": "",
          "type": "tuple"
        }
      ],
      "stateMutability": "view",
      "type": "function"
    },
    {
      "inputs": [],
      "name": "getTokenCounter",
      "outputs": [
        {
          "internalType": "uint256",
          "name": "",
          "type": "uint256"
        }
      ],
      "stateMutability": "view",
      "type": "function"
    },
    {
      "inputs": [],
      "name": "getTreasuryPct",
      "outputs": [
        {
          "internalType": "uint256",
          "name": "",
          "type": "uint256"
        }
      ],
      "stateMutability": "view",
      "type": "function"
    },
    {
      "inputs": [],
      "name": "getUBI",
      "outputs": [
        {
          "internalType": "address",
          "name": "",
          "type": "address"
        }
      ],
      "stateMutability": "view",
      "type": "function"
    },
    {
      "inputs": [
        {
          "internalType": "address",
          "name": "poh",
          "type": "address"
        },
        {
          "internalType": "address",
          "name": "ubi",
          "type": "address"
        },
        {
          "internalType": "uint256",
          "name": "maxChars",
          "type": "uint256"
        },
        {
          "internalType": "uint256",
          "name": "burnPct",
          "type": "uint256"
        },
        {
          "internalType": "uint256",
          "name": "treasuryPct",
          "type": "uint256"
        }
      ],
      "name": "initialize",
      "outputs": [],
      "stateMutability": "nonpayable",
      "type": "function"
    },
    {
      "inputs": [
        {
          "internalType": "address",
          "name": "owner",
          "type": "address"
        },
        {
          "internalType": "address",
          "name": "operator",
          "type": "address"
        }
      ],
      "name": "isApprovedForAll",
      "outputs": [
        {
          "internalType": "bool",
          "name": "",
          "type": "bool"
        }
      ],
      "stateMutability": "view",
      "type": "function"
    },
    {
      "inputs": [],
      "name": "name",
      "outputs": [
        {
          "internalType": "string",
          "name": "",
          "type": "string"
        }
      ],
      "stateMutability": "view",
      "type": "function"
    },
    {
      "inputs": [],
      "name": "owner",
      "outputs": [
        {
          "internalType": "address",
          "name": "",
          "type": "address"
        }
      ],
      "stateMutability": "view",
      "type": "function"
    },
    {
      "inputs": [
        {
          "internalType": "uint256",
          "name": "tokenId",
          "type": "uint256"
        }
      ],
      "name": "ownerOf",
      "outputs": [
        {
          "internalType": "address",
          "name": "",
          "type": "address"
        }
      ],
      "stateMutability": "view",
      "type": "function"
    },
    {
      "inputs": [
        {
          "internalType": "string",
          "name": "text",
          "type": "string"
        }
      ],
      "name": "publishPost",
      "outputs": [
        {
          "internalType": "uint256",
          "name": "",
          "type": "uint256"
        }
      ],
      "stateMutability": "nonpayable",
      "type": "function"
    },
    {
      "inputs": [],
      "name": "renounceOwnership",
      "outputs": [],
      "stateMutability": "nonpayable",
      "type": "function"
    },
    {
      "inputs": [
        {
          "internalType": "address",
          "name": "from",
          "type": "address"
        },
        {
          "internalType": "address",
          "name": "to",
          "type": "address"
        },
        {
          "internalType": "uint256",
          "name": "tokenId",
          "type": "uint256"
        }
      ],
      "name": "safeTransferFrom",
      "outputs": [],
      "stateMutability": "nonpayable",
      "type": "function"
    },
    {
      "inputs": [
        {
          "internalType": "address",
          "name": "from",
          "type": "address"
        },
        {
          "internalType": "address",
          "name": "to",
          "type": "address"
        },
        {
          "internalType": "uint256",
          "name": "tokenId",
          "type": "uint256"
        },
        {
          "internalType": "bytes",
          "name": "_data",
          "type": "bytes"
        }
      ],
      "name": "safeTransferFrom",
      "outputs": [],
      "stateMutability": "nonpayable",
      "type": "function"
    },
    {
      "inputs": [
        {
          "internalType": "address",
          "name": "operator",
          "type": "address"
        },
        {
          "internalType": "bool",
          "name": "approved",
          "type": "bool"
        }
      ],
      "name": "setApprovalForAll",
      "outputs": [],
      "stateMutability": "nonpayable",
      "type": "function"
    },
    {
      "inputs": [
        {
          "internalType": "string",
          "name": "baseURI_",
          "type": "string"
        }
      ],
      "name": "setBaseURI",
      "outputs": [],
      "stateMutability": "nonpayable",
      "type": "function"
    },
    {
      "inputs": [
        {
          "internalType": "uint256",
          "name": "burnPct",
          "type": "uint256"
        }
      ],
      "name": "setBurnPct",
      "outputs": [],
      "stateMutability": "nonpayable",
      "type": "function"
    },
    {
      "inputs": [
        {
          "internalType": "uint256",
          "name": "maxChars",
          "type": "uint256"
        }
      ],
      "name": "setMaxChars",
      "outputs": [],
      "stateMutability": "nonpayable",
      "type": "function"
    },
    {
      "inputs": [
        {
          "internalType": "address",
          "name": "poh",
          "type": "address"
        }
      ],
      "name": "setPOH",
      "outputs": [],
      "stateMutability": "nonpayable",
      "type": "function"
    },
    {
      "inputs": [
        {
          "internalType": "uint256",
          "name": "treasuryPct",
          "type": "uint256"
        }
      ],
      "name": "setTreasuryPct",
      "outputs": [],
      "stateMutability": "nonpayable",
      "type": "function"
    },
    {
      "inputs": [
        {
          "internalType": "address",
          "name": "ubi",
          "type": "address"
        }
      ],
      "name": "setUBI",
      "outputs": [],
      "stateMutability": "nonpayable",
      "type": "function"
    },
    {
      "inputs": [
        {
          "internalType": "uint256",
          "name": "tokenId",
          "type": "uint256"
        },
        {
          "internalType": "uint256",
          "name": "ubiAmount",
          "type": "uint256"
        }
      ],
      "name": "support",
      "outputs": [],
      "stateMutability": "nonpayable",
      "type": "function"
    },
    {
      "inputs": [
        {
          "internalType": "bytes4",
          "name": "interfaceId",
          "type": "bytes4"
        }
      ],
      "name": "supportsInterface",
      "outputs": [
        {
          "internalType": "bool",
          "name": "",
          "type": "bool"
        }
      ],
      "stateMutability": "view",
      "type": "function"
    },
    {
      "inputs": [],
      "name": "symbol",
      "outputs": [
        {
          "internalType": "string",
          "name": "",
          "type": "string"
        }
      ],
      "stateMutability": "view",
      "type": "function"
    },
    {
      "inputs": [
        {
          "internalType": "uint256",
          "name": "tokenId",
          "type": "uint256"
        }
      ],
      "name": "tokenURI",
      "outputs": [
        {
          "internalType": "string",
          "name": "",
          "type": "string"
        }
      ],
      "stateMutability": "view",
      "type": "function"
    },
    {
      "inputs": [
        {
          "internalType": "address",
          "name": "from",
          "type": "address"
        },
        {
          "internalType": "address",
          "name": "to",
          "type": "address"
        },
        {
          "internalType": "uint256",
          "name": "tokenId",
          "type": "uint256"
        }
      ],
      "name": "transferFrom",
      "outputs": [],
      "stateMutability": "nonpayable",
      "type": "function"
    },
    {
      "inputs": [
        {
          "internalType": "address",
          "name": "newOwner",
          "type": "address"
        }
      ],
      "name": "transferOwnership",
      "outputs": [],
      "stateMutability": "nonpayable",
      "type": "function"
    }
  ],
  "bytecode": "0x608060405234801561001057600080fd5b50612890806100206000396000f3fe608060405234801561001057600080fd5b506004361061020b5760003560e01c80636e02007d1161012a578063b88d4fde116100bd578063cfe1c8a21161008c578063e18709f011610071578063e18709f014610420578063e985e9c514610433578063f2fde38b146104465761020b565b8063cfe1c8a214610283578063d13f90b41461040d5761020b565b8063b88d4fde146103c1578063c51a2bba146103d4578063c5719463146103e7578063c87b56dd146103fa5761020b565b80639588cdb3116100f95780639588cdb31461038057806395d89b41146103935780639be56c671461039b578063a22cb465146103ae5761020b565b80636e02007d1461035557806370a082311461035d578063715018a6146103705780638da5cb5b146103785761020b565b80633a759157116101a25780635cfd70bf116101715780635cfd70bf146103145780636352211e1461032757806367b7793d1461033a57806368bed9e3146103425761020b565b80633a759157146102c657806340731c24146102ce57806342842e0e146102ee57806355f804b3146103015761020b565b8063097377ec116101de578063097377ec146102835780631a8d8d181461029857806323b872dd146102ab578063365b96e4146102be5761020b565b806301ffc9a71461021057806306fdde0314610239578063081812fc1461024e578063095ea7b31461026e575b600080fd5b61022361021e366004611f78565b610459565b6040516102309190612117565b60405180910390f35b6102416104d3565b6040516102309190612122565b61026161025c366004611ff6565b610565565b604051610230919061208a565b61028161027c366004611f33565b6105b1565b005b61028b610649565b6040516102309190612718565b6102816102a6366004611ff6565b61064f565b6102816102b9366004611dfd565b610693565b6102616106cb565b6102616106da565b6102e16102dc366004611ff6565b6106e9565b6040516102309190612701565b6102816102fc366004611dfd565b610746565b61028161030f366004611fb0565b610761565b61028b61032236600461200e565b6107b7565b610261610335366004611ff6565b6107e4565b61028b610819565b610281610350366004611db1565b61081f565b61028b610880565b61028b61036b366004611db1565b610886565b6102816108ca565b610261610953565b61028161038e366004611ff6565b610962565b6102416109a6565b6102816103a936600461200e565b6109b5565b6102816103bc366004611efd565b610bad565b6102816103cf366004611e38565b610c7b565b6102816103e2366004611ff6565b610cba565b61028b6103f5366004611fb0565b610cfe565b610241610408366004611ff6565b610ee6565b61028161041b366004611eb1565b610f69565b61028161042e366004611db1565b6110a2565b610223610441366004611dcb565b611103565b610281610454366004611db1565b611131565b60006001600160e01b031982167f80ac58cd0000000000000000000000000000000000000000000000000000000014806104bc57506001600160e01b031982167f5b5e139f00000000000000000000000000000000000000000000000000000000145b806104cb57506104cb826111f2565b90505b919050565b6060609780546104e290612790565b80601f016020809104026020016040519081016040528092919081815260200182805461050e90612790565b801561055b5780601f106105305761010080835404028352916020019161055b565b820191906000526020600020905b81548152906001019060200180831161053e57829003601f168201915b5050505050905090565b600061057082611224565b6105955760405162461bcd60e51b815260040161058c906124af565b60405180910390fd5b506000908152609b60205260409020546001600160a01b031690565b60006105bc826107e4565b9050806001600160a01b0316836001600160a01b031614156105f05760405162461bcd60e51b815260040161058c906125ea565b806001600160a01b0316610602611241565b6001600160a01b0316148061061e575061061e81610441611241565b61063a5760405162461bcd60e51b815260040161058c90612306565b6106448383611245565b505050565b60d05490565b610657611241565b6001600160a01b0316610668610953565b6001600160a01b03161461068e5760405162461bcd60e51b815260040161058c906124fb565b60cf55565b6106a461069e611241565b826112b3565b6106c05760405162461bcd60e51b815260040161058c90612647565b610644838383611338565b60cb546001600160a01b031690565b60cc546001600160a01b031690565b6106f1611c77565b816106fb81611224565b6107175760405162461bcd60e51b815260040161058c9061258d565b600083815260c96020908152604091829020825180840190935280548352600101549082015291505b50919050565b61064483838360405180602001604052806000815250610c7b565b610769611241565b6001600160a01b031661077a610953565b6001600160a01b0316146107a05760405162461bcd60e51b815260040161058c906124fb565b80516107b39060d2906020840190611c91565b5050565b600081156107de576107d182670de0b6b3a7640000612739565b6107db9084612739565b90505b92915050565b6000818152609960205260408120546001600160a01b0316806104cb5760405162461bcd60e51b815260040161058c906123c0565b60cf5490565b610827611241565b6001600160a01b0316610838610953565b6001600160a01b03161461085e5760405162461bcd60e51b815260040161058c906124fb565b60cb80546001600160a01b0319166001600160a01b0392909216919091179055565b60ce5490565b60006001600160a01b0382166108ae5760405162461bcd60e51b815260040161058c90612363565b506001600160a01b03166000908152609a602052604090205490565b6108d2611241565b6001600160a01b03166108e3610953565b6001600160a01b0316146109095760405162461bcd60e51b815260040161058c906124fb565b6033546040516000916001600160a01b0316907f8be0079c531659141344cd1fd0a4f28419497f9722a3daafe3b4186f6b6457e0908390a3603380546001600160a01b0319169055565b6033546001600160a01b031690565b61096a611241565b6001600160a01b031661097b610953565b6001600160a01b0316146109a15760405162461bcd60e51b815260040161058c906124fb565b60d155565b6060609880546104e290612790565b816109bf81611224565b6109db5760405162461bcd60e51b815260040161058c9061258d565b6109e4836107e4565b6001600160a01b03166109f5611241565b6001600160a01b031614156040518060400160405280601981526020017f43414e545f535550504f52545f53454c465f434f4e54454e540000000000000081525090610a545760405162461bcd60e51b815260040161058c9190612122565b506000806000610a6385611465565b919450925090508215610ada5760cc546001600160a01b03166379cc6790610a89611241565b856040518363ffffffff1660e01b8152600401610aa79291906120fe565b600060405180830381600087803b158015610ac157600080fd5b505af1158015610ad5573d6000803e3d6000fd5b505050505b8115610af85760405162461bcd60e51b815260040161058c906126a4565b8015610b935760cc546001600160a01b03166323b872dd610b17611241565b610b20896107e4565b846040518463ffffffff1660e01b8152600401610b3f9392919061209e565b602060405180830381600087803b158015610b5957600080fd5b505af1158015610b6d573d6000803e3d6000fd5b505050506040513d601f19601f82011682018060405250810190610b919190611f5c565b505b610ba58686610ba0611241565b6114a3565b505050505050565b610bb5611241565b6001600160a01b0316826001600160a01b03161415610be65760405162461bcd60e51b815260040161058c90612283565b80609c6000610bf3611241565b6001600160a01b03908116825260208083019390935260409182016000908120918716808252919093529120805460ff191692151592909217909155610c37611241565b6001600160a01b03167f17307eab39ab6107e8899845ad3d59bd9653f200f220920489ca2b5937696c3183604051610c6f9190612117565b60405180910390a35050565b610c8c610c86611241565b836112b3565b610ca85760405162461bcd60e51b815260040161058c90612647565b610cb484848484611547565b50505050565b610cc2611241565b6001600160a01b0316610cd3610953565b6001600160a01b031614610cf95760405162461bcd60e51b815260040161058c906124fb565b60d055565b6000610d08611241565b60cb546040517fc3c5a5470000000000000000000000000000000000000000000000000000000081526001600160a01b039091169063c3c5a54790610d5190849060040161208a565b60206040518083038186803b158015610d6957600080fd5b505afa158015610d7d573d6000803e3d6000fd5b505050506040513d601f19601f82011682018060405250810190610da19190611f5c565b6040518060400160405280601481526020017f48554d414e5f4e4f545f5245474953544552454400000000000000000000000081525090610df55760405162461bcd60e51b815260040161058c9190612122565b5060cf54835111156040518060400160405280601281526020017f504f53545f544558545f544f4f5f4c4f4e47000000000000000000000000000081525090610e515760405162461bcd60e51b815260040161058c9190612122565b5060ce54610e66610e60611241565b8261157a565b6040805180820190915260008082526020820152610e848282611594565b60ce54610e92906001612721565b60ce5581610e9e611241565b6001600160a01b03167fd8c86c7877c3f1f8a40af6cf64a11fe867af887f2a1ad31aac849e36730425b087604051610ed69190612122565b60405180910390a3509392505050565b6060610ef182611224565b610f0d5760405162461bcd60e51b815260040161058c9061258d565b6000610f176115db565b90506000815111610f375760405180602001604052806000815250610f62565b80610f41846115ea565b604051602001610f5292919061205b565b6040516020818303038152906040525b9392505050565b600054610100900460ff1680610f82575060005460ff16155b610f9e5760405162461bcd60e51b815260040161058c9061241d565b600054610100900460ff16158015610fc9576000805460ff1961ff0019909116610100171660011790555b61103d6040518060400160405280600581526020017f506f7374610000000000000000000000000000000000000000000000000000008152506040518060400160405280600581526020017f504f535441000000000000000000000000000000000000000000000000000000815250611739565b6110456117c9565b600060ce5560cb80546001600160a01b038089166001600160a01b03199283161790925560cc80549288169290911691909117905560cf84905560d083905560d18290558015610ba5576000805461ff0019169055505050505050565b6110aa611241565b6001600160a01b03166110bb610953565b6001600160a01b0316146110e15760405162461bcd60e51b815260040161058c906124fb565b60cc80546001600160a01b0319166001600160a01b0392909216919091179055565b6001600160a01b039182166000908152609c6020908152604080832093909416825291909152205460ff1690565b611139611241565b6001600160a01b031661114a610953565b6001600160a01b0316146111705760405162461bcd60e51b815260040161058c906124fb565b6001600160a01b0381166111965760405162461bcd60e51b815260040161058c90612192565b6033546040516001600160a01b038084169216907f8be0079c531659141344cd1fd0a4f28419497f9722a3daafe3b4186f6b6457e090600090a3603380546001600160a01b0319166001600160a01b0392909216919091179055565b6001600160e01b031981167f01ffc9a70000000000000000000000000000000000000000000000000000000014919050565b6000908152609960205260409020546001600160a01b0316151590565b3390565b6000818152609b6020526040902080546001600160a01b0319166001600160a01b038416908117909155819061127a826107e4565b6001600160a01b03167f8c5be1e5ebec7d5bd14f71427d1e84f3dd0314c0f7b2291e5b200ac8c7c3b92560405160405180910390a45050565b60006112be82611224565b6112da5760405162461bcd60e51b815260040161058c906122ba565b60006112e5836107e4565b9050806001600160a01b0316846001600160a01b031614806113205750836001600160a01b031661131584610565565b6001600160a01b0316145b8061133057506113308185611103565b949350505050565b826001600160a01b031661134b826107e4565b6001600160a01b0316146113715760405162461bcd60e51b815260040161058c90612530565b6001600160a01b0382166113975760405162461bcd60e51b815260040161058c90612226565b6113a2838383610644565b6113ad600082611245565b6001600160a01b0383166000908152609a602052604081208054600192906113d690849061274d565b90915550506001600160a01b0382166000908152609a60205260408120805460019290611404908490612721565b909155505060008181526099602052604080822080546001600160a01b0319166001600160a01b0386811691821790925591518493918716917fddf252ad1be2c89b69c2b068fc378daa952ba7f163c4a11628f55a4df523b3ef91a4505050565b60008060006114768460d0546107b7565b92506114848460d1546107b7565b915081611491848661274d565b61149b919061274d565b929491935050565b600083815260c96020526040812080548492906114c1908490612721565b9091555050600083815260ca602090815260408083206001600160a01b038516845290915290205460ff1661064457600083815260ca602090815260408083206001600160a01b03851684528252808320805460ff1916600190811790915586845260c99092528220810180549192909161153d908490612721565b9091555050505050565b611552848484611338565b61155e8484848461184e565b610cb45760405162461bcd60e51b815260040161058c90612135565b6107b3828260405180602001604052806000815250611982565b8161159e81611224565b6115ba5760405162461bcd60e51b815260040161058c9061258d565b50600091825260c96020908152604090922081518155910151600190910155565b606060d280546104e290612790565b60608161162b575060408051808201909152600181527f300000000000000000000000000000000000000000000000000000000000000060208201526104ce565b8160005b8115611655578061163f816127c5565b915061164e9050600a83612739565b915061162f565b60008167ffffffffffffffff81111561167e57634e487b7160e01b600052604160045260246000fd5b6040519080825280601f01601f1916602001820160405280156116a8576020820181803683370190505b5090505b8415611330576116bd60018361274d565b91506116ca600a866127e0565b6116d5906030612721565b60f81b8183815181106116f857634e487b7160e01b600052603260045260246000fd5b60200101907effffffffffffffffffffffffffffffffffffffffffffffffffffffffffffff1916908160001a905350611732600a86612739565b94506116ac565b600054610100900460ff1680611752575060005460ff16155b61176e5760405162461bcd60e51b815260040161058c9061241d565b600054610100900460ff16158015611799576000805460ff1961ff0019909116610100171660011790555b6117a16119b5565b6117a96119b5565b6117b38383611a28565b8015610644576000805461ff0019169055505050565b600054610100900460ff16806117e2575060005460ff16155b6117fe5760405162461bcd60e51b815260040161058c9061241d565b600054610100900460ff16158015611829576000805460ff1961ff0019909116610100171660011790555b6118316119b5565b611839611ac6565b801561184b576000805461ff00191690555b50565b6000611862846001600160a01b0316611b92565b1561197757836001600160a01b031663150b7a0261187e611241565b8786866040518563ffffffff1660e01b81526004016118a094939291906120c2565b602060405180830381600087803b1580156118ba57600080fd5b505af19250505080156118ea575060408051601f3d908101601f191682019092526118e791810190611f94565b60015b611944573d808015611918576040519150601f19603f3d011682016040523d82523d6000602084013e61191d565b606091505b50805161193c5760405162461bcd60e51b815260040161058c90612135565b805181602001fd5b6001600160e01b0319167f150b7a0200000000000000000000000000000000000000000000000000000000149050611330565b506001949350505050565b61198c8383611b98565b611999600084848461184e565b6106445760405162461bcd60e51b815260040161058c90612135565b600054610100900460ff16806119ce575060005460ff16155b6119ea5760405162461bcd60e51b815260040161058c9061241d565b600054610100900460ff16158015611839576000805460ff1961ff001990911661010017166001179055801561184b576000805461ff001916905550565b600054610100900460ff1680611a41575060005460ff16155b611a5d5760405162461bcd60e51b815260040161058c9061241d565b600054610100900460ff16158015611a88576000805460ff1961ff0019909116610100171660011790555b8251611a9b906097906020860190611c91565b508151611aaf906098906020850190611c91565b508015610644576000805461ff0019169055505050565b600054610100900460ff1680611adf575060005460ff16155b611afb5760405162461bcd60e51b815260040161058c9061241d565b600054610100900460ff16158015611b26576000805460ff1961ff0019909116610100171660011790555b6000611b30611241565b603380546001600160a01b0319166001600160a01b038316908117909155604051919250906000907f8be0079c531659141344cd1fd0a4f28419497f9722a3daafe3b4186f6b6457e0908290a350801561184b576000805461ff001916905550565b3b151590565b6001600160a01b038216611bbe5760405162461bcd60e51b815260040161058c9061247a565b611bc781611224565b15611be45760405162461bcd60e51b815260040161058c906121ef565b611bf060008383610644565b6001600160a01b0382166000908152609a60205260408120805460019290611c19908490612721565b909155505060008181526099602052604080822080546001600160a01b0319166001600160a01b03861690811790915590518392907fddf252ad1be2c89b69c2b068fc378daa952ba7f163c4a11628f55a4df523b3ef908290a45050565b604051806040016040528060008152602001600081525090565b828054611c9d90612790565b90600052602060002090601f016020900481019282611cbf5760008555611d05565b82601f10611cd857805160ff1916838001178555611d05565b82800160010185558215611d05579182015b82811115611d05578251825591602001919060010190611cea565b50611d11929150611d15565b5090565b5b80821115611d115760008155600101611d16565b600067ffffffffffffffff80841115611d4557611d45612820565b604051601f8501601f191681016020018281118282101715611d6957611d69612820565b604052848152915081838501861015611d8157600080fd5b8484602083013760006020868301015250509392505050565b80356001600160a01b03811681146104ce57600080fd5b600060208284031215611dc2578081fd5b6107db82611d9a565b60008060408385031215611ddd578081fd5b611de683611d9a565b9150611df460208401611d9a565b90509250929050565b600080600060608486031215611e11578081fd5b611e1a84611d9a565b9250611e2860208501611d9a565b9150604084013590509250925092565b60008060008060808587031215611e4d578081fd5b611e5685611d9a565b9350611e6460208601611d9a565b925060408501359150606085013567ffffffffffffffff811115611e86578182fd5b8501601f81018713611e96578182fd5b611ea587823560208401611d2a565b91505092959194509250565b600080600080600060a08688031215611ec8578081fd5b611ed186611d9a565b9450611edf60208701611d9a565b94979496505050506040830135926060810135926080909101359150565b60008060408385031215611f0f578182fd5b611f1883611d9a565b91506020830135611f2881612836565b809150509250929050565b60008060408385031215611f45578182fd5b611f4e83611d9a565b946020939093013593505050565b600060208284031215611f6d578081fd5b8151610f6281612836565b600060208284031215611f89578081fd5b8135610f6281612844565b600060208284031215611fa5578081fd5b8151610f6281612844565b600060208284031215611fc1578081fd5b813567ffffffffffffffff811115611fd7578182fd5b8201601f81018413611fe7578182fd5b61133084823560208401611d2a565b600060208284031215612007578081fd5b5035919050565b60008060408385031215612020578182fd5b50508035926020909101359150565b60008151808452612047816020860160208601612764565b601f01601f19169290920160200192915050565b6000835161206d818460208801612764565b835190830190612081818360208801612764565b01949350505050565b6001600160a01b0391909116815260200190565b6001600160a01b039384168152919092166020820152604081019190915260600190565b60006001600160a01b038087168352808616602084015250836040830152608060608301526120f4608083018461202f565b9695505050505050565b6001600160a01b03929092168252602082015260400190565b901515815260200190565b6000602082526107db602083018461202f565b60208082526032908201527f4552433732313a207472616e7366657220746f206e6f6e20455243373231526560408201527f63656976657220696d706c656d656e7465720000000000000000000000000000606082015260800190565b60208082526026908201527f4f776e61626c653a206e6577206f776e657220697320746865207a65726f206160408201527f6464726573730000000000000000000000000000000000000000000000000000606082015260800190565b6020808252601c908201527f4552433732313a20746f6b656e20616c7265616479206d696e74656400000000604082015260600190565b60208082526024908201527f4552433732313a207472616e7366657220746f20746865207a65726f2061646460408201527f7265737300000000000000000000000000000000000000000000000000000000606082015260800190565b60208082526019908201527f4552433732313a20617070726f766520746f2063616c6c657200000000000000604082015260600190565b6020808252602c908201527f4552433732313a206f70657261746f7220717565727920666f72206e6f6e657860408201526b34b9ba32b73a103a37b5b2b760a11b606082015260800190565b60208082526038908201527f4552433732313a20617070726f76652063616c6c6572206973206e6f74206f7760408201527f6e6572206e6f7220617070726f76656420666f7220616c6c0000000000000000606082015260800190565b6020808252602a908201527f4552433732313a2062616c616e636520717565727920666f7220746865207a6560408201527f726f206164647265737300000000000000000000000000000000000000000000606082015260800190565b60208082526029908201527f4552433732313a206f776e657220717565727920666f72206e6f6e657869737460408201527f656e7420746f6b656e0000000000000000000000000000000000000000000000606082015260800190565b6020808252602e908201527f496e697469616c697a61626c653a20636f6e747261637420697320616c72656160408201527f647920696e697469616c697a6564000000000000000000000000000000000000606082015260800190565b6020808252818101527f4552433732313a206d696e7420746f20746865207a65726f2061646472657373604082015260600190565b6020808252602c908201527f4552433732313a20617070726f76656420717565727920666f72206e6f6e657860408201526b34b9ba32b73a103a37b5b2b760a11b606082015260800190565b6020808252818101527f4f776e61626c653a2063616c6c6572206973206e6f7420746865206f776e6572604082015260600190565b60208082526029908201527f4552433732313a207472616e73666572206f6620746f6b656e2074686174206960408201527f73206e6f74206f776e0000000000000000000000000000000000000000000000606082015260800190565b6020808252602f908201527f4552433732314d657461646174613a2055524920717565727920666f72206e6f60408201527f6e6578697374656e7420746f6b656e0000000000000000000000000000000000606082015260800190565b60208082526021908201527f4552433732313a20617070726f76616c20746f2063757272656e74206f776e6560408201527f7200000000000000000000000000000000000000000000000000000000000000606082015260800190565b60208082526031908201527f4552433732313a207472616e736665722063616c6c6572206973206e6f74206f60408201527f776e6572206e6f7220617070726f766564000000000000000000000000000000606082015260800190565b60208082526034908201527f506f737461205472656173757279206e6f7420696d706c656d656e7465642e2060408201527f53657420747265617375727950637420746f2030000000000000000000000000606082015260800190565b815181526020918201519181019190915260400190565b90815260200190565b60008219821115612734576127346127f4565b500190565b6000826127485761274861280a565b500490565b60008282101561275f5761275f6127f4565b500390565b60005b8381101561277f578181015183820152602001612767565b83811115610cb45750506000910152565b6002810460018216806127a457607f821691505b6020821081141561074057634e487b7160e01b600052602260045260246000fd5b60006000198214156127d9576127d96127f4565b5060010190565b6000826127ef576127ef61280a565b500690565b634e487b7160e01b600052601160045260246000fd5b634e487b7160e01b600052601260045260246000fd5b634e487b7160e01b600052604160045260246000fd5b801515811461184b57600080fd5b6001600160e01b03198116811461184b57600080fdfea26469706673582212201d7117484b41d040800aa8be65065b535533cf64179d4c0e01cfa462e1a8a5a664736f6c63430008000033",
  "linkReferences": {},
  "deployedLinkReferences": {}
}