{
  "contractName": "Posta",
  "abi": [
    {
      "inputs": [
        {
          "internalType": "address",
          "name": "poh",
          "type": "address"
        },
        {
          "internalType": "address",
          "name": "ubi",
          "type": "address"
        }
      ],
      "stateMutability": "nonpayable",
      "type": "constructor"
    },
    {
      "anonymous": false,
      "inputs": [
        {
          "indexed": true,
          "internalType": "address",
          "name": "owner",
          "type": "address"
        },
        {
          "indexed": true,
          "internalType": "address",
          "name": "approved",
          "type": "address"
        },
        {
          "indexed": true,
          "internalType": "uint256",
          "name": "tokenId",
          "type": "uint256"
        }
      ],
      "name": "Approval",
      "type": "event"
    },
    {
      "anonymous": false,
      "inputs": [
        {
          "indexed": true,
          "internalType": "address",
          "name": "owner",
          "type": "address"
        },
        {
          "indexed": true,
          "internalType": "address",
          "name": "operator",
          "type": "address"
        },
        {
          "indexed": false,
          "internalType": "bool",
          "name": "approved",
          "type": "bool"
        }
      ],
      "name": "ApprovalForAll",
      "type": "event"
    },
    {
      "anonymous": false,
      "inputs": [
        {
          "indexed": true,
          "internalType": "address",
          "name": "author",
          "type": "address"
        },
        {
          "indexed": true,
          "internalType": "uint256",
          "name": "tokenId",
          "type": "uint256"
        },
        {
          "indexed": false,
          "internalType": "string",
          "name": "value",
          "type": "string"
        }
      ],
      "name": "NewPost",
      "type": "event"
    },
    {
      "anonymous": false,
      "inputs": [
        {
          "indexed": true,
          "internalType": "address",
          "name": "previousOwner",
          "type": "address"
        },
        {
          "indexed": true,
          "internalType": "address",
          "name": "newOwner",
          "type": "address"
        }
      ],
      "name": "OwnershipTransferred",
      "type": "event"
    },
    {
      "anonymous": false,
      "inputs": [
        {
          "indexed": true,
          "internalType": "address",
          "name": "from",
          "type": "address"
        },
        {
          "indexed": true,
          "internalType": "address",
          "name": "to",
          "type": "address"
        },
        {
          "indexed": true,
          "internalType": "uint256",
          "name": "tokenId",
          "type": "uint256"
        }
      ],
      "name": "Transfer",
      "type": "event"
    },
    {
      "inputs": [
        {
          "internalType": "address",
          "name": "to",
          "type": "address"
        },
        {
          "internalType": "uint256",
          "name": "tokenId",
          "type": "uint256"
        }
      ],
      "name": "approve",
      "outputs": [],
      "stateMutability": "nonpayable",
      "type": "function"
    },
    {
      "inputs": [
        {
          "internalType": "address",
          "name": "owner",
          "type": "address"
        }
      ],
      "name": "balanceOf",
      "outputs": [
        {
          "internalType": "uint256",
          "name": "",
          "type": "uint256"
        }
      ],
      "stateMutability": "view",
      "type": "function",
      "constant": true
    },
    {
      "inputs": [
        {
          "internalType": "uint256",
          "name": "tokenId",
          "type": "uint256"
        }
      ],
      "name": "getApproved",
      "outputs": [
        {
          "internalType": "address",
          "name": "",
          "type": "address"
        }
      ],
      "stateMutability": "view",
      "type": "function",
      "constant": true
    },
    {
      "inputs": [
        {
          "internalType": "address",
          "name": "owner",
          "type": "address"
        },
        {
          "internalType": "address",
          "name": "operator",
          "type": "address"
        }
      ],
      "name": "isApprovedForAll",
      "outputs": [
        {
          "internalType": "bool",
          "name": "",
          "type": "bool"
        }
      ],
      "stateMutability": "view",
      "type": "function",
      "constant": true
    },
    {
      "inputs": [],
      "name": "name",
      "outputs": [
        {
          "internalType": "string",
          "name": "",
          "type": "string"
        }
      ],
      "stateMutability": "view",
      "type": "function",
      "constant": true
    },
    {
      "inputs": [],
      "name": "owner",
      "outputs": [
        {
          "internalType": "address",
          "name": "",
          "type": "address"
        }
      ],
      "stateMutability": "view",
      "type": "function",
      "constant": true
    },
    {
      "inputs": [
        {
          "internalType": "uint256",
          "name": "tokenId",
          "type": "uint256"
        }
      ],
      "name": "ownerOf",
      "outputs": [
        {
          "internalType": "address",
          "name": "",
          "type": "address"
        }
      ],
      "stateMutability": "view",
      "type": "function",
      "constant": true
    },
    {
      "inputs": [],
      "name": "renounceOwnership",
      "outputs": [],
      "stateMutability": "nonpayable",
      "type": "function"
    },
    {
      "inputs": [
        {
          "internalType": "address",
          "name": "from",
          "type": "address"
        },
        {
          "internalType": "address",
          "name": "to",
          "type": "address"
        },
        {
          "internalType": "uint256",
          "name": "tokenId",
          "type": "uint256"
        }
      ],
      "name": "safeTransferFrom",
      "outputs": [],
      "stateMutability": "nonpayable",
      "type": "function"
    },
    {
      "inputs": [
        {
          "internalType": "address",
          "name": "from",
          "type": "address"
        },
        {
          "internalType": "address",
          "name": "to",
          "type": "address"
        },
        {
          "internalType": "uint256",
          "name": "tokenId",
          "type": "uint256"
        },
        {
          "internalType": "bytes",
          "name": "_data",
          "type": "bytes"
        }
      ],
      "name": "safeTransferFrom",
      "outputs": [],
      "stateMutability": "nonpayable",
      "type": "function"
    },
    {
      "inputs": [
        {
          "internalType": "address",
          "name": "operator",
          "type": "address"
        },
        {
          "internalType": "bool",
          "name": "approved",
          "type": "bool"
        }
      ],
      "name": "setApprovalForAll",
      "outputs": [],
      "stateMutability": "nonpayable",
      "type": "function"
    },
    {
      "inputs": [
        {
          "internalType": "bytes4",
          "name": "interfaceId",
          "type": "bytes4"
        }
      ],
      "name": "supportsInterface",
      "outputs": [
        {
          "internalType": "bool",
          "name": "",
          "type": "bool"
        }
      ],
      "stateMutability": "view",
      "type": "function",
      "constant": true
    },
    {
      "inputs": [],
      "name": "symbol",
      "outputs": [
        {
          "internalType": "string",
          "name": "",
          "type": "string"
        }
      ],
      "stateMutability": "view",
      "type": "function",
      "constant": true
    },
    {
      "inputs": [
        {
          "internalType": "address",
          "name": "from",
          "type": "address"
        },
        {
          "internalType": "address",
          "name": "to",
          "type": "address"
        },
        {
          "internalType": "uint256",
          "name": "tokenId",
          "type": "uint256"
        }
      ],
      "name": "transferFrom",
      "outputs": [],
      "stateMutability": "nonpayable",
      "type": "function"
    },
    {
      "inputs": [
        {
          "internalType": "address",
          "name": "newOwner",
          "type": "address"
        }
      ],
      "name": "transferOwnership",
      "outputs": [],
      "stateMutability": "nonpayable",
      "type": "function"
    },
    {
      "inputs": [
        {
          "internalType": "string",
          "name": "newTokenURI",
          "type": "string"
        },
        {
          "internalType": "string",
          "name": "text",
          "type": "string"
        }
      ],
      "name": "publishPost",
      "outputs": [
        {
          "internalType": "uint256",
          "name": "",
          "type": "uint256"
        }
      ],
      "stateMutability": "nonpayable",
      "type": "function"
    },
    {
      "inputs": [
        {
          "internalType": "string",
          "name": "baseURI_",
          "type": "string"
        }
      ],
      "name": "setBaseURI",
      "outputs": [],
      "stateMutability": "nonpayable",
      "type": "function"
    },
    {
      "inputs": [
        {
          "internalType": "uint256",
          "name": "tokenId",
          "type": "uint256"
        }
      ],
      "name": "tokenURI",
      "outputs": [
        {
          "internalType": "string",
          "name": "",
          "type": "string"
        }
      ],
      "stateMutability": "view",
      "type": "function",
      "constant": true
    },
    {
      "inputs": [],
      "name": "getTokenCounter",
      "outputs": [
        {
          "internalType": "uint256",
          "name": "",
          "type": "uint256"
        }
      ],
      "stateMutability": "view",
      "type": "function",
      "constant": true
    },
    {
      "inputs": [
        {
          "internalType": "uint256",
          "name": "tokenId",
          "type": "uint256"
        }
      ],
      "name": "getPost",
      "outputs": [
        {
          "components": [
            {
              "internalType": "string",
              "name": "tokenURI",
              "type": "string"
            },
            {
              "internalType": "uint256",
              "name": "date",
              "type": "uint256"
            },
            {
              "internalType": "uint256",
              "name": "supportGiven",
              "type": "uint256"
            },
            {
              "internalType": "uint256",
              "name": "supportersCount",
              "type": "uint256"
            }
          ],
          "internalType": "struct Posta.PostaData",
          "name": "",
          "type": "tuple"
        }
      ],
      "stateMutability": "view",
      "type": "function",
      "constant": true
    },
    {
      "inputs": [
        {
          "internalType": "uint256",
          "name": "tokenId",
          "type": "uint256"
        },
        {
          "internalType": "uint256",
          "name": "ubiAmount",
          "type": "uint256"
        }
      ],
      "name": "support",
      "outputs": [],
      "stateMutability": "nonpayable",
      "type": "function"
    }
  ],
  "bytecode": "0x60806040526040518060400160405280601481526020017f48554d414e5f4e4f545f52454749535445524544000000000000000000000000815250600790805190602001906200005192919062000270565b503480156200005f57600080fd5b5060405162003f2638038062003f26833981810160405281019062000085919062000337565b6040518060400160405280600581526020017f506f7374610000000000000000000000000000000000000000000000000000008152506040518060400160405280600481526020017f505354410000000000000000000000000000000000000000000000000000000081525081600090805190602001906200010992919062000270565b5080600190805190602001906200012292919062000270565b5050506000620001376200026860201b60201c565b905080600660006101000a81548173ffffffffffffffffffffffffffffffffffffffff021916908373ffffffffffffffffffffffffffffffffffffffff1602179055508073ffffffffffffffffffffffffffffffffffffffff16600073ffffffffffffffffffffffffffffffffffffffff167f8be0079c531659141344cd1fd0a4f28419497f9722a3daafe3b4186f6b6457e060405160405180910390a3506000600d8190555081600b60006101000a81548173ffffffffffffffffffffffffffffffffffffffff021916908373ffffffffffffffffffffffffffffffffffffffff16021790555080600860006101000a81548173ffffffffffffffffffffffffffffffffffffffff021916908373ffffffffffffffffffffffffffffffffffffffff16021790555050506200042b565b600033905090565b8280546200027e90620003ac565b90600052602060002090601f016020900481019282620002a25760008555620002ee565b82601f10620002bd57805160ff1916838001178555620002ee565b82800160010185558215620002ee579182015b82811115620002ed578251825591602001919060010190620002d0565b5b509050620002fd919062000301565b5090565b5b808211156200031c57600081600090555060010162000302565b5090565b600081519050620003318162000411565b92915050565b600080604083850312156200034b57600080fd5b60006200035b8582860162000320565b92505060206200036e8582860162000320565b9150509250929050565b600062000385826200038c565b9050919050565b600073ffffffffffffffffffffffffffffffffffffffff82169050919050565b60006002820490506001821680620003c557607f821691505b60208210811415620003dc57620003db620003e2565b5b50919050565b7f4e487b7100000000000000000000000000000000000000000000000000000000600052602260045260246000fd5b6200041c8162000378565b81146200042857600080fd5b50565b613aeb806200043b6000396000f3fe608060405234801561001057600080fd5b50600436106101375760003560e01c806370a08231116100b8578063a22cb4651161007c578063a22cb4651461033a578063b88d4fde14610356578063c87b56dd14610372578063e985e9c5146103a2578063f2fde38b146103d2578063fefb8dc3146103ee57610137565b806370a08231146102a8578063715018a6146102d85780638da5cb5b146102e257806395d89b41146103005780639be56c671461031e57610137565b806340731c24116100ff57806340731c24146101f257806342842e0e1461022257806355f804b31461023e5780636352211e1461025a5780636e02007d1461028a57610137565b806301ffc9a71461013c57806306fdde031461016c578063081812fc1461018a578063095ea7b3146101ba57806323b872dd146101d6575b600080fd5b610156600480360381019061015191906128c9565b61041e565b604051610163919061336a565b60405180910390f35b610174610500565b6040516101819190613385565b60405180910390f35b6101a4600480360381019061019f91906129f1565b610592565b6040516101b191906132a3565b60405180910390f35b6101d460048036038101906101cf9190612864565b610617565b005b6101f060048036038101906101eb919061275e565b61072f565b005b61020c600480360381019061020791906129f1565b61078f565b60405161021991906135e9565b60405180910390f35b61023c6004803603810190610237919061275e565b6108b6565b005b6102586004803603810190610253919061291b565b6108d6565b005b610274600480360381019061026f91906129f1565b61096c565b60405161028191906132a3565b60405180910390f35b610292610a1e565b60405161029f919061360b565b60405180910390f35b6102c260048036038101906102bd91906126f9565b610a28565b6040516102cf919061360b565b60405180910390f35b6102e0610ae0565b005b6102ea610c1d565b6040516102f791906132a3565b60405180910390f35b610308610c47565b6040516103159190613385565b60405180910390f35b61033860048036038101906103339190612a1a565b610cd9565b005b610354600480360381019061034f9190612828565b610f0e565b005b610370600480360381019061036b91906127ad565b61108f565b005b61038c600480360381019061038791906129f1565b6110f1565b6040516103999190613385565b60405180910390f35b6103bc60048036038101906103b79190612722565b6112a4565b6040516103c9919061336a565b60405180910390f35b6103ec60048036038101906103e791906126f9565b611338565b005b6104086004803603810190610403919061295c565b6114e4565b604051610415919061360b565b60405180910390f35b60007f80ac58cd000000000000000000000000000000000000000000000000000000007bffffffffffffffffffffffffffffffffffffffffffffffffffffffff1916827bffffffffffffffffffffffffffffffffffffffffffffffffffffffff191614806104e957507f5b5e139f000000000000000000000000000000000000000000000000000000007bffffffffffffffffffffffffffffffffffffffffffffffffffffffff1916827bffffffffffffffffffffffffffffffffffffffffffffffffffffffff1916145b806104f957506104f8826116a7565b5b9050919050565b60606000805461050f906138b2565b80601f016020809104026020016040519081016040528092919081815260200182805461053b906138b2565b80156105885780601f1061055d57610100808354040283529160200191610588565b820191906000526020600020905b81548152906001019060200180831161056b57829003601f168201915b5050505050905090565b600061059d82611711565b6105dc576040517f08c379a00000000000000000000000000000000000000000000000000000000081526004016105d390613509565b60405180910390fd5b6004600083815260200190815260200160002060009054906101000a900473ffffffffffffffffffffffffffffffffffffffff169050919050565b60006106228261096c565b90508073ffffffffffffffffffffffffffffffffffffffff168373ffffffffffffffffffffffffffffffffffffffff161415610693576040517f08c379a000000000000000000000000000000000000000000000000000000000815260040161068a90613589565b60405180910390fd5b8073ffffffffffffffffffffffffffffffffffffffff166106b261177d565b73ffffffffffffffffffffffffffffffffffffffff1614806106e157506106e0816106db61177d565b6112a4565b5b610720576040517f08c379a000000000000000000000000000000000000000000000000000000000815260040161071790613489565b60405180910390fd5b61072a8383611785565b505050565b61074061073a61177d565b8261183e565b61077f576040517f08c379a0000000000000000000000000000000000000000000000000000000008152600401610776906135a9565b60405180910390fd5b61078a83838361191c565b505050565b610797612405565b816107a181611711565b6107e0576040517f08c379a00000000000000000000000000000000000000000000000000000000081526004016107d790613569565b60405180910390fd5b6009600084815260200190815260200160002060405180608001604052908160008201805461080e906138b2565b80601f016020809104026020016040519081016040528092919081815260200182805461083a906138b2565b80156108875780601f1061085c57610100808354040283529160200191610887565b820191906000526020600020905b81548152906001019060200180831161086a57829003601f168201915b505050505081526020016001820154815260200160028201548152602001600382015481525050915050919050565b6108d18383836040518060200160405280600081525061108f565b505050565b6108de61177d565b73ffffffffffffffffffffffffffffffffffffffff166108fc610c1d565b73ffffffffffffffffffffffffffffffffffffffff1614610952576040517f08c379a000000000000000000000000000000000000000000000000000000000815260040161094990613529565b60405180910390fd5b80600c908051906020019061096892919061242d565b5050565b6000806002600084815260200190815260200160002060009054906101000a900473ffffffffffffffffffffffffffffffffffffffff169050600073ffffffffffffffffffffffffffffffffffffffff168173ffffffffffffffffffffffffffffffffffffffff161415610a15576040517f08c379a0000000000000000000000000000000000000000000000000000000008152600401610a0c906134c9565b60405180910390fd5b80915050919050565b6000600d54905090565b60008073ffffffffffffffffffffffffffffffffffffffff168273ffffffffffffffffffffffffffffffffffffffff161415610a99576040517f08c379a0000000000000000000000000000000000000000000000000000000008152600401610a90906134a9565b60405180910390fd5b600360008373ffffffffffffffffffffffffffffffffffffffff1673ffffffffffffffffffffffffffffffffffffffff168152602001908152602001600020549050919050565b610ae861177d565b73ffffffffffffffffffffffffffffffffffffffff16610b06610c1d565b73ffffffffffffffffffffffffffffffffffffffff1614610b5c576040517f08c379a0000000000000000000000000000000000000000000000000000000008152600401610b5390613529565b60405180910390fd5b600073ffffffffffffffffffffffffffffffffffffffff16600660009054906101000a900473ffffffffffffffffffffffffffffffffffffffff1673ffffffffffffffffffffffffffffffffffffffff167f8be0079c531659141344cd1fd0a4f28419497f9722a3daafe3b4186f6b6457e060405160405180910390a36000600660006101000a81548173ffffffffffffffffffffffffffffffffffffffff021916908373ffffffffffffffffffffffffffffffffffffffff160217905550565b6000600660009054906101000a900473ffffffffffffffffffffffffffffffffffffffff16905090565b606060018054610c56906138b2565b80601f0160208091040260200160405190810160405280929190818152602001828054610c82906138b2565b8015610ccf5780601f10610ca457610100808354040283529160200191610ccf565b820191906000526020600020905b815481529060010190602001808311610cb257829003601f168201915b5050505050905090565b81610ce381611711565b610d22576040517f08c379a0000000000000000000000000000000000000000000000000000000008152600401610d1990613569565b60405180910390fd5b6000610d38600284611b7890919063ffffffff16565b905060008111610d7d576040517f08c379a0000000000000000000000000000000000000000000000000000000008152600401610d74906135c9565b60405180910390fd5b600860009054906101000a900473ffffffffffffffffffffffffffffffffffffffff1673ffffffffffffffffffffffffffffffffffffffff166379cc6790610dc361177d565b836040518363ffffffff1660e01b8152600401610de1929190613341565b600060405180830381600087803b158015610dfb57600080fd5b505af1158015610e0f573d6000803e3d6000fd5b505050506000610e288285611b8e90919063ffffffff16565b90506000811115610ef557600860009054906101000a900473ffffffffffffffffffffffffffffffffffffffff1673ffffffffffffffffffffffffffffffffffffffff166323b872dd610e7961177d565b610e828861096c565b846040518463ffffffff1660e01b8152600401610ea1939291906132be565b602060405180830381600087803b158015610ebb57600080fd5b505af1158015610ecf573d6000803e3d6000fd5b505050506040513d601f19601f82011682018060405250810190610ef391906128a0565b505b610f078585610f0261177d565b611ba4565b5050505050565b610f1661177d565b73ffffffffffffffffffffffffffffffffffffffff168273ffffffffffffffffffffffffffffffffffffffff161415610f84576040517f08c379a0000000000000000000000000000000000000000000000000000000008152600401610f7b90613449565b60405180910390fd5b8060056000610f9161177d565b73ffffffffffffffffffffffffffffffffffffffff1673ffffffffffffffffffffffffffffffffffffffff16815260200190815260200160002060008473ffffffffffffffffffffffffffffffffffffffff1673ffffffffffffffffffffffffffffffffffffffff16815260200190815260200160002060006101000a81548160ff0219169083151502179055508173ffffffffffffffffffffffffffffffffffffffff1661103e61177d565b73ffffffffffffffffffffffffffffffffffffffff167f17307eab39ab6107e8899845ad3d59bd9653f200f220920489ca2b5937696c3183604051611083919061336a565b60405180910390a35050565b6110a061109a61177d565b8361183e565b6110df576040517f08c379a00000000000000000000000000000000000000000000000000000000081526004016110d6906135a9565b60405180910390fd5b6110eb84848484611cd4565b50505050565b6060816110fd81611711565b61113c576040517f08c379a000000000000000000000000000000000000000000000000000000000815260040161113390613569565b60405180910390fd5b60006009600085815260200190815260200160002060405180608001604052908160008201805461116c906138b2565b80601f0160208091040260200160405190810160405280929190818152602001828054611198906138b2565b80156111e55780601f106111ba576101008083540402835291602001916111e5565b820191906000526020600020905b8154815290600101906020018083116111c857829003601f168201915b50505050508152602001600182015481526020016002820154815260200160038201548152505090506000611218611d30565b90506000815114156112325781600001519350505061129e565b6000826000015151111561126f5780826000015160405160200161125792919061327f565b6040516020818303038152906040529350505061129e565b8061127986611dc2565b60405160200161128a92919061327f565b604051602081830303815290604052935050505b50919050565b6000600560008473ffffffffffffffffffffffffffffffffffffffff1673ffffffffffffffffffffffffffffffffffffffff16815260200190815260200160002060008373ffffffffffffffffffffffffffffffffffffffff1673ffffffffffffffffffffffffffffffffffffffff16815260200190815260200160002060009054906101000a900460ff16905092915050565b61134061177d565b73ffffffffffffffffffffffffffffffffffffffff1661135e610c1d565b73ffffffffffffffffffffffffffffffffffffffff16146113b4576040517f08c379a00000000000000000000000000000000000000000000000000000000081526004016113ab90613529565b60405180910390fd5b600073ffffffffffffffffffffffffffffffffffffffff168173ffffffffffffffffffffffffffffffffffffffff161415611424576040517f08c379a000000000000000000000000000000000000000000000000000000000815260040161141b906133e9565b60405180910390fd5b8073ffffffffffffffffffffffffffffffffffffffff16600660009054906101000a900473ffffffffffffffffffffffffffffffffffffffff1673ffffffffffffffffffffffffffffffffffffffff167f8be0079c531659141344cd1fd0a4f28419497f9722a3daafe3b4186f6b6457e060405160405180910390a380600660006101000a81548173ffffffffffffffffffffffffffffffffffffffff021916908373ffffffffffffffffffffffffffffffffffffffff16021790555050565b60006114ee61177d565b6000600b60009054906101000a900473ffffffffffffffffffffffffffffffffffffffff1673ffffffffffffffffffffffffffffffffffffffff166397973043836040518263ffffffff1660e01b815260040161154b91906132a3565b60c06040518083038186803b15801561156357600080fd5b505afa158015611577573d6000803e3d6000fd5b505050506040513d601f19601f8201168201806040525081019061159b91906129c8565b905080606001516007906115e5576040517f08c379a00000000000000000000000000000000000000000000000000000000081526004016115dc91906133a7565b60405180910390fd5b506000600d5490506115fe6115f861177d565b82611f6f565b60006040518060800160405280888152602001428152602001600081526020016000815250905061162f8282611f8d565b6001600d5461163e9190613720565b600d819055508161164d61177d565b73ffffffffffffffffffffffffffffffffffffffff167fd8c86c7877c3f1f8a40af6cf64a11fe867af887f2a1ad31aac849e36730425b0886040516116929190613385565b60405180910390a38194505050505092915050565b60007f01ffc9a7000000000000000000000000000000000000000000000000000000007bffffffffffffffffffffffffffffffffffffffffffffffffffffffff1916827bffffffffffffffffffffffffffffffffffffffffffffffffffffffff1916149050919050565b60008073ffffffffffffffffffffffffffffffffffffffff166002600084815260200190815260200160002060009054906101000a900473ffffffffffffffffffffffffffffffffffffffff1673ffffffffffffffffffffffffffffffffffffffff1614159050919050565b600033905090565b816004600083815260200190815260200160002060006101000a81548173ffffffffffffffffffffffffffffffffffffffff021916908373ffffffffffffffffffffffffffffffffffffffff160217905550808273ffffffffffffffffffffffffffffffffffffffff166117f88361096c565b73ffffffffffffffffffffffffffffffffffffffff167f8c5be1e5ebec7d5bd14f71427d1e84f3dd0314c0f7b2291e5b200ac8c7c3b92560405160405180910390a45050565b600061184982611711565b611888576040517f08c379a000000000000000000000000000000000000000000000000000000000815260040161187f90613469565b60405180910390fd5b60006118938361096c565b90508073ffffffffffffffffffffffffffffffffffffffff168473ffffffffffffffffffffffffffffffffffffffff16148061190257508373ffffffffffffffffffffffffffffffffffffffff166118ea84610592565b73ffffffffffffffffffffffffffffffffffffffff16145b80611913575061191281856112a4565b5b91505092915050565b8273ffffffffffffffffffffffffffffffffffffffff1661193c8261096c565b73ffffffffffffffffffffffffffffffffffffffff1614611992576040517f08c379a000000000000000000000000000000000000000000000000000000000815260040161198990613549565b60405180910390fd5b600073ffffffffffffffffffffffffffffffffffffffff168273ffffffffffffffffffffffffffffffffffffffff161415611a02576040517f08c379a00000000000000000000000000000000000000000000000000000000081526004016119f990613429565b60405180910390fd5b611a0d83838361202d565b611a18600082611785565b6001600360008573ffffffffffffffffffffffffffffffffffffffff1673ffffffffffffffffffffffffffffffffffffffff1681526020019081526020016000206000828254611a6891906137a7565b925050819055506001600360008473ffffffffffffffffffffffffffffffffffffffff1673ffffffffffffffffffffffffffffffffffffffff1681526020019081526020016000206000828254611abf9190613720565b92505081905550816002600083815260200190815260200160002060006101000a81548173ffffffffffffffffffffffffffffffffffffffff021916908373ffffffffffffffffffffffffffffffffffffffff160217905550808273ffffffffffffffffffffffffffffffffffffffff168473ffffffffffffffffffffffffffffffffffffffff167fddf252ad1be2c89b69c2b068fc378daa952ba7f163c4a11628f55a4df523b3ef60405160405180910390a4505050565b60008183611b869190613776565b905092915050565b60008183611b9c91906137a7565b905092915050565b600082600960008681526020019081526020016000206002016000828254611bcc9190613720565b9250508190559050600a600085815260200190815260200160002060008373ffffffffffffffffffffffffffffffffffffffff1673ffffffffffffffffffffffffffffffffffffffff16815260200190815260200160002060009054906101000a900460ff16611cce576001600a600086815260200190815260200160002060008473ffffffffffffffffffffffffffffffffffffffff1673ffffffffffffffffffffffffffffffffffffffff16815260200190815260200160002060006101000a81548160ff0219169083151502179055506001600960008681526020019081526020016000206003016000828254611cc69190613720565b925050819055505b50505050565b611cdf84848461191c565b611ceb84848484612032565b611d2a576040517f08c379a0000000000000000000000000000000000000000000000000000000008152600401611d21906133c9565b60405180910390fd5b50505050565b6060600c8054611d3f906138b2565b80601f0160208091040260200160405190810160405280929190818152602001828054611d6b906138b2565b8015611db85780601f10611d8d57610100808354040283529160200191611db8565b820191906000526020600020905b815481529060010190602001808311611d9b57829003601f168201915b5050505050905090565b60606000821415611e0a576040518060400160405280600181526020017f30000000000000000000000000000000000000000000000000000000000000008152509050611f6a565b600082905060005b60008214611e3c578080611e25906138e4565b915050600a82611e359190613776565b9150611e12565b60008167ffffffffffffffff811115611e7e577f4e487b7100000000000000000000000000000000000000000000000000000000600052604160045260246000fd5b6040519080825280601f01601f191660200182016040528015611eb05781602001600182028036833780820191505090505b5090505b60008514611f6357600182611ec991906137a7565b9150600a85611ed8919061392d565b6030611ee49190613720565b60f81b818381518110611f20577f4e487b7100000000000000000000000000000000000000000000000000000000600052603260045260246000fd5b60200101907effffffffffffffffffffffffffffffffffffffffffffffffffffffffffffff1916908160001a905350600a85611f5c9190613776565b9450611eb4565b8093505050505b919050565b611f898282604051806020016040528060008152506121c9565b5050565b81611f9781611711565b611fd6576040517f08c379a0000000000000000000000000000000000000000000000000000000008152600401611fcd90613569565b60405180910390fd5b8160096000858152602001908152602001600020600082015181600001908051906020019061200692919061242d565b50602082015181600101556040820151816002015560608201518160030155905050505050565b505050565b60006120538473ffffffffffffffffffffffffffffffffffffffff16612224565b156121bc578373ffffffffffffffffffffffffffffffffffffffff1663150b7a0261207c61177d565b8786866040518563ffffffff1660e01b815260040161209e94939291906132f5565b602060405180830381600087803b1580156120b857600080fd5b505af19250505080156120e957506040513d601f19601f820116820180604052508101906120e691906128f2565b60015b61216c573d8060008114612119576040519150601f19603f3d011682016040523d82523d6000602084013e61211e565b606091505b50600081511415612164576040517f08c379a000000000000000000000000000000000000000000000000000000000815260040161215b906133c9565b60405180910390fd5b805181602001fd5b63150b7a0260e01b7bffffffffffffffffffffffffffffffffffffffffffffffffffffffff1916817bffffffffffffffffffffffffffffffffffffffffffffffffffffffff1916149150506121c1565b600190505b949350505050565b6121d38383612237565b6121e06000848484612032565b61221f576040517f08c379a0000000000000000000000000000000000000000000000000000000008152600401612216906133c9565b60405180910390fd5b505050565b600080823b905060008111915050919050565b600073ffffffffffffffffffffffffffffffffffffffff168273ffffffffffffffffffffffffffffffffffffffff1614156122a7576040517f08c379a000000000000000000000000000000000000000000000000000000000815260040161229e906134e9565b60405180910390fd5b6122b081611711565b156122f0576040517f08c379a00000000000000000000000000000000000000000000000000000000081526004016122e790613409565b60405180910390fd5b6122fc6000838361202d565b6001600360008473ffffffffffffffffffffffffffffffffffffffff1673ffffffffffffffffffffffffffffffffffffffff168152602001908152602001600020600082825461234c9190613720565b92505081905550816002600083815260200190815260200160002060006101000a81548173ffffffffffffffffffffffffffffffffffffffff021916908373ffffffffffffffffffffffffffffffffffffffff160217905550808273ffffffffffffffffffffffffffffffffffffffff16600073ffffffffffffffffffffffffffffffffffffffff167fddf252ad1be2c89b69c2b068fc378daa952ba7f163c4a11628f55a4df523b3ef60405160405180910390a45050565b6040518060800160405280606081526020016000815260200160008152602001600081525090565b828054612439906138b2565b90600052602060002090601f01602090048101928261245b57600085556124a2565b82601f1061247457805160ff19168380011785556124a2565b828001600101855582156124a2579182015b828111156124a1578251825591602001919060010190612486565b5b5090506124af91906124b3565b5090565b5b808211156124cc5760008160009055506001016124b4565b5090565b60006124e36124de84613657565b613626565b9050828152602081018484840111156124fb57600080fd5b612506848285613870565b509392505050565b600061252161251c84613687565b613626565b90508281526020810184848401111561253957600080fd5b612544848285613870565b509392505050565b60008135905061255b81613a2b565b92915050565b60008135905061257081613a42565b92915050565b60008151905061258581613a42565b92915050565b60008135905061259a81613a59565b92915050565b6000815190506125af81613a59565b92915050565b600082601f8301126125c657600080fd5b81356125d68482602086016124d0565b91505092915050565b600082601f8301126125f057600080fd5b813561260084826020860161250e565b91505092915050565b600060c0828403121561261b57600080fd5b61262560c0613626565b90506000612635848285016126e4565b6000830152506020612649848285016126cf565b602083015250604061265d848285016126cf565b604083015250606061267184828501612576565b606083015250608061268584828501612576565b60808301525060a0612699848285016126ba565b60a08301525092915050565b6000813590506126b481613a70565b92915050565b6000815190506126c981613a70565b92915050565b6000815190506126de81613a87565b92915050565b6000815190506126f381613a9e565b92915050565b60006020828403121561270b57600080fd5b60006127198482850161254c565b91505092915050565b6000806040838503121561273557600080fd5b60006127438582860161254c565b92505060206127548582860161254c565b9150509250929050565b60008060006060848603121561277357600080fd5b60006127818682870161254c565b93505060206127928682870161254c565b92505060406127a3868287016126a5565b9150509250925092565b600080600080608085870312156127c357600080fd5b60006127d18782880161254c565b94505060206127e28782880161254c565b93505060406127f3878288016126a5565b925050606085013567ffffffffffffffff81111561281057600080fd5b61281c878288016125b5565b91505092959194509250565b6000806040838503121561283b57600080fd5b60006128498582860161254c565b925050602061285a85828601612561565b9150509250929050565b6000806040838503121561287757600080fd5b60006128858582860161254c565b9250506020612896858286016126a5565b9150509250929050565b6000602082840312156128b257600080fd5b60006128c084828501612576565b91505092915050565b6000602082840312156128db57600080fd5b60006128e98482850161258b565b91505092915050565b60006020828403121561290457600080fd5b6000612912848285016125a0565b91505092915050565b60006020828403121561292d57600080fd5b600082013567ffffffffffffffff81111561294757600080fd5b612953848285016125df565b91505092915050565b6000806040838503121561296f57600080fd5b600083013567ffffffffffffffff81111561298957600080fd5b612995858286016125df565b925050602083013567ffffffffffffffff8111156129b257600080fd5b6129be858286016125df565b9150509250929050565b600060c082840312156129da57600080fd5b60006129e884828501612609565b91505092915050565b600060208284031215612a0357600080fd5b6000612a11848285016126a5565b91505092915050565b60008060408385031215612a2d57600080fd5b6000612a3b858286016126a5565b9250506020612a4c858286016126a5565b9150509250929050565b612a5f816137db565b82525050565b612a6e816137ed565b82525050565b6000612a7f826136cc565b612a8981856136e2565b9350612a9981856020860161387f565b612aa281613a1a565b840191505092915050565b6000612ab8826136d7565b612ac281856136f3565b9350612ad281856020860161387f565b612adb81613a1a565b840191505092915050565b6000612af1826136d7565b612afb8185613704565b9350612b0b81856020860161387f565b612b1481613a1a565b840191505092915050565b6000612b2a826136d7565b612b348185613715565b9350612b4481856020860161387f565b80840191505092915050565b60008154612b5d816138b2565b612b678186613704565b94506001821660008114612b825760018114612b9457612bc7565b60ff1983168652602086019350612bc7565b612b9d856136b7565b60005b83811015612bbf57815481890152600182019150602081019050612ba0565b808801955050505b50505092915050565b6000612bdd603283613704565b91507f4552433732313a207472616e7366657220746f206e6f6e20455243373231526560008301527f63656976657220696d706c656d656e74657200000000000000000000000000006020830152604082019050919050565b6000612c43602683613704565b91507f4f776e61626c653a206e6577206f776e657220697320746865207a65726f206160008301527f64647265737300000000000000000000000000000000000000000000000000006020830152604082019050919050565b6000612ca9601c83613704565b91507f4552433732313a20746f6b656e20616c7265616479206d696e746564000000006000830152602082019050919050565b6000612ce9602483613704565b91507f4552433732313a207472616e7366657220746f20746865207a65726f2061646460008301527f72657373000000000000000000000000000000000000000000000000000000006020830152604082019050919050565b6000612d4f601983613704565b91507f4552433732313a20617070726f766520746f2063616c6c6572000000000000006000830152602082019050919050565b6000612d8f602c83613704565b91507f4552433732313a206f70657261746f7220717565727920666f72206e6f6e657860008301527f697374656e7420746f6b656e00000000000000000000000000000000000000006020830152604082019050919050565b6000612df5603883613704565b91507f4552433732313a20617070726f76652063616c6c6572206973206e6f74206f7760008301527f6e6572206e6f7220617070726f76656420666f7220616c6c00000000000000006020830152604082019050919050565b6000612e5b602a83613704565b91507f4552433732313a2062616c616e636520717565727920666f7220746865207a6560008301527f726f2061646472657373000000000000000000000000000000000000000000006020830152604082019050919050565b6000612ec1602983613704565b91507f4552433732313a206f776e657220717565727920666f72206e6f6e657869737460008301527f656e7420746f6b656e00000000000000000000000000000000000000000000006020830152604082019050919050565b6000612f27602083613704565b91507f4552433732313a206d696e7420746f20746865207a65726f20616464726573736000830152602082019050919050565b6000612f67602c83613704565b91507f4552433732313a20617070726f76656420717565727920666f72206e6f6e657860008301527f697374656e7420746f6b656e00000000000000000000000000000000000000006020830152604082019050919050565b6000612fcd602083613704565b91507f4f776e61626c653a2063616c6c6572206973206e6f7420746865206f776e65726000830152602082019050919050565b600061300d602983613704565b91507f4552433732313a207472616e73666572206f6620746f6b656e2074686174206960008301527f73206e6f74206f776e00000000000000000000000000000000000000000000006020830152604082019050919050565b6000613073602f83613704565b91507f4552433732314d657461646174613a2055524920717565727920666f72206e6f60008301527f6e6578697374656e7420746f6b656e00000000000000000000000000000000006020830152604082019050919050565b60006130d9602183613704565b91507f4552433732313a20617070726f76616c20746f2063757272656e74206f776e6560008301527f72000000000000000000000000000000000000000000000000000000000000006020830152604082019050919050565b600061313f603183613704565b91507f4552433732313a207472616e736665722063616c6c6572206973206e6f74206f60008301527f776e6572206e6f7220617070726f7665640000000000000000000000000000006020830152604082019050919050565b60006131a5602183613704565b91507f506f7374613a20696e76616c69642075626920616d6f756e7420746f2062757260008301527f6e000000000000000000000000000000000000000000000000000000000000006020830152604082019050919050565b6000608083016000830151848203600086015261321b8282612aad565b91505060208301516132306020860182613261565b5060408301516132436040860182613261565b5060608301516132566060860182613261565b508091505092915050565b61326a81613845565b82525050565b61327981613845565b82525050565b600061328b8285612b1f565b91506132978284612b1f565b91508190509392505050565b60006020820190506132b86000830184612a56565b92915050565b60006060820190506132d36000830186612a56565b6132e06020830185612a56565b6132ed6040830184613270565b949350505050565b600060808201905061330a6000830187612a56565b6133176020830186612a56565b6133246040830185613270565b81810360608301526133368184612a74565b905095945050505050565b60006040820190506133566000830185612a56565b6133636020830184613270565b9392505050565b600060208201905061337f6000830184612a65565b92915050565b6000602082019050818103600083015261339f8184612ae6565b905092915050565b600060208201905081810360008301526133c18184612b50565b905092915050565b600060208201905081810360008301526133e281612bd0565b9050919050565b6000602082019050818103600083015261340281612c36565b9050919050565b6000602082019050818103600083015261342281612c9c565b9050919050565b6000602082019050818103600083015261344281612cdc565b9050919050565b6000602082019050818103600083015261346281612d42565b9050919050565b6000602082019050818103600083015261348281612d82565b9050919050565b600060208201905081810360008301526134a281612de8565b9050919050565b600060208201905081810360008301526134c281612e4e565b9050919050565b600060208201905081810360008301526134e281612eb4565b9050919050565b6000602082019050818103600083015261350281612f1a565b9050919050565b6000602082019050818103600083015261352281612f5a565b9050919050565b6000602082019050818103600083015261354281612fc0565b9050919050565b6000602082019050818103600083015261356281613000565b9050919050565b6000602082019050818103600083015261358281613066565b9050919050565b600060208201905081810360008301526135a2816130cc565b9050919050565b600060208201905081810360008301526135c281613132565b9050919050565b600060208201905081810360008301526135e281613198565b9050919050565b6000602082019050818103600083015261360381846131fe565b905092915050565b60006020820190506136206000830184613270565b92915050565b6000604051905081810181811067ffffffffffffffff8211171561364d5761364c6139eb565b5b8060405250919050565b600067ffffffffffffffff821115613672576136716139eb565b5b601f19601f8301169050602081019050919050565b600067ffffffffffffffff8211156136a2576136a16139eb565b5b601f19601f8301169050602081019050919050565b60008190508160005260206000209050919050565b600081519050919050565b600081519050919050565b600082825260208201905092915050565b600082825260208201905092915050565b600082825260208201905092915050565b600081905092915050565b600061372b82613845565b915061373683613845565b9250827fffffffffffffffffffffffffffffffffffffffffffffffffffffffffffffffff0382111561376b5761376a61395e565b5b828201905092915050565b600061378182613845565b915061378c83613845565b92508261379c5761379b61398d565b5b828204905092915050565b60006137b282613845565b91506137bd83613845565b9250828210156137d0576137cf61395e565b5b828203905092915050565b60006137e682613825565b9050919050565b60008115159050919050565b60007fffffffff0000000000000000000000000000000000000000000000000000000082169050919050565b600073ffffffffffffffffffffffffffffffffffffffff82169050919050565b6000819050919050565b600067ffffffffffffffff82169050919050565b600060ff82169050919050565b82818337600083830152505050565b60005b8381101561389d578082015181840152602081019050613882565b838111156138ac576000848401525b50505050565b600060028204905060018216806138ca57607f821691505b602082108114156138de576138dd6139bc565b5b50919050565b60006138ef82613845565b91507fffffffffffffffffffffffffffffffffffffffffffffffffffffffffffffffff8214156139225761392161395e565b5b600182019050919050565b600061393882613845565b915061394383613845565b9250826139535761395261398d565b5b828206905092915050565b7f4e487b7100000000000000000000000000000000000000000000000000000000600052601160045260246000fd5b7f4e487b7100000000000000000000000000000000000000000000000000000000600052601260045260246000fd5b7f4e487b7100000000000000000000000000000000000000000000000000000000600052602260045260246000fd5b7f4e487b7100000000000000000000000000000000000000000000000000000000600052604160045260246000fd5b6000601f19601f8301169050919050565b613a34816137db565b8114613a3f57600080fd5b50565b613a4b816137ed565b8114613a5657600080fd5b50565b613a62816137f9565b8114613a6d57600080fd5b50565b613a7981613845565b8114613a8457600080fd5b50565b613a908161384f565b8114613a9b57600080fd5b50565b613aa781613863565b8114613ab257600080fd5b5056fea26469706673582212205a0b421946817e193d6000bc9e3b02ca26ece756f04de3dab289fb694d2bebbb64736f6c63430008000033",
  "immutableReferences": {},
  "source": "// SPDX-License-Identifier: MIT\r\npragma solidity 0.8.0;\r\n\r\nimport \"@openzeppelin/contracts/token/ERC721/ERC721.sol\";\r\nimport \"@openzeppelin/contracts/token/ERC20/IERC20.sol\";\r\nimport \"@openzeppelin/contracts/token/ERC20/extensions/ERC20Burnable.sol\";\r\nimport \"@openzeppelin/contracts/access/Ownable.sol\";\r\nimport \"@openzeppelin/contracts/utils/math/SafeMath.sol\";\r\nimport \"./IProofOfhumanity.sol\";\r\n\r\ncontract Posta is ERC721, Ownable {\r\n    \r\n    using SafeMath for uint256;\r\n\r\n    event NewPost(address indexed author, uint256 indexed tokenId, string value);\r\n\r\n    string HUMAN_NOT_REGISTERED = \"HUMAN_NOT_REGISTERED\";\r\n    using Strings for uint256;\r\n    address _ubi;\r\n\r\n    struct PostaData {\r\n        \r\n        // URI of the NFT data\r\n        string tokenURI;\r\n        \r\n        // Date at which the post was minted\r\n        uint256 date;\r\n        \r\n        // Ammount given as support\r\n        uint256 supportGiven;\r\n        \r\n        // Total number of unique humans that support this post\r\n        uint256 supportersCount;\r\n    }\r\n    \r\n    // Mapping for NFTS\r\n    mapping (uint256 => PostaData) private _posts;\r\n\r\n    // Mapping for humans that support each post\r\n    mapping(uint256 => mapping(address => bool)) _supporters;\r\n\r\n    address private _poh;\r\n    // Base URI\r\n    string private _baseURIextended;\r\n\r\n    uint256 private _tokenCounter;\r\n    \r\n\r\n    /// Require that an address is a valid registered human.\r\n    modifier isHuman(address _submission) {\r\n        IProofOfHumanity.SubmissionInfo memory info = IProofOfHumanity(_poh).getSubmissionInfo(_submission);\r\n        require(info.registered, HUMAN_NOT_REGISTERED);\r\n        _;\r\n    }\r\n\r\n    /// Require that a token has been minted\r\n    modifier tokenExists(uint256 tokenId) {\r\n        require(_exists(tokenId), \"ERC721Metadata: URI query for nonexistent token\");\r\n        _;\r\n    }\r\n\r\n    constructor(address poh, address ubi) public ERC721(\"Posta\", \"PSTA\") {\r\n        _tokenCounter = 0;\r\n        _poh = poh;\r\n        _ubi = ubi;\r\n    }\r\n\r\n    function publishPost(string memory newTokenURI,string memory text) public isHuman(_msgSender()) returns(uint256)  {\r\n        \r\n        // Get the new token iD\r\n        uint256 newItemId = _tokenCounter;\r\n\r\n        // Mint the NFT with the new ID\r\n        _safeMint(_msgSender(), newItemId);\r\n\r\n        // Generate the post NFT storage data\r\n        PostaData memory post = PostaData({\r\n            date: block.timestamp,\r\n            tokenURI: newTokenURI,\r\n            supportGiven: 0,\r\n            supportersCount: 0\r\n        });\r\n\r\n        // Set the post dat to the token\r\n        _setPost(newItemId, post);\r\n        \r\n        // Update the token counter\r\n        _tokenCounter = _tokenCounter +1;\r\n\r\n        emit NewPost(_msgSender(), newItemId, text);\r\n\r\n        // Return the new token ID\r\n        return newItemId;\r\n    }\r\n\r\n     function setBaseURI(string memory baseURI_) external onlyOwner() {\r\n        _baseURIextended = baseURI_;\r\n    }\r\n    \r\n    function _baseURI() internal view virtual override returns (string memory) {\r\n        return _baseURIextended;\r\n    }\r\n\r\n    function _setPost(uint256 tokenId, PostaData memory data) internal virtual tokenExists(tokenId) {\r\n     _posts[tokenId] = data;\r\n    }\r\n    \r\n    function tokenURI(uint256 tokenId) public view virtual override tokenExists(tokenId) returns (string memory) {\r\n\r\n        PostaData memory post = _posts[tokenId];\r\n        string memory base = _baseURI();\r\n        \r\n        // If there is no base URI, return the token URI.\r\n        if (bytes(base).length == 0) {\r\n            return post.tokenURI;\r\n        }\r\n        // If both are set, concatenate the baseURI and tokenURI (via abi.encodePacked).\r\n        if (bytes(post.tokenURI).length > 0) {\r\n            return string(abi.encodePacked(base, post.tokenURI));\r\n        }\r\n        // If there is a baseURI but no tokenURI, concatenate the tokenID to the baseURI.\r\n        return string(abi.encodePacked(base, tokenId.toString()));\r\n    }\r\n\r\n    function getTokenCounter() public view returns(uint256) {\r\n        return _tokenCounter;\r\n    }\r\n\r\n    function getPost(uint256 tokenId) public view virtual tokenExists(tokenId) returns (PostaData memory) {\r\n        return _posts[tokenId];\r\n    }\r\n\r\n    /**\r\n     * Gives support to this posta and burns the UBI. \r\n     * Supporters count is only added once per human.\r\n     * If a Human gives support multiple times it will only count as one supporter.\r\n     */\r\n    function support(uint256 tokenId, uint256 ubiAmount) public tokenExists(tokenId) {\r\n\r\n        // ammount to burn\r\n        uint256 toBurn = ubiAmount.div(2);\r\n        require(toBurn > 0, \"Posta: invalid ubi amount to burn\");\r\n        \r\n        // Burn the UBI on behalf of the caller.\r\n        ERC20Burnable(_ubi).burnFrom(_msgSender(), toBurn);\r\n        \r\n        // Transfer remainder to posta creator\r\n        uint256 forCreator = ubiAmount.sub(toBurn);\r\n        if(forCreator > 0) { \r\n            ERC20(_ubi).transferFrom(_msgSender(), ownerOf(tokenId), forCreator);\r\n        }\r\n\r\n        // Add support based on ubi amount\r\n        _addSupport(tokenId, ubiAmount, _msgSender());\r\n        \r\n    }\r\n\r\n    function _addSupport(uint256 tokenId, uint256 amount, address supporter) private {\r\n        \r\n        uint256 amountToBurn = \r\n         // Add the amount of support given\r\n        _posts[tokenId].supportGiven += amount;\r\n\r\n        // If is first support, add 1 supporter.\r\n        if(!_supporters[tokenId][supporter]) {\r\n            _supporters[tokenId][supporter] = true;\r\n            _posts[tokenId].supportersCount += 1;\r\n        }\r\n    }\r\n}",
  "sourcePath": "E:/Code/Repos/JuanuMusic/posta/posta-contracts/contracts/Posta.sol",
  "compiler": {
    "name": "solc",
    "version": "0.8.0+commit.c7dfd78e.Emscripten.clang"
  },
  "schemaVersion": "3.3.4",
  "updatedAt": "2021-06-26T14:26:02.285Z",
  "networkType": "ethereum",
  "devdoc": {
    "kind": "dev",
    "methods": {
      "approve(address,uint256)": {
        "details": "See {IERC721-approve}."
      },
      "balanceOf(address)": {
        "details": "See {IERC721-balanceOf}."
      },
      "getApproved(uint256)": {
        "details": "See {IERC721-getApproved}."
      },
      "isApprovedForAll(address,address)": {
        "details": "See {IERC721-isApprovedForAll}."
      },
      "name()": {
        "details": "See {IERC721Metadata-name}."
      },
      "owner()": {
        "details": "Returns the address of the current owner."
      },
      "ownerOf(uint256)": {
        "details": "See {IERC721-ownerOf}."
      },
      "renounceOwnership()": {
        "details": "Leaves the contract without owner. It will not be possible to call `onlyOwner` functions anymore. Can only be called by the current owner. NOTE: Renouncing ownership will leave the contract without an owner, thereby removing any functionality that is only available to the owner."
      },
      "safeTransferFrom(address,address,uint256)": {
        "details": "See {IERC721-safeTransferFrom}."
      },
      "safeTransferFrom(address,address,uint256,bytes)": {
        "details": "See {IERC721-safeTransferFrom}."
      },
      "setApprovalForAll(address,bool)": {
        "details": "See {IERC721-setApprovalForAll}."
      },
      "supportsInterface(bytes4)": {
        "details": "See {IERC165-supportsInterface}."
      },
      "symbol()": {
        "details": "See {IERC721Metadata-symbol}."
      },
      "tokenURI(uint256)": {
        "details": "See {IERC721Metadata-tokenURI}."
      },
      "transferFrom(address,address,uint256)": {
        "details": "See {IERC721-transferFrom}."
      },
      "transferOwnership(address)": {
        "details": "Transfers ownership of the contract to a new account (`newOwner`). Can only be called by the current owner."
      }
    },
    "version": 1
  },
  "userdoc": {
    "kind": "user",
    "methods": {
      "support(uint256,uint256)": {
        "notice": "Gives support to this posta and burns the UBI.  Supporters count is only added once per human. If a Human gives support multiple times it will only count as one supporter."
      }
    },
    "version": 1
  }
}