{
  "contractName": "Posta",
  "abi": [
    {
      "inputs": [
        {
          "internalType": "address",
          "name": "poh",
          "type": "address"
        },
        {
          "internalType": "address",
          "name": "ubi",
          "type": "address"
        },
        {
          "internalType": "uint256",
          "name": "maxChars",
          "type": "uint256"
        }
      ],
      "stateMutability": "nonpayable",
      "type": "constructor"
    },
    {
      "anonymous": false,
      "inputs": [
        {
          "indexed": true,
          "internalType": "address",
          "name": "owner",
          "type": "address"
        },
        {
          "indexed": true,
          "internalType": "address",
          "name": "approved",
          "type": "address"
        },
        {
          "indexed": true,
          "internalType": "uint256",
          "name": "tokenId",
          "type": "uint256"
        }
      ],
      "name": "Approval",
      "type": "event"
    },
    {
      "anonymous": false,
      "inputs": [
        {
          "indexed": true,
          "internalType": "address",
          "name": "owner",
          "type": "address"
        },
        {
          "indexed": true,
          "internalType": "address",
          "name": "operator",
          "type": "address"
        },
        {
          "indexed": false,
          "internalType": "bool",
          "name": "approved",
          "type": "bool"
        }
      ],
      "name": "ApprovalForAll",
      "type": "event"
    },
    {
      "anonymous": false,
      "inputs": [
        {
          "indexed": true,
          "internalType": "address",
          "name": "author",
          "type": "address"
        },
        {
          "indexed": true,
          "internalType": "uint256",
          "name": "tokenId",
          "type": "uint256"
        },
        {
          "indexed": false,
          "internalType": "string",
          "name": "value",
          "type": "string"
        }
      ],
      "name": "NewPost",
      "type": "event"
    },
    {
      "anonymous": false,
      "inputs": [
        {
          "indexed": true,
          "internalType": "address",
          "name": "previousOwner",
          "type": "address"
        },
        {
          "indexed": true,
          "internalType": "address",
          "name": "newOwner",
          "type": "address"
        }
      ],
      "name": "OwnershipTransferred",
      "type": "event"
    },
    {
      "anonymous": false,
      "inputs": [
        {
          "indexed": true,
          "internalType": "address",
          "name": "from",
          "type": "address"
        },
        {
          "indexed": true,
          "internalType": "address",
          "name": "to",
          "type": "address"
        },
        {
          "indexed": true,
          "internalType": "uint256",
          "name": "tokenId",
          "type": "uint256"
        }
      ],
      "name": "Transfer",
      "type": "event"
    },
    {
      "inputs": [
        {
          "internalType": "address",
          "name": "to",
          "type": "address"
        },
        {
          "internalType": "uint256",
          "name": "tokenId",
          "type": "uint256"
        }
      ],
      "name": "approve",
      "outputs": [],
      "stateMutability": "nonpayable",
      "type": "function"
    },
    {
      "inputs": [
        {
          "internalType": "address",
          "name": "owner",
          "type": "address"
        }
      ],
      "name": "balanceOf",
      "outputs": [
        {
          "internalType": "uint256",
          "name": "",
          "type": "uint256"
        }
      ],
      "stateMutability": "view",
      "type": "function",
      "constant": true
    },
    {
      "inputs": [
        {
          "internalType": "uint256",
          "name": "tokenId",
          "type": "uint256"
        }
      ],
      "name": "getApproved",
      "outputs": [
        {
          "internalType": "address",
          "name": "",
          "type": "address"
        }
      ],
      "stateMutability": "view",
      "type": "function",
      "constant": true
    },
    {
      "inputs": [
        {
          "internalType": "address",
          "name": "owner",
          "type": "address"
        },
        {
          "internalType": "address",
          "name": "operator",
          "type": "address"
        }
      ],
      "name": "isApprovedForAll",
      "outputs": [
        {
          "internalType": "bool",
          "name": "",
          "type": "bool"
        }
      ],
      "stateMutability": "view",
      "type": "function",
      "constant": true
    },
    {
      "inputs": [],
      "name": "name",
      "outputs": [
        {
          "internalType": "string",
          "name": "",
          "type": "string"
        }
      ],
      "stateMutability": "view",
      "type": "function",
      "constant": true
    },
    {
      "inputs": [],
      "name": "owner",
      "outputs": [
        {
          "internalType": "address",
          "name": "",
          "type": "address"
        }
      ],
      "stateMutability": "view",
      "type": "function",
      "constant": true
    },
    {
      "inputs": [
        {
          "internalType": "uint256",
          "name": "tokenId",
          "type": "uint256"
        }
      ],
      "name": "ownerOf",
      "outputs": [
        {
          "internalType": "address",
          "name": "",
          "type": "address"
        }
      ],
      "stateMutability": "view",
      "type": "function",
      "constant": true
    },
    {
      "inputs": [],
      "name": "renounceOwnership",
      "outputs": [],
      "stateMutability": "nonpayable",
      "type": "function"
    },
    {
      "inputs": [
        {
          "internalType": "address",
          "name": "from",
          "type": "address"
        },
        {
          "internalType": "address",
          "name": "to",
          "type": "address"
        },
        {
          "internalType": "uint256",
          "name": "tokenId",
          "type": "uint256"
        }
      ],
      "name": "safeTransferFrom",
      "outputs": [],
      "stateMutability": "nonpayable",
      "type": "function"
    },
    {
      "inputs": [
        {
          "internalType": "address",
          "name": "from",
          "type": "address"
        },
        {
          "internalType": "address",
          "name": "to",
          "type": "address"
        },
        {
          "internalType": "uint256",
          "name": "tokenId",
          "type": "uint256"
        },
        {
          "internalType": "bytes",
          "name": "_data",
          "type": "bytes"
        }
      ],
      "name": "safeTransferFrom",
      "outputs": [],
      "stateMutability": "nonpayable",
      "type": "function"
    },
    {
      "inputs": [
        {
          "internalType": "address",
          "name": "operator",
          "type": "address"
        },
        {
          "internalType": "bool",
          "name": "approved",
          "type": "bool"
        }
      ],
      "name": "setApprovalForAll",
      "outputs": [],
      "stateMutability": "nonpayable",
      "type": "function"
    },
    {
      "inputs": [
        {
          "internalType": "bytes4",
          "name": "interfaceId",
          "type": "bytes4"
        }
      ],
      "name": "supportsInterface",
      "outputs": [
        {
          "internalType": "bool",
          "name": "",
          "type": "bool"
        }
      ],
      "stateMutability": "view",
      "type": "function",
      "constant": true
    },
    {
      "inputs": [],
      "name": "symbol",
      "outputs": [
        {
          "internalType": "string",
          "name": "",
          "type": "string"
        }
      ],
      "stateMutability": "view",
      "type": "function",
      "constant": true
    },
    {
      "inputs": [
        {
          "internalType": "address",
          "name": "from",
          "type": "address"
        },
        {
          "internalType": "address",
          "name": "to",
          "type": "address"
        },
        {
          "internalType": "uint256",
          "name": "tokenId",
          "type": "uint256"
        }
      ],
      "name": "transferFrom",
      "outputs": [],
      "stateMutability": "nonpayable",
      "type": "function"
    },
    {
      "inputs": [
        {
          "internalType": "address",
          "name": "newOwner",
          "type": "address"
        }
      ],
      "name": "transferOwnership",
      "outputs": [],
      "stateMutability": "nonpayable",
      "type": "function"
    },
    {
      "inputs": [
        {
          "internalType": "string",
          "name": "text",
          "type": "string"
        }
      ],
      "name": "publishPost",
      "outputs": [
        {
          "internalType": "uint256",
          "name": "",
          "type": "uint256"
        }
      ],
      "stateMutability": "nonpayable",
      "type": "function"
    },
    {
      "inputs": [
        {
          "internalType": "string",
          "name": "baseURI_",
          "type": "string"
        }
      ],
      "name": "setBaseURI",
      "outputs": [],
      "stateMutability": "nonpayable",
      "type": "function"
    },
    {
      "inputs": [
        {
          "internalType": "uint256",
          "name": "maxChars",
          "type": "uint256"
        }
      ],
      "name": "setMaxChars",
      "outputs": [],
      "stateMutability": "nonpayable",
      "type": "function"
    },
    {
      "inputs": [],
      "name": "getMaxChars",
      "outputs": [
        {
          "internalType": "uint256",
          "name": "",
          "type": "uint256"
        }
      ],
      "stateMutability": "view",
      "type": "function",
      "constant": true
    },
    {
      "inputs": [
        {
          "internalType": "uint256",
          "name": "tokenId",
          "type": "uint256"
        }
      ],
      "name": "tokenURI",
      "outputs": [
        {
          "internalType": "string",
          "name": "",
          "type": "string"
        }
      ],
      "stateMutability": "view",
      "type": "function",
      "constant": true
    },
    {
      "inputs": [],
      "name": "getTokenCounter",
      "outputs": [
        {
          "internalType": "uint256",
          "name": "",
          "type": "uint256"
        }
      ],
      "stateMutability": "view",
      "type": "function",
      "constant": true
    },
    {
      "inputs": [
        {
          "internalType": "uint256",
          "name": "tokenId",
          "type": "uint256"
        }
      ],
      "name": "getPost",
      "outputs": [
        {
          "components": [
            {
              "internalType": "uint256",
              "name": "supportGiven",
              "type": "uint256"
            },
            {
              "internalType": "uint256",
              "name": "supportersCount",
              "type": "uint256"
            }
          ],
          "internalType": "struct Posta.PostaData",
          "name": "",
          "type": "tuple"
        }
      ],
      "stateMutability": "view",
      "type": "function",
      "constant": true
    },
    {
      "inputs": [
        {
          "internalType": "uint256",
          "name": "tokenId",
          "type": "uint256"
        },
        {
          "internalType": "uint256",
          "name": "ubiAmount",
          "type": "uint256"
        }
      ],
      "name": "support",
      "outputs": [],
      "stateMutability": "nonpayable",
      "type": "function"
    }
  ],
  "bytecode": "0x60806040526040518060400160405280601481526020017f48554d414e5f4e4f545f524547495354455245440000000000000000000000008152506007908051906020019062000051929190620002c6565b506040518060400160405280601281526020017f504f53545f544558545f544f4f5f4c4f4e470000000000000000000000000000815250600890805190602001906200009f929190620002c6565b50348015620000ad57600080fd5b5060405162003ae138038062003ae18339818101604052810190620000d39190620003a4565b6040518060400160405280600581526020017f506f7374610000000000000000000000000000000000000000000000000000008152506040518060400160405280600481526020017f5053544100000000000000000000000000000000000000000000000000000000815250816000908051906020019062000157929190620002c6565b50806001908051906020019062000170929190620002c6565b505050600062000185620002be60201b60201c565b905080600660006101000a81548173ffffffffffffffffffffffffffffffffffffffff021916908373ffffffffffffffffffffffffffffffffffffffff1602179055508073ffffffffffffffffffffffffffffffffffffffff16600073ffffffffffffffffffffffffffffffffffffffff167f8be0079c531659141344cd1fd0a4f28419497f9722a3daafe3b4186f6b6457e060405160405180910390a3506000600f8190555082600d60006101000a81548173ffffffffffffffffffffffffffffffffffffffff021916908373ffffffffffffffffffffffffffffffffffffffff16021790555081600960006101000a81548173ffffffffffffffffffffffffffffffffffffffff021916908373ffffffffffffffffffffffffffffffffffffffff16021790555080600a81905550505050620004d1565b600033905090565b828054620002d49062000438565b90600052602060002090601f016020900481019282620002f8576000855562000344565b82601f106200031357805160ff191683800117855562000344565b8280016001018555821562000344579182015b828111156200034357825182559160200191906001019062000326565b5b50905062000353919062000357565b5090565b5b808211156200037257600081600090555060010162000358565b5090565b60008151905062000387816200049d565b92915050565b6000815190506200039e81620004b7565b92915050565b600080600060608486031215620003ba57600080fd5b6000620003ca8682870162000376565b9350506020620003dd8682870162000376565b9250506040620003f0868287016200038d565b9150509250925092565b600062000407826200040e565b9050919050565b600073ffffffffffffffffffffffffffffffffffffffff82169050919050565b6000819050919050565b600060028204905060018216806200045157607f821691505b602082108114156200046857620004676200046e565b5b50919050565b7f4e487b7100000000000000000000000000000000000000000000000000000000600052602260045260246000fd5b620004a881620003fa565b8114620004b457600080fd5b50565b620004c2816200042e565b8114620004ce57600080fd5b50565b61360080620004e16000396000f3fe608060405234801561001057600080fd5b506004361061014d5760003560e01c80636e02007d116100c3578063a22cb4651161007c578063a22cb4651461038a578063b88d4fde146103a6578063c5719463146103c2578063c87b56dd146103f2578063e985e9c514610422578063f2fde38b146104525761014d565b80636e02007d146102da57806370a08231146102f8578063715018a6146103285780638da5cb5b1461033257806395d89b41146103505780639be56c671461036e5761014d565b806323b872dd1161011557806323b872dd1461020857806340731c241461022457806342842e0e1461025457806355f804b3146102705780636352211e1461028c57806367b7793d146102bc5761014d565b806301ffc9a71461015257806306fdde0314610182578063081812fc146101a0578063095ea7b3146101d05780631a8d8d18146101ec575b600080fd5b61016c600480360381019061016791906125a9565b61046e565b6040516101799190612f1c565b60405180910390f35b61018a610550565b6040516101979190612f37565b60405180910390f35b6101ba60048036038101906101b59190612665565b6105e2565b6040516101c79190612e55565b60405180910390f35b6101ea60048036038101906101e59190612544565b610667565b005b61020660048036038101906102019190612665565b61077f565b005b610222600480360381019061021d919061243e565b610805565b005b61023e60048036038101906102399190612665565b610865565b60405161024b919061319b565b60405180910390f35b61026e6004803603810190610269919061243e565b6108f0565b005b61028a600480360381019061028591906125fb565b610910565b005b6102a660048036038101906102a19190612665565b6109a6565b6040516102b39190612e55565b60405180910390f35b6102c4610a58565b6040516102d191906131b6565b60405180910390f35b6102e2610a62565b6040516102ef91906131b6565b60405180910390f35b610312600480360381019061030d91906123d9565b610a6c565b60405161031f91906131b6565b60405180910390f35b610330610b24565b005b61033a610c61565b6040516103479190612e55565b60405180910390f35b610358610c8b565b6040516103659190612f37565b60405180910390f35b6103886004803603810190610383919061268e565b610d1d565b005b6103a4600480360381019061039f9190612508565b610f52565b005b6103c060048036038101906103bb919061248d565b6110d3565b005b6103dc60048036038101906103d791906125fb565b611135565b6040516103e991906131b6565b60405180910390f35b61040c60048036038101906104079190612665565b611336565b6040516104199190612f37565b60405180910390f35b61043c60048036038101906104379190612402565b6113bf565b6040516104499190612f1c565b60405180910390f35b61046c600480360381019061046791906123d9565b611453565b005b60007f80ac58cd000000000000000000000000000000000000000000000000000000007bffffffffffffffffffffffffffffffffffffffffffffffffffffffff1916827bffffffffffffffffffffffffffffffffffffffffffffffffffffffff1916148061053957507f5b5e139f000000000000000000000000000000000000000000000000000000007bffffffffffffffffffffffffffffffffffffffffffffffffffffffff1916827bffffffffffffffffffffffffffffffffffffffffffffffffffffffff1916145b806105495750610548826115ff565b5b9050919050565b60606000805461055f90613441565b80601f016020809104026020016040519081016040528092919081815260200182805461058b90613441565b80156105d85780601f106105ad576101008083540402835291602001916105d8565b820191906000526020600020905b8154815290600101906020018083116105bb57829003601f168201915b5050505050905090565b60006105ed82611669565b61062c576040517f08c379a0000000000000000000000000000000000000000000000000000000008152600401610623906130bb565b60405180910390fd5b6004600083815260200190815260200160002060009054906101000a900473ffffffffffffffffffffffffffffffffffffffff169050919050565b6000610672826109a6565b90508073ffffffffffffffffffffffffffffffffffffffff168373ffffffffffffffffffffffffffffffffffffffff1614156106e3576040517f08c379a00000000000000000000000000000000000000000000000000000000081526004016106da9061313b565b60405180910390fd5b8073ffffffffffffffffffffffffffffffffffffffff166107026116d5565b73ffffffffffffffffffffffffffffffffffffffff16148061073157506107308161072b6116d5565b6113bf565b5b610770576040517f08c379a00000000000000000000000000000000000000000000000000000000081526004016107679061303b565b60405180910390fd5b61077a83836116dd565b505050565b6107876116d5565b73ffffffffffffffffffffffffffffffffffffffff166107a5610c61565b73ffffffffffffffffffffffffffffffffffffffff16146107fb576040517f08c379a00000000000000000000000000000000000000000000000000000000081526004016107f2906130db565b60405180910390fd5b80600a8190555050565b6108166108106116d5565b82611796565b610855576040517f08c379a000000000000000000000000000000000000000000000000000000000815260040161084c9061315b565b60405180910390fd5b610860838383611874565b505050565b61086d6120f3565b8161087781611669565b6108b6576040517f08c379a00000000000000000000000000000000000000000000000000000000081526004016108ad9061311b565b60405180910390fd5b600b600084815260200190815260200160002060405180604001604052908160008201548152602001600182015481525050915050919050565b61090b838383604051806020016040528060008152506110d3565b505050565b6109186116d5565b73ffffffffffffffffffffffffffffffffffffffff16610936610c61565b73ffffffffffffffffffffffffffffffffffffffff161461098c576040517f08c379a0000000000000000000000000000000000000000000000000000000008152600401610983906130db565b60405180910390fd5b80600e90805190602001906109a292919061210d565b5050565b6000806002600084815260200190815260200160002060009054906101000a900473ffffffffffffffffffffffffffffffffffffffff169050600073ffffffffffffffffffffffffffffffffffffffff168173ffffffffffffffffffffffffffffffffffffffff161415610a4f576040517f08c379a0000000000000000000000000000000000000000000000000000000008152600401610a469061307b565b60405180910390fd5b80915050919050565b6000600a54905090565b6000600f54905090565b60008073ffffffffffffffffffffffffffffffffffffffff168273ffffffffffffffffffffffffffffffffffffffff161415610add576040517f08c379a0000000000000000000000000000000000000000000000000000000008152600401610ad49061305b565b60405180910390fd5b600360008373ffffffffffffffffffffffffffffffffffffffff1673ffffffffffffffffffffffffffffffffffffffff168152602001908152602001600020549050919050565b610b2c6116d5565b73ffffffffffffffffffffffffffffffffffffffff16610b4a610c61565b73ffffffffffffffffffffffffffffffffffffffff1614610ba0576040517f08c379a0000000000000000000000000000000000000000000000000000000008152600401610b97906130db565b60405180910390fd5b600073ffffffffffffffffffffffffffffffffffffffff16600660009054906101000a900473ffffffffffffffffffffffffffffffffffffffff1673ffffffffffffffffffffffffffffffffffffffff167f8be0079c531659141344cd1fd0a4f28419497f9722a3daafe3b4186f6b6457e060405160405180910390a36000600660006101000a81548173ffffffffffffffffffffffffffffffffffffffff021916908373ffffffffffffffffffffffffffffffffffffffff160217905550565b6000600660009054906101000a900473ffffffffffffffffffffffffffffffffffffffff16905090565b606060018054610c9a90613441565b80601f0160208091040260200160405190810160405280929190818152602001828054610cc690613441565b8015610d135780601f10610ce857610100808354040283529160200191610d13565b820191906000526020600020905b815481529060010190602001808311610cf657829003601f168201915b5050505050905090565b81610d2781611669565b610d66576040517f08c379a0000000000000000000000000000000000000000000000000000000008152600401610d5d9061311b565b60405180910390fd5b6000610d7c600284611ad090919063ffffffff16565b905060008111610dc1576040517f08c379a0000000000000000000000000000000000000000000000000000000008152600401610db89061317b565b60405180910390fd5b600960009054906101000a900473ffffffffffffffffffffffffffffffffffffffff1673ffffffffffffffffffffffffffffffffffffffff166379cc6790610e076116d5565b836040518363ffffffff1660e01b8152600401610e25929190612ef3565b600060405180830381600087803b158015610e3f57600080fd5b505af1158015610e53573d6000803e3d6000fd5b505050506000610e6c8285611ae690919063ffffffff16565b90506000811115610f3957600960009054906101000a900473ffffffffffffffffffffffffffffffffffffffff1673ffffffffffffffffffffffffffffffffffffffff166323b872dd610ebd6116d5565b610ec6886109a6565b846040518463ffffffff1660e01b8152600401610ee593929190612e70565b602060405180830381600087803b158015610eff57600080fd5b505af1158015610f13573d6000803e3d6000fd5b505050506040513d601f19601f82011682018060405250810190610f379190612580565b505b610f4b8585610f466116d5565b611afc565b5050505050565b610f5a6116d5565b73ffffffffffffffffffffffffffffffffffffffff168273ffffffffffffffffffffffffffffffffffffffff161415610fc8576040517f08c379a0000000000000000000000000000000000000000000000000000000008152600401610fbf90612ffb565b60405180910390fd5b8060056000610fd56116d5565b73ffffffffffffffffffffffffffffffffffffffff1673ffffffffffffffffffffffffffffffffffffffff16815260200190815260200160002060008473ffffffffffffffffffffffffffffffffffffffff1673ffffffffffffffffffffffffffffffffffffffff16815260200190815260200160002060006101000a81548160ff0219169083151502179055508173ffffffffffffffffffffffffffffffffffffffff166110826116d5565b73ffffffffffffffffffffffffffffffffffffffff167f17307eab39ab6107e8899845ad3d59bd9653f200f220920489ca2b5937696c31836040516110c79190612f1c565b60405180910390a35050565b6110e46110de6116d5565b83611796565b611123576040517f08c379a000000000000000000000000000000000000000000000000000000000815260040161111a9061315b565b60405180910390fd5b61112f84848484611c28565b50505050565b600061113f6116d5565b6000600d60009054906101000a900473ffffffffffffffffffffffffffffffffffffffff1673ffffffffffffffffffffffffffffffffffffffff166397973043836040518263ffffffff1660e01b815260040161119c9190612e55565b60c06040518083038186803b1580156111b457600080fd5b505afa1580156111c8573d6000803e3d6000fd5b505050506040513d601f19601f820116820180604052508101906111ec919061263c565b90508060600151600790611236576040517f08c379a000000000000000000000000000000000000000000000000000000000815260040161122d9190612f59565b60405180910390fd5b50600a5484511115600890611281576040517f08c379a00000000000000000000000000000000000000000000000000000000081526004016112789190612f59565b60405180910390fd5b506000600f54905061129a6112946116d5565b82611c84565b6000604051806040016040528060008152602001600081525090506112bf8282611ca2565b6001600f546112ce91906132af565b600f81905550816112dd6116d5565b73ffffffffffffffffffffffffffffffffffffffff167fd8c86c7877c3f1f8a40af6cf64a11fe867af887f2a1ad31aac849e36730425b0886040516113229190612f37565b60405180910390a381945050505050919050565b60608161134281611669565b611381576040517f08c379a00000000000000000000000000000000000000000000000000000000081526004016113789061311b565b60405180910390fd5b6040518060400160405280601481526020017f555345204c4f475320544f204745542044415441000000000000000000000000815250915050919050565b6000600560008473ffffffffffffffffffffffffffffffffffffffff1673ffffffffffffffffffffffffffffffffffffffff16815260200190815260200160002060008373ffffffffffffffffffffffffffffffffffffffff1673ffffffffffffffffffffffffffffffffffffffff16815260200190815260200160002060009054906101000a900460ff16905092915050565b61145b6116d5565b73ffffffffffffffffffffffffffffffffffffffff16611479610c61565b73ffffffffffffffffffffffffffffffffffffffff16146114cf576040517f08c379a00000000000000000000000000000000000000000000000000000000081526004016114c6906130db565b60405180910390fd5b600073ffffffffffffffffffffffffffffffffffffffff168173ffffffffffffffffffffffffffffffffffffffff16141561153f576040517f08c379a000000000000000000000000000000000000000000000000000000000815260040161153690612f9b565b60405180910390fd5b8073ffffffffffffffffffffffffffffffffffffffff16600660009054906101000a900473ffffffffffffffffffffffffffffffffffffffff1673ffffffffffffffffffffffffffffffffffffffff167f8be0079c531659141344cd1fd0a4f28419497f9722a3daafe3b4186f6b6457e060405160405180910390a380600660006101000a81548173ffffffffffffffffffffffffffffffffffffffff021916908373ffffffffffffffffffffffffffffffffffffffff16021790555050565b60007f01ffc9a7000000000000000000000000000000000000000000000000000000007bffffffffffffffffffffffffffffffffffffffffffffffffffffffff1916827bffffffffffffffffffffffffffffffffffffffffffffffffffffffff1916149050919050565b60008073ffffffffffffffffffffffffffffffffffffffff166002600084815260200190815260200160002060009054906101000a900473ffffffffffffffffffffffffffffffffffffffff1673ffffffffffffffffffffffffffffffffffffffff1614159050919050565b600033905090565b816004600083815260200190815260200160002060006101000a81548173ffffffffffffffffffffffffffffffffffffffff021916908373ffffffffffffffffffffffffffffffffffffffff160217905550808273ffffffffffffffffffffffffffffffffffffffff16611750836109a6565b73ffffffffffffffffffffffffffffffffffffffff167f8c5be1e5ebec7d5bd14f71427d1e84f3dd0314c0f7b2291e5b200ac8c7c3b92560405160405180910390a45050565b60006117a182611669565b6117e0576040517f08c379a00000000000000000000000000000000000000000000000000000000081526004016117d79061301b565b60405180910390fd5b60006117eb836109a6565b90508073ffffffffffffffffffffffffffffffffffffffff168473ffffffffffffffffffffffffffffffffffffffff16148061185a57508373ffffffffffffffffffffffffffffffffffffffff16611842846105e2565b73ffffffffffffffffffffffffffffffffffffffff16145b8061186b575061186a81856113bf565b5b91505092915050565b8273ffffffffffffffffffffffffffffffffffffffff16611894826109a6565b73ffffffffffffffffffffffffffffffffffffffff16146118ea576040517f08c379a00000000000000000000000000000000000000000000000000000000081526004016118e1906130fb565b60405180910390fd5b600073ffffffffffffffffffffffffffffffffffffffff168273ffffffffffffffffffffffffffffffffffffffff16141561195a576040517f08c379a000000000000000000000000000000000000000000000000000000000815260040161195190612fdb565b60405180910390fd5b611965838383611d1b565b6119706000826116dd565b6001600360008573ffffffffffffffffffffffffffffffffffffffff1673ffffffffffffffffffffffffffffffffffffffff16815260200190815260200160002060008282546119c09190613336565b925050819055506001600360008473ffffffffffffffffffffffffffffffffffffffff1673ffffffffffffffffffffffffffffffffffffffff1681526020019081526020016000206000828254611a1791906132af565b92505081905550816002600083815260200190815260200160002060006101000a81548173ffffffffffffffffffffffffffffffffffffffff021916908373ffffffffffffffffffffffffffffffffffffffff160217905550808273ffffffffffffffffffffffffffffffffffffffff168473ffffffffffffffffffffffffffffffffffffffff167fddf252ad1be2c89b69c2b068fc378daa952ba7f163c4a11628f55a4df523b3ef60405160405180910390a4505050565b60008183611ade9190613305565b905092915050565b60008183611af49190613336565b905092915050565b81600b60008581526020019081526020016000206000016000828254611b2291906132af565b92505081905550600c600084815260200190815260200160002060008273ffffffffffffffffffffffffffffffffffffffff1673ffffffffffffffffffffffffffffffffffffffff16815260200190815260200160002060009054906101000a900460ff16611c23576001600c600085815260200190815260200160002060008373ffffffffffffffffffffffffffffffffffffffff1673ffffffffffffffffffffffffffffffffffffffff16815260200190815260200160002060006101000a81548160ff0219169083151502179055506001600b60008581526020019081526020016000206001016000828254611c1b91906132af565b925050819055505b505050565b611c33848484611874565b611c3f84848484611d20565b611c7e576040517f08c379a0000000000000000000000000000000000000000000000000000000008152600401611c7590612f7b565b60405180910390fd5b50505050565b611c9e828260405180602001604052806000815250611eb7565b5050565b81611cac81611669565b611ceb576040517f08c379a0000000000000000000000000000000000000000000000000000000008152600401611ce29061311b565b60405180910390fd5b81600b60008581526020019081526020016000206000820151816000015560208201518160010155905050505050565b505050565b6000611d418473ffffffffffffffffffffffffffffffffffffffff16611f12565b15611eaa578373ffffffffffffffffffffffffffffffffffffffff1663150b7a02611d6a6116d5565b8786866040518563ffffffff1660e01b8152600401611d8c9493929190612ea7565b602060405180830381600087803b158015611da657600080fd5b505af1925050508015611dd757506040513d601f19601f82011682018060405250810190611dd491906125d2565b60015b611e5a573d8060008114611e07576040519150601f19603f3d011682016040523d82523d6000602084013e611e0c565b606091505b50600081511415611e52576040517f08c379a0000000000000000000000000000000000000000000000000000000008152600401611e4990612f7b565b60405180910390fd5b805181602001fd5b63150b7a0260e01b7bffffffffffffffffffffffffffffffffffffffffffffffffffffffff1916817bffffffffffffffffffffffffffffffffffffffffffffffffffffffff191614915050611eaf565b600190505b949350505050565b611ec18383611f25565b611ece6000848484611d20565b611f0d576040517f08c379a0000000000000000000000000000000000000000000000000000000008152600401611f0490612f7b565b60405180910390fd5b505050565b600080823b905060008111915050919050565b600073ffffffffffffffffffffffffffffffffffffffff168273ffffffffffffffffffffffffffffffffffffffff161415611f95576040517f08c379a0000000000000000000000000000000000000000000000000000000008152600401611f8c9061309b565b60405180910390fd5b611f9e81611669565b15611fde576040517f08c379a0000000000000000000000000000000000000000000000000000000008152600401611fd590612fbb565b60405180910390fd5b611fea60008383611d1b565b6001600360008473ffffffffffffffffffffffffffffffffffffffff1673ffffffffffffffffffffffffffffffffffffffff168152602001908152602001600020600082825461203a91906132af565b92505081905550816002600083815260200190815260200160002060006101000a81548173ffffffffffffffffffffffffffffffffffffffff021916908373ffffffffffffffffffffffffffffffffffffffff160217905550808273ffffffffffffffffffffffffffffffffffffffff16600073ffffffffffffffffffffffffffffffffffffffff167fddf252ad1be2c89b69c2b068fc378daa952ba7f163c4a11628f55a4df523b3ef60405160405180910390a45050565b604051806040016040528060008152602001600081525090565b82805461211990613441565b90600052602060002090601f01602090048101928261213b5760008555612182565b82601f1061215457805160ff1916838001178555612182565b82800160010185558215612182579182015b82811115612181578251825591602001919060010190612166565b5b50905061218f9190612193565b5090565b5b808211156121ac576000816000905550600101612194565b5090565b60006121c36121be84613202565b6131d1565b9050828152602081018484840111156121db57600080fd5b6121e68482856133ff565b509392505050565b60006122016121fc84613232565b6131d1565b90508281526020810184848401111561221957600080fd5b6122248482856133ff565b509392505050565b60008135905061223b81613540565b92915050565b60008135905061225081613557565b92915050565b60008151905061226581613557565b92915050565b60008135905061227a8161356e565b92915050565b60008151905061228f8161356e565b92915050565b600082601f8301126122a657600080fd5b81356122b68482602086016121b0565b91505092915050565b600082601f8301126122d057600080fd5b81356122e08482602086016121ee565b91505092915050565b600060c082840312156122fb57600080fd5b61230560c06131d1565b90506000612315848285016123c4565b6000830152506020612329848285016123af565b602083015250604061233d848285016123af565b604083015250606061235184828501612256565b606083015250608061236584828501612256565b60808301525060a06123798482850161239a565b60a08301525092915050565b60008135905061239481613585565b92915050565b6000815190506123a981613585565b92915050565b6000815190506123be8161359c565b92915050565b6000815190506123d3816135b3565b92915050565b6000602082840312156123eb57600080fd5b60006123f98482850161222c565b91505092915050565b6000806040838503121561241557600080fd5b60006124238582860161222c565b92505060206124348582860161222c565b9150509250929050565b60008060006060848603121561245357600080fd5b60006124618682870161222c565b93505060206124728682870161222c565b925050604061248386828701612385565b9150509250925092565b600080600080608085870312156124a357600080fd5b60006124b18782880161222c565b94505060206124c28782880161222c565b93505060406124d387828801612385565b925050606085013567ffffffffffffffff8111156124f057600080fd5b6124fc87828801612295565b91505092959194509250565b6000806040838503121561251b57600080fd5b60006125298582860161222c565b925050602061253a85828601612241565b9150509250929050565b6000806040838503121561255757600080fd5b60006125658582860161222c565b925050602061257685828601612385565b9150509250929050565b60006020828403121561259257600080fd5b60006125a084828501612256565b91505092915050565b6000602082840312156125bb57600080fd5b60006125c98482850161226b565b91505092915050565b6000602082840312156125e457600080fd5b60006125f284828501612280565b91505092915050565b60006020828403121561260d57600080fd5b600082013567ffffffffffffffff81111561262757600080fd5b612633848285016122bf565b91505092915050565b600060c0828403121561264e57600080fd5b600061265c848285016122e9565b91505092915050565b60006020828403121561267757600080fd5b600061268584828501612385565b91505092915050565b600080604083850312156126a157600080fd5b60006126af85828601612385565b92505060206126c085828601612385565b9150509250929050565b6126d38161336a565b82525050565b6126e28161337c565b82525050565b60006126f382613277565b6126fd818561328d565b935061270d81856020860161340e565b6127168161352f565b840191505092915050565b600061272c82613282565b612736818561329e565b935061274681856020860161340e565b61274f8161352f565b840191505092915050565b6000815461276781613441565b612771818661329e565b9450600182166000811461278c576001811461279e576127d1565b60ff19831686526020860193506127d1565b6127a785613262565b60005b838110156127c9578154818901526001820191506020810190506127aa565b808801955050505b50505092915050565b60006127e760328361329e565b91507f4552433732313a207472616e7366657220746f206e6f6e20455243373231526560008301527f63656976657220696d706c656d656e74657200000000000000000000000000006020830152604082019050919050565b600061284d60268361329e565b91507f4f776e61626c653a206e6577206f776e657220697320746865207a65726f206160008301527f64647265737300000000000000000000000000000000000000000000000000006020830152604082019050919050565b60006128b3601c8361329e565b91507f4552433732313a20746f6b656e20616c7265616479206d696e746564000000006000830152602082019050919050565b60006128f360248361329e565b91507f4552433732313a207472616e7366657220746f20746865207a65726f2061646460008301527f72657373000000000000000000000000000000000000000000000000000000006020830152604082019050919050565b600061295960198361329e565b91507f4552433732313a20617070726f766520746f2063616c6c6572000000000000006000830152602082019050919050565b6000612999602c8361329e565b91507f4552433732313a206f70657261746f7220717565727920666f72206e6f6e657860008301527f697374656e7420746f6b656e00000000000000000000000000000000000000006020830152604082019050919050565b60006129ff60388361329e565b91507f4552433732313a20617070726f76652063616c6c6572206973206e6f74206f7760008301527f6e6572206e6f7220617070726f76656420666f7220616c6c00000000000000006020830152604082019050919050565b6000612a65602a8361329e565b91507f4552433732313a2062616c616e636520717565727920666f7220746865207a6560008301527f726f2061646472657373000000000000000000000000000000000000000000006020830152604082019050919050565b6000612acb60298361329e565b91507f4552433732313a206f776e657220717565727920666f72206e6f6e657869737460008301527f656e7420746f6b656e00000000000000000000000000000000000000000000006020830152604082019050919050565b6000612b3160208361329e565b91507f4552433732313a206d696e7420746f20746865207a65726f20616464726573736000830152602082019050919050565b6000612b71602c8361329e565b91507f4552433732313a20617070726f76656420717565727920666f72206e6f6e657860008301527f697374656e7420746f6b656e00000000000000000000000000000000000000006020830152604082019050919050565b6000612bd760208361329e565b91507f4f776e61626c653a2063616c6c6572206973206e6f7420746865206f776e65726000830152602082019050919050565b6000612c1760298361329e565b91507f4552433732313a207472616e73666572206f6620746f6b656e2074686174206960008301527f73206e6f74206f776e00000000000000000000000000000000000000000000006020830152604082019050919050565b6000612c7d602f8361329e565b91507f4552433732314d657461646174613a2055524920717565727920666f72206e6f60008301527f6e6578697374656e7420746f6b656e00000000000000000000000000000000006020830152604082019050919050565b6000612ce360218361329e565b91507f4552433732313a20617070726f76616c20746f2063757272656e74206f776e6560008301527f72000000000000000000000000000000000000000000000000000000000000006020830152604082019050919050565b6000612d4960318361329e565b91507f4552433732313a207472616e736665722063616c6c6572206973206e6f74206f60008301527f776e6572206e6f7220617070726f7665640000000000000000000000000000006020830152604082019050919050565b6000612daf60218361329e565b91507f506f7374613a20696e76616c69642075626920616d6f756e7420746f2062757260008301527f6e000000000000000000000000000000000000000000000000000000000000006020830152604082019050919050565b604082016000820151612e1e6000850182612e37565b506020820151612e316020850182612e37565b50505050565b612e40816133d4565b82525050565b612e4f816133d4565b82525050565b6000602082019050612e6a60008301846126ca565b92915050565b6000606082019050612e8560008301866126ca565b612e9260208301856126ca565b612e9f6040830184612e46565b949350505050565b6000608082019050612ebc60008301876126ca565b612ec960208301866126ca565b612ed66040830185612e46565b8181036060830152612ee881846126e8565b905095945050505050565b6000604082019050612f0860008301856126ca565b612f156020830184612e46565b9392505050565b6000602082019050612f3160008301846126d9565b92915050565b60006020820190508181036000830152612f518184612721565b905092915050565b60006020820190508181036000830152612f73818461275a565b905092915050565b60006020820190508181036000830152612f94816127da565b9050919050565b60006020820190508181036000830152612fb481612840565b9050919050565b60006020820190508181036000830152612fd4816128a6565b9050919050565b60006020820190508181036000830152612ff4816128e6565b9050919050565b600060208201905081810360008301526130148161294c565b9050919050565b600060208201905081810360008301526130348161298c565b9050919050565b60006020820190508181036000830152613054816129f2565b9050919050565b6000602082019050818103600083015261307481612a58565b9050919050565b6000602082019050818103600083015261309481612abe565b9050919050565b600060208201905081810360008301526130b481612b24565b9050919050565b600060208201905081810360008301526130d481612b64565b9050919050565b600060208201905081810360008301526130f481612bca565b9050919050565b6000602082019050818103600083015261311481612c0a565b9050919050565b6000602082019050818103600083015261313481612c70565b9050919050565b6000602082019050818103600083015261315481612cd6565b9050919050565b6000602082019050818103600083015261317481612d3c565b9050919050565b6000602082019050818103600083015261319481612da2565b9050919050565b60006040820190506131b06000830184612e08565b92915050565b60006020820190506131cb6000830184612e46565b92915050565b6000604051905081810181811067ffffffffffffffff821117156131f8576131f7613500565b5b8060405250919050565b600067ffffffffffffffff82111561321d5761321c613500565b5b601f19601f8301169050602081019050919050565b600067ffffffffffffffff82111561324d5761324c613500565b5b601f19601f8301169050602081019050919050565b60008190508160005260206000209050919050565b600081519050919050565b600081519050919050565b600082825260208201905092915050565b600082825260208201905092915050565b60006132ba826133d4565b91506132c5836133d4565b9250827fffffffffffffffffffffffffffffffffffffffffffffffffffffffffffffffff038211156132fa576132f9613473565b5b828201905092915050565b6000613310826133d4565b915061331b836133d4565b92508261332b5761332a6134a2565b5b828204905092915050565b6000613341826133d4565b915061334c836133d4565b92508282101561335f5761335e613473565b5b828203905092915050565b6000613375826133b4565b9050919050565b60008115159050919050565b60007fffffffff0000000000000000000000000000000000000000000000000000000082169050919050565b600073ffffffffffffffffffffffffffffffffffffffff82169050919050565b6000819050919050565b600067ffffffffffffffff82169050919050565b600060ff82169050919050565b82818337600083830152505050565b60005b8381101561342c578082015181840152602081019050613411565b8381111561343b576000848401525b50505050565b6000600282049050600182168061345957607f821691505b6020821081141561346d5761346c6134d1565b5b50919050565b7f4e487b7100000000000000000000000000000000000000000000000000000000600052601160045260246000fd5b7f4e487b7100000000000000000000000000000000000000000000000000000000600052601260045260246000fd5b7f4e487b7100000000000000000000000000000000000000000000000000000000600052602260045260246000fd5b7f4e487b7100000000000000000000000000000000000000000000000000000000600052604160045260246000fd5b6000601f19601f8301169050919050565b6135498161336a565b811461355457600080fd5b50565b6135608161337c565b811461356b57600080fd5b50565b61357781613388565b811461358257600080fd5b50565b61358e816133d4565b811461359957600080fd5b50565b6135a5816133de565b81146135b057600080fd5b50565b6135bc816133f2565b81146135c757600080fd5b5056fea2646970667358221220b2500f245e8ab8138169cec7f2defd18c5b870745dcc72a7ab531eab7667ccfc64736f6c63430008000033",
  "immutableReferences": {},
  "source": "// SPDX-License-Identifier: MIT\r\npragma solidity 0.8.0;\r\n\r\nimport \"@openzeppelin/contracts/token/ERC721/ERC721.sol\";\r\nimport \"@openzeppelin/contracts/token/ERC20/IERC20.sol\";\r\nimport \"@openzeppelin/contracts/token/ERC20/extensions/ERC20Burnable.sol\";\r\nimport \"@openzeppelin/contracts/access/Ownable.sol\";\r\nimport \"@openzeppelin/contracts/utils/math/SafeMath.sol\";\r\nimport \"./IProofOfhumanity.sol\";\r\n\r\ncontract Posta is ERC721, Ownable {\r\n    \r\n    using SafeMath for uint256;\r\n\r\n    event NewPost(address indexed author, uint256 indexed tokenId, string value);\r\n\r\n    string HUMAN_NOT_REGISTERED = \"HUMAN_NOT_REGISTERED\";\r\n    string POST_TEXT_TOO_LONG = \"POST_TEXT_TOO_LONG\";\r\n\r\n    using Strings for uint256;\r\n    address private _ubi;\r\n    uint256 private _maxChars;\r\n\r\n    struct PostaData {\r\n        \r\n        // Ammount given as support\r\n        uint256 supportGiven;\r\n        \r\n        // Total number of unique humans that support this post\r\n        uint256 supportersCount;\r\n    }\r\n    \r\n    // Mapping for NFTS\r\n    mapping (uint256 => PostaData) private _posts;\r\n\r\n    // Mapping for humans that support each post\r\n    mapping(uint256 => mapping(address => bool)) _supporters;\r\n\r\n    address private _poh;\r\n    // Base URI\r\n    string private _baseURIextended;\r\n\r\n    uint256 private _tokenCounter;\r\n    \r\n\r\n    /// Require that an address is a valid registered human.\r\n    modifier isHuman(address _submission) {\r\n        IProofOfHumanity.SubmissionInfo memory info = IProofOfHumanity(_poh).getSubmissionInfo(_submission);\r\n        require(info.registered, HUMAN_NOT_REGISTERED);\r\n        _;\r\n    }\r\n\r\n    /// Require that a token has been minted\r\n    modifier tokenExists(uint256 tokenId) {\r\n        require(_exists(tokenId), \"ERC721Metadata: URI query for nonexistent token\");\r\n        _;\r\n    }\r\n\r\n    constructor(address poh, address ubi, uint256 maxChars) public ERC721(\"Posta\", \"PSTA\") {\r\n        _tokenCounter = 0;\r\n        _poh = poh;\r\n        _ubi = ubi;\r\n        _maxChars = maxChars;\r\n    }\r\n\r\n    function publishPost(string memory text) public isHuman(_msgSender()) returns(uint256)  {\r\n        require(bytes(text).length <= _maxChars, POST_TEXT_TOO_LONG);\r\n\r\n        // Get the new token iD  \r\n        uint256 newItemId = _tokenCounter;\r\n\r\n        // Mint the NFT with the new ID\r\n        _safeMint(_msgSender(), newItemId);\r\n\r\n        // Generate the post NFT storage data\r\n        PostaData memory post = PostaData({\r\n            supportGiven: 0,\r\n            supportersCount: 0\r\n        });\r\n\r\n        // Set the post dat to the token\r\n        _setPost(newItemId, post);\r\n        \r\n        // Update the token counter\r\n        _tokenCounter = _tokenCounter +1;\r\n\r\n        emit NewPost(_msgSender(), newItemId, text);\r\n\r\n        // Return the new token ID\r\n        return newItemId;\r\n    }\r\n\r\n     function setBaseURI(string memory baseURI_) external onlyOwner() {\r\n        _baseURIextended = baseURI_;\r\n    }\r\n    \r\n    function _baseURI() internal view virtual override returns (string memory) {\r\n        return _baseURIextended;\r\n    }\r\n\r\n    function _setPost(uint256 tokenId, PostaData memory data) internal virtual tokenExists(tokenId) {\r\n     _posts[tokenId] = data;\r\n    }\r\n\r\n    /// @dev Set the max length allowed for posts.\r\n    function setMaxChars(uint256 maxChars) public onlyOwner() {\r\n        _maxChars = maxChars;\r\n    }\r\n\r\n    function getMaxChars() public view returns(uint256) {\r\n        return _maxChars;\r\n    }\r\n    \r\n    function tokenURI(uint256 tokenId) public view virtual override tokenExists(tokenId) returns (string memory) {\r\n        return \"USE LOGS TO GET DATA\";\r\n        // PostaData memory post = _posts[tokenId];\r\n        // string memory base = _baseURI();\r\n        \r\n        // // If there is no base URI, return the token URI.\r\n        // if (bytes(base).length == 0) {\r\n        //     return post.tokenURI;\r\n        // }\r\n        // // If both are set, concatenate the baseURI and tokenURI (via abi.encodePacked).\r\n        // if (bytes(post.tokenURI).length > 0) {\r\n        //     return string(abi.encodePacked(base, post.tokenURI));\r\n        // }\r\n        // // If there is a baseURI but no tokenURI, concatenate the tokenID to the baseURI.\r\n        // return string(abi.encodePacked(base, tokenId.toString()));\r\n    }\r\n\r\n    function getTokenCounter() public view returns(uint256) {\r\n        return _tokenCounter;\r\n    }\r\n\r\n    function getPost(uint256 tokenId) public view virtual tokenExists(tokenId) returns (PostaData memory) {\r\n        return _posts[tokenId];\r\n    }\r\n\r\n    /**\r\n     * Gives support to this posta and burns the UBI. \r\n     * Supporters count is only added once per human.\r\n     * If a Human gives support multiple times it will only count as one supporter.\r\n     */\r\n    function support(uint256 tokenId, uint256 ubiAmount) public tokenExists(tokenId) {\r\n\r\n        // ammount to burn\r\n        uint256 toBurn = ubiAmount.div(2);\r\n        require(toBurn > 0, \"Posta: invalid ubi amount to burn\");\r\n        \r\n        // Burn the UBI on behalf of the caller.\r\n        ERC20Burnable(_ubi).burnFrom(_msgSender(), toBurn);\r\n        \r\n        // Transfer remainder to posta creator\r\n        uint256 forCreator = ubiAmount.sub(toBurn);\r\n        if(forCreator > 0) { \r\n            ERC20(_ubi).transferFrom(_msgSender(), ownerOf(tokenId), forCreator);\r\n        }\r\n\r\n        // Add support based on ubi amount\r\n        _addSupport(tokenId, ubiAmount, _msgSender());\r\n        \r\n    }\r\n\r\n    function _addSupport(uint256 tokenId, uint256 amount, address supporter) private {\r\n        \r\n         // Add the amount of support given\r\n        _posts[tokenId].supportGiven += amount;\r\n\r\n        // If is first support, add 1 supporter.\r\n        if(!_supporters[tokenId][supporter]) {\r\n            _supporters[tokenId][supporter] = true;\r\n            _posts[tokenId].supportersCount += 1;\r\n        }\r\n    }\r\n}",
  "sourcePath": "E:/Code/Repos/JuanuMusic/posta/posta-contracts/contracts/Posta.sol",
  "compiler": {
    "name": "solc",
    "version": "0.8.0+commit.c7dfd78e.Emscripten.clang"
  },
  "schemaVersion": "3.3.4",
  "updatedAt": "2021-06-26T21:43:38.718Z",
  "networkType": "ethereum",
  "devdoc": {
    "kind": "dev",
    "methods": {
      "approve(address,uint256)": {
        "details": "See {IERC721-approve}."
      },
      "balanceOf(address)": {
        "details": "See {IERC721-balanceOf}."
      },
      "getApproved(uint256)": {
        "details": "See {IERC721-getApproved}."
      },
      "isApprovedForAll(address,address)": {
        "details": "See {IERC721-isApprovedForAll}."
      },
      "name()": {
        "details": "See {IERC721Metadata-name}."
      },
      "owner()": {
        "details": "Returns the address of the current owner."
      },
      "ownerOf(uint256)": {
        "details": "See {IERC721-ownerOf}."
      },
      "renounceOwnership()": {
        "details": "Leaves the contract without owner. It will not be possible to call `onlyOwner` functions anymore. Can only be called by the current owner. NOTE: Renouncing ownership will leave the contract without an owner, thereby removing any functionality that is only available to the owner."
      },
      "safeTransferFrom(address,address,uint256)": {
        "details": "See {IERC721-safeTransferFrom}."
      },
      "safeTransferFrom(address,address,uint256,bytes)": {
        "details": "See {IERC721-safeTransferFrom}."
      },
      "setApprovalForAll(address,bool)": {
        "details": "See {IERC721-setApprovalForAll}."
      },
      "setMaxChars(uint256)": {
        "details": "Set the max length allowed for posts."
      },
      "supportsInterface(bytes4)": {
        "details": "See {IERC165-supportsInterface}."
      },
      "symbol()": {
        "details": "See {IERC721Metadata-symbol}."
      },
      "tokenURI(uint256)": {
        "details": "See {IERC721Metadata-tokenURI}."
      },
      "transferFrom(address,address,uint256)": {
        "details": "See {IERC721-transferFrom}."
      },
      "transferOwnership(address)": {
        "details": "Transfers ownership of the contract to a new account (`newOwner`). Can only be called by the current owner."
      }
    },
    "version": 1
  },
  "userdoc": {
    "kind": "user",
    "methods": {
      "support(uint256,uint256)": {
        "notice": "Gives support to this posta and burns the UBI.  Supporters count is only added once per human. If a Human gives support multiple times it will only count as one supporter."
      }
    },
    "version": 1
  }
}